{
	"contracts/Voting.sol": {
		"Voting": {
			"abi": [
				{
					"inputs": [],
					"stateMutability": "nonpayable",
					"type": "constructor"
				},
				{
					"inputs": [],
					"name": "VotingStatus",
					"outputs": [
						{
							"internalType": "string",
							"name": "",
							"type": "string"
						}
					],
					"stateMutability": "view",
					"type": "function"
				},
				{
					"inputs": [
						{
							"internalType": "uint256",
							"name": "",
							"type": "uint256"
						}
					],
					"name": "candidateDetails",
					"outputs": [
						{
							"internalType": "string",
							"name": "name",
							"type": "string"
						},
						{
							"internalType": "string",
							"name": "party",
							"type": "string"
						},
						{
							"internalType": "uint256",
							"name": "age",
							"type": "uint256"
						},
						{
							"internalType": "string",
							"name": "gender",
							"type": "string"
						},
						{
							"internalType": "uint256",
							"name": "candidateId",
							"type": "uint256"
						},
						{
							"internalType": "address",
							"name": "candidateAddress",
							"type": "address"
						},
						{
							"internalType": "uint256",
							"name": "votes",
							"type": "uint256"
						}
					],
					"stateMutability": "view",
					"type": "function"
				},
				{
					"inputs": [],
					"name": "candidateList",
					"outputs": [
						{
							"components": [
								{
									"internalType": "string",
									"name": "name",
									"type": "string"
								},
								{
									"internalType": "string",
									"name": "party",
									"type": "string"
								},
								{
									"internalType": "uint256",
									"name": "age",
									"type": "uint256"
								},
								{
									"internalType": "string",
									"name": "gender",
									"type": "string"
								},
								{
									"internalType": "uint256",
									"name": "candidateId",
									"type": "uint256"
								},
								{
									"internalType": "address",
									"name": "candidateAddress",
									"type": "address"
								},
								{
									"internalType": "uint256",
									"name": "votes",
									"type": "uint256"
								}
							],
							"internalType": "struct Voting.Candidate[]",
							"name": "",
							"type": "tuple[]"
						}
					],
					"stateMutability": "view",
					"type": "function"
				},
				{
					"inputs": [
						{
							"internalType": "address",
							"name": "_person",
							"type": "address"
						}
					],
					"name": "candidateVerification",
					"outputs": [
						{
							"internalType": "bool",
							"name": "",
							"type": "bool"
						}
					],
					"stateMutability": "view",
					"type": "function"
				},
				{
					"inputs": [],
					"name": "emergency",
					"outputs": [],
					"stateMutability": "nonpayable",
					"type": "function"
				},
				{
					"inputs": [],
					"name": "result",
					"outputs": [],
					"stateMutability": "view",
					"type": "function"
				},
				{
					"inputs": [
						{
							"internalType": "uint256",
							"name": "_startTime",
							"type": "uint256"
						},
						{
							"internalType": "uint256",
							"name": "_endTime",
							"type": "uint256"
						}
					],
					"name": "startVoting",
					"outputs": [],
					"stateMutability": "nonpayable",
					"type": "function"
				},
				{
					"inputs": [
						{
							"internalType": "uint256",
							"name": "_voterId",
							"type": "uint256"
						},
						{
							"internalType": "uint256",
							"name": "_id",
							"type": "uint256"
						}
					],
					"name": "vote",
					"outputs": [],
					"stateMutability": "nonpayable",
					"type": "function"
				},
				{
					"inputs": [
						{
							"internalType": "string",
							"name": "_name",
							"type": "string"
						},
						{
							"internalType": "uint256",
							"name": "_age",
							"type": "uint256"
						},
						{
							"internalType": "string",
							"name": "_gender",
							"type": "string"
						}
					],
					"name": "voteRegister",
					"outputs": [],
					"stateMutability": "nonpayable",
					"type": "function"
				},
				{
					"inputs": [
						{
							"internalType": "uint256",
							"name": "",
							"type": "uint256"
						}
					],
					"name": "voterDetails",
					"outputs": [
						{
							"internalType": "string",
							"name": "name",
							"type": "string"
						},
						{
							"internalType": "uint256",
							"name": "age",
							"type": "uint256"
						},
						{
							"internalType": "uint256",
							"name": "voterId",
							"type": "uint256"
						},
						{
							"internalType": "string",
							"name": "gender",
							"type": "string"
						},
						{
							"internalType": "uint256",
							"name": "voteCandidateId",
							"type": "uint256"
						},
						{
							"internalType": "address",
							"name": "voterAddress",
							"type": "address"
						}
					],
					"stateMutability": "view",
					"type": "function"
				},
				{
					"inputs": [],
					"name": "voterList",
					"outputs": [
						{
							"components": [
								{
									"internalType": "string",
									"name": "name",
									"type": "string"
								},
								{
									"internalType": "uint256",
									"name": "age",
									"type": "uint256"
								},
								{
									"internalType": "uint256",
									"name": "voterId",
									"type": "uint256"
								},
								{
									"internalType": "string",
									"name": "gender",
									"type": "string"
								},
								{
									"internalType": "uint256",
									"name": "voteCandidateId",
									"type": "uint256"
								},
								{
									"internalType": "address",
									"name": "voterAddress",
									"type": "address"
								}
							],
							"internalType": "struct Voting.Voter[]",
							"name": "",
							"type": "tuple[]"
						}
					],
					"stateMutability": "view",
					"type": "function"
				}
			],
			"devdoc": {
				"kind": "dev",
				"methods": {},
				"version": 1
			},
			"evm": {
				"assembly": "    /* \"contracts/Voting.sol\":68:4743  contract Voting{... */\n  mstore(0x40, 0x80)\n    /* \"contracts/Voting.sol\":491:492  1 */\n  0x01\n    /* \"contracts/Voting.sol\":474:492  uint nextVoterId=1 */\n  0x00\n  sstore\n    /* \"contracts/Voting.sol\":520:521  1 */\n  0x01\n    /* \"contracts/Voting.sol\":499:521  uint nextCandidateId=1 */\n  dup1\n  sstore\n    /* \"contracts/Voting.sol\":750:809  constructor(){... */\n  callvalue\n  dup1\n  iszero\n  tag_1\n  jumpi\n  0x00\n  dup1\n  revert\ntag_1:\n  pop\n    /* \"contracts/Voting.sol\":791:801  msg.sender */\n  caller\n    /* \"contracts/Voting.sol\":774:790  electionComision */\n  0x05\n  0x00\n    /* \"contracts/Voting.sol\":774:801  electionComision=msg.sender */\n  0x0100\n  exp\n  dup2\n  sload\n  dup2\n  0xffffffffffffffffffffffffffffffffffffffff\n  mul\n  not\n  and\n  swap1\n  dup4\n  0xffffffffffffffffffffffffffffffffffffffff\n  and\n  mul\n  or\n  swap1\n  sstore\n  pop\n    /* \"contracts/Voting.sol\":68:4743  contract Voting{... */\n  dataSize(sub_0)\n  dup1\n  dataOffset(sub_0)\n  0x00\n  codecopy\n  0x00\n  return\nstop\n\nsub_0: assembly {\n        /* \"contracts/Voting.sol\":68:4743  contract Voting{... */\n      mstore(0x40, 0x80)\n      callvalue\n      dup1\n      iszero\n      tag_1\n      jumpi\n      0x00\n      dup1\n      revert\n    tag_1:\n      pop\n      jumpi(tag_2, lt(calldatasize, 0x04))\n      shr(0xe0, calldataload(0x00))\n      dup1\n      0x845d26e0\n      gt\n      tag_14\n      jumpi\n      dup1\n      0x845d26e0\n      eq\n      tag_8\n      jumpi\n      dup1\n      0x87579148\n      eq\n      tag_9\n      jumpi\n      dup1\n      0x90fe5609\n      eq\n      tag_10\n      jumpi\n      dup1\n      0xb384abef\n      eq\n      tag_11\n      jumpi\n      dup1\n      0xcaa6fea4\n      eq\n      tag_12\n      jumpi\n      dup1\n      0xcca3f136\n      eq\n      tag_13\n      jumpi\n      jump(tag_2)\n    tag_14:\n      dup1\n      0x24089918\n      eq\n      tag_3\n      jumpi\n      dup1\n      0x322f029d\n      eq\n      tag_4\n      jumpi\n      dup1\n      0x498ea441\n      eq\n      tag_5\n      jumpi\n      dup1\n      0x6247e532\n      eq\n      tag_6\n      jumpi\n      dup1\n      0x65372147\n      eq\n      tag_7\n      jumpi\n    tag_2:\n      0x00\n      dup1\n      revert\n        /* \"contracts/Voting.sol\":2867:3111  function voterList() public view returns(Voter[] memory){... */\n    tag_3:\n      tag_15\n      tag_16\n      jump\t// in\n    tag_15:\n      mload(0x40)\n      tag_17\n      swap2\n      swap1\n      tag_18\n      jump\t// in\n    tag_17:\n      mload(0x40)\n      dup1\n      swap2\n      sub\n      swap1\n      return\n        /* \"contracts/Voting.sol\":646:686  mapping(uint=>Voter) public voterDetails */\n    tag_4:\n      tag_19\n      0x04\n      dup1\n      calldatasize\n      sub\n      dup2\n      add\n      swap1\n      tag_20\n      swap2\n      swap1\n      tag_21\n      jump\t// in\n    tag_20:\n      tag_22\n      jump\t// in\n    tag_19:\n      mload(0x40)\n      tag_23\n      swap7\n      swap6\n      swap5\n      swap4\n      swap3\n      swap2\n      swap1\n      tag_24\n      jump\t// in\n    tag_23:\n      mload(0x40)\n      dup1\n      swap2\n      sub\n      swap1\n      return\n        /* \"contracts/Voting.sol\":1883:2236  function candidateList() public view returns(Candidate[] memory) {... */\n    tag_5:\n      tag_25\n      tag_26\n      jump\t// in\n    tag_25:\n      mload(0x40)\n      tag_27\n      swap2\n      swap1\n      tag_28\n      jump\t// in\n    tag_27:\n      mload(0x40)\n      dup1\n      swap2\n      sub\n      swap1\n      return\n        /* \"contracts/Voting.sol\":693:741  mapping(uint=>Candidate) public candidateDetails */\n    tag_6:\n      tag_29\n      0x04\n      dup1\n      calldatasize\n      sub\n      dup2\n      add\n      swap1\n      tag_30\n      swap2\n      swap1\n      tag_21\n      jump\t// in\n    tag_30:\n      tag_31\n      jump\t// in\n    tag_29:\n      mload(0x40)\n      tag_32\n      swap8\n      swap7\n      swap6\n      swap5\n      swap4\n      swap3\n      swap2\n      swap1\n      tag_33\n      jump\t// in\n    tag_32:\n      mload(0x40)\n      dup1\n      swap2\n      sub\n      swap1\n      return\n        /* \"contracts/Voting.sol\":4296:4734  function result() external view onlyCommisioner() isVotingOver(){... */\n    tag_7:\n      tag_34\n      tag_35\n      jump\t// in\n    tag_34:\n      stop\n        /* \"contracts/Voting.sol\":1605:1875  function candidateVerification(address _person) public view returns(bool){... */\n    tag_8:\n      tag_36\n      0x04\n      dup1\n      calldatasize\n      sub\n      dup2\n      add\n      swap1\n      tag_37\n      swap2\n      swap1\n      tag_38\n      jump\t// in\n    tag_37:\n      tag_39\n      jump\t// in\n    tag_36:\n      mload(0x40)\n      tag_40\n      swap2\n      swap1\n      tag_41\n      jump\t// in\n    tag_40:\n      mload(0x40)\n      dup1\n      swap2\n      sub\n      swap1\n      return\n        /* \"contracts/Voting.sol\":2244:2591  function voteRegister(string calldata _name,uint _age,string calldata _gender) public {... */\n    tag_9:\n      tag_42\n      0x04\n      dup1\n      calldatasize\n      sub\n      dup2\n      add\n      swap1\n      tag_43\n      swap2\n      swap1\n      tag_44\n      jump\t// in\n    tag_43:\n      tag_45\n      jump\t// in\n    tag_42:\n      stop\n        /* \"contracts/Voting.sol\":3667:3866  function startVoting(uint _startTime,uint _endTime) external onlyCommisioner(){... */\n    tag_10:\n      tag_46\n      0x04\n      dup1\n      calldatasize\n      sub\n      dup2\n      add\n      swap1\n      tag_47\n      swap2\n      swap1\n      tag_48\n      jump\t// in\n    tag_47:\n      tag_49\n      jump\t// in\n    tag_46:\n      stop\n        /* \"contracts/Voting.sol\":3119:3659  function vote(uint _voterId,uint _id) external isVotingOver {... */\n    tag_11:\n      tag_50\n      0x04\n      dup1\n      calldatasize\n      sub\n      dup2\n      add\n      swap1\n      tag_51\n      swap2\n      swap1\n      tag_48\n      jump\t// in\n    tag_51:\n      tag_52\n      jump\t// in\n    tag_50:\n      stop\n        /* \"contracts/Voting.sol\":3874:3953  function emergency() public onlyCommisioner(){... */\n    tag_12:\n      tag_53\n      tag_54\n      jump\t// in\n    tag_53:\n      stop\n        /* \"contracts/Voting.sol\":3961:4290  function VotingStatus() public view returns(string memory){... */\n    tag_13:\n      tag_55\n      tag_56\n      jump\t// in\n    tag_55:\n      mload(0x40)\n      tag_57\n      swap2\n      swap1\n      tag_58\n      jump\t// in\n    tag_57:\n      mload(0x40)\n      dup1\n      swap2\n      sub\n      swap1\n      return\n        /* \"contracts/Voting.sol\":2867:3111  function voterList() public view returns(Voter[] memory){... */\n    tag_16:\n        /* \"contracts/Voting.sol\":2908:2922  Voter[] memory */\n      0x60\n        /* \"contracts/Voting.sol\":2934:2955  Voter[] memory voters */\n      0x00\n        /* \"contracts/Voting.sol\":2982:2983  1 */\n      0x01\n        /* \"contracts/Voting.sol\":2970:2981  nextVoterId */\n      sload(0x00)\n        /* \"contracts/Voting.sol\":2970:2983  nextVoterId-1 */\n      tag_60\n      swap2\n      swap1\n      tag_61\n      jump\t// in\n    tag_60:\n        /* \"contracts/Voting.sol\":2958:2984  new Voter[](nextVoterId-1) */\n      0xffffffffffffffff\n      dup2\n      gt\n      iszero\n      tag_62\n      jumpi\n      tag_63\n      tag_64\n      jump\t// in\n    tag_63:\n    tag_62:\n      mload(0x40)\n      swap1\n      dup1\n      dup3\n      mstore\n      dup1\n      0x20\n      mul\n      0x20\n      add\n      dup3\n      add\n      0x40\n      mstore\n      dup1\n      iszero\n      tag_65\n      jumpi\n      dup2\n      0x20\n      add\n    tag_66:\n      tag_67\n      tag_68\n      jump\t// in\n    tag_67:\n      dup2\n      mstore\n      0x20\n      add\n      swap1\n      0x01\n      swap1\n      sub\n      swap1\n      dup2\n      tag_66\n      jumpi\n      swap1\n      pop\n    tag_65:\n      pop\n        /* \"contracts/Voting.sol\":2934:2984  Voter[] memory voters = new Voter[](nextVoterId-1) */\n      swap1\n      pop\n        /* \"contracts/Voting.sol\":2999:3005  uint i */\n      0x00\n        /* \"contracts/Voting.sol\":2995:3080  for(uint i=0;i<nextVoterId;i++){... */\n    tag_69:\n        /* \"contracts/Voting.sol\":3010:3021  nextVoterId */\n      sload(0x00)\n        /* \"contracts/Voting.sol\":3008:3009  i */\n      dup2\n        /* \"contracts/Voting.sol\":3008:3021  i<nextVoterId */\n      lt\n        /* \"contracts/Voting.sol\":2995:3080  for(uint i=0;i<nextVoterId;i++){... */\n      iszero\n      tag_70\n      jumpi\n        /* \"contracts/Voting.sol\":3053:3065  voterDetails */\n      0x06\n        /* \"contracts/Voting.sol\":3053:3068  voterDetails[i] */\n      0x00\n        /* \"contracts/Voting.sol\":3066:3067  i */\n      dup3\n        /* \"contracts/Voting.sol\":3053:3068  voterDetails[i] */\n      dup2\n      mstore\n      0x20\n      add\n      swap1\n      dup2\n      mstore\n      0x20\n      add\n      0x00\n      keccak256\n        /* \"contracts/Voting.sol\":3041:3068  voters[i-1]=voterDetails[i] */\n      mload(0x40)\n      dup1\n      0xc0\n      add\n      0x40\n      mstore\n      swap1\n      dup2\n      0x00\n      dup3\n      add\n      dup1\n      sload\n      tag_72\n      swap1\n      tag_73\n      jump\t// in\n    tag_72:\n      dup1\n      0x1f\n      add\n      0x20\n      dup1\n      swap2\n      div\n      mul\n      0x20\n      add\n      mload(0x40)\n      swap1\n      dup2\n      add\n      0x40\n      mstore\n      dup1\n      swap3\n      swap2\n      swap1\n      dup2\n      dup2\n      mstore\n      0x20\n      add\n      dup3\n      dup1\n      sload\n      tag_74\n      swap1\n      tag_73\n      jump\t// in\n    tag_74:\n      dup1\n      iszero\n      tag_75\n      jumpi\n      dup1\n      0x1f\n      lt\n      tag_76\n      jumpi\n      0x0100\n      dup1\n      dup4\n      sload\n      div\n      mul\n      dup4\n      mstore\n      swap2\n      0x20\n      add\n      swap2\n      jump(tag_75)\n    tag_76:\n      dup3\n      add\n      swap2\n      swap1\n      0x00\n      mstore\n      keccak256(0x00, 0x20)\n      swap1\n    tag_77:\n      dup2\n      sload\n      dup2\n      mstore\n      swap1\n      0x01\n      add\n      swap1\n      0x20\n      add\n      dup1\n      dup4\n      gt\n      tag_77\n      jumpi\n      dup3\n      swap1\n      sub\n      0x1f\n      and\n      dup3\n      add\n      swap2\n    tag_75:\n      pop\n      pop\n      pop\n      pop\n      pop\n      dup2\n      mstore\n      0x20\n      add\n      0x01\n      dup3\n      add\n      sload\n      dup2\n      mstore\n      0x20\n      add\n      0x02\n      dup3\n      add\n      sload\n      dup2\n      mstore\n      0x20\n      add\n      0x03\n      dup3\n      add\n      dup1\n      sload\n      tag_78\n      swap1\n      tag_73\n      jump\t// in\n    tag_78:\n      dup1\n      0x1f\n      add\n      0x20\n      dup1\n      swap2\n      div\n      mul\n      0x20\n      add\n      mload(0x40)\n      swap1\n      dup2\n      add\n      0x40\n      mstore\n      dup1\n      swap3\n      swap2\n      swap1\n      dup2\n      dup2\n      mstore\n      0x20\n      add\n      dup3\n      dup1\n      sload\n      tag_79\n      swap1\n      tag_73\n      jump\t// in\n    tag_79:\n      dup1\n      iszero\n      tag_80\n      jumpi\n      dup1\n      0x1f\n      lt\n      tag_81\n      jumpi\n      0x0100\n      dup1\n      dup4\n      sload\n      div\n      mul\n      dup4\n      mstore\n      swap2\n      0x20\n      add\n      swap2\n      jump(tag_80)\n    tag_81:\n      dup3\n      add\n      swap2\n      swap1\n      0x00\n      mstore\n      keccak256(0x00, 0x20)\n      swap1\n    tag_82:\n      dup2\n      sload\n      dup2\n      mstore\n      swap1\n      0x01\n      add\n      swap1\n      0x20\n      add\n      dup1\n      dup4\n      gt\n      tag_82\n      jumpi\n      dup3\n      swap1\n      sub\n      0x1f\n      and\n      dup3\n      add\n      swap2\n    tag_80:\n      pop\n      pop\n      pop\n      pop\n      pop\n      dup2\n      mstore\n      0x20\n      add\n      0x04\n      dup3\n      add\n      sload\n      dup2\n      mstore\n      0x20\n      add\n      0x05\n      dup3\n      add\n      0x00\n      swap1\n      sload\n      swap1\n      0x0100\n      exp\n      swap1\n      div\n      0xffffffffffffffffffffffffffffffffffffffff\n      and\n      0xffffffffffffffffffffffffffffffffffffffff\n      and\n      0xffffffffffffffffffffffffffffffffffffffff\n      and\n      dup2\n      mstore\n      pop\n      pop\n        /* \"contracts/Voting.sol\":3041:3047  voters */\n      dup3\n        /* \"contracts/Voting.sol\":3050:3051  1 */\n      0x01\n        /* \"contracts/Voting.sol\":3048:3049  i */\n      dup4\n        /* \"contracts/Voting.sol\":3048:3051  i-1 */\n      tag_83\n      swap2\n      swap1\n      tag_61\n      jump\t// in\n    tag_83:\n        /* \"contracts/Voting.sol\":3041:3052  voters[i-1] */\n      dup2\n      mload\n      dup2\n      lt\n      tag_84\n      jumpi\n      tag_85\n      tag_86\n      jump\t// in\n    tag_85:\n    tag_84:\n      0x20\n      mul\n      0x20\n      add\n      add\n        /* \"contracts/Voting.sol\":3041:3068  voters[i-1]=voterDetails[i] */\n      dup2\n      swap1\n      mstore\n      pop\n        /* \"contracts/Voting.sol\":3022:3025  i++ */\n      dup1\n      dup1\n      tag_87\n      swap1\n      tag_88\n      jump\t// in\n    tag_87:\n      swap2\n      pop\n      pop\n        /* \"contracts/Voting.sol\":2995:3080  for(uint i=0;i<nextVoterId;i++){... */\n      jump(tag_69)\n    tag_70:\n      pop\n        /* \"contracts/Voting.sol\":3097:3103  voters */\n      dup1\n        /* \"contracts/Voting.sol\":3090:3103  return voters */\n      swap2\n      pop\n      pop\n        /* \"contracts/Voting.sol\":2867:3111  function voterList() public view returns(Voter[] memory){... */\n      swap1\n      jump\t// out\n        /* \"contracts/Voting.sol\":646:686  mapping(uint=>Voter) public voterDetails */\n    tag_22:\n      mstore(0x20, 0x06)\n      dup1\n      0x00\n      mstore\n      keccak256(0x00, 0x40)\n      0x00\n      swap2\n      pop\n      swap1\n      pop\n      dup1\n      0x00\n      add\n      dup1\n      sload\n      tag_89\n      swap1\n      tag_73\n      jump\t// in\n    tag_89:\n      dup1\n      0x1f\n      add\n      0x20\n      dup1\n      swap2\n      div\n      mul\n      0x20\n      add\n      mload(0x40)\n      swap1\n      dup2\n      add\n      0x40\n      mstore\n      dup1\n      swap3\n      swap2\n      swap1\n      dup2\n      dup2\n      mstore\n      0x20\n      add\n      dup3\n      dup1\n      sload\n      tag_90\n      swap1\n      tag_73\n      jump\t// in\n    tag_90:\n      dup1\n      iszero\n      tag_91\n      jumpi\n      dup1\n      0x1f\n      lt\n      tag_92\n      jumpi\n      0x0100\n      dup1\n      dup4\n      sload\n      div\n      mul\n      dup4\n      mstore\n      swap2\n      0x20\n      add\n      swap2\n      jump(tag_91)\n    tag_92:\n      dup3\n      add\n      swap2\n      swap1\n      0x00\n      mstore\n      keccak256(0x00, 0x20)\n      swap1\n    tag_93:\n      dup2\n      sload\n      dup2\n      mstore\n      swap1\n      0x01\n      add\n      swap1\n      0x20\n      add\n      dup1\n      dup4\n      gt\n      tag_93\n      jumpi\n      dup3\n      swap1\n      sub\n      0x1f\n      and\n      dup3\n      add\n      swap2\n    tag_91:\n      pop\n      pop\n      pop\n      pop\n      pop\n      swap1\n      dup1\n      0x01\n      add\n      sload\n      swap1\n      dup1\n      0x02\n      add\n      sload\n      swap1\n      dup1\n      0x03\n      add\n      dup1\n      sload\n      tag_94\n      swap1\n      tag_73\n      jump\t// in\n    tag_94:\n      dup1\n      0x1f\n      add\n      0x20\n      dup1\n      swap2\n      div\n      mul\n      0x20\n      add\n      mload(0x40)\n      swap1\n      dup2\n      add\n      0x40\n      mstore\n      dup1\n      swap3\n      swap2\n      swap1\n      dup2\n      dup2\n      mstore\n      0x20\n      add\n      dup3\n      dup1\n      sload\n      tag_95\n      swap1\n      tag_73\n      jump\t// in\n    tag_95:\n      dup1\n      iszero\n      tag_96\n      jumpi\n      dup1\n      0x1f\n      lt\n      tag_97\n      jumpi\n      0x0100\n      dup1\n      dup4\n      sload\n      div\n      mul\n      dup4\n      mstore\n      swap2\n      0x20\n      add\n      swap2\n      jump(tag_96)\n    tag_97:\n      dup3\n      add\n      swap2\n      swap1\n      0x00\n      mstore\n      keccak256(0x00, 0x20)\n      swap1\n    tag_98:\n      dup2\n      sload\n      dup2\n      mstore\n      swap1\n      0x01\n      add\n      swap1\n      0x20\n      add\n      dup1\n      dup4\n      gt\n      tag_98\n      jumpi\n      dup3\n      swap1\n      sub\n      0x1f\n      and\n      dup3\n      add\n      swap2\n    tag_96:\n      pop\n      pop\n      pop\n      pop\n      pop\n      swap1\n      dup1\n      0x04\n      add\n      sload\n      swap1\n      dup1\n      0x05\n      add\n      0x00\n      swap1\n      sload\n      swap1\n      0x0100\n      exp\n      swap1\n      div\n      0xffffffffffffffffffffffffffffffffffffffff\n      and\n      swap1\n      pop\n      dup7\n      jump\t// out\n        /* \"contracts/Voting.sol\":1883:2236  function candidateList() public view returns(Candidate[] memory) {... */\n    tag_26:\n        /* \"contracts/Voting.sol\":1928:1946  Candidate[] memory */\n      0x60\n        /* \"contracts/Voting.sol\":1959:1988  Candidate[] memory candidates */\n      0x00\n        /* \"contracts/Voting.sol\":2023:2024  1 */\n      0x01\n        /* \"contracts/Voting.sol\":2007:2022  nextCandidateId */\n      dup1\n      sload\n        /* \"contracts/Voting.sol\":2007:2024  nextCandidateId-1 */\n      tag_100\n      swap2\n      swap1\n      tag_61\n      jump\t// in\n    tag_100:\n        /* \"contracts/Voting.sol\":1991:2025  new Candidate[](nextCandidateId-1) */\n      0xffffffffffffffff\n      dup2\n      gt\n      iszero\n      tag_101\n      jumpi\n      tag_102\n      tag_64\n      jump\t// in\n    tag_102:\n    tag_101:\n      mload(0x40)\n      swap1\n      dup1\n      dup3\n      mstore\n      dup1\n      0x20\n      mul\n      0x20\n      add\n      dup3\n      add\n      0x40\n      mstore\n      dup1\n      iszero\n      tag_103\n      jumpi\n      dup2\n      0x20\n      add\n    tag_104:\n      tag_105\n      tag_106\n      jump\t// in\n    tag_105:\n      dup2\n      mstore\n      0x20\n      add\n      swap1\n      0x01\n      swap1\n      sub\n      swap1\n      dup2\n      tag_104\n      jumpi\n      swap1\n      pop\n    tag_103:\n      pop\n        /* \"contracts/Voting.sol\":1959:2025  Candidate[] memory candidates = new Candidate[](nextCandidateId-1) */\n      swap1\n      pop\n        /* \"contracts/Voting.sol\":2108:2114  uint i */\n      0x00\n        /* \"contracts/Voting.sol\":2115:2116  1 */\n      0x01\n        /* \"contracts/Voting.sol\":2108:2116  uint i=1 */\n      swap1\n      pop\n        /* \"contracts/Voting.sol\":2104:2201  for(uint i=1;i<nextCandidateId;i++){... */\n    tag_107:\n        /* \"contracts/Voting.sol\":2119:2134  nextCandidateId */\n      sload(0x01)\n        /* \"contracts/Voting.sol\":2117:2118  i */\n      dup2\n        /* \"contracts/Voting.sol\":2117:2134  i<nextCandidateId */\n      lt\n        /* \"contracts/Voting.sol\":2104:2201  for(uint i=1;i<nextCandidateId;i++){... */\n      iszero\n      tag_108\n      jumpi\n        /* \"contracts/Voting.sol\":2170:2186  candidateDetails */\n      0x07\n        /* \"contracts/Voting.sol\":2170:2189  candidateDetails[i] */\n      0x00\n        /* \"contracts/Voting.sol\":2187:2188  i */\n      dup3\n        /* \"contracts/Voting.sol\":2170:2189  candidateDetails[i] */\n      dup2\n      mstore\n      0x20\n      add\n      swap1\n      dup2\n      mstore\n      0x20\n      add\n      0x00\n      keccak256\n        /* \"contracts/Voting.sol\":2154:2189  candidates[i-1]=candidateDetails[i] */\n      mload(0x40)\n      dup1\n      0xe0\n      add\n      0x40\n      mstore\n      swap1\n      dup2\n      0x00\n      dup3\n      add\n      dup1\n      sload\n      tag_110\n      swap1\n      tag_73\n      jump\t// in\n    tag_110:\n      dup1\n      0x1f\n      add\n      0x20\n      dup1\n      swap2\n      div\n      mul\n      0x20\n      add\n      mload(0x40)\n      swap1\n      dup2\n      add\n      0x40\n      mstore\n      dup1\n      swap3\n      swap2\n      swap1\n      dup2\n      dup2\n      mstore\n      0x20\n      add\n      dup3\n      dup1\n      sload\n      tag_111\n      swap1\n      tag_73\n      jump\t// in\n    tag_111:\n      dup1\n      iszero\n      tag_112\n      jumpi\n      dup1\n      0x1f\n      lt\n      tag_113\n      jumpi\n      0x0100\n      dup1\n      dup4\n      sload\n      div\n      mul\n      dup4\n      mstore\n      swap2\n      0x20\n      add\n      swap2\n      jump(tag_112)\n    tag_113:\n      dup3\n      add\n      swap2\n      swap1\n      0x00\n      mstore\n      keccak256(0x00, 0x20)\n      swap1\n    tag_114:\n      dup2\n      sload\n      dup2\n      mstore\n      swap1\n      0x01\n      add\n      swap1\n      0x20\n      add\n      dup1\n      dup4\n      gt\n      tag_114\n      jumpi\n      dup3\n      swap1\n      sub\n      0x1f\n      and\n      dup3\n      add\n      swap2\n    tag_112:\n      pop\n      pop\n      pop\n      pop\n      pop\n      dup2\n      mstore\n      0x20\n      add\n      0x01\n      dup3\n      add\n      dup1\n      sload\n      tag_115\n      swap1\n      tag_73\n      jump\t// in\n    tag_115:\n      dup1\n      0x1f\n      add\n      0x20\n      dup1\n      swap2\n      div\n      mul\n      0x20\n      add\n      mload(0x40)\n      swap1\n      dup2\n      add\n      0x40\n      mstore\n      dup1\n      swap3\n      swap2\n      swap1\n      dup2\n      dup2\n      mstore\n      0x20\n      add\n      dup3\n      dup1\n      sload\n      tag_116\n      swap1\n      tag_73\n      jump\t// in\n    tag_116:\n      dup1\n      iszero\n      tag_117\n      jumpi\n      dup1\n      0x1f\n      lt\n      tag_118\n      jumpi\n      0x0100\n      dup1\n      dup4\n      sload\n      div\n      mul\n      dup4\n      mstore\n      swap2\n      0x20\n      add\n      swap2\n      jump(tag_117)\n    tag_118:\n      dup3\n      add\n      swap2\n      swap1\n      0x00\n      mstore\n      keccak256(0x00, 0x20)\n      swap1\n    tag_119:\n      dup2\n      sload\n      dup2\n      mstore\n      swap1\n      0x01\n      add\n      swap1\n      0x20\n      add\n      dup1\n      dup4\n      gt\n      tag_119\n      jumpi\n      dup3\n      swap1\n      sub\n      0x1f\n      and\n      dup3\n      add\n      swap2\n    tag_117:\n      pop\n      pop\n      pop\n      pop\n      pop\n      dup2\n      mstore\n      0x20\n      add\n      0x02\n      dup3\n      add\n      sload\n      dup2\n      mstore\n      0x20\n      add\n      0x03\n      dup3\n      add\n      dup1\n      sload\n      tag_120\n      swap1\n      tag_73\n      jump\t// in\n    tag_120:\n      dup1\n      0x1f\n      add\n      0x20\n      dup1\n      swap2\n      div\n      mul\n      0x20\n      add\n      mload(0x40)\n      swap1\n      dup2\n      add\n      0x40\n      mstore\n      dup1\n      swap3\n      swap2\n      swap1\n      dup2\n      dup2\n      mstore\n      0x20\n      add\n      dup3\n      dup1\n      sload\n      tag_121\n      swap1\n      tag_73\n      jump\t// in\n    tag_121:\n      dup1\n      iszero\n      tag_122\n      jumpi\n      dup1\n      0x1f\n      lt\n      tag_123\n      jumpi\n      0x0100\n      dup1\n      dup4\n      sload\n      div\n      mul\n      dup4\n      mstore\n      swap2\n      0x20\n      add\n      swap2\n      jump(tag_122)\n    tag_123:\n      dup3\n      add\n      swap2\n      swap1\n      0x00\n      mstore\n      keccak256(0x00, 0x20)\n      swap1\n    tag_124:\n      dup2\n      sload\n      dup2\n      mstore\n      swap1\n      0x01\n      add\n      swap1\n      0x20\n      add\n      dup1\n      dup4\n      gt\n      tag_124\n      jumpi\n      dup3\n      swap1\n      sub\n      0x1f\n      and\n      dup3\n      add\n      swap2\n    tag_122:\n      pop\n      pop\n      pop\n      pop\n      pop\n      dup2\n      mstore\n      0x20\n      add\n      0x04\n      dup3\n      add\n      sload\n      dup2\n      mstore\n      0x20\n      add\n      0x05\n      dup3\n      add\n      0x00\n      swap1\n      sload\n      swap1\n      0x0100\n      exp\n      swap1\n      div\n      0xffffffffffffffffffffffffffffffffffffffff\n      and\n      0xffffffffffffffffffffffffffffffffffffffff\n      and\n      0xffffffffffffffffffffffffffffffffffffffff\n      and\n      dup2\n      mstore\n      0x20\n      add\n      0x06\n      dup3\n      add\n      sload\n      dup2\n      mstore\n      pop\n      pop\n        /* \"contracts/Voting.sol\":2154:2164  candidates */\n      dup3\n        /* \"contracts/Voting.sol\":2167:2168  1 */\n      0x01\n        /* \"contracts/Voting.sol\":2165:2166  i */\n      dup4\n        /* \"contracts/Voting.sol\":2165:2168  i-1 */\n      tag_125\n      swap2\n      swap1\n      tag_61\n      jump\t// in\n    tag_125:\n        /* \"contracts/Voting.sol\":2154:2169  candidates[i-1] */\n      dup2\n      mload\n      dup2\n      lt\n      tag_126\n      jumpi\n      tag_127\n      tag_86\n      jump\t// in\n    tag_127:\n    tag_126:\n      0x20\n      mul\n      0x20\n      add\n      add\n        /* \"contracts/Voting.sol\":2154:2189  candidates[i-1]=candidateDetails[i] */\n      dup2\n      swap1\n      mstore\n      pop\n        /* \"contracts/Voting.sol\":2135:2138  i++ */\n      dup1\n      dup1\n      tag_128\n      swap1\n      tag_88\n      jump\t// in\n    tag_128:\n      swap2\n      pop\n      pop\n        /* \"contracts/Voting.sol\":2104:2201  for(uint i=1;i<nextCandidateId;i++){... */\n      jump(tag_107)\n    tag_108:\n      pop\n        /* \"contracts/Voting.sol\":2218:2228  candidates */\n      dup1\n        /* \"contracts/Voting.sol\":2211:2228  return candidates */\n      swap2\n      pop\n      pop\n        /* \"contracts/Voting.sol\":1883:2236  function candidateList() public view returns(Candidate[] memory) {... */\n      swap1\n      jump\t// out\n        /* \"contracts/Voting.sol\":693:741  mapping(uint=>Candidate) public candidateDetails */\n    tag_31:\n      mstore(0x20, 0x07)\n      dup1\n      0x00\n      mstore\n      keccak256(0x00, 0x40)\n      0x00\n      swap2\n      pop\n      swap1\n      pop\n      dup1\n      0x00\n      add\n      dup1\n      sload\n      tag_129\n      swap1\n      tag_73\n      jump\t// in\n    tag_129:\n      dup1\n      0x1f\n      add\n      0x20\n      dup1\n      swap2\n      div\n      mul\n      0x20\n      add\n      mload(0x40)\n      swap1\n      dup2\n      add\n      0x40\n      mstore\n      dup1\n      swap3\n      swap2\n      swap1\n      dup2\n      dup2\n      mstore\n      0x20\n      add\n      dup3\n      dup1\n      sload\n      tag_130\n      swap1\n      tag_73\n      jump\t// in\n    tag_130:\n      dup1\n      iszero\n      tag_131\n      jumpi\n      dup1\n      0x1f\n      lt\n      tag_132\n      jumpi\n      0x0100\n      dup1\n      dup4\n      sload\n      div\n      mul\n      dup4\n      mstore\n      swap2\n      0x20\n      add\n      swap2\n      jump(tag_131)\n    tag_132:\n      dup3\n      add\n      swap2\n      swap1\n      0x00\n      mstore\n      keccak256(0x00, 0x20)\n      swap1\n    tag_133:\n      dup2\n      sload\n      dup2\n      mstore\n      swap1\n      0x01\n      add\n      swap1\n      0x20\n      add\n      dup1\n      dup4\n      gt\n      tag_133\n      jumpi\n      dup3\n      swap1\n      sub\n      0x1f\n      and\n      dup3\n      add\n      swap2\n    tag_131:\n      pop\n      pop\n      pop\n      pop\n      pop\n      swap1\n      dup1\n      0x01\n      add\n      dup1\n      sload\n      tag_134\n      swap1\n      tag_73\n      jump\t// in\n    tag_134:\n      dup1\n      0x1f\n      add\n      0x20\n      dup1\n      swap2\n      div\n      mul\n      0x20\n      add\n      mload(0x40)\n      swap1\n      dup2\n      add\n      0x40\n      mstore\n      dup1\n      swap3\n      swap2\n      swap1\n      dup2\n      dup2\n      mstore\n      0x20\n      add\n      dup3\n      dup1\n      sload\n      tag_135\n      swap1\n      tag_73\n      jump\t// in\n    tag_135:\n      dup1\n      iszero\n      tag_136\n      jumpi\n      dup1\n      0x1f\n      lt\n      tag_137\n      jumpi\n      0x0100\n      dup1\n      dup4\n      sload\n      div\n      mul\n      dup4\n      mstore\n      swap2\n      0x20\n      add\n      swap2\n      jump(tag_136)\n    tag_137:\n      dup3\n      add\n      swap2\n      swap1\n      0x00\n      mstore\n      keccak256(0x00, 0x20)\n      swap1\n    tag_138:\n      dup2\n      sload\n      dup2\n      mstore\n      swap1\n      0x01\n      add\n      swap1\n      0x20\n      add\n      dup1\n      dup4\n      gt\n      tag_138\n      jumpi\n      dup3\n      swap1\n      sub\n      0x1f\n      and\n      dup3\n      add\n      swap2\n    tag_136:\n      pop\n      pop\n      pop\n      pop\n      pop\n      swap1\n      dup1\n      0x02\n      add\n      sload\n      swap1\n      dup1\n      0x03\n      add\n      dup1\n      sload\n      tag_139\n      swap1\n      tag_73\n      jump\t// in\n    tag_139:\n      dup1\n      0x1f\n      add\n      0x20\n      dup1\n      swap2\n      div\n      mul\n      0x20\n      add\n      mload(0x40)\n      swap1\n      dup2\n      add\n      0x40\n      mstore\n      dup1\n      swap3\n      swap2\n      swap1\n      dup2\n      dup2\n      mstore\n      0x20\n      add\n      dup3\n      dup1\n      sload\n      tag_140\n      swap1\n      tag_73\n      jump\t// in\n    tag_140:\n      dup1\n      iszero\n      tag_141\n      jumpi\n      dup1\n      0x1f\n      lt\n      tag_142\n      jumpi\n      0x0100\n      dup1\n      dup4\n      sload\n      div\n      mul\n      dup4\n      mstore\n      swap2\n      0x20\n      add\n      swap2\n      jump(tag_141)\n    tag_142:\n      dup3\n      add\n      swap2\n      swap1\n      0x00\n      mstore\n      keccak256(0x00, 0x20)\n      swap1\n    tag_143:\n      dup2\n      sload\n      dup2\n      mstore\n      swap1\n      0x01\n      add\n      swap1\n      0x20\n      add\n      dup1\n      dup4\n      gt\n      tag_143\n      jumpi\n      dup3\n      swap1\n      sub\n      0x1f\n      and\n      dup3\n      add\n      swap2\n    tag_141:\n      pop\n      pop\n      pop\n      pop\n      pop\n      swap1\n      dup1\n      0x04\n      add\n      sload\n      swap1\n      dup1\n      0x05\n      add\n      0x00\n      swap1\n      sload\n      swap1\n      0x0100\n      exp\n      swap1\n      div\n      0xffffffffffffffffffffffffffffffffffffffff\n      and\n      swap1\n      dup1\n      0x06\n      add\n      sload\n      swap1\n      pop\n      dup8\n      jump\t// out\n        /* \"contracts/Voting.sol\":4296:4734  function result() external view onlyCommisioner() isVotingOver(){... */\n    tag_35:\n        /* \"contracts/Voting.sol\":1010:1020  msg.sender */\n      caller\n        /* \"contracts/Voting.sol\":992:1020  electionComision==msg.sender */\n      0xffffffffffffffffffffffffffffffffffffffff\n      and\n        /* \"contracts/Voting.sol\":992:1008  electionComision */\n      0x05\n      0x00\n      swap1\n      sload\n      swap1\n      0x0100\n      exp\n      swap1\n      div\n      0xffffffffffffffffffffffffffffffffffffffff\n      and\n        /* \"contracts/Voting.sol\":992:1020  electionComision==msg.sender */\n      0xffffffffffffffffffffffffffffffffffffffff\n      and\n      eq\n        /* \"contracts/Voting.sol\":984:1051  require(electionComision==msg.sender,\"Not form Election Commision\") */\n      tag_145\n      jumpi\n      mload(0x40)\n      0x08c379a000000000000000000000000000000000000000000000000000000000\n      dup2\n      mstore\n      0x04\n      add\n      tag_146\n      swap1\n      tag_147\n      jump\t// in\n    tag_146:\n      mload(0x40)\n      dup1\n      swap2\n      sub\n      swap1\n      revert\n    tag_145:\n        /* \"contracts/Voting.sol\":873:880  endTime */\n      sload(0x03)\n        /* \"contracts/Voting.sol\":857:872  block.timestamp */\n      timestamp\n        /* \"contracts/Voting.sol\":857:880  block.timestamp>endTime */\n      gt\n        /* \"contracts/Voting.sol\":857:901  block.timestamp>endTime && stopVoting==false */\n      dup1\n      iszero\n      tag_149\n      jumpi\n      pop\n        /* \"contracts/Voting.sol\":896:901  false */\n      0x00\n        /* \"contracts/Voting.sol\":884:901  stopVoting==false */\n      iszero\n      iszero\n        /* \"contracts/Voting.sol\":884:894  stopVoting */\n      0x04\n      0x00\n      swap1\n      sload\n      swap1\n      0x0100\n      exp\n      swap1\n      div\n      0xff\n      and\n        /* \"contracts/Voting.sol\":884:901  stopVoting==false */\n      iszero\n      iszero\n      eq\n        /* \"contracts/Voting.sol\":857:901  block.timestamp>endTime && stopVoting==false */\n    tag_149:\n        /* \"contracts/Voting.sol\":849:919  require(block.timestamp>endTime && stopVoting==false,\"Voting is over\") */\n      tag_150\n      jumpi\n      mload(0x40)\n      0x08c379a000000000000000000000000000000000000000000000000000000000\n      dup2\n      mstore\n      0x04\n      add\n      tag_151\n      swap1\n      tag_152\n      jump\t// in\n    tag_151:\n      mload(0x40)\n      dup1\n      swap2\n      sub\n      swap1\n      revert\n    tag_150:\n        /* \"contracts/Voting.sol\":4395:4396  1 */\n      0x01\n        /* \"contracts/Voting.sol\":4379:4394  nextCandidateId */\n      dup1\n      sload\n        /* \"contracts/Voting.sol\":4379:4396  nextCandidateId>1 */\n      gt\n        /* \"contracts/Voting.sol\":4371:4421  require(nextCandidateId>1,\"No Candidate register\") */\n      tag_154\n      jumpi\n      mload(0x40)\n      0x08c379a000000000000000000000000000000000000000000000000000000000\n      dup2\n      mstore\n      0x04\n      add\n      tag_155\n      swap1\n      tag_156\n      jump\t// in\n    tag_155:\n      mload(0x40)\n      dup1\n      swap2\n      sub\n      swap1\n      revert\n    tag_154:\n        /* \"contracts/Voting.sol\":4432:4445  uint maxvotes */\n      0x00\n        /* \"contracts/Voting.sol\":4458:4479  address currentWinner */\n      dup1\n        /* \"contracts/Voting.sol\":4494:4500  uint i */\n      dup1\n        /* \"contracts/Voting.sol\":4501:4502  1 */\n      0x01\n        /* \"contracts/Voting.sol\":4494:4502  uint i=1 */\n      swap1\n      pop\n        /* \"contracts/Voting.sol\":4490:4727  for(uint i=1;i<nextCandidateId;i++){... */\n    tag_157:\n        /* \"contracts/Voting.sol\":4505:4520  nextCandidateId */\n      sload(0x01)\n        /* \"contracts/Voting.sol\":4503:4504  i */\n      dup2\n        /* \"contracts/Voting.sol\":4503:4520  i<nextCandidateId */\n      lt\n        /* \"contracts/Voting.sol\":4490:4727  for(uint i=1;i<nextCandidateId;i++){... */\n      iszero\n      tag_158\n      jumpi\n        /* \"contracts/Voting.sol\":4569:4577  maxvotes */\n      dup3\n        /* \"contracts/Voting.sol\":4543:4559  candidateDetails */\n      0x07\n        /* \"contracts/Voting.sol\":4543:4562  candidateDetails[i] */\n      0x00\n        /* \"contracts/Voting.sol\":4560:4561  i */\n      dup4\n        /* \"contracts/Voting.sol\":4543:4562  candidateDetails[i] */\n      dup2\n      mstore\n      0x20\n      add\n      swap1\n      dup2\n      mstore\n      0x20\n      add\n      0x00\n      keccak256\n        /* \"contracts/Voting.sol\":4543:4568  candidateDetails[i].votes */\n      0x06\n      add\n      sload\n        /* \"contracts/Voting.sol\":4543:4577  candidateDetails[i].votes>maxvotes */\n      gt\n        /* \"contracts/Voting.sol\":4540:4716  if(candidateDetails[i].votes>maxvotes){... */\n      iszero\n      tag_160\n      jumpi\n        /* \"contracts/Voting.sol\":4606:4622  candidateDetails */\n      0x07\n        /* \"contracts/Voting.sol\":4606:4625  candidateDetails[i] */\n      0x00\n        /* \"contracts/Voting.sol\":4623:4624  i */\n      dup3\n        /* \"contracts/Voting.sol\":4606:4625  candidateDetails[i] */\n      dup2\n      mstore\n      0x20\n      add\n      swap1\n      dup2\n      mstore\n      0x20\n      add\n      0x00\n      keccak256\n        /* \"contracts/Voting.sol\":4606:4631  candidateDetails[i].votes */\n      0x06\n      add\n      sload\n        /* \"contracts/Voting.sol\":4597:4631  maxvotes=candidateDetails[i].votes */\n      swap3\n      pop\n        /* \"contracts/Voting.sol\":4664:4680  candidateDetails */\n      0x07\n        /* \"contracts/Voting.sol\":4664:4683  candidateDetails[i] */\n      0x00\n        /* \"contracts/Voting.sol\":4681:4682  i */\n      dup3\n        /* \"contracts/Voting.sol\":4664:4683  candidateDetails[i] */\n      dup2\n      mstore\n      0x20\n      add\n      swap1\n      dup2\n      mstore\n      0x20\n      add\n      0x00\n      keccak256\n        /* \"contracts/Voting.sol\":4664:4700  candidateDetails[i].candidateAddress */\n      0x05\n      add\n      0x00\n      swap1\n      sload\n      swap1\n      0x0100\n      exp\n      swap1\n      div\n      0xffffffffffffffffffffffffffffffffffffffff\n      and\n        /* \"contracts/Voting.sol\":4650:4700  currentWinner=candidateDetails[i].candidateAddress */\n      swap2\n      pop\n        /* \"contracts/Voting.sol\":4540:4716  if(candidateDetails[i].votes>maxvotes){... */\n    tag_160:\n        /* \"contracts/Voting.sol\":4521:4524  i++ */\n      dup1\n      dup1\n      tag_161\n      swap1\n      tag_88\n      jump\t// in\n    tag_161:\n      swap2\n      pop\n      pop\n        /* \"contracts/Voting.sol\":4490:4727  for(uint i=1;i<nextCandidateId;i++){... */\n      jump(tag_157)\n    tag_158:\n      pop\n        /* \"contracts/Voting.sol\":4360:4734  {... */\n      pop\n      pop\n        /* \"contracts/Voting.sol\":4296:4734  function result() external view onlyCommisioner() isVotingOver(){... */\n      jump\t// out\n        /* \"contracts/Voting.sol\":1605:1875  function candidateVerification(address _person) public view returns(bool){... */\n    tag_39:\n        /* \"contracts/Voting.sol\":1673:1677  bool */\n      0x00\n        /* \"contracts/Voting.sol\":1693:1699  uint i */\n      dup1\n        /* \"contracts/Voting.sol\":1700:1701  0 */\n      0x00\n        /* \"contracts/Voting.sol\":1693:1701  uint i=0 */\n      swap1\n      pop\n        /* \"contracts/Voting.sol\":1689:1846  for(uint i=0;i<nextCandidateId;i++){... */\n    tag_163:\n        /* \"contracts/Voting.sol\":1704:1719  nextCandidateId */\n      sload(0x01)\n        /* \"contracts/Voting.sol\":1702:1703  i */\n      dup2\n        /* \"contracts/Voting.sol\":1702:1719  i<nextCandidateId */\n      lt\n        /* \"contracts/Voting.sol\":1689:1846  for(uint i=0;i<nextCandidateId;i++){... */\n      iszero\n      tag_164\n      jumpi\n        /* \"contracts/Voting.sol\":1780:1787  _person */\n      dup3\n        /* \"contracts/Voting.sol\":1742:1787  candidateDetails[i].candidateAddress==_person */\n      0xffffffffffffffffffffffffffffffffffffffff\n      and\n        /* \"contracts/Voting.sol\":1742:1758  candidateDetails */\n      0x07\n        /* \"contracts/Voting.sol\":1742:1761  candidateDetails[i] */\n      0x00\n        /* \"contracts/Voting.sol\":1759:1760  i */\n      dup4\n        /* \"contracts/Voting.sol\":1742:1761  candidateDetails[i] */\n      dup2\n      mstore\n      0x20\n      add\n      swap1\n      dup2\n      mstore\n      0x20\n      add\n      0x00\n      keccak256\n        /* \"contracts/Voting.sol\":1742:1778  candidateDetails[i].candidateAddress */\n      0x05\n      add\n      0x00\n      swap1\n      sload\n      swap1\n      0x0100\n      exp\n      swap1\n      div\n      0xffffffffffffffffffffffffffffffffffffffff\n      and\n        /* \"contracts/Voting.sol\":1742:1787  candidateDetails[i].candidateAddress==_person */\n      0xffffffffffffffffffffffffffffffffffffffff\n      and\n      sub\n        /* \"contracts/Voting.sol\":1739:1835  if(candidateDetails[i].candidateAddress==_person){... */\n      tag_166\n      jumpi\n        /* \"contracts/Voting.sol\":1814:1819  false */\n      0x00\n        /* \"contracts/Voting.sol\":1807:1819  return false */\n      swap2\n      pop\n      pop\n      jump(tag_162)\n        /* \"contracts/Voting.sol\":1739:1835  if(candidateDetails[i].candidateAddress==_person){... */\n    tag_166:\n        /* \"contracts/Voting.sol\":1720:1723  i++ */\n      dup1\n      dup1\n      tag_167\n      swap1\n      tag_88\n      jump\t// in\n    tag_167:\n      swap2\n      pop\n      pop\n        /* \"contracts/Voting.sol\":1689:1846  for(uint i=0;i<nextCandidateId;i++){... */\n      jump(tag_163)\n    tag_164:\n      pop\n        /* \"contracts/Voting.sol\":1863:1867  true */\n      0x01\n        /* \"contracts/Voting.sol\":1856:1867  return true */\n      swap1\n      pop\n        /* \"contracts/Voting.sol\":1605:1875  function candidateVerification(address _person) public view returns(bool){... */\n    tag_162:\n      swap2\n      swap1\n      pop\n      jump\t// out\n        /* \"contracts/Voting.sol\":2244:2591  function voteRegister(string calldata _name,uint _age,string calldata _gender) public {... */\n    tag_45:\n        /* \"contracts/Voting.sol\":2355:2357  18 */\n      0x12\n        /* \"contracts/Voting.sol\":2349:2353  _age */\n      dup4\n        /* \"contracts/Voting.sol\":2349:2357  _age>=18 */\n      lt\n      iszero\n        /* \"contracts/Voting.sol\":2341:2392  require(_age>=18,\"You are not eligible for voting\") */\n      tag_169\n      jumpi\n      mload(0x40)\n      0x08c379a000000000000000000000000000000000000000000000000000000000\n      dup2\n      mstore\n      0x04\n      add\n      tag_170\n      swap1\n      tag_171\n      jump\t// in\n    tag_170:\n      mload(0x40)\n      dup1\n      swap2\n      sub\n      swap1\n      revert\n    tag_169:\n        /* \"contracts/Voting.sol\":2442:2446  true */\n      0x01\n        /* \"contracts/Voting.sol\":2411:2446  voterVerification(msg.sender)==true */\n      iszero\n      iszero\n        /* \"contracts/Voting.sol\":2411:2440  voterVerification(msg.sender) */\n      tag_172\n        /* \"contracts/Voting.sol\":2429:2439  msg.sender */\n      caller\n        /* \"contracts/Voting.sol\":2411:2428  voterVerification */\n      tag_173\n        /* \"contracts/Voting.sol\":2411:2440  voterVerification(msg.sender) */\n      jump\t// in\n    tag_172:\n        /* \"contracts/Voting.sol\":2411:2446  voterVerification(msg.sender)==true */\n      iszero\n      iszero\n      eq\n        /* \"contracts/Voting.sol\":2403:2472  require(voterVerification(msg.sender)==true,\"You have already voted\") */\n      tag_174\n      jumpi\n      mload(0x40)\n      0x08c379a000000000000000000000000000000000000000000000000000000000\n      dup2\n      mstore\n      0x04\n      add\n      tag_175\n      swap1\n      tag_176\n      jump\t// in\n    tag_175:\n      mload(0x40)\n      dup1\n      swap2\n      sub\n      swap1\n      revert\n    tag_174:\n        /* \"contracts/Voting.sol\":2509:2559  Voter(_name,_age,nextVoterId,_gender,0,msg.sender) */\n      mload(0x40)\n      dup1\n      0xc0\n      add\n      0x40\n      mstore\n      dup1\n        /* \"contracts/Voting.sol\":2515:2520  _name */\n      dup7\n      dup7\n        /* \"contracts/Voting.sol\":2509:2559  Voter(_name,_age,nextVoterId,_gender,0,msg.sender) */\n      dup1\n      dup1\n      0x1f\n      add\n      0x20\n      dup1\n      swap2\n      div\n      mul\n      0x20\n      add\n      mload(0x40)\n      swap1\n      dup2\n      add\n      0x40\n      mstore\n      dup1\n      swap4\n      swap3\n      swap2\n      swap1\n      dup2\n      dup2\n      mstore\n      0x20\n      add\n      dup4\n      dup4\n      dup1\n      dup3\n      dup5\n      calldatacopy\n      0x00\n      dup2\n      dup5\n      add\n      mstore\n      not(0x1f)\n      0x1f\n      dup3\n      add\n      and\n      swap1\n      pop\n      dup1\n      dup4\n      add\n      swap3\n      pop\n      pop\n      pop\n      pop\n      pop\n      pop\n      pop\n      dup2\n      mstore\n      0x20\n      add\n        /* \"contracts/Voting.sol\":2521:2525  _age */\n      dup5\n        /* \"contracts/Voting.sol\":2509:2559  Voter(_name,_age,nextVoterId,_gender,0,msg.sender) */\n      dup2\n      mstore\n      0x20\n      add\n        /* \"contracts/Voting.sol\":2526:2537  nextVoterId */\n      sload(0x00)\n        /* \"contracts/Voting.sol\":2509:2559  Voter(_name,_age,nextVoterId,_gender,0,msg.sender) */\n      dup2\n      mstore\n      0x20\n      add\n        /* \"contracts/Voting.sol\":2538:2545  _gender */\n      dup4\n      dup4\n        /* \"contracts/Voting.sol\":2509:2559  Voter(_name,_age,nextVoterId,_gender,0,msg.sender) */\n      dup1\n      dup1\n      0x1f\n      add\n      0x20\n      dup1\n      swap2\n      div\n      mul\n      0x20\n      add\n      mload(0x40)\n      swap1\n      dup2\n      add\n      0x40\n      mstore\n      dup1\n      swap4\n      swap3\n      swap2\n      swap1\n      dup2\n      dup2\n      mstore\n      0x20\n      add\n      dup4\n      dup4\n      dup1\n      dup3\n      dup5\n      calldatacopy\n      0x00\n      dup2\n      dup5\n      add\n      mstore\n      not(0x1f)\n      0x1f\n      dup3\n      add\n      and\n      swap1\n      pop\n      dup1\n      dup4\n      add\n      swap3\n      pop\n      pop\n      pop\n      pop\n      pop\n      pop\n      pop\n      dup2\n      mstore\n      0x20\n      add\n        /* \"contracts/Voting.sol\":2546:2547  0 */\n      0x00\n        /* \"contracts/Voting.sol\":2509:2559  Voter(_name,_age,nextVoterId,_gender,0,msg.sender) */\n      dup2\n      mstore\n      0x20\n      add\n        /* \"contracts/Voting.sol\":2548:2558  msg.sender */\n      caller\n        /* \"contracts/Voting.sol\":2509:2559  Voter(_name,_age,nextVoterId,_gender,0,msg.sender) */\n      0xffffffffffffffffffffffffffffffffffffffff\n      and\n      dup2\n      mstore\n      pop\n        /* \"contracts/Voting.sol\":2483:2495  voterDetails */\n      0x06\n        /* \"contracts/Voting.sol\":2483:2508  voterDetails[nextVoterId] */\n      0x00\n        /* \"contracts/Voting.sol\":2496:2507  nextVoterId */\n      dup1\n      sload\n        /* \"contracts/Voting.sol\":2483:2508  voterDetails[nextVoterId] */\n      dup2\n      mstore\n      0x20\n      add\n      swap1\n      dup2\n      mstore\n      0x20\n      add\n      0x00\n      keccak256\n        /* \"contracts/Voting.sol\":2483:2559  voterDetails[nextVoterId]=Voter(_name,_age,nextVoterId,_gender,0,msg.sender) */\n      0x00\n      dup3\n      add\n      mload\n      dup2\n      0x00\n      add\n      swap1\n      dup2\n      tag_177\n      swap2\n      swap1\n      tag_178\n      jump\t// in\n    tag_177:\n      pop\n      0x20\n      dup3\n      add\n      mload\n      dup2\n      0x01\n      add\n      sstore\n      0x40\n      dup3\n      add\n      mload\n      dup2\n      0x02\n      add\n      sstore\n      0x60\n      dup3\n      add\n      mload\n      dup2\n      0x03\n      add\n      swap1\n      dup2\n      tag_179\n      swap2\n      swap1\n      tag_178\n      jump\t// in\n    tag_179:\n      pop\n      0x80\n      dup3\n      add\n      mload\n      dup2\n      0x04\n      add\n      sstore\n      0xa0\n      dup3\n      add\n      mload\n      dup2\n      0x05\n      add\n      exp(0x0100, 0x00)\n      dup2\n      sload\n      dup2\n      0xffffffffffffffffffffffffffffffffffffffff\n      mul\n      not\n      and\n      swap1\n      dup4\n      0xffffffffffffffffffffffffffffffffffffffff\n      and\n      mul\n      or\n      swap1\n      sstore\n      pop\n      swap1\n      pop\n      pop\n        /* \"contracts/Voting.sol\":2570:2581  nextVoterId */\n      0x00\n      dup1\n        /* \"contracts/Voting.sol\":2570:2583  nextVoterId++ */\n      dup2\n      sload\n      dup1\n      swap3\n      swap2\n      swap1\n      tag_180\n      swap1\n      tag_88\n      jump\t// in\n    tag_180:\n      swap2\n      swap1\n      pop\n      sstore\n      pop\n        /* \"contracts/Voting.sol\":2244:2591  function voteRegister(string calldata _name,uint _age,string calldata _gender) public {... */\n      pop\n      pop\n      pop\n      pop\n      pop\n      jump\t// out\n        /* \"contracts/Voting.sol\":3667:3866  function startVoting(uint _startTime,uint _endTime) external onlyCommisioner(){... */\n    tag_49:\n        /* \"contracts/Voting.sol\":1010:1020  msg.sender */\n      caller\n        /* \"contracts/Voting.sol\":992:1020  electionComision==msg.sender */\n      0xffffffffffffffffffffffffffffffffffffffff\n      and\n        /* \"contracts/Voting.sol\":992:1008  electionComision */\n      0x05\n      0x00\n      swap1\n      sload\n      swap1\n      0x0100\n      exp\n      swap1\n      div\n      0xffffffffffffffffffffffffffffffffffffffff\n      and\n        /* \"contracts/Voting.sol\":992:1020  electionComision==msg.sender */\n      0xffffffffffffffffffffffffffffffffffffffff\n      and\n      eq\n        /* \"contracts/Voting.sol\":984:1051  require(electionComision==msg.sender,\"Not form Election Commision\") */\n      tag_182\n      jumpi\n      mload(0x40)\n      0x08c379a000000000000000000000000000000000000000000000000000000000\n      dup2\n      mstore\n      0x04\n      add\n      tag_183\n      swap1\n      tag_147\n      jump\t// in\n    tag_183:\n      mload(0x40)\n      dup1\n      swap2\n      sub\n      swap1\n      revert\n    tag_182:\n        /* \"contracts/Voting.sol\":3782:3792  _startTime */\n      dup2\n        /* \"contracts/Voting.sol\":3766:3781  block.timestamp */\n      timestamp\n        /* \"contracts/Voting.sol\":3766:3792  block.timestamp+_startTime */\n      tag_185\n      swap2\n      swap1\n      tag_186\n      jump\t// in\n    tag_185:\n        /* \"contracts/Voting.sol\":3756:3765  startTime */\n      0x02\n        /* \"contracts/Voting.sol\":3756:3792  startTime=block.timestamp+_startTime */\n      dup2\n      swap1\n      sstore\n      pop\n        /* \"contracts/Voting.sol\":3823:3831  _endTime */\n      dup1\n        /* \"contracts/Voting.sol\":3811:3820  startTime */\n      sload(0x02)\n        /* \"contracts/Voting.sol\":3811:3831  startTime + _endTime */\n      tag_187\n      swap2\n      swap1\n      tag_186\n      jump\t// in\n    tag_187:\n        /* \"contracts/Voting.sol\":3803:3810  endTime */\n      0x03\n        /* \"contracts/Voting.sol\":3803:3831  endTime=startTime + _endTime */\n      dup2\n      swap1\n      sstore\n      pop\n        /* \"contracts/Voting.sol\":3853:3858  false */\n      0x00\n        /* \"contracts/Voting.sol\":3842:3852  stopVoting */\n      0x04\n      0x00\n        /* \"contracts/Voting.sol\":3842:3858  stopVoting=false */\n      0x0100\n      exp\n      dup2\n      sload\n      dup2\n      0xff\n      mul\n      not\n      and\n      swap1\n      dup4\n      iszero\n      iszero\n      mul\n      or\n      swap1\n      sstore\n      pop\n        /* \"contracts/Voting.sol\":3667:3866  function startVoting(uint _startTime,uint _endTime) external onlyCommisioner(){... */\n      pop\n      pop\n      jump\t// out\n        /* \"contracts/Voting.sol\":3119:3659  function vote(uint _voterId,uint _id) external isVotingOver {... */\n    tag_52:\n        /* \"contracts/Voting.sol\":873:880  endTime */\n      sload(0x03)\n        /* \"contracts/Voting.sol\":857:872  block.timestamp */\n      timestamp\n        /* \"contracts/Voting.sol\":857:880  block.timestamp>endTime */\n      gt\n        /* \"contracts/Voting.sol\":857:901  block.timestamp>endTime && stopVoting==false */\n      dup1\n      iszero\n      tag_189\n      jumpi\n      pop\n        /* \"contracts/Voting.sol\":896:901  false */\n      0x00\n        /* \"contracts/Voting.sol\":884:901  stopVoting==false */\n      iszero\n      iszero\n        /* \"contracts/Voting.sol\":884:894  stopVoting */\n      0x04\n      0x00\n      swap1\n      sload\n      swap1\n      0x0100\n      exp\n      swap1\n      div\n      0xff\n      and\n        /* \"contracts/Voting.sol\":884:901  stopVoting==false */\n      iszero\n      iszero\n      eq\n        /* \"contracts/Voting.sol\":857:901  block.timestamp>endTime && stopVoting==false */\n    tag_189:\n        /* \"contracts/Voting.sol\":849:919  require(block.timestamp>endTime && stopVoting==false,\"Voting is over\") */\n      tag_190\n      jumpi\n      mload(0x40)\n      0x08c379a000000000000000000000000000000000000000000000000000000000\n      dup2\n      mstore\n      0x04\n      add\n      tag_191\n      swap1\n      tag_152\n      jump\t// in\n    tag_191:\n      mload(0x40)\n      dup1\n      swap2\n      sub\n      swap1\n      revert\n    tag_190:\n        /* \"contracts/Voting.sol\":3238:3239  0 */\n      0x00\n        /* \"contracts/Voting.sol\":3198:3210  voterDetails */\n      0x06\n        /* \"contracts/Voting.sol\":3198:3220  voterDetails[_voterId] */\n      0x00\n        /* \"contracts/Voting.sol\":3211:3219  _voterId */\n      dup5\n        /* \"contracts/Voting.sol\":3198:3220  voterDetails[_voterId] */\n      dup2\n      mstore\n      0x20\n      add\n      swap1\n      dup2\n      mstore\n      0x20\n      add\n      0x00\n      keccak256\n        /* \"contracts/Voting.sol\":3198:3236  voterDetails[_voterId].voteCandidateId */\n      0x04\n      add\n      sload\n        /* \"contracts/Voting.sol\":3198:3239  voterDetails[_voterId].voteCandidateId==0 */\n      eq\n        /* \"contracts/Voting.sol\":3190:3265  require(voterDetails[_voterId].voteCandidateId==0,\"You have already voted\") */\n      tag_193\n      jumpi\n      mload(0x40)\n      0x08c379a000000000000000000000000000000000000000000000000000000000\n      dup2\n      mstore\n      0x04\n      add\n      tag_194\n      swap1\n      tag_176\n      jump\t// in\n    tag_194:\n      mload(0x40)\n      dup1\n      swap2\n      sub\n      swap1\n      revert\n    tag_193:\n        /* \"contracts/Voting.sol\":3321:3331  msg.sender */\n      caller\n        /* \"contracts/Voting.sol\":3284:3331  voterDetails[_voterId].voterAddress==msg.sender */\n      0xffffffffffffffffffffffffffffffffffffffff\n      and\n        /* \"contracts/Voting.sol\":3284:3296  voterDetails */\n      0x06\n        /* \"contracts/Voting.sol\":3284:3306  voterDetails[_voterId] */\n      0x00\n        /* \"contracts/Voting.sol\":3297:3305  _voterId */\n      dup5\n        /* \"contracts/Voting.sol\":3284:3306  voterDetails[_voterId] */\n      dup2\n      mstore\n      0x20\n      add\n      swap1\n      dup2\n      mstore\n      0x20\n      add\n      0x00\n      keccak256\n        /* \"contracts/Voting.sol\":3284:3319  voterDetails[_voterId].voterAddress */\n      0x05\n      add\n      0x00\n      swap1\n      sload\n      swap1\n      0x0100\n      exp\n      swap1\n      div\n      0xffffffffffffffffffffffffffffffffffffffff\n      and\n        /* \"contracts/Voting.sol\":3284:3331  voterDetails[_voterId].voterAddress==msg.sender */\n      0xffffffffffffffffffffffffffffffffffffffff\n      and\n      eq\n        /* \"contracts/Voting.sol\":3276:3354  require(voterDetails[_voterId].voterAddress==msg.sender,\"You are not a voter\") */\n      tag_195\n      jumpi\n      mload(0x40)\n      0x08c379a000000000000000000000000000000000000000000000000000000000\n      dup2\n      mstore\n      0x04\n      add\n      tag_196\n      swap1\n      tag_197\n      jump\t// in\n    tag_196:\n      mload(0x40)\n      dup1\n      swap2\n      sub\n      swap1\n      revert\n    tag_195:\n        /* \"contracts/Voting.sol\":3384:3385  0 */\n      0x00\n        /* \"contracts/Voting.sol\":3373:3382  startTime */\n      sload(0x02)\n        /* \"contracts/Voting.sol\":3373:3385  startTime!=0 */\n      sub\n        /* \"contracts/Voting.sol\":3365:3416  require(startTime!=0,\"Voting have not started yet\") */\n      tag_198\n      jumpi\n      mload(0x40)\n      0x08c379a000000000000000000000000000000000000000000000000000000000\n      dup2\n      mstore\n      0x04\n      add\n      tag_199\n      swap1\n      tag_200\n      jump\t// in\n    tag_199:\n      mload(0x40)\n      dup1\n      swap2\n      sub\n      swap1\n      revert\n    tag_198:\n        /* \"contracts/Voting.sol\":3452:3453  3 */\n      0x03\n        /* \"contracts/Voting.sol\":3435:3450  nextCandidateId */\n      sload(0x01)\n        /* \"contracts/Voting.sol\":3435:3453  nextCandidateId==3 */\n      eq\n        /* \"contracts/Voting.sol\":3427:3501  require(nextCandidateId==3,\"All candidate registration have not done yet\") */\n      tag_201\n      jumpi\n      mload(0x40)\n      0x08c379a000000000000000000000000000000000000000000000000000000000\n      dup2\n      mstore\n      0x04\n      add\n      tag_202\n      swap1\n      tag_203\n      jump\t// in\n    tag_202:\n      mload(0x40)\n      dup1\n      swap2\n      sub\n      swap1\n      revert\n    tag_201:\n        /* \"contracts/Voting.sol\":3524:3525  0 */\n      0x00\n        /* \"contracts/Voting.sol\":3520:3523  _id */\n      dup2\n        /* \"contracts/Voting.sol\":3520:3525  _id>0 */\n      gt\n        /* \"contracts/Voting.sol\":3520:3534  _id>0 && _id<3 */\n      dup1\n      iszero\n      tag_204\n      jumpi\n      pop\n        /* \"contracts/Voting.sol\":3533:3534  3 */\n      0x03\n        /* \"contracts/Voting.sol\":3529:3532  _id */\n      dup2\n        /* \"contracts/Voting.sol\":3529:3534  _id<3 */\n      lt\n        /* \"contracts/Voting.sol\":3520:3534  _id>0 && _id<3 */\n    tag_204:\n        /* \"contracts/Voting.sol\":3512:3558  require(_id>0 && _id<3,\"Invalid candidate id\") */\n      tag_205\n      jumpi\n      mload(0x40)\n      0x08c379a000000000000000000000000000000000000000000000000000000000\n      dup2\n      mstore\n      0x04\n      add\n      tag_206\n      swap1\n      tag_207\n      jump\t// in\n    tag_206:\n      mload(0x40)\n      dup1\n      swap2\n      sub\n      swap1\n      revert\n    tag_205:\n        /* \"contracts/Voting.sol\":3608:3611  _id */\n      dup1\n        /* \"contracts/Voting.sol\":3569:3581  voterDetails */\n      0x06\n        /* \"contracts/Voting.sol\":3569:3591  voterDetails[_voterId] */\n      0x00\n        /* \"contracts/Voting.sol\":3582:3590  _voterId */\n      dup5\n        /* \"contracts/Voting.sol\":3569:3591  voterDetails[_voterId] */\n      dup2\n      mstore\n      0x20\n      add\n      swap1\n      dup2\n      mstore\n      0x20\n      add\n      0x00\n      keccak256\n        /* \"contracts/Voting.sol\":3569:3607  voterDetails[_voterId].voteCandidateId */\n      0x04\n      add\n        /* \"contracts/Voting.sol\":3569:3611  voterDetails[_voterId].voteCandidateId=_id */\n      dup2\n      swap1\n      sstore\n      pop\n        /* \"contracts/Voting.sol\":3622:3638  candidateDetails */\n      0x07\n        /* \"contracts/Voting.sol\":3622:3643  candidateDetails[_id] */\n      0x00\n        /* \"contracts/Voting.sol\":3639:3642  _id */\n      dup3\n        /* \"contracts/Voting.sol\":3622:3643  candidateDetails[_id] */\n      dup2\n      mstore\n      0x20\n      add\n      swap1\n      dup2\n      mstore\n      0x20\n      add\n      0x00\n      keccak256\n        /* \"contracts/Voting.sol\":3622:3649  candidateDetails[_id].votes */\n      0x06\n      add\n      0x00\n        /* \"contracts/Voting.sol\":3622:3651  candidateDetails[_id].votes++ */\n      dup2\n      sload\n      dup1\n      swap3\n      swap2\n      swap1\n      tag_208\n      swap1\n      tag_88\n      jump\t// in\n    tag_208:\n      swap2\n      swap1\n      pop\n      sstore\n      pop\n        /* \"contracts/Voting.sol\":3119:3659  function vote(uint _voterId,uint _id) external isVotingOver {... */\n      pop\n      pop\n      jump\t// out\n        /* \"contracts/Voting.sol\":3874:3953  function emergency() public onlyCommisioner(){... */\n    tag_54:\n        /* \"contracts/Voting.sol\":1010:1020  msg.sender */\n      caller\n        /* \"contracts/Voting.sol\":992:1020  electionComision==msg.sender */\n      0xffffffffffffffffffffffffffffffffffffffff\n      and\n        /* \"contracts/Voting.sol\":992:1008  electionComision */\n      0x05\n      0x00\n      swap1\n      sload\n      swap1\n      0x0100\n      exp\n      swap1\n      div\n      0xffffffffffffffffffffffffffffffffffffffff\n      and\n        /* \"contracts/Voting.sol\":992:1020  electionComision==msg.sender */\n      0xffffffffffffffffffffffffffffffffffffffff\n      and\n      eq\n        /* \"contracts/Voting.sol\":984:1051  require(electionComision==msg.sender,\"Not form Election Commision\") */\n      tag_210\n      jumpi\n      mload(0x40)\n      0x08c379a000000000000000000000000000000000000000000000000000000000\n      dup2\n      mstore\n      0x04\n      add\n      tag_211\n      swap1\n      tag_147\n      jump\t// in\n    tag_211:\n      mload(0x40)\n      dup1\n      swap2\n      sub\n      swap1\n      revert\n    tag_210:\n        /* \"contracts/Voting.sol\":3941:3945  true */\n      0x01\n        /* \"contracts/Voting.sol\":3930:3940  stopVoting */\n      0x04\n      0x00\n        /* \"contracts/Voting.sol\":3930:3945  stopVoting=true */\n      0x0100\n      exp\n      dup2\n      sload\n      dup2\n      0xff\n      mul\n      not\n      and\n      swap1\n      dup4\n      iszero\n      iszero\n      mul\n      or\n      swap1\n      sstore\n      pop\n        /* \"contracts/Voting.sol\":3874:3953  function emergency() public onlyCommisioner(){... */\n      jump\t// out\n        /* \"contracts/Voting.sol\":3961:4290  function VotingStatus() public view returns(string memory){... */\n    tag_56:\n        /* \"contracts/Voting.sol\":4005:4018  string memory */\n      0x60\n        /* \"contracts/Voting.sol\":4044:4045  0 */\n      0x00\n        /* \"contracts/Voting.sol\":4033:4042  startTime */\n      sload(0x02)\n        /* \"contracts/Voting.sol\":4033:4045  startTime==0 */\n      sub\n        /* \"contracts/Voting.sol\":4030:4283  if(startTime==0){... */\n      tag_214\n      jumpi\n        /* \"contracts/Voting.sol\":4061:4092  return \"Voting has not started\" */\n      mload(0x40)\n      dup1\n      0x40\n      add\n      0x40\n      mstore\n      dup1\n      0x16\n      dup2\n      mstore\n      0x20\n      add\n      0x566f74696e6720686173206e6f74207374617274656400000000000000000000\n      dup2\n      mstore\n      pop\n      swap1\n      pop\n      jump(tag_213)\n        /* \"contracts/Voting.sol\":4030:4283  if(startTime==0){... */\n    tag_214:\n        /* \"contracts/Voting.sol\":4134:4135  0 */\n      0x00\n        /* \"contracts/Voting.sol\":4123:4132  startTime */\n      sload(0x02)\n        /* \"contracts/Voting.sol\":4123:4135  startTime!=0 */\n      eq\n      iszero\n        /* \"contracts/Voting.sol\":4123:4162  startTime!=0 && endTime>block.timestamp */\n      dup1\n      iszero\n      tag_216\n      jumpi\n      pop\n        /* \"contracts/Voting.sol\":4147:4162  block.timestamp */\n      timestamp\n        /* \"contracts/Voting.sol\":4139:4146  endTime */\n      sload(0x03)\n        /* \"contracts/Voting.sol\":4139:4162  endTime>block.timestamp */\n      gt\n        /* \"contracts/Voting.sol\":4123:4162  startTime!=0 && endTime>block.timestamp */\n    tag_216:\n        /* \"contracts/Voting.sol\":4122:4183  (startTime!=0 && endTime>block.timestamp)&& stopVoting==false */\n      dup1\n      iszero\n      tag_217\n      jumpi\n      pop\n        /* \"contracts/Voting.sol\":4178:4183  false */\n      0x00\n        /* \"contracts/Voting.sol\":4166:4183  stopVoting==false */\n      iszero\n      iszero\n        /* \"contracts/Voting.sol\":4166:4176  stopVoting */\n      0x04\n      0x00\n      swap1\n      sload\n      swap1\n      0x0100\n      exp\n      swap1\n      div\n      0xff\n      and\n        /* \"contracts/Voting.sol\":4166:4183  stopVoting==false */\n      iszero\n      iszero\n      eq\n        /* \"contracts/Voting.sol\":4122:4183  (startTime!=0 && endTime>block.timestamp)&& stopVoting==false */\n    tag_217:\n        /* \"contracts/Voting.sol\":4119:4283  if((startTime!=0 && endTime>block.timestamp)&& stopVoting==false){... */\n      iszero\n      tag_218\n      jumpi\n        /* \"contracts/Voting.sol\":4199:4226  return \"Voting in progress\" */\n      mload(0x40)\n      dup1\n      0x40\n      add\n      0x40\n      mstore\n      dup1\n      0x12\n      dup2\n      mstore\n      0x20\n      add\n      0x566f74696e6720696e2070726f67726573730000000000000000000000000000\n      dup2\n      mstore\n      pop\n      swap1\n      pop\n      jump(tag_213)\n        /* \"contracts/Voting.sol\":4119:4283  if((startTime!=0 && endTime>block.timestamp)&& stopVoting==false){... */\n    tag_218:\n        /* \"contracts/Voting.sol\":4257:4271  return \"Ended\" */\n      mload(0x40)\n      dup1\n      0x40\n      add\n      0x40\n      mstore\n      dup1\n      0x05\n      dup2\n      mstore\n      0x20\n      add\n      0x456e646564000000000000000000000000000000000000000000000000000000\n      dup2\n      mstore\n      pop\n      swap1\n      pop\n        /* \"contracts/Voting.sol\":3961:4290  function VotingStatus() public view returns(string memory){... */\n    tag_213:\n      swap1\n      jump\t// out\n        /* \"contracts/Voting.sol\":2599:2859  function voterVerification(address _person) internal view returns(bool) {... */\n    tag_173:\n        /* \"contracts/Voting.sol\":2665:2669  bool */\n      0x00\n        /* \"contracts/Voting.sol\":2686:2692  uint i */\n      dup1\n        /* \"contracts/Voting.sol\":2693:2694  1 */\n      0x01\n        /* \"contracts/Voting.sol\":2686:2694  uint i=1 */\n      swap1\n      pop\n        /* \"contracts/Voting.sol\":2682:2830  for(uint i=1;i<nextVoterId;i++){... */\n    tag_221:\n        /* \"contracts/Voting.sol\":2697:2708  nextVoterId */\n      sload(0x00)\n        /* \"contracts/Voting.sol\":2695:2696  i */\n      dup2\n        /* \"contracts/Voting.sol\":2695:2708  i<nextVoterId */\n      lt\n        /* \"contracts/Voting.sol\":2682:2830  for(uint i=1;i<nextVoterId;i++){... */\n      iszero\n      tag_222\n      jumpi\n        /* \"contracts/Voting.sol\":2764:2771  _person */\n      dup3\n        /* \"contracts/Voting.sol\":2731:2771  voterDetails[i].voterAddress  == _person */\n      0xffffffffffffffffffffffffffffffffffffffff\n      and\n        /* \"contracts/Voting.sol\":2731:2743  voterDetails */\n      0x06\n        /* \"contracts/Voting.sol\":2731:2746  voterDetails[i] */\n      0x00\n        /* \"contracts/Voting.sol\":2744:2745  i */\n      dup4\n        /* \"contracts/Voting.sol\":2731:2746  voterDetails[i] */\n      dup2\n      mstore\n      0x20\n      add\n      swap1\n      dup2\n      mstore\n      0x20\n      add\n      0x00\n      keccak256\n        /* \"contracts/Voting.sol\":2731:2759  voterDetails[i].voterAddress */\n      0x05\n      add\n      0x00\n      swap1\n      sload\n      swap1\n      0x0100\n      exp\n      swap1\n      div\n      0xffffffffffffffffffffffffffffffffffffffff\n      and\n        /* \"contracts/Voting.sol\":2731:2771  voterDetails[i].voterAddress  == _person */\n      0xffffffffffffffffffffffffffffffffffffffff\n      and\n      sub\n        /* \"contracts/Voting.sol\":2728:2819  if(voterDetails[i].voterAddress  == _person){... */\n      tag_224\n      jumpi\n        /* \"contracts/Voting.sol\":2798:2803  false */\n      0x00\n        /* \"contracts/Voting.sol\":2791:2803  return false */\n      swap2\n      pop\n      pop\n      jump(tag_220)\n        /* \"contracts/Voting.sol\":2728:2819  if(voterDetails[i].voterAddress  == _person){... */\n    tag_224:\n        /* \"contracts/Voting.sol\":2709:2712  i++ */\n      dup1\n      dup1\n      tag_225\n      swap1\n      tag_88\n      jump\t// in\n    tag_225:\n      swap2\n      pop\n      pop\n        /* \"contracts/Voting.sol\":2682:2830  for(uint i=1;i<nextVoterId;i++){... */\n      jump(tag_221)\n    tag_222:\n      pop\n        /* \"contracts/Voting.sol\":2847:2851  true */\n      0x01\n        /* \"contracts/Voting.sol\":2840:2851  return true */\n      swap1\n      pop\n        /* \"contracts/Voting.sol\":2599:2859  function voterVerification(address _person) internal view returns(bool) {... */\n    tag_220:\n      swap2\n      swap1\n      pop\n      jump\t// out\n    tag_68:\n      mload(0x40)\n      dup1\n      0xc0\n      add\n      0x40\n      mstore\n      dup1\n      0x60\n      dup2\n      mstore\n      0x20\n      add\n      0x00\n      dup2\n      mstore\n      0x20\n      add\n      0x00\n      dup2\n      mstore\n      0x20\n      add\n      0x60\n      dup2\n      mstore\n      0x20\n      add\n      0x00\n      dup2\n      mstore\n      0x20\n      add\n      and(0xffffffffffffffffffffffffffffffffffffffff, 0x00)\n      dup2\n      mstore\n      pop\n      swap1\n      jump\t// out\n    tag_106:\n      mload(0x40)\n      dup1\n      0xe0\n      add\n      0x40\n      mstore\n      dup1\n      0x60\n      dup2\n      mstore\n      0x20\n      add\n      0x60\n      dup2\n      mstore\n      0x20\n      add\n      0x00\n      dup2\n      mstore\n      0x20\n      add\n      0x60\n      dup2\n      mstore\n      0x20\n      add\n      0x00\n      dup2\n      mstore\n      0x20\n      add\n      and(0xffffffffffffffffffffffffffffffffffffffff, 0x00)\n      dup2\n      mstore\n      0x20\n      add\n      0x00\n      dup2\n      mstore\n      pop\n      swap1\n      jump\t// out\n        /* \"#utility.yul\":7:142   */\n    tag_226:\n        /* \"#utility.yul\":95:101   */\n      0x00\n        /* \"#utility.yul\":129:134   */\n      dup2\n        /* \"#utility.yul\":123:135   */\n      mload\n        /* \"#utility.yul\":113:135   */\n      swap1\n      pop\n        /* \"#utility.yul\":7:142   */\n      swap2\n      swap1\n      pop\n      jump\t// out\n        /* \"#utility.yul\":148:353   */\n    tag_227:\n        /* \"#utility.yul\":268:279   */\n      0x00\n        /* \"#utility.yul\":302:308   */\n      dup3\n        /* \"#utility.yul\":297:300   */\n      dup3\n        /* \"#utility.yul\":290:309   */\n      mstore\n        /* \"#utility.yul\":342:346   */\n      0x20\n        /* \"#utility.yul\":337:340   */\n      dup3\n        /* \"#utility.yul\":333:347   */\n      add\n        /* \"#utility.yul\":318:347   */\n      swap1\n      pop\n        /* \"#utility.yul\":148:353   */\n      swap3\n      swap2\n      pop\n      pop\n      jump\t// out\n        /* \"#utility.yul\":359:512   */\n    tag_228:\n        /* \"#utility.yul\":447:451   */\n      0x00\n        /* \"#utility.yul\":470:473   */\n      dup2\n        /* \"#utility.yul\":462:473   */\n      swap1\n      pop\n        /* \"#utility.yul\":500:504   */\n      0x20\n        /* \"#utility.yul\":495:498   */\n      dup3\n        /* \"#utility.yul\":491:505   */\n      add\n        /* \"#utility.yul\":483:505   */\n      swap1\n      pop\n        /* \"#utility.yul\":359:512   */\n      swap2\n      swap1\n      pop\n      jump\t// out\n        /* \"#utility.yul\":518:617   */\n    tag_229:\n        /* \"#utility.yul\":570:576   */\n      0x00\n        /* \"#utility.yul\":604:609   */\n      dup2\n        /* \"#utility.yul\":598:610   */\n      mload\n        /* \"#utility.yul\":588:610   */\n      swap1\n      pop\n        /* \"#utility.yul\":518:617   */\n      swap2\n      swap1\n      pop\n      jump\t// out\n        /* \"#utility.yul\":623:782   */\n    tag_230:\n        /* \"#utility.yul\":697:708   */\n      0x00\n        /* \"#utility.yul\":731:737   */\n      dup3\n        /* \"#utility.yul\":726:729   */\n      dup3\n        /* \"#utility.yul\":719:738   */\n      mstore\n        /* \"#utility.yul\":771:775   */\n      0x20\n        /* \"#utility.yul\":766:769   */\n      dup3\n        /* \"#utility.yul\":762:776   */\n      add\n        /* \"#utility.yul\":747:776   */\n      swap1\n      pop\n        /* \"#utility.yul\":623:782   */\n      swap3\n      swap2\n      pop\n      pop\n      jump\t// out\n        /* \"#utility.yul\":788:1034   */\n    tag_231:\n        /* \"#utility.yul\":869:870   */\n      0x00\n        /* \"#utility.yul\":879:992   */\n    tag_309:\n        /* \"#utility.yul\":893:899   */\n      dup4\n        /* \"#utility.yul\":890:891   */\n      dup2\n        /* \"#utility.yul\":887:900   */\n      lt\n        /* \"#utility.yul\":879:992   */\n      iszero\n      tag_311\n      jumpi\n        /* \"#utility.yul\":978:979   */\n      dup1\n        /* \"#utility.yul\":973:976   */\n      dup3\n        /* \"#utility.yul\":969:980   */\n      add\n        /* \"#utility.yul\":963:981   */\n      mload\n        /* \"#utility.yul\":959:960   */\n      dup2\n        /* \"#utility.yul\":954:957   */\n      dup5\n        /* \"#utility.yul\":950:961   */\n      add\n        /* \"#utility.yul\":943:982   */\n      mstore\n        /* \"#utility.yul\":915:917   */\n      0x20\n        /* \"#utility.yul\":912:913   */\n      dup2\n        /* \"#utility.yul\":908:918   */\n      add\n        /* \"#utility.yul\":903:918   */\n      swap1\n      pop\n        /* \"#utility.yul\":879:992   */\n      jump(tag_309)\n    tag_311:\n        /* \"#utility.yul\":1026:1027   */\n      0x00\n        /* \"#utility.yul\":1017:1023   */\n      dup5\n        /* \"#utility.yul\":1012:1015   */\n      dup5\n        /* \"#utility.yul\":1008:1024   */\n      add\n        /* \"#utility.yul\":1001:1028   */\n      mstore\n        /* \"#utility.yul\":850:1034   */\n      pop\n        /* \"#utility.yul\":788:1034   */\n      pop\n      pop\n      pop\n      jump\t// out\n        /* \"#utility.yul\":1040:1142   */\n    tag_232:\n        /* \"#utility.yul\":1081:1087   */\n      0x00\n        /* \"#utility.yul\":1132:1134   */\n      0x1f\n        /* \"#utility.yul\":1128:1135   */\n      not\n        /* \"#utility.yul\":1123:1125   */\n      0x1f\n        /* \"#utility.yul\":1116:1121   */\n      dup4\n        /* \"#utility.yul\":1112:1126   */\n      add\n        /* \"#utility.yul\":1108:1136   */\n      and\n        /* \"#utility.yul\":1098:1136   */\n      swap1\n      pop\n        /* \"#utility.yul\":1040:1142   */\n      swap2\n      swap1\n      pop\n      jump\t// out\n        /* \"#utility.yul\":1148:1505   */\n    tag_233:\n        /* \"#utility.yul\":1226:1229   */\n      0x00\n        /* \"#utility.yul\":1254:1293   */\n      tag_314\n        /* \"#utility.yul\":1287:1292   */\n      dup3\n        /* \"#utility.yul\":1254:1293   */\n      tag_229\n      jump\t// in\n    tag_314:\n        /* \"#utility.yul\":1309:1370   */\n      tag_315\n        /* \"#utility.yul\":1363:1369   */\n      dup2\n        /* \"#utility.yul\":1358:1361   */\n      dup6\n        /* \"#utility.yul\":1309:1370   */\n      tag_230\n      jump\t// in\n    tag_315:\n        /* \"#utility.yul\":1302:1370   */\n      swap4\n      pop\n        /* \"#utility.yul\":1379:1444   */\n      tag_316\n        /* \"#utility.yul\":1437:1443   */\n      dup2\n        /* \"#utility.yul\":1432:1435   */\n      dup6\n        /* \"#utility.yul\":1425:1429   */\n      0x20\n        /* \"#utility.yul\":1418:1423   */\n      dup7\n        /* \"#utility.yul\":1414:1430   */\n      add\n        /* \"#utility.yul\":1379:1444   */\n      tag_231\n      jump\t// in\n    tag_316:\n        /* \"#utility.yul\":1469:1498   */\n      tag_317\n        /* \"#utility.yul\":1491:1497   */\n      dup2\n        /* \"#utility.yul\":1469:1498   */\n      tag_232\n      jump\t// in\n    tag_317:\n        /* \"#utility.yul\":1464:1467   */\n      dup5\n        /* \"#utility.yul\":1460:1499   */\n      add\n        /* \"#utility.yul\":1453:1499   */\n      swap2\n      pop\n        /* \"#utility.yul\":1230:1505   */\n      pop\n        /* \"#utility.yul\":1148:1505   */\n      swap3\n      swap2\n      pop\n      pop\n      jump\t// out\n        /* \"#utility.yul\":1511:1588   */\n    tag_234:\n        /* \"#utility.yul\":1548:1555   */\n      0x00\n        /* \"#utility.yul\":1577:1582   */\n      dup2\n        /* \"#utility.yul\":1566:1582   */\n      swap1\n      pop\n        /* \"#utility.yul\":1511:1588   */\n      swap2\n      swap1\n      pop\n      jump\t// out\n        /* \"#utility.yul\":1594:1702   */\n    tag_235:\n        /* \"#utility.yul\":1671:1695   */\n      tag_320\n        /* \"#utility.yul\":1689:1694   */\n      dup2\n        /* \"#utility.yul\":1671:1695   */\n      tag_234\n      jump\t// in\n    tag_320:\n        /* \"#utility.yul\":1666:1669   */\n      dup3\n        /* \"#utility.yul\":1659:1696   */\n      mstore\n        /* \"#utility.yul\":1594:1702   */\n      pop\n      pop\n      jump\t// out\n        /* \"#utility.yul\":1708:1834   */\n    tag_236:\n        /* \"#utility.yul\":1745:1752   */\n      0x00\n        /* \"#utility.yul\":1785:1827   */\n      0xffffffffffffffffffffffffffffffffffffffff\n        /* \"#utility.yul\":1778:1783   */\n      dup3\n        /* \"#utility.yul\":1774:1828   */\n      and\n        /* \"#utility.yul\":1763:1828   */\n      swap1\n      pop\n        /* \"#utility.yul\":1708:1834   */\n      swap2\n      swap1\n      pop\n      jump\t// out\n        /* \"#utility.yul\":1840:1936   */\n    tag_237:\n        /* \"#utility.yul\":1877:1884   */\n      0x00\n        /* \"#utility.yul\":1906:1930   */\n      tag_323\n        /* \"#utility.yul\":1924:1929   */\n      dup3\n        /* \"#utility.yul\":1906:1930   */\n      tag_236\n      jump\t// in\n    tag_323:\n        /* \"#utility.yul\":1895:1930   */\n      swap1\n      pop\n        /* \"#utility.yul\":1840:1936   */\n      swap2\n      swap1\n      pop\n      jump\t// out\n        /* \"#utility.yul\":1942:2050   */\n    tag_238:\n        /* \"#utility.yul\":2019:2043   */\n      tag_325\n        /* \"#utility.yul\":2037:2042   */\n      dup2\n        /* \"#utility.yul\":2019:2043   */\n      tag_237\n      jump\t// in\n    tag_325:\n        /* \"#utility.yul\":2014:2017   */\n      dup3\n        /* \"#utility.yul\":2007:2044   */\n      mstore\n        /* \"#utility.yul\":1942:2050   */\n      pop\n      pop\n      jump\t// out\n        /* \"#utility.yul\":2106:3484   */\n    tag_239:\n        /* \"#utility.yul\":2207:2210   */\n      0x00\n        /* \"#utility.yul\":2243:2247   */\n      0xc0\n        /* \"#utility.yul\":2238:2241   */\n      dup4\n        /* \"#utility.yul\":2234:2248   */\n      add\n        /* \"#utility.yul\":2330:2334   */\n      0x00\n        /* \"#utility.yul\":2323:2328   */\n      dup4\n        /* \"#utility.yul\":2319:2335   */\n      add\n        /* \"#utility.yul\":2313:2336   */\n      mload\n        /* \"#utility.yul\":2383:2386   */\n      dup5\n        /* \"#utility.yul\":2377:2381   */\n      dup3\n        /* \"#utility.yul\":2373:2387   */\n      sub\n        /* \"#utility.yul\":2366:2370   */\n      0x00\n        /* \"#utility.yul\":2361:2364   */\n      dup7\n        /* \"#utility.yul\":2357:2371   */\n      add\n        /* \"#utility.yul\":2350:2388   */\n      mstore\n        /* \"#utility.yul\":2409:2482   */\n      tag_327\n        /* \"#utility.yul\":2477:2481   */\n      dup3\n        /* \"#utility.yul\":2463:2475   */\n      dup3\n        /* \"#utility.yul\":2409:2482   */\n      tag_233\n      jump\t// in\n    tag_327:\n        /* \"#utility.yul\":2401:2482   */\n      swap2\n      pop\n        /* \"#utility.yul\":2258:2493   */\n      pop\n        /* \"#utility.yul\":2574:2578   */\n      0x20\n        /* \"#utility.yul\":2567:2572   */\n      dup4\n        /* \"#utility.yul\":2563:2579   */\n      add\n        /* \"#utility.yul\":2557:2580   */\n      mload\n        /* \"#utility.yul\":2593:2656   */\n      tag_328\n        /* \"#utility.yul\":2650:2654   */\n      0x20\n        /* \"#utility.yul\":2645:2648   */\n      dup7\n        /* \"#utility.yul\":2641:2655   */\n      add\n        /* \"#utility.yul\":2627:2639   */\n      dup3\n        /* \"#utility.yul\":2593:2656   */\n      tag_235\n      jump\t// in\n    tag_328:\n        /* \"#utility.yul\":2503:2666   */\n      pop\n        /* \"#utility.yul\":2751:2755   */\n      0x40\n        /* \"#utility.yul\":2744:2749   */\n      dup4\n        /* \"#utility.yul\":2740:2756   */\n      add\n        /* \"#utility.yul\":2734:2757   */\n      mload\n        /* \"#utility.yul\":2770:2833   */\n      tag_329\n        /* \"#utility.yul\":2827:2831   */\n      0x40\n        /* \"#utility.yul\":2822:2825   */\n      dup7\n        /* \"#utility.yul\":2818:2832   */\n      add\n        /* \"#utility.yul\":2804:2816   */\n      dup3\n        /* \"#utility.yul\":2770:2833   */\n      tag_235\n      jump\t// in\n    tag_329:\n        /* \"#utility.yul\":2676:2843   */\n      pop\n        /* \"#utility.yul\":2927:2931   */\n      0x60\n        /* \"#utility.yul\":2920:2925   */\n      dup4\n        /* \"#utility.yul\":2916:2932   */\n      add\n        /* \"#utility.yul\":2910:2933   */\n      mload\n        /* \"#utility.yul\":2980:2983   */\n      dup5\n        /* \"#utility.yul\":2974:2978   */\n      dup3\n        /* \"#utility.yul\":2970:2984   */\n      sub\n        /* \"#utility.yul\":2963:2967   */\n      0x60\n        /* \"#utility.yul\":2958:2961   */\n      dup7\n        /* \"#utility.yul\":2954:2968   */\n      add\n        /* \"#utility.yul\":2947:2985   */\n      mstore\n        /* \"#utility.yul\":3006:3079   */\n      tag_330\n        /* \"#utility.yul\":3074:3078   */\n      dup3\n        /* \"#utility.yul\":3060:3072   */\n      dup3\n        /* \"#utility.yul\":3006:3079   */\n      tag_233\n      jump\t// in\n    tag_330:\n        /* \"#utility.yul\":2998:3079   */\n      swap2\n      pop\n        /* \"#utility.yul\":2853:3090   */\n      pop\n        /* \"#utility.yul\":3183:3187   */\n      0x80\n        /* \"#utility.yul\":3176:3181   */\n      dup4\n        /* \"#utility.yul\":3172:3188   */\n      add\n        /* \"#utility.yul\":3166:3189   */\n      mload\n        /* \"#utility.yul\":3202:3265   */\n      tag_331\n        /* \"#utility.yul\":3259:3263   */\n      0x80\n        /* \"#utility.yul\":3254:3257   */\n      dup7\n        /* \"#utility.yul\":3250:3264   */\n      add\n        /* \"#utility.yul\":3236:3248   */\n      dup3\n        /* \"#utility.yul\":3202:3265   */\n      tag_235\n      jump\t// in\n    tag_331:\n        /* \"#utility.yul\":3100:3275   */\n      pop\n        /* \"#utility.yul\":3365:3369   */\n      0xa0\n        /* \"#utility.yul\":3358:3363   */\n      dup4\n        /* \"#utility.yul\":3354:3370   */\n      add\n        /* \"#utility.yul\":3348:3371   */\n      mload\n        /* \"#utility.yul\":3384:3447   */\n      tag_332\n        /* \"#utility.yul\":3441:3445   */\n      0xa0\n        /* \"#utility.yul\":3436:3439   */\n      dup7\n        /* \"#utility.yul\":3432:3446   */\n      add\n        /* \"#utility.yul\":3418:3430   */\n      dup3\n        /* \"#utility.yul\":3384:3447   */\n      tag_238\n      jump\t// in\n    tag_332:\n        /* \"#utility.yul\":3285:3457   */\n      pop\n        /* \"#utility.yul\":3474:3478   */\n      dup1\n        /* \"#utility.yul\":3467:3478   */\n      swap2\n      pop\n        /* \"#utility.yul\":2212:3484   */\n      pop\n        /* \"#utility.yul\":2106:3484   */\n      swap3\n      swap2\n      pop\n      pop\n      jump\t// out\n        /* \"#utility.yul\":3490:3730   */\n    tag_240:\n        /* \"#utility.yul\":3601:3611   */\n      0x00\n        /* \"#utility.yul\":3636:3724   */\n      tag_334\n        /* \"#utility.yul\":3720:3723   */\n      dup4\n        /* \"#utility.yul\":3712:3718   */\n      dup4\n        /* \"#utility.yul\":3636:3724   */\n      tag_239\n      jump\t// in\n    tag_334:\n        /* \"#utility.yul\":3622:3724   */\n      swap1\n      pop\n        /* \"#utility.yul\":3490:3730   */\n      swap3\n      swap2\n      pop\n      pop\n      jump\t// out\n        /* \"#utility.yul\":3736:3870   */\n    tag_241:\n        /* \"#utility.yul\":3827:3831   */\n      0x00\n        /* \"#utility.yul\":3859:3863   */\n      0x20\n        /* \"#utility.yul\":3854:3857   */\n      dup3\n        /* \"#utility.yul\":3850:3864   */\n      add\n        /* \"#utility.yul\":3842:3864   */\n      swap1\n      pop\n        /* \"#utility.yul\":3736:3870   */\n      swap2\n      swap1\n      pop\n      jump\t// out\n        /* \"#utility.yul\":3930:5009   */\n    tag_242:\n        /* \"#utility.yul\":4091:4094   */\n      0x00\n        /* \"#utility.yul\":4120:4195   */\n      tag_337\n        /* \"#utility.yul\":4189:4194   */\n      dup3\n        /* \"#utility.yul\":4120:4195   */\n      tag_226\n      jump\t// in\n    tag_337:\n        /* \"#utility.yul\":4211:4318   */\n      tag_338\n        /* \"#utility.yul\":4311:4317   */\n      dup2\n        /* \"#utility.yul\":4306:4309   */\n      dup6\n        /* \"#utility.yul\":4211:4318   */\n      tag_227\n      jump\t// in\n    tag_338:\n        /* \"#utility.yul\":4204:4318   */\n      swap4\n      pop\n        /* \"#utility.yul\":4344:4347   */\n      dup4\n        /* \"#utility.yul\":4389:4393   */\n      0x20\n        /* \"#utility.yul\":4381:4387   */\n      dup3\n        /* \"#utility.yul\":4377:4394   */\n      mul\n        /* \"#utility.yul\":4372:4375   */\n      dup6\n        /* \"#utility.yul\":4368:4395   */\n      add\n        /* \"#utility.yul\":4419:4496   */\n      tag_339\n        /* \"#utility.yul\":4490:4495   */\n      dup6\n        /* \"#utility.yul\":4419:4496   */\n      tag_228\n      jump\t// in\n    tag_339:\n        /* \"#utility.yul\":4519:4526   */\n      dup1\n        /* \"#utility.yul\":4550:4551   */\n      0x00\n        /* \"#utility.yul\":4535:4964   */\n    tag_340:\n        /* \"#utility.yul\":4560:4566   */\n      dup6\n        /* \"#utility.yul\":4557:4558   */\n      dup2\n        /* \"#utility.yul\":4554:4567   */\n      lt\n        /* \"#utility.yul\":4535:4964   */\n      iszero\n      tag_342\n      jumpi\n        /* \"#utility.yul\":4631:4640   */\n      dup5\n        /* \"#utility.yul\":4625:4629   */\n      dup5\n        /* \"#utility.yul\":4621:4641   */\n      sub\n        /* \"#utility.yul\":4616:4619   */\n      dup10\n        /* \"#utility.yul\":4609:4642   */\n      mstore\n        /* \"#utility.yul\":4682:4688   */\n      dup2\n        /* \"#utility.yul\":4676:4689   */\n      mload\n        /* \"#utility.yul\":4710:4816   */\n      tag_343\n        /* \"#utility.yul\":4811:4815   */\n      dup6\n        /* \"#utility.yul\":4796:4809   */\n      dup3\n        /* \"#utility.yul\":4710:4816   */\n      tag_240\n      jump\t// in\n    tag_343:\n        /* \"#utility.yul\":4702:4816   */\n      swap5\n      pop\n        /* \"#utility.yul\":4839:4920   */\n      tag_344\n        /* \"#utility.yul\":4913:4919   */\n      dup4\n        /* \"#utility.yul\":4839:4920   */\n      tag_241\n      jump\t// in\n    tag_344:\n        /* \"#utility.yul\":4829:4920   */\n      swap3\n      pop\n        /* \"#utility.yul\":4949:4953   */\n      0x20\n        /* \"#utility.yul\":4944:4947   */\n      dup11\n        /* \"#utility.yul\":4940:4954   */\n      add\n        /* \"#utility.yul\":4933:4954   */\n      swap10\n      pop\n        /* \"#utility.yul\":4595:4964   */\n      pop\n        /* \"#utility.yul\":4582:4583   */\n      0x01\n        /* \"#utility.yul\":4579:4580   */\n      dup2\n        /* \"#utility.yul\":4575:4584   */\n      add\n        /* \"#utility.yul\":4570:4584   */\n      swap1\n      pop\n        /* \"#utility.yul\":4535:4964   */\n      jump(tag_340)\n    tag_342:\n        /* \"#utility.yul\":4539:4553   */\n      pop\n        /* \"#utility.yul\":4980:4984   */\n      dup3\n        /* \"#utility.yul\":4973:4984   */\n      swap8\n      pop\n        /* \"#utility.yul\":5000:5003   */\n      dup8\n        /* \"#utility.yul\":4993:5003   */\n      swap6\n      pop\n        /* \"#utility.yul\":4096:5009   */\n      pop\n      pop\n      pop\n      pop\n      pop\n        /* \"#utility.yul\":3930:5009   */\n      swap3\n      swap2\n      pop\n      pop\n      jump\t// out\n        /* \"#utility.yul\":5015:5472   */\n    tag_18:\n        /* \"#utility.yul\":5200:5204   */\n      0x00\n        /* \"#utility.yul\":5238:5240   */\n      0x20\n        /* \"#utility.yul\":5227:5236   */\n      dup3\n        /* \"#utility.yul\":5223:5241   */\n      add\n        /* \"#utility.yul\":5215:5241   */\n      swap1\n      pop\n        /* \"#utility.yul\":5287:5296   */\n      dup2\n        /* \"#utility.yul\":5281:5285   */\n      dup2\n        /* \"#utility.yul\":5277:5297   */\n      sub\n        /* \"#utility.yul\":5273:5274   */\n      0x00\n        /* \"#utility.yul\":5262:5271   */\n      dup4\n        /* \"#utility.yul\":5258:5275   */\n      add\n        /* \"#utility.yul\":5251:5298   */\n      mstore\n        /* \"#utility.yul\":5315:5465   */\n      tag_346\n        /* \"#utility.yul\":5460:5464   */\n      dup2\n        /* \"#utility.yul\":5451:5457   */\n      dup5\n        /* \"#utility.yul\":5315:5465   */\n      tag_242\n      jump\t// in\n    tag_346:\n        /* \"#utility.yul\":5307:5465   */\n      swap1\n      pop\n        /* \"#utility.yul\":5015:5472   */\n      swap3\n      swap2\n      pop\n      pop\n      jump\t// out\n        /* \"#utility.yul\":5559:5676   */\n    tag_244:\n        /* \"#utility.yul\":5668:5669   */\n      0x00\n        /* \"#utility.yul\":5665:5666   */\n      dup1\n        /* \"#utility.yul\":5658:5670   */\n      revert\n        /* \"#utility.yul\":5682:5799   */\n    tag_245:\n        /* \"#utility.yul\":5791:5792   */\n      0x00\n        /* \"#utility.yul\":5788:5789   */\n      dup1\n        /* \"#utility.yul\":5781:5793   */\n      revert\n        /* \"#utility.yul\":5805:5927   */\n    tag_246:\n        /* \"#utility.yul\":5878:5902   */\n      tag_351\n        /* \"#utility.yul\":5896:5901   */\n      dup2\n        /* \"#utility.yul\":5878:5902   */\n      tag_234\n      jump\t// in\n    tag_351:\n        /* \"#utility.yul\":5871:5876   */\n      dup2\n        /* \"#utility.yul\":5868:5903   */\n      eq\n        /* \"#utility.yul\":5858:5921   */\n      tag_352\n      jumpi\n        /* \"#utility.yul\":5917:5918   */\n      0x00\n        /* \"#utility.yul\":5914:5915   */\n      dup1\n        /* \"#utility.yul\":5907:5919   */\n      revert\n        /* \"#utility.yul\":5858:5921   */\n    tag_352:\n        /* \"#utility.yul\":5805:5927   */\n      pop\n      jump\t// out\n        /* \"#utility.yul\":5933:6072   */\n    tag_247:\n        /* \"#utility.yul\":5979:5984   */\n      0x00\n        /* \"#utility.yul\":6017:6023   */\n      dup2\n        /* \"#utility.yul\":6004:6024   */\n      calldataload\n        /* \"#utility.yul\":5995:6024   */\n      swap1\n      pop\n        /* \"#utility.yul\":6033:6066   */\n      tag_354\n        /* \"#utility.yul\":6060:6065   */\n      dup2\n        /* \"#utility.yul\":6033:6066   */\n      tag_246\n      jump\t// in\n    tag_354:\n        /* \"#utility.yul\":5933:6072   */\n      swap3\n      swap2\n      pop\n      pop\n      jump\t// out\n        /* \"#utility.yul\":6078:6407   */\n    tag_21:\n        /* \"#utility.yul\":6137:6143   */\n      0x00\n        /* \"#utility.yul\":6186:6188   */\n      0x20\n        /* \"#utility.yul\":6174:6183   */\n      dup3\n        /* \"#utility.yul\":6165:6172   */\n      dup5\n        /* \"#utility.yul\":6161:6184   */\n      sub\n        /* \"#utility.yul\":6157:6189   */\n      slt\n        /* \"#utility.yul\":6154:6273   */\n      iszero\n      tag_356\n      jumpi\n        /* \"#utility.yul\":6192:6271   */\n      tag_357\n      tag_244\n      jump\t// in\n    tag_357:\n        /* \"#utility.yul\":6154:6273   */\n    tag_356:\n        /* \"#utility.yul\":6312:6313   */\n      0x00\n        /* \"#utility.yul\":6337:6390   */\n      tag_358\n        /* \"#utility.yul\":6382:6389   */\n      dup5\n        /* \"#utility.yul\":6373:6379   */\n      dup3\n        /* \"#utility.yul\":6362:6371   */\n      dup6\n        /* \"#utility.yul\":6358:6380   */\n      add\n        /* \"#utility.yul\":6337:6390   */\n      tag_247\n      jump\t// in\n    tag_358:\n        /* \"#utility.yul\":6327:6390   */\n      swap2\n      pop\n        /* \"#utility.yul\":6283:6400   */\n      pop\n        /* \"#utility.yul\":6078:6407   */\n      swap3\n      swap2\n      pop\n      pop\n      jump\t// out\n        /* \"#utility.yul\":6413:6582   */\n    tag_248:\n        /* \"#utility.yul\":6497:6508   */\n      0x00\n        /* \"#utility.yul\":6531:6537   */\n      dup3\n        /* \"#utility.yul\":6526:6529   */\n      dup3\n        /* \"#utility.yul\":6519:6538   */\n      mstore\n        /* \"#utility.yul\":6571:6575   */\n      0x20\n        /* \"#utility.yul\":6566:6569   */\n      dup3\n        /* \"#utility.yul\":6562:6576   */\n      add\n        /* \"#utility.yul\":6547:6576   */\n      swap1\n      pop\n        /* \"#utility.yul\":6413:6582   */\n      swap3\n      swap2\n      pop\n      pop\n      jump\t// out\n        /* \"#utility.yul\":6588:6965   */\n    tag_249:\n        /* \"#utility.yul\":6676:6679   */\n      0x00\n        /* \"#utility.yul\":6704:6743   */\n      tag_361\n        /* \"#utility.yul\":6737:6742   */\n      dup3\n        /* \"#utility.yul\":6704:6743   */\n      tag_229\n      jump\t// in\n    tag_361:\n        /* \"#utility.yul\":6759:6830   */\n      tag_362\n        /* \"#utility.yul\":6823:6829   */\n      dup2\n        /* \"#utility.yul\":6818:6821   */\n      dup6\n        /* \"#utility.yul\":6759:6830   */\n      tag_248\n      jump\t// in\n    tag_362:\n        /* \"#utility.yul\":6752:6830   */\n      swap4\n      pop\n        /* \"#utility.yul\":6839:6904   */\n      tag_363\n        /* \"#utility.yul\":6897:6903   */\n      dup2\n        /* \"#utility.yul\":6892:6895   */\n      dup6\n        /* \"#utility.yul\":6885:6889   */\n      0x20\n        /* \"#utility.yul\":6878:6883   */\n      dup7\n        /* \"#utility.yul\":6874:6890   */\n      add\n        /* \"#utility.yul\":6839:6904   */\n      tag_231\n      jump\t// in\n    tag_363:\n        /* \"#utility.yul\":6929:6958   */\n      tag_364\n        /* \"#utility.yul\":6951:6957   */\n      dup2\n        /* \"#utility.yul\":6929:6958   */\n      tag_232\n      jump\t// in\n    tag_364:\n        /* \"#utility.yul\":6924:6927   */\n      dup5\n        /* \"#utility.yul\":6920:6959   */\n      add\n        /* \"#utility.yul\":6913:6959   */\n      swap2\n      pop\n        /* \"#utility.yul\":6680:6965   */\n      pop\n        /* \"#utility.yul\":6588:6965   */\n      swap3\n      swap2\n      pop\n      pop\n      jump\t// out\n        /* \"#utility.yul\":6971:7089   */\n    tag_250:\n        /* \"#utility.yul\":7058:7082   */\n      tag_366\n        /* \"#utility.yul\":7076:7081   */\n      dup2\n        /* \"#utility.yul\":7058:7082   */\n      tag_234\n      jump\t// in\n    tag_366:\n        /* \"#utility.yul\":7053:7056   */\n      dup3\n        /* \"#utility.yul\":7046:7083   */\n      mstore\n        /* \"#utility.yul\":6971:7089   */\n      pop\n      pop\n      jump\t// out\n        /* \"#utility.yul\":7095:7213   */\n    tag_251:\n        /* \"#utility.yul\":7182:7206   */\n      tag_368\n        /* \"#utility.yul\":7200:7205   */\n      dup2\n        /* \"#utility.yul\":7182:7206   */\n      tag_237\n      jump\t// in\n    tag_368:\n        /* \"#utility.yul\":7177:7180   */\n      dup3\n        /* \"#utility.yul\":7170:7207   */\n      mstore\n        /* \"#utility.yul\":7095:7213   */\n      pop\n      pop\n      jump\t// out\n        /* \"#utility.yul\":7219:8176   */\n    tag_24:\n        /* \"#utility.yul\":7492:7496   */\n      0x00\n        /* \"#utility.yul\":7530:7533   */\n      0xc0\n        /* \"#utility.yul\":7519:7528   */\n      dup3\n        /* \"#utility.yul\":7515:7534   */\n      add\n        /* \"#utility.yul\":7507:7534   */\n      swap1\n      pop\n        /* \"#utility.yul\":7580:7589   */\n      dup2\n        /* \"#utility.yul\":7574:7578   */\n      dup2\n        /* \"#utility.yul\":7570:7590   */\n      sub\n        /* \"#utility.yul\":7566:7567   */\n      0x00\n        /* \"#utility.yul\":7555:7564   */\n      dup4\n        /* \"#utility.yul\":7551:7568   */\n      add\n        /* \"#utility.yul\":7544:7591   */\n      mstore\n        /* \"#utility.yul\":7608:7686   */\n      tag_370\n        /* \"#utility.yul\":7681:7685   */\n      dup2\n        /* \"#utility.yul\":7672:7678   */\n      dup10\n        /* \"#utility.yul\":7608:7686   */\n      tag_249\n      jump\t// in\n    tag_370:\n        /* \"#utility.yul\":7600:7686   */\n      swap1\n      pop\n        /* \"#utility.yul\":7696:7768   */\n      tag_371\n        /* \"#utility.yul\":7764:7766   */\n      0x20\n        /* \"#utility.yul\":7753:7762   */\n      dup4\n        /* \"#utility.yul\":7749:7767   */\n      add\n        /* \"#utility.yul\":7740:7746   */\n      dup9\n        /* \"#utility.yul\":7696:7768   */\n      tag_250\n      jump\t// in\n    tag_371:\n        /* \"#utility.yul\":7778:7850   */\n      tag_372\n        /* \"#utility.yul\":7846:7848   */\n      0x40\n        /* \"#utility.yul\":7835:7844   */\n      dup4\n        /* \"#utility.yul\":7831:7849   */\n      add\n        /* \"#utility.yul\":7822:7828   */\n      dup8\n        /* \"#utility.yul\":7778:7850   */\n      tag_250\n      jump\t// in\n    tag_372:\n        /* \"#utility.yul\":7897:7906   */\n      dup2\n        /* \"#utility.yul\":7891:7895   */\n      dup2\n        /* \"#utility.yul\":7887:7907   */\n      sub\n        /* \"#utility.yul\":7882:7884   */\n      0x60\n        /* \"#utility.yul\":7871:7880   */\n      dup4\n        /* \"#utility.yul\":7867:7885   */\n      add\n        /* \"#utility.yul\":7860:7908   */\n      mstore\n        /* \"#utility.yul\":7925:8003   */\n      tag_373\n        /* \"#utility.yul\":7998:8002   */\n      dup2\n        /* \"#utility.yul\":7989:7995   */\n      dup7\n        /* \"#utility.yul\":7925:8003   */\n      tag_249\n      jump\t// in\n    tag_373:\n        /* \"#utility.yul\":7917:8003   */\n      swap1\n      pop\n        /* \"#utility.yul\":8013:8086   */\n      tag_374\n        /* \"#utility.yul\":8081:8084   */\n      0x80\n        /* \"#utility.yul\":8070:8079   */\n      dup4\n        /* \"#utility.yul\":8066:8085   */\n      add\n        /* \"#utility.yul\":8057:8063   */\n      dup6\n        /* \"#utility.yul\":8013:8086   */\n      tag_250\n      jump\t// in\n    tag_374:\n        /* \"#utility.yul\":8096:8169   */\n      tag_375\n        /* \"#utility.yul\":8164:8167   */\n      0xa0\n        /* \"#utility.yul\":8153:8162   */\n      dup4\n        /* \"#utility.yul\":8149:8168   */\n      add\n        /* \"#utility.yul\":8140:8146   */\n      dup5\n        /* \"#utility.yul\":8096:8169   */\n      tag_251\n      jump\t// in\n    tag_375:\n        /* \"#utility.yul\":7219:8176   */\n      swap8\n      swap7\n      pop\n      pop\n      pop\n      pop\n      pop\n      pop\n      pop\n      jump\t// out\n        /* \"#utility.yul\":8182:8321   */\n    tag_252:\n        /* \"#utility.yul\":8274:8280   */\n      0x00\n        /* \"#utility.yul\":8308:8313   */\n      dup2\n        /* \"#utility.yul\":8302:8314   */\n      mload\n        /* \"#utility.yul\":8292:8314   */\n      swap1\n      pop\n        /* \"#utility.yul\":8182:8321   */\n      swap2\n      swap1\n      pop\n      jump\t// out\n        /* \"#utility.yul\":8327:8536   */\n    tag_253:\n        /* \"#utility.yul\":8451:8462   */\n      0x00\n        /* \"#utility.yul\":8485:8491   */\n      dup3\n        /* \"#utility.yul\":8480:8483   */\n      dup3\n        /* \"#utility.yul\":8473:8492   */\n      mstore\n        /* \"#utility.yul\":8525:8529   */\n      0x20\n        /* \"#utility.yul\":8520:8523   */\n      dup3\n        /* \"#utility.yul\":8516:8530   */\n      add\n        /* \"#utility.yul\":8501:8530   */\n      swap1\n      pop\n        /* \"#utility.yul\":8327:8536   */\n      swap3\n      swap2\n      pop\n      pop\n      jump\t// out\n        /* \"#utility.yul\":8542:8699   */\n    tag_254:\n        /* \"#utility.yul\":8634:8638   */\n      0x00\n        /* \"#utility.yul\":8657:8660   */\n      dup2\n        /* \"#utility.yul\":8649:8660   */\n      swap1\n      pop\n        /* \"#utility.yul\":8687:8691   */\n      0x20\n        /* \"#utility.yul\":8682:8685   */\n      dup3\n        /* \"#utility.yul\":8678:8692   */\n      add\n        /* \"#utility.yul\":8670:8692   */\n      swap1\n      pop\n        /* \"#utility.yul\":8542:8699   */\n      swap2\n      swap1\n      pop\n      jump\t// out\n        /* \"#utility.yul\":8763:10393   */\n    tag_255:\n        /* \"#utility.yul\":8872:8875   */\n      0x00\n        /* \"#utility.yul\":8908:8912   */\n      0xe0\n        /* \"#utility.yul\":8903:8906   */\n      dup4\n        /* \"#utility.yul\":8899:8913   */\n      add\n        /* \"#utility.yul\":8995:8999   */\n      0x00\n        /* \"#utility.yul\":8988:8993   */\n      dup4\n        /* \"#utility.yul\":8984:9000   */\n      add\n        /* \"#utility.yul\":8978:9001   */\n      mload\n        /* \"#utility.yul\":9048:9051   */\n      dup5\n        /* \"#utility.yul\":9042:9046   */\n      dup3\n        /* \"#utility.yul\":9038:9052   */\n      sub\n        /* \"#utility.yul\":9031:9035   */\n      0x00\n        /* \"#utility.yul\":9026:9029   */\n      dup7\n        /* \"#utility.yul\":9022:9036   */\n      add\n        /* \"#utility.yul\":9015:9053   */\n      mstore\n        /* \"#utility.yul\":9074:9147   */\n      tag_380\n        /* \"#utility.yul\":9142:9146   */\n      dup3\n        /* \"#utility.yul\":9128:9140   */\n      dup3\n        /* \"#utility.yul\":9074:9147   */\n      tag_233\n      jump\t// in\n    tag_380:\n        /* \"#utility.yul\":9066:9147   */\n      swap2\n      pop\n        /* \"#utility.yul\":8923:9158   */\n      pop\n        /* \"#utility.yul\":9241:9245   */\n      0x20\n        /* \"#utility.yul\":9234:9239   */\n      dup4\n        /* \"#utility.yul\":9230:9246   */\n      add\n        /* \"#utility.yul\":9224:9247   */\n      mload\n        /* \"#utility.yul\":9294:9297   */\n      dup5\n        /* \"#utility.yul\":9288:9292   */\n      dup3\n        /* \"#utility.yul\":9284:9298   */\n      sub\n        /* \"#utility.yul\":9277:9281   */\n      0x20\n        /* \"#utility.yul\":9272:9275   */\n      dup7\n        /* \"#utility.yul\":9268:9282   */\n      add\n        /* \"#utility.yul\":9261:9299   */\n      mstore\n        /* \"#utility.yul\":9320:9393   */\n      tag_381\n        /* \"#utility.yul\":9388:9392   */\n      dup3\n        /* \"#utility.yul\":9374:9386   */\n      dup3\n        /* \"#utility.yul\":9320:9393   */\n      tag_233\n      jump\t// in\n    tag_381:\n        /* \"#utility.yul\":9312:9393   */\n      swap2\n      pop\n        /* \"#utility.yul\":9168:9404   */\n      pop\n        /* \"#utility.yul\":9485:9489   */\n      0x40\n        /* \"#utility.yul\":9478:9483   */\n      dup4\n        /* \"#utility.yul\":9474:9490   */\n      add\n        /* \"#utility.yul\":9468:9491   */\n      mload\n        /* \"#utility.yul\":9504:9567   */\n      tag_382\n        /* \"#utility.yul\":9561:9565   */\n      0x40\n        /* \"#utility.yul\":9556:9559   */\n      dup7\n        /* \"#utility.yul\":9552:9566   */\n      add\n        /* \"#utility.yul\":9538:9550   */\n      dup3\n        /* \"#utility.yul\":9504:9567   */\n      tag_235\n      jump\t// in\n    tag_382:\n        /* \"#utility.yul\":9414:9577   */\n      pop\n        /* \"#utility.yul\":9661:9665   */\n      0x60\n        /* \"#utility.yul\":9654:9659   */\n      dup4\n        /* \"#utility.yul\":9650:9666   */\n      add\n        /* \"#utility.yul\":9644:9667   */\n      mload\n        /* \"#utility.yul\":9714:9717   */\n      dup5\n        /* \"#utility.yul\":9708:9712   */\n      dup3\n        /* \"#utility.yul\":9704:9718   */\n      sub\n        /* \"#utility.yul\":9697:9701   */\n      0x60\n        /* \"#utility.yul\":9692:9695   */\n      dup7\n        /* \"#utility.yul\":9688:9702   */\n      add\n        /* \"#utility.yul\":9681:9719   */\n      mstore\n        /* \"#utility.yul\":9740:9813   */\n      tag_383\n        /* \"#utility.yul\":9808:9812   */\n      dup3\n        /* \"#utility.yul\":9794:9806   */\n      dup3\n        /* \"#utility.yul\":9740:9813   */\n      tag_233\n      jump\t// in\n    tag_383:\n        /* \"#utility.yul\":9732:9813   */\n      swap2\n      pop\n        /* \"#utility.yul\":9587:9824   */\n      pop\n        /* \"#utility.yul\":9913:9917   */\n      0x80\n        /* \"#utility.yul\":9906:9911   */\n      dup4\n        /* \"#utility.yul\":9902:9918   */\n      add\n        /* \"#utility.yul\":9896:9919   */\n      mload\n        /* \"#utility.yul\":9932:9995   */\n      tag_384\n        /* \"#utility.yul\":9989:9993   */\n      0x80\n        /* \"#utility.yul\":9984:9987   */\n      dup7\n        /* \"#utility.yul\":9980:9994   */\n      add\n        /* \"#utility.yul\":9966:9978   */\n      dup3\n        /* \"#utility.yul\":9932:9995   */\n      tag_235\n      jump\t// in\n    tag_384:\n        /* \"#utility.yul\":9834:10005   */\n      pop\n        /* \"#utility.yul\":10099:10103   */\n      0xa0\n        /* \"#utility.yul\":10092:10097   */\n      dup4\n        /* \"#utility.yul\":10088:10104   */\n      add\n        /* \"#utility.yul\":10082:10105   */\n      mload\n        /* \"#utility.yul\":10118:10181   */\n      tag_385\n        /* \"#utility.yul\":10175:10179   */\n      0xa0\n        /* \"#utility.yul\":10170:10173   */\n      dup7\n        /* \"#utility.yul\":10166:10180   */\n      add\n        /* \"#utility.yul\":10152:10164   */\n      dup3\n        /* \"#utility.yul\":10118:10181   */\n      tag_238\n      jump\t// in\n    tag_385:\n        /* \"#utility.yul\":10015:10191   */\n      pop\n        /* \"#utility.yul\":10274:10278   */\n      0xc0\n        /* \"#utility.yul\":10267:10272   */\n      dup4\n        /* \"#utility.yul\":10263:10279   */\n      add\n        /* \"#utility.yul\":10257:10280   */\n      mload\n        /* \"#utility.yul\":10293:10356   */\n      tag_386\n        /* \"#utility.yul\":10350:10354   */\n      0xc0\n        /* \"#utility.yul\":10345:10348   */\n      dup7\n        /* \"#utility.yul\":10341:10355   */\n      add\n        /* \"#utility.yul\":10327:10339   */\n      dup3\n        /* \"#utility.yul\":10293:10356   */\n      tag_235\n      jump\t// in\n    tag_386:\n        /* \"#utility.yul\":10201:10366   */\n      pop\n        /* \"#utility.yul\":10383:10387   */\n      dup1\n        /* \"#utility.yul\":10376:10387   */\n      swap2\n      pop\n        /* \"#utility.yul\":8877:10393   */\n      pop\n        /* \"#utility.yul\":8763:10393   */\n      swap3\n      swap2\n      pop\n      pop\n      jump\t// out\n        /* \"#utility.yul\":10399:10655   */\n    tag_256:\n        /* \"#utility.yul\":10518:10528   */\n      0x00\n        /* \"#utility.yul\":10553:10649   */\n      tag_388\n        /* \"#utility.yul\":10645:10648   */\n      dup4\n        /* \"#utility.yul\":10637:10643   */\n      dup4\n        /* \"#utility.yul\":10553:10649   */\n      tag_255\n      jump\t// in\n    tag_388:\n        /* \"#utility.yul\":10539:10649   */\n      swap1\n      pop\n        /* \"#utility.yul\":10399:10655   */\n      swap3\n      swap2\n      pop\n      pop\n      jump\t// out\n        /* \"#utility.yul\":10661:10799   */\n    tag_257:\n        /* \"#utility.yul\":10756:10760   */\n      0x00\n        /* \"#utility.yul\":10788:10792   */\n      0x20\n        /* \"#utility.yul\":10783:10786   */\n      dup3\n        /* \"#utility.yul\":10779:10793   */\n      add\n        /* \"#utility.yul\":10771:10793   */\n      swap1\n      pop\n        /* \"#utility.yul\":10661:10799   */\n      swap2\n      swap1\n      pop\n      jump\t// out\n        /* \"#utility.yul\":10867:11978   */\n    tag_258:\n        /* \"#utility.yul\":11036:11039   */\n      0x00\n        /* \"#utility.yul\":11065:11144   */\n      tag_391\n        /* \"#utility.yul\":11138:11143   */\n      dup3\n        /* \"#utility.yul\":11065:11144   */\n      tag_252\n      jump\t// in\n    tag_391:\n        /* \"#utility.yul\":11160:11271   */\n      tag_392\n        /* \"#utility.yul\":11264:11270   */\n      dup2\n        /* \"#utility.yul\":11259:11262   */\n      dup6\n        /* \"#utility.yul\":11160:11271   */\n      tag_253\n      jump\t// in\n    tag_392:\n        /* \"#utility.yul\":11153:11271   */\n      swap4\n      pop\n        /* \"#utility.yul\":11297:11300   */\n      dup4\n        /* \"#utility.yul\":11342:11346   */\n      0x20\n        /* \"#utility.yul\":11334:11340   */\n      dup3\n        /* \"#utility.yul\":11330:11347   */\n      mul\n        /* \"#utility.yul\":11325:11328   */\n      dup6\n        /* \"#utility.yul\":11321:11348   */\n      add\n        /* \"#utility.yul\":11372:11453   */\n      tag_393\n        /* \"#utility.yul\":11447:11452   */\n      dup6\n        /* \"#utility.yul\":11372:11453   */\n      tag_254\n      jump\t// in\n    tag_393:\n        /* \"#utility.yul\":11476:11483   */\n      dup1\n        /* \"#utility.yul\":11507:11508   */\n      0x00\n        /* \"#utility.yul\":11492:11933   */\n    tag_394:\n        /* \"#utility.yul\":11517:11523   */\n      dup6\n        /* \"#utility.yul\":11514:11515   */\n      dup2\n        /* \"#utility.yul\":11511:11524   */\n      lt\n        /* \"#utility.yul\":11492:11933   */\n      iszero\n      tag_396\n      jumpi\n        /* \"#utility.yul\":11588:11597   */\n      dup5\n        /* \"#utility.yul\":11582:11586   */\n      dup5\n        /* \"#utility.yul\":11578:11598   */\n      sub\n        /* \"#utility.yul\":11573:11576   */\n      dup10\n        /* \"#utility.yul\":11566:11599   */\n      mstore\n        /* \"#utility.yul\":11639:11645   */\n      dup2\n        /* \"#utility.yul\":11633:11646   */\n      mload\n        /* \"#utility.yul\":11667:11781   */\n      tag_397\n        /* \"#utility.yul\":11776:11780   */\n      dup6\n        /* \"#utility.yul\":11761:11774   */\n      dup3\n        /* \"#utility.yul\":11667:11781   */\n      tag_256\n      jump\t// in\n    tag_397:\n        /* \"#utility.yul\":11659:11781   */\n      swap5\n      pop\n        /* \"#utility.yul\":11804:11889   */\n      tag_398\n        /* \"#utility.yul\":11882:11888   */\n      dup4\n        /* \"#utility.yul\":11804:11889   */\n      tag_257\n      jump\t// in\n    tag_398:\n        /* \"#utility.yul\":11794:11889   */\n      swap3\n      pop\n        /* \"#utility.yul\":11918:11922   */\n      0x20\n        /* \"#utility.yul\":11913:11916   */\n      dup11\n        /* \"#utility.yul\":11909:11923   */\n      add\n        /* \"#utility.yul\":11902:11923   */\n      swap10\n      pop\n        /* \"#utility.yul\":11552:11933   */\n      pop\n        /* \"#utility.yul\":11539:11540   */\n      0x01\n        /* \"#utility.yul\":11536:11537   */\n      dup2\n        /* \"#utility.yul\":11532:11541   */\n      add\n        /* \"#utility.yul\":11527:11541   */\n      swap1\n      pop\n        /* \"#utility.yul\":11492:11933   */\n      jump(tag_394)\n    tag_396:\n        /* \"#utility.yul\":11496:11510   */\n      pop\n        /* \"#utility.yul\":11949:11953   */\n      dup3\n        /* \"#utility.yul\":11942:11953   */\n      swap8\n      pop\n        /* \"#utility.yul\":11969:11972   */\n      dup8\n        /* \"#utility.yul\":11962:11972   */\n      swap6\n      pop\n        /* \"#utility.yul\":11041:11978   */\n      pop\n      pop\n      pop\n      pop\n      pop\n        /* \"#utility.yul\":10867:11978   */\n      swap3\n      swap2\n      pop\n      pop\n      jump\t// out\n        /* \"#utility.yul\":11984:12457   */\n    tag_28:\n        /* \"#utility.yul\":12177:12181   */\n      0x00\n        /* \"#utility.yul\":12215:12217   */\n      0x20\n        /* \"#utility.yul\":12204:12213   */\n      dup3\n        /* \"#utility.yul\":12200:12218   */\n      add\n        /* \"#utility.yul\":12192:12218   */\n      swap1\n      pop\n        /* \"#utility.yul\":12264:12273   */\n      dup2\n        /* \"#utility.yul\":12258:12262   */\n      dup2\n        /* \"#utility.yul\":12254:12274   */\n      sub\n        /* \"#utility.yul\":12250:12251   */\n      0x00\n        /* \"#utility.yul\":12239:12248   */\n      dup4\n        /* \"#utility.yul\":12235:12252   */\n      add\n        /* \"#utility.yul\":12228:12275   */\n      mstore\n        /* \"#utility.yul\":12292:12450   */\n      tag_400\n        /* \"#utility.yul\":12445:12449   */\n      dup2\n        /* \"#utility.yul\":12436:12442   */\n      dup5\n        /* \"#utility.yul\":12292:12450   */\n      tag_258\n      jump\t// in\n    tag_400:\n        /* \"#utility.yul\":12284:12450   */\n      swap1\n      pop\n        /* \"#utility.yul\":11984:12457   */\n      swap3\n      swap2\n      pop\n      pop\n      jump\t// out\n        /* \"#utility.yul\":12463:13622   */\n    tag_33:\n        /* \"#utility.yul\":12784:12788   */\n      0x00\n        /* \"#utility.yul\":12822:12825   */\n      0xe0\n        /* \"#utility.yul\":12811:12820   */\n      dup3\n        /* \"#utility.yul\":12807:12826   */\n      add\n        /* \"#utility.yul\":12799:12826   */\n      swap1\n      pop\n        /* \"#utility.yul\":12872:12881   */\n      dup2\n        /* \"#utility.yul\":12866:12870   */\n      dup2\n        /* \"#utility.yul\":12862:12882   */\n      sub\n        /* \"#utility.yul\":12858:12859   */\n      0x00\n        /* \"#utility.yul\":12847:12856   */\n      dup4\n        /* \"#utility.yul\":12843:12860   */\n      add\n        /* \"#utility.yul\":12836:12883   */\n      mstore\n        /* \"#utility.yul\":12900:12978   */\n      tag_402\n        /* \"#utility.yul\":12973:12977   */\n      dup2\n        /* \"#utility.yul\":12964:12970   */\n      dup11\n        /* \"#utility.yul\":12900:12978   */\n      tag_249\n      jump\t// in\n    tag_402:\n        /* \"#utility.yul\":12892:12978   */\n      swap1\n      pop\n        /* \"#utility.yul\":13025:13034   */\n      dup2\n        /* \"#utility.yul\":13019:13023   */\n      dup2\n        /* \"#utility.yul\":13015:13035   */\n      sub\n        /* \"#utility.yul\":13010:13012   */\n      0x20\n        /* \"#utility.yul\":12999:13008   */\n      dup4\n        /* \"#utility.yul\":12995:13013   */\n      add\n        /* \"#utility.yul\":12988:13036   */\n      mstore\n        /* \"#utility.yul\":13053:13131   */\n      tag_403\n        /* \"#utility.yul\":13126:13130   */\n      dup2\n        /* \"#utility.yul\":13117:13123   */\n      dup10\n        /* \"#utility.yul\":13053:13131   */\n      tag_249\n      jump\t// in\n    tag_403:\n        /* \"#utility.yul\":13045:13131   */\n      swap1\n      pop\n        /* \"#utility.yul\":13141:13213   */\n      tag_404\n        /* \"#utility.yul\":13209:13211   */\n      0x40\n        /* \"#utility.yul\":13198:13207   */\n      dup4\n        /* \"#utility.yul\":13194:13212   */\n      add\n        /* \"#utility.yul\":13185:13191   */\n      dup9\n        /* \"#utility.yul\":13141:13213   */\n      tag_250\n      jump\t// in\n    tag_404:\n        /* \"#utility.yul\":13260:13269   */\n      dup2\n        /* \"#utility.yul\":13254:13258   */\n      dup2\n        /* \"#utility.yul\":13250:13270   */\n      sub\n        /* \"#utility.yul\":13245:13247   */\n      0x60\n        /* \"#utility.yul\":13234:13243   */\n      dup4\n        /* \"#utility.yul\":13230:13248   */\n      add\n        /* \"#utility.yul\":13223:13271   */\n      mstore\n        /* \"#utility.yul\":13288:13366   */\n      tag_405\n        /* \"#utility.yul\":13361:13365   */\n      dup2\n        /* \"#utility.yul\":13352:13358   */\n      dup8\n        /* \"#utility.yul\":13288:13366   */\n      tag_249\n      jump\t// in\n    tag_405:\n        /* \"#utility.yul\":13280:13366   */\n      swap1\n      pop\n        /* \"#utility.yul\":13376:13449   */\n      tag_406\n        /* \"#utility.yul\":13444:13447   */\n      0x80\n        /* \"#utility.yul\":13433:13442   */\n      dup4\n        /* \"#utility.yul\":13429:13448   */\n      add\n        /* \"#utility.yul\":13420:13426   */\n      dup7\n        /* \"#utility.yul\":13376:13449   */\n      tag_250\n      jump\t// in\n    tag_406:\n        /* \"#utility.yul\":13459:13532   */\n      tag_407\n        /* \"#utility.yul\":13527:13530   */\n      0xa0\n        /* \"#utility.yul\":13516:13525   */\n      dup4\n        /* \"#utility.yul\":13512:13531   */\n      add\n        /* \"#utility.yul\":13503:13509   */\n      dup6\n        /* \"#utility.yul\":13459:13532   */\n      tag_251\n      jump\t// in\n    tag_407:\n        /* \"#utility.yul\":13542:13615   */\n      tag_408\n        /* \"#utility.yul\":13610:13613   */\n      0xc0\n        /* \"#utility.yul\":13599:13608   */\n      dup4\n        /* \"#utility.yul\":13595:13614   */\n      add\n        /* \"#utility.yul\":13586:13592   */\n      dup5\n        /* \"#utility.yul\":13542:13615   */\n      tag_250\n      jump\t// in\n    tag_408:\n        /* \"#utility.yul\":12463:13622   */\n      swap9\n      swap8\n      pop\n      pop\n      pop\n      pop\n      pop\n      pop\n      pop\n      pop\n      jump\t// out\n        /* \"#utility.yul\":13628:13750   */\n    tag_259:\n        /* \"#utility.yul\":13701:13725   */\n      tag_410\n        /* \"#utility.yul\":13719:13724   */\n      dup2\n        /* \"#utility.yul\":13701:13725   */\n      tag_237\n      jump\t// in\n    tag_410:\n        /* \"#utility.yul\":13694:13699   */\n      dup2\n        /* \"#utility.yul\":13691:13726   */\n      eq\n        /* \"#utility.yul\":13681:13744   */\n      tag_411\n      jumpi\n        /* \"#utility.yul\":13740:13741   */\n      0x00\n        /* \"#utility.yul\":13737:13738   */\n      dup1\n        /* \"#utility.yul\":13730:13742   */\n      revert\n        /* \"#utility.yul\":13681:13744   */\n    tag_411:\n        /* \"#utility.yul\":13628:13750   */\n      pop\n      jump\t// out\n        /* \"#utility.yul\":13756:13895   */\n    tag_260:\n        /* \"#utility.yul\":13802:13807   */\n      0x00\n        /* \"#utility.yul\":13840:13846   */\n      dup2\n        /* \"#utility.yul\":13827:13847   */\n      calldataload\n        /* \"#utility.yul\":13818:13847   */\n      swap1\n      pop\n        /* \"#utility.yul\":13856:13889   */\n      tag_413\n        /* \"#utility.yul\":13883:13888   */\n      dup2\n        /* \"#utility.yul\":13856:13889   */\n      tag_259\n      jump\t// in\n    tag_413:\n        /* \"#utility.yul\":13756:13895   */\n      swap3\n      swap2\n      pop\n      pop\n      jump\t// out\n        /* \"#utility.yul\":13901:14230   */\n    tag_38:\n        /* \"#utility.yul\":13960:13966   */\n      0x00\n        /* \"#utility.yul\":14009:14011   */\n      0x20\n        /* \"#utility.yul\":13997:14006   */\n      dup3\n        /* \"#utility.yul\":13988:13995   */\n      dup5\n        /* \"#utility.yul\":13984:14007   */\n      sub\n        /* \"#utility.yul\":13980:14012   */\n      slt\n        /* \"#utility.yul\":13977:14096   */\n      iszero\n      tag_415\n      jumpi\n        /* \"#utility.yul\":14015:14094   */\n      tag_416\n      tag_244\n      jump\t// in\n    tag_416:\n        /* \"#utility.yul\":13977:14096   */\n    tag_415:\n        /* \"#utility.yul\":14135:14136   */\n      0x00\n        /* \"#utility.yul\":14160:14213   */\n      tag_417\n        /* \"#utility.yul\":14205:14212   */\n      dup5\n        /* \"#utility.yul\":14196:14202   */\n      dup3\n        /* \"#utility.yul\":14185:14194   */\n      dup6\n        /* \"#utility.yul\":14181:14203   */\n      add\n        /* \"#utility.yul\":14160:14213   */\n      tag_260\n      jump\t// in\n    tag_417:\n        /* \"#utility.yul\":14150:14213   */\n      swap2\n      pop\n        /* \"#utility.yul\":14106:14223   */\n      pop\n        /* \"#utility.yul\":13901:14230   */\n      swap3\n      swap2\n      pop\n      pop\n      jump\t// out\n        /* \"#utility.yul\":14236:14326   */\n    tag_261:\n        /* \"#utility.yul\":14270:14277   */\n      0x00\n        /* \"#utility.yul\":14313:14318   */\n      dup2\n        /* \"#utility.yul\":14306:14319   */\n      iszero\n        /* \"#utility.yul\":14299:14320   */\n      iszero\n        /* \"#utility.yul\":14288:14320   */\n      swap1\n      pop\n        /* \"#utility.yul\":14236:14326   */\n      swap2\n      swap1\n      pop\n      jump\t// out\n        /* \"#utility.yul\":14332:14441   */\n    tag_262:\n        /* \"#utility.yul\":14413:14434   */\n      tag_420\n        /* \"#utility.yul\":14428:14433   */\n      dup2\n        /* \"#utility.yul\":14413:14434   */\n      tag_261\n      jump\t// in\n    tag_420:\n        /* \"#utility.yul\":14408:14411   */\n      dup3\n        /* \"#utility.yul\":14401:14435   */\n      mstore\n        /* \"#utility.yul\":14332:14441   */\n      pop\n      pop\n      jump\t// out\n        /* \"#utility.yul\":14447:14657   */\n    tag_41:\n        /* \"#utility.yul\":14534:14538   */\n      0x00\n        /* \"#utility.yul\":14572:14574   */\n      0x20\n        /* \"#utility.yul\":14561:14570   */\n      dup3\n        /* \"#utility.yul\":14557:14575   */\n      add\n        /* \"#utility.yul\":14549:14575   */\n      swap1\n      pop\n        /* \"#utility.yul\":14585:14650   */\n      tag_422\n        /* \"#utility.yul\":14647:14648   */\n      0x00\n        /* \"#utility.yul\":14636:14645   */\n      dup4\n        /* \"#utility.yul\":14632:14649   */\n      add\n        /* \"#utility.yul\":14623:14629   */\n      dup5\n        /* \"#utility.yul\":14585:14650   */\n      tag_262\n      jump\t// in\n    tag_422:\n        /* \"#utility.yul\":14447:14657   */\n      swap3\n      swap2\n      pop\n      pop\n      jump\t// out\n        /* \"#utility.yul\":14663:14780   */\n    tag_263:\n        /* \"#utility.yul\":14772:14773   */\n      0x00\n        /* \"#utility.yul\":14769:14770   */\n      dup1\n        /* \"#utility.yul\":14762:14774   */\n      revert\n        /* \"#utility.yul\":14786:14903   */\n    tag_264:\n        /* \"#utility.yul\":14895:14896   */\n      0x00\n        /* \"#utility.yul\":14892:14893   */\n      dup1\n        /* \"#utility.yul\":14885:14897   */\n      revert\n        /* \"#utility.yul\":14909:15026   */\n    tag_265:\n        /* \"#utility.yul\":15018:15019   */\n      0x00\n        /* \"#utility.yul\":15015:15016   */\n      dup1\n        /* \"#utility.yul\":15008:15020   */\n      revert\n        /* \"#utility.yul\":15046:15599   */\n    tag_266:\n        /* \"#utility.yul\":15104:15112   */\n      0x00\n        /* \"#utility.yul\":15114:15120   */\n      dup1\n        /* \"#utility.yul\":15164:15167   */\n      dup4\n        /* \"#utility.yul\":15157:15161   */\n      0x1f\n        /* \"#utility.yul\":15149:15155   */\n      dup5\n        /* \"#utility.yul\":15145:15162   */\n      add\n        /* \"#utility.yul\":15141:15168   */\n      slt\n        /* \"#utility.yul\":15131:15253   */\n      tag_427\n      jumpi\n        /* \"#utility.yul\":15172:15251   */\n      tag_428\n      tag_263\n      jump\t// in\n    tag_428:\n        /* \"#utility.yul\":15131:15253   */\n    tag_427:\n        /* \"#utility.yul\":15285:15291   */\n      dup3\n        /* \"#utility.yul\":15272:15292   */\n      calldataload\n        /* \"#utility.yul\":15262:15292   */\n      swap1\n      pop\n        /* \"#utility.yul\":15315:15333   */\n      0xffffffffffffffff\n        /* \"#utility.yul\":15307:15313   */\n      dup2\n        /* \"#utility.yul\":15304:15334   */\n      gt\n        /* \"#utility.yul\":15301:15418   */\n      iszero\n      tag_429\n      jumpi\n        /* \"#utility.yul\":15337:15416   */\n      tag_430\n      tag_264\n      jump\t// in\n    tag_430:\n        /* \"#utility.yul\":15301:15418   */\n    tag_429:\n        /* \"#utility.yul\":15451:15455   */\n      0x20\n        /* \"#utility.yul\":15443:15449   */\n      dup4\n        /* \"#utility.yul\":15439:15456   */\n      add\n        /* \"#utility.yul\":15427:15456   */\n      swap2\n      pop\n        /* \"#utility.yul\":15505:15508   */\n      dup4\n        /* \"#utility.yul\":15497:15501   */\n      0x01\n        /* \"#utility.yul\":15489:15495   */\n      dup3\n        /* \"#utility.yul\":15485:15502   */\n      mul\n        /* \"#utility.yul\":15475:15483   */\n      dup4\n        /* \"#utility.yul\":15471:15503   */\n      add\n        /* \"#utility.yul\":15468:15509   */\n      gt\n        /* \"#utility.yul\":15465:15593   */\n      iszero\n      tag_431\n      jumpi\n        /* \"#utility.yul\":15512:15591   */\n      tag_432\n      tag_265\n      jump\t// in\n    tag_432:\n        /* \"#utility.yul\":15465:15593   */\n    tag_431:\n        /* \"#utility.yul\":15046:15599   */\n      swap3\n      pop\n      swap3\n      swap1\n      pop\n      jump\t// out\n        /* \"#utility.yul\":15605:16624   */\n    tag_44:\n        /* \"#utility.yul\":15706:15712   */\n      0x00\n        /* \"#utility.yul\":15714:15720   */\n      dup1\n        /* \"#utility.yul\":15722:15728   */\n      0x00\n        /* \"#utility.yul\":15730:15736   */\n      dup1\n        /* \"#utility.yul\":15738:15744   */\n      0x00\n        /* \"#utility.yul\":15787:15789   */\n      0x60\n        /* \"#utility.yul\":15775:15784   */\n      dup7\n        /* \"#utility.yul\":15766:15773   */\n      dup9\n        /* \"#utility.yul\":15762:15785   */\n      sub\n        /* \"#utility.yul\":15758:15790   */\n      slt\n        /* \"#utility.yul\":15755:15874   */\n      iszero\n      tag_434\n      jumpi\n        /* \"#utility.yul\":15793:15872   */\n      tag_435\n      tag_244\n      jump\t// in\n    tag_435:\n        /* \"#utility.yul\":15755:15874   */\n    tag_434:\n        /* \"#utility.yul\":15941:15942   */\n      0x00\n        /* \"#utility.yul\":15930:15939   */\n      dup7\n        /* \"#utility.yul\":15926:15943   */\n      add\n        /* \"#utility.yul\":15913:15944   */\n      calldataload\n        /* \"#utility.yul\":15971:15989   */\n      0xffffffffffffffff\n        /* \"#utility.yul\":15963:15969   */\n      dup2\n        /* \"#utility.yul\":15960:15990   */\n      gt\n        /* \"#utility.yul\":15957:16074   */\n      iszero\n      tag_436\n      jumpi\n        /* \"#utility.yul\":15993:16072   */\n      tag_437\n      tag_245\n      jump\t// in\n    tag_437:\n        /* \"#utility.yul\":15957:16074   */\n    tag_436:\n        /* \"#utility.yul\":16106:16171   */\n      tag_438\n        /* \"#utility.yul\":16163:16170   */\n      dup9\n        /* \"#utility.yul\":16154:16160   */\n      dup3\n        /* \"#utility.yul\":16143:16152   */\n      dup10\n        /* \"#utility.yul\":16139:16161   */\n      add\n        /* \"#utility.yul\":16106:16171   */\n      tag_266\n      jump\t// in\n    tag_438:\n        /* \"#utility.yul\":16088:16171   */\n      swap6\n      pop\n      swap6\n      pop\n        /* \"#utility.yul\":15884:16181   */\n      pop\n        /* \"#utility.yul\":16220:16222   */\n      0x20\n        /* \"#utility.yul\":16246:16299   */\n      tag_439\n        /* \"#utility.yul\":16291:16298   */\n      dup9\n        /* \"#utility.yul\":16282:16288   */\n      dup3\n        /* \"#utility.yul\":16271:16280   */\n      dup10\n        /* \"#utility.yul\":16267:16289   */\n      add\n        /* \"#utility.yul\":16246:16299   */\n      tag_247\n      jump\t// in\n    tag_439:\n        /* \"#utility.yul\":16236:16299   */\n      swap4\n      pop\n        /* \"#utility.yul\":16191:16309   */\n      pop\n        /* \"#utility.yul\":16376:16378   */\n      0x40\n        /* \"#utility.yul\":16365:16374   */\n      dup7\n        /* \"#utility.yul\":16361:16379   */\n      add\n        /* \"#utility.yul\":16348:16380   */\n      calldataload\n        /* \"#utility.yul\":16407:16425   */\n      0xffffffffffffffff\n        /* \"#utility.yul\":16399:16405   */\n      dup2\n        /* \"#utility.yul\":16396:16426   */\n      gt\n        /* \"#utility.yul\":16393:16510   */\n      iszero\n      tag_440\n      jumpi\n        /* \"#utility.yul\":16429:16508   */\n      tag_441\n      tag_245\n      jump\t// in\n    tag_441:\n        /* \"#utility.yul\":16393:16510   */\n    tag_440:\n        /* \"#utility.yul\":16542:16607   */\n      tag_442\n        /* \"#utility.yul\":16599:16606   */\n      dup9\n        /* \"#utility.yul\":16590:16596   */\n      dup3\n        /* \"#utility.yul\":16579:16588   */\n      dup10\n        /* \"#utility.yul\":16575:16597   */\n      add\n        /* \"#utility.yul\":16542:16607   */\n      tag_266\n      jump\t// in\n    tag_442:\n        /* \"#utility.yul\":16524:16607   */\n      swap3\n      pop\n      swap3\n      pop\n        /* \"#utility.yul\":16319:16617   */\n      pop\n        /* \"#utility.yul\":15605:16624   */\n      swap3\n      swap6\n      pop\n      swap3\n      swap6\n      swap1\n      swap4\n      pop\n      jump\t// out\n        /* \"#utility.yul\":16630:17104   */\n    tag_48:\n        /* \"#utility.yul\":16698:16704   */\n      0x00\n        /* \"#utility.yul\":16706:16712   */\n      dup1\n        /* \"#utility.yul\":16755:16757   */\n      0x40\n        /* \"#utility.yul\":16743:16752   */\n      dup4\n        /* \"#utility.yul\":16734:16741   */\n      dup6\n        /* \"#utility.yul\":16730:16753   */\n      sub\n        /* \"#utility.yul\":16726:16758   */\n      slt\n        /* \"#utility.yul\":16723:16842   */\n      iszero\n      tag_444\n      jumpi\n        /* \"#utility.yul\":16761:16840   */\n      tag_445\n      tag_244\n      jump\t// in\n    tag_445:\n        /* \"#utility.yul\":16723:16842   */\n    tag_444:\n        /* \"#utility.yul\":16881:16882   */\n      0x00\n        /* \"#utility.yul\":16906:16959   */\n      tag_446\n        /* \"#utility.yul\":16951:16958   */\n      dup6\n        /* \"#utility.yul\":16942:16948   */\n      dup3\n        /* \"#utility.yul\":16931:16940   */\n      dup7\n        /* \"#utility.yul\":16927:16949   */\n      add\n        /* \"#utility.yul\":16906:16959   */\n      tag_247\n      jump\t// in\n    tag_446:\n        /* \"#utility.yul\":16896:16959   */\n      swap3\n      pop\n        /* \"#utility.yul\":16852:16969   */\n      pop\n        /* \"#utility.yul\":17008:17010   */\n      0x20\n        /* \"#utility.yul\":17034:17087   */\n      tag_447\n        /* \"#utility.yul\":17079:17086   */\n      dup6\n        /* \"#utility.yul\":17070:17076   */\n      dup3\n        /* \"#utility.yul\":17059:17068   */\n      dup7\n        /* \"#utility.yul\":17055:17077   */\n      add\n        /* \"#utility.yul\":17034:17087   */\n      tag_247\n      jump\t// in\n    tag_447:\n        /* \"#utility.yul\":17024:17087   */\n      swap2\n      pop\n        /* \"#utility.yul\":16979:17097   */\n      pop\n        /* \"#utility.yul\":16630:17104   */\n      swap3\n      pop\n      swap3\n      swap1\n      pop\n      jump\t// out\n        /* \"#utility.yul\":17110:17423   */\n    tag_58:\n        /* \"#utility.yul\":17223:17227   */\n      0x00\n        /* \"#utility.yul\":17261:17263   */\n      0x20\n        /* \"#utility.yul\":17250:17259   */\n      dup3\n        /* \"#utility.yul\":17246:17264   */\n      add\n        /* \"#utility.yul\":17238:17264   */\n      swap1\n      pop\n        /* \"#utility.yul\":17310:17319   */\n      dup2\n        /* \"#utility.yul\":17304:17308   */\n      dup2\n        /* \"#utility.yul\":17300:17320   */\n      sub\n        /* \"#utility.yul\":17296:17297   */\n      0x00\n        /* \"#utility.yul\":17285:17294   */\n      dup4\n        /* \"#utility.yul\":17281:17298   */\n      add\n        /* \"#utility.yul\":17274:17321   */\n      mstore\n        /* \"#utility.yul\":17338:17416   */\n      tag_449\n        /* \"#utility.yul\":17411:17415   */\n      dup2\n        /* \"#utility.yul\":17402:17408   */\n      dup5\n        /* \"#utility.yul\":17338:17416   */\n      tag_249\n      jump\t// in\n    tag_449:\n        /* \"#utility.yul\":17330:17416   */\n      swap1\n      pop\n        /* \"#utility.yul\":17110:17423   */\n      swap3\n      swap2\n      pop\n      pop\n      jump\t// out\n        /* \"#utility.yul\":17429:17609   */\n    tag_267:\n        /* \"#utility.yul\":17477:17554   */\n      0x4e487b7100000000000000000000000000000000000000000000000000000000\n        /* \"#utility.yul\":17474:17475   */\n      0x00\n        /* \"#utility.yul\":17467:17555   */\n      mstore\n        /* \"#utility.yul\":17574:17578   */\n      0x11\n        /* \"#utility.yul\":17571:17572   */\n      0x04\n        /* \"#utility.yul\":17564:17579   */\n      mstore\n        /* \"#utility.yul\":17598:17602   */\n      0x24\n        /* \"#utility.yul\":17595:17596   */\n      0x00\n        /* \"#utility.yul\":17588:17603   */\n      revert\n        /* \"#utility.yul\":17615:17809   */\n    tag_61:\n        /* \"#utility.yul\":17655:17659   */\n      0x00\n        /* \"#utility.yul\":17675:17695   */\n      tag_452\n        /* \"#utility.yul\":17693:17694   */\n      dup3\n        /* \"#utility.yul\":17675:17695   */\n      tag_234\n      jump\t// in\n    tag_452:\n        /* \"#utility.yul\":17670:17695   */\n      swap2\n      pop\n        /* \"#utility.yul\":17709:17729   */\n      tag_453\n        /* \"#utility.yul\":17727:17728   */\n      dup4\n        /* \"#utility.yul\":17709:17729   */\n      tag_234\n      jump\t// in\n    tag_453:\n        /* \"#utility.yul\":17704:17729   */\n      swap3\n      pop\n        /* \"#utility.yul\":17753:17754   */\n      dup3\n        /* \"#utility.yul\":17750:17751   */\n      dup3\n        /* \"#utility.yul\":17746:17755   */\n      sub\n        /* \"#utility.yul\":17738:17755   */\n      swap1\n      pop\n        /* \"#utility.yul\":17777:17778   */\n      dup2\n        /* \"#utility.yul\":17771:17775   */\n      dup2\n        /* \"#utility.yul\":17768:17779   */\n      gt\n        /* \"#utility.yul\":17765:17802   */\n      iszero\n      tag_454\n      jumpi\n        /* \"#utility.yul\":17782:17800   */\n      tag_455\n      tag_267\n      jump\t// in\n    tag_455:\n        /* \"#utility.yul\":17765:17802   */\n    tag_454:\n        /* \"#utility.yul\":17615:17809   */\n      swap3\n      swap2\n      pop\n      pop\n      jump\t// out\n        /* \"#utility.yul\":17815:17995   */\n    tag_64:\n        /* \"#utility.yul\":17863:17940   */\n      0x4e487b7100000000000000000000000000000000000000000000000000000000\n        /* \"#utility.yul\":17860:17861   */\n      0x00\n        /* \"#utility.yul\":17853:17941   */\n      mstore\n        /* \"#utility.yul\":17960:17964   */\n      0x41\n        /* \"#utility.yul\":17957:17958   */\n      0x04\n        /* \"#utility.yul\":17950:17965   */\n      mstore\n        /* \"#utility.yul\":17984:17988   */\n      0x24\n        /* \"#utility.yul\":17981:17982   */\n      0x00\n        /* \"#utility.yul\":17974:17989   */\n      revert\n        /* \"#utility.yul\":18001:18181   */\n    tag_268:\n        /* \"#utility.yul\":18049:18126   */\n      0x4e487b7100000000000000000000000000000000000000000000000000000000\n        /* \"#utility.yul\":18046:18047   */\n      0x00\n        /* \"#utility.yul\":18039:18127   */\n      mstore\n        /* \"#utility.yul\":18146:18150   */\n      0x22\n        /* \"#utility.yul\":18143:18144   */\n      0x04\n        /* \"#utility.yul\":18136:18151   */\n      mstore\n        /* \"#utility.yul\":18170:18174   */\n      0x24\n        /* \"#utility.yul\":18167:18168   */\n      0x00\n        /* \"#utility.yul\":18160:18175   */\n      revert\n        /* \"#utility.yul\":18187:18507   */\n    tag_73:\n        /* \"#utility.yul\":18231:18237   */\n      0x00\n        /* \"#utility.yul\":18268:18269   */\n      0x02\n        /* \"#utility.yul\":18262:18266   */\n      dup3\n        /* \"#utility.yul\":18258:18270   */\n      div\n        /* \"#utility.yul\":18248:18270   */\n      swap1\n      pop\n        /* \"#utility.yul\":18315:18316   */\n      0x01\n        /* \"#utility.yul\":18309:18313   */\n      dup3\n        /* \"#utility.yul\":18305:18317   */\n      and\n        /* \"#utility.yul\":18336:18354   */\n      dup1\n        /* \"#utility.yul\":18326:18407   */\n      tag_459\n      jumpi\n        /* \"#utility.yul\":18392:18396   */\n      0x7f\n        /* \"#utility.yul\":18384:18390   */\n      dup3\n        /* \"#utility.yul\":18380:18397   */\n      and\n        /* \"#utility.yul\":18370:18397   */\n      swap2\n      pop\n        /* \"#utility.yul\":18326:18407   */\n    tag_459:\n        /* \"#utility.yul\":18454:18456   */\n      0x20\n        /* \"#utility.yul\":18446:18452   */\n      dup3\n        /* \"#utility.yul\":18443:18457   */\n      lt\n        /* \"#utility.yul\":18423:18441   */\n      dup2\n        /* \"#utility.yul\":18420:18458   */\n      sub\n        /* \"#utility.yul\":18417:18501   */\n      tag_460\n      jumpi\n        /* \"#utility.yul\":18473:18491   */\n      tag_461\n      tag_268\n      jump\t// in\n    tag_461:\n        /* \"#utility.yul\":18417:18501   */\n    tag_460:\n        /* \"#utility.yul\":18238:18507   */\n      pop\n        /* \"#utility.yul\":18187:18507   */\n      swap2\n      swap1\n      pop\n      jump\t// out\n        /* \"#utility.yul\":18513:18693   */\n    tag_86:\n        /* \"#utility.yul\":18561:18638   */\n      0x4e487b7100000000000000000000000000000000000000000000000000000000\n        /* \"#utility.yul\":18558:18559   */\n      0x00\n        /* \"#utility.yul\":18551:18639   */\n      mstore\n        /* \"#utility.yul\":18658:18662   */\n      0x32\n        /* \"#utility.yul\":18655:18656   */\n      0x04\n        /* \"#utility.yul\":18648:18663   */\n      mstore\n        /* \"#utility.yul\":18682:18686   */\n      0x24\n        /* \"#utility.yul\":18679:18680   */\n      0x00\n        /* \"#utility.yul\":18672:18687   */\n      revert\n        /* \"#utility.yul\":18699:18932   */\n    tag_88:\n        /* \"#utility.yul\":18738:18741   */\n      0x00\n        /* \"#utility.yul\":18761:18785   */\n      tag_464\n        /* \"#utility.yul\":18779:18784   */\n      dup3\n        /* \"#utility.yul\":18761:18785   */\n      tag_234\n      jump\t// in\n    tag_464:\n        /* \"#utility.yul\":18752:18785   */\n      swap2\n      pop\n        /* \"#utility.yul\":18807:18873   */\n      0xffffffffffffffffffffffffffffffffffffffffffffffffffffffffffffffff\n        /* \"#utility.yul\":18800:18805   */\n      dup3\n        /* \"#utility.yul\":18797:18874   */\n      sub\n        /* \"#utility.yul\":18794:18897   */\n      tag_465\n      jumpi\n        /* \"#utility.yul\":18877:18895   */\n      tag_466\n      tag_267\n      jump\t// in\n    tag_466:\n        /* \"#utility.yul\":18794:18897   */\n    tag_465:\n        /* \"#utility.yul\":18924:18925   */\n      0x01\n        /* \"#utility.yul\":18917:18922   */\n      dup3\n        /* \"#utility.yul\":18913:18926   */\n      add\n        /* \"#utility.yul\":18906:18926   */\n      swap1\n      pop\n        /* \"#utility.yul\":18699:18932   */\n      swap2\n      swap1\n      pop\n      jump\t// out\n        /* \"#utility.yul\":18938:19115   */\n    tag_269:\n        /* \"#utility.yul\":19078:19107   */\n      0x4e6f7420666f726d20456c656374696f6e20436f6d6d6973696f6e0000000000\n        /* \"#utility.yul\":19074:19075   */\n      0x00\n        /* \"#utility.yul\":19066:19072   */\n      dup3\n        /* \"#utility.yul\":19062:19076   */\n      add\n        /* \"#utility.yul\":19055:19108   */\n      mstore\n        /* \"#utility.yul\":18938:19115   */\n      pop\n      jump\t// out\n        /* \"#utility.yul\":19121:19487   */\n    tag_270:\n        /* \"#utility.yul\":19263:19266   */\n      0x00\n        /* \"#utility.yul\":19284:19351   */\n      tag_469\n        /* \"#utility.yul\":19348:19350   */\n      0x1b\n        /* \"#utility.yul\":19343:19346   */\n      dup4\n        /* \"#utility.yul\":19284:19351   */\n      tag_248\n      jump\t// in\n    tag_469:\n        /* \"#utility.yul\":19277:19351   */\n      swap2\n      pop\n        /* \"#utility.yul\":19360:19453   */\n      tag_470\n        /* \"#utility.yul\":19449:19452   */\n      dup3\n        /* \"#utility.yul\":19360:19453   */\n      tag_269\n      jump\t// in\n    tag_470:\n        /* \"#utility.yul\":19478:19480   */\n      0x20\n        /* \"#utility.yul\":19473:19476   */\n      dup3\n        /* \"#utility.yul\":19469:19481   */\n      add\n        /* \"#utility.yul\":19462:19481   */\n      swap1\n      pop\n        /* \"#utility.yul\":19121:19487   */\n      swap2\n      swap1\n      pop\n      jump\t// out\n        /* \"#utility.yul\":19493:19912   */\n    tag_147:\n        /* \"#utility.yul\":19659:19663   */\n      0x00\n        /* \"#utility.yul\":19697:19699   */\n      0x20\n        /* \"#utility.yul\":19686:19695   */\n      dup3\n        /* \"#utility.yul\":19682:19700   */\n      add\n        /* \"#utility.yul\":19674:19700   */\n      swap1\n      pop\n        /* \"#utility.yul\":19746:19755   */\n      dup2\n        /* \"#utility.yul\":19740:19744   */\n      dup2\n        /* \"#utility.yul\":19736:19756   */\n      sub\n        /* \"#utility.yul\":19732:19733   */\n      0x00\n        /* \"#utility.yul\":19721:19730   */\n      dup4\n        /* \"#utility.yul\":19717:19734   */\n      add\n        /* \"#utility.yul\":19710:19757   */\n      mstore\n        /* \"#utility.yul\":19774:19905   */\n      tag_472\n        /* \"#utility.yul\":19900:19904   */\n      dup2\n        /* \"#utility.yul\":19774:19905   */\n      tag_270\n      jump\t// in\n    tag_472:\n        /* \"#utility.yul\":19766:19905   */\n      swap1\n      pop\n        /* \"#utility.yul\":19493:19912   */\n      swap2\n      swap1\n      pop\n      jump\t// out\n        /* \"#utility.yul\":19918:20082   */\n    tag_271:\n        /* \"#utility.yul\":20058:20074   */\n      0x566f74696e67206973206f766572000000000000000000000000000000000000\n        /* \"#utility.yul\":20054:20055   */\n      0x00\n        /* \"#utility.yul\":20046:20052   */\n      dup3\n        /* \"#utility.yul\":20042:20056   */\n      add\n        /* \"#utility.yul\":20035:20075   */\n      mstore\n        /* \"#utility.yul\":19918:20082   */\n      pop\n      jump\t// out\n        /* \"#utility.yul\":20088:20454   */\n    tag_272:\n        /* \"#utility.yul\":20230:20233   */\n      0x00\n        /* \"#utility.yul\":20251:20318   */\n      tag_475\n        /* \"#utility.yul\":20315:20317   */\n      0x0e\n        /* \"#utility.yul\":20310:20313   */\n      dup4\n        /* \"#utility.yul\":20251:20318   */\n      tag_248\n      jump\t// in\n    tag_475:\n        /* \"#utility.yul\":20244:20318   */\n      swap2\n      pop\n        /* \"#utility.yul\":20327:20420   */\n      tag_476\n        /* \"#utility.yul\":20416:20419   */\n      dup3\n        /* \"#utility.yul\":20327:20420   */\n      tag_271\n      jump\t// in\n    tag_476:\n        /* \"#utility.yul\":20445:20447   */\n      0x20\n        /* \"#utility.yul\":20440:20443   */\n      dup3\n        /* \"#utility.yul\":20436:20448   */\n      add\n        /* \"#utility.yul\":20429:20448   */\n      swap1\n      pop\n        /* \"#utility.yul\":20088:20454   */\n      swap2\n      swap1\n      pop\n      jump\t// out\n        /* \"#utility.yul\":20460:20879   */\n    tag_152:\n        /* \"#utility.yul\":20626:20630   */\n      0x00\n        /* \"#utility.yul\":20664:20666   */\n      0x20\n        /* \"#utility.yul\":20653:20662   */\n      dup3\n        /* \"#utility.yul\":20649:20667   */\n      add\n        /* \"#utility.yul\":20641:20667   */\n      swap1\n      pop\n        /* \"#utility.yul\":20713:20722   */\n      dup2\n        /* \"#utility.yul\":20707:20711   */\n      dup2\n        /* \"#utility.yul\":20703:20723   */\n      sub\n        /* \"#utility.yul\":20699:20700   */\n      0x00\n        /* \"#utility.yul\":20688:20697   */\n      dup4\n        /* \"#utility.yul\":20684:20701   */\n      add\n        /* \"#utility.yul\":20677:20724   */\n      mstore\n        /* \"#utility.yul\":20741:20872   */\n      tag_478\n        /* \"#utility.yul\":20867:20871   */\n      dup2\n        /* \"#utility.yul\":20741:20872   */\n      tag_272\n      jump\t// in\n    tag_478:\n        /* \"#utility.yul\":20733:20872   */\n      swap1\n      pop\n        /* \"#utility.yul\":20460:20879   */\n      swap2\n      swap1\n      pop\n      jump\t// out\n        /* \"#utility.yul\":20885:21056   */\n    tag_273:\n        /* \"#utility.yul\":21025:21048   */\n      0x4e6f2043616e6469646174652072656769737465720000000000000000000000\n        /* \"#utility.yul\":21021:21022   */\n      0x00\n        /* \"#utility.yul\":21013:21019   */\n      dup3\n        /* \"#utility.yul\":21009:21023   */\n      add\n        /* \"#utility.yul\":21002:21049   */\n      mstore\n        /* \"#utility.yul\":20885:21056   */\n      pop\n      jump\t// out\n        /* \"#utility.yul\":21062:21428   */\n    tag_274:\n        /* \"#utility.yul\":21204:21207   */\n      0x00\n        /* \"#utility.yul\":21225:21292   */\n      tag_481\n        /* \"#utility.yul\":21289:21291   */\n      0x15\n        /* \"#utility.yul\":21284:21287   */\n      dup4\n        /* \"#utility.yul\":21225:21292   */\n      tag_248\n      jump\t// in\n    tag_481:\n        /* \"#utility.yul\":21218:21292   */\n      swap2\n      pop\n        /* \"#utility.yul\":21301:21394   */\n      tag_482\n        /* \"#utility.yul\":21390:21393   */\n      dup3\n        /* \"#utility.yul\":21301:21394   */\n      tag_273\n      jump\t// in\n    tag_482:\n        /* \"#utility.yul\":21419:21421   */\n      0x20\n        /* \"#utility.yul\":21414:21417   */\n      dup3\n        /* \"#utility.yul\":21410:21422   */\n      add\n        /* \"#utility.yul\":21403:21422   */\n      swap1\n      pop\n        /* \"#utility.yul\":21062:21428   */\n      swap2\n      swap1\n      pop\n      jump\t// out\n        /* \"#utility.yul\":21434:21853   */\n    tag_156:\n        /* \"#utility.yul\":21600:21604   */\n      0x00\n        /* \"#utility.yul\":21638:21640   */\n      0x20\n        /* \"#utility.yul\":21627:21636   */\n      dup3\n        /* \"#utility.yul\":21623:21641   */\n      add\n        /* \"#utility.yul\":21615:21641   */\n      swap1\n      pop\n        /* \"#utility.yul\":21687:21696   */\n      dup2\n        /* \"#utility.yul\":21681:21685   */\n      dup2\n        /* \"#utility.yul\":21677:21697   */\n      sub\n        /* \"#utility.yul\":21673:21674   */\n      0x00\n        /* \"#utility.yul\":21662:21671   */\n      dup4\n        /* \"#utility.yul\":21658:21675   */\n      add\n        /* \"#utility.yul\":21651:21698   */\n      mstore\n        /* \"#utility.yul\":21715:21846   */\n      tag_484\n        /* \"#utility.yul\":21841:21845   */\n      dup2\n        /* \"#utility.yul\":21715:21846   */\n      tag_274\n      jump\t// in\n    tag_484:\n        /* \"#utility.yul\":21707:21846   */\n      swap1\n      pop\n        /* \"#utility.yul\":21434:21853   */\n      swap2\n      swap1\n      pop\n      jump\t// out\n        /* \"#utility.yul\":21859:22040   */\n    tag_275:\n        /* \"#utility.yul\":21999:22032   */\n      0x596f7520617265206e6f7420656c696769626c6520666f7220766f74696e6700\n        /* \"#utility.yul\":21995:21996   */\n      0x00\n        /* \"#utility.yul\":21987:21993   */\n      dup3\n        /* \"#utility.yul\":21983:21997   */\n      add\n        /* \"#utility.yul\":21976:22033   */\n      mstore\n        /* \"#utility.yul\":21859:22040   */\n      pop\n      jump\t// out\n        /* \"#utility.yul\":22046:22412   */\n    tag_276:\n        /* \"#utility.yul\":22188:22191   */\n      0x00\n        /* \"#utility.yul\":22209:22276   */\n      tag_487\n        /* \"#utility.yul\":22273:22275   */\n      0x1f\n        /* \"#utility.yul\":22268:22271   */\n      dup4\n        /* \"#utility.yul\":22209:22276   */\n      tag_248\n      jump\t// in\n    tag_487:\n        /* \"#utility.yul\":22202:22276   */\n      swap2\n      pop\n        /* \"#utility.yul\":22285:22378   */\n      tag_488\n        /* \"#utility.yul\":22374:22377   */\n      dup3\n        /* \"#utility.yul\":22285:22378   */\n      tag_275\n      jump\t// in\n    tag_488:\n        /* \"#utility.yul\":22403:22405   */\n      0x20\n        /* \"#utility.yul\":22398:22401   */\n      dup3\n        /* \"#utility.yul\":22394:22406   */\n      add\n        /* \"#utility.yul\":22387:22406   */\n      swap1\n      pop\n        /* \"#utility.yul\":22046:22412   */\n      swap2\n      swap1\n      pop\n      jump\t// out\n        /* \"#utility.yul\":22418:22837   */\n    tag_171:\n        /* \"#utility.yul\":22584:22588   */\n      0x00\n        /* \"#utility.yul\":22622:22624   */\n      0x20\n        /* \"#utility.yul\":22611:22620   */\n      dup3\n        /* \"#utility.yul\":22607:22625   */\n      add\n        /* \"#utility.yul\":22599:22625   */\n      swap1\n      pop\n        /* \"#utility.yul\":22671:22680   */\n      dup2\n        /* \"#utility.yul\":22665:22669   */\n      dup2\n        /* \"#utility.yul\":22661:22681   */\n      sub\n        /* \"#utility.yul\":22657:22658   */\n      0x00\n        /* \"#utility.yul\":22646:22655   */\n      dup4\n        /* \"#utility.yul\":22642:22659   */\n      add\n        /* \"#utility.yul\":22635:22682   */\n      mstore\n        /* \"#utility.yul\":22699:22830   */\n      tag_490\n        /* \"#utility.yul\":22825:22829   */\n      dup2\n        /* \"#utility.yul\":22699:22830   */\n      tag_276\n      jump\t// in\n    tag_490:\n        /* \"#utility.yul\":22691:22830   */\n      swap1\n      pop\n        /* \"#utility.yul\":22418:22837   */\n      swap2\n      swap1\n      pop\n      jump\t// out\n        /* \"#utility.yul\":22843:23015   */\n    tag_277:\n        /* \"#utility.yul\":22983:23007   */\n      0x596f75206861766520616c726561647920766f74656400000000000000000000\n        /* \"#utility.yul\":22979:22980   */\n      0x00\n        /* \"#utility.yul\":22971:22977   */\n      dup3\n        /* \"#utility.yul\":22967:22981   */\n      add\n        /* \"#utility.yul\":22960:23008   */\n      mstore\n        /* \"#utility.yul\":22843:23015   */\n      pop\n      jump\t// out\n        /* \"#utility.yul\":23021:23387   */\n    tag_278:\n        /* \"#utility.yul\":23163:23166   */\n      0x00\n        /* \"#utility.yul\":23184:23251   */\n      tag_493\n        /* \"#utility.yul\":23248:23250   */\n      0x16\n        /* \"#utility.yul\":23243:23246   */\n      dup4\n        /* \"#utility.yul\":23184:23251   */\n      tag_248\n      jump\t// in\n    tag_493:\n        /* \"#utility.yul\":23177:23251   */\n      swap2\n      pop\n        /* \"#utility.yul\":23260:23353   */\n      tag_494\n        /* \"#utility.yul\":23349:23352   */\n      dup3\n        /* \"#utility.yul\":23260:23353   */\n      tag_277\n      jump\t// in\n    tag_494:\n        /* \"#utility.yul\":23378:23380   */\n      0x20\n        /* \"#utility.yul\":23373:23376   */\n      dup3\n        /* \"#utility.yul\":23369:23381   */\n      add\n        /* \"#utility.yul\":23362:23381   */\n      swap1\n      pop\n        /* \"#utility.yul\":23021:23387   */\n      swap2\n      swap1\n      pop\n      jump\t// out\n        /* \"#utility.yul\":23393:23812   */\n    tag_176:\n        /* \"#utility.yul\":23559:23563   */\n      0x00\n        /* \"#utility.yul\":23597:23599   */\n      0x20\n        /* \"#utility.yul\":23586:23595   */\n      dup3\n        /* \"#utility.yul\":23582:23600   */\n      add\n        /* \"#utility.yul\":23574:23600   */\n      swap1\n      pop\n        /* \"#utility.yul\":23646:23655   */\n      dup2\n        /* \"#utility.yul\":23640:23644   */\n      dup2\n        /* \"#utility.yul\":23636:23656   */\n      sub\n        /* \"#utility.yul\":23632:23633   */\n      0x00\n        /* \"#utility.yul\":23621:23630   */\n      dup4\n        /* \"#utility.yul\":23617:23634   */\n      add\n        /* \"#utility.yul\":23610:23657   */\n      mstore\n        /* \"#utility.yul\":23674:23805   */\n      tag_496\n        /* \"#utility.yul\":23800:23804   */\n      dup2\n        /* \"#utility.yul\":23674:23805   */\n      tag_278\n      jump\t// in\n    tag_496:\n        /* \"#utility.yul\":23666:23805   */\n      swap1\n      pop\n        /* \"#utility.yul\":23393:23812   */\n      swap2\n      swap1\n      pop\n      jump\t// out\n        /* \"#utility.yul\":23818:23959   */\n    tag_279:\n        /* \"#utility.yul\":23867:23871   */\n      0x00\n        /* \"#utility.yul\":23890:23893   */\n      dup2\n        /* \"#utility.yul\":23882:23893   */\n      swap1\n      pop\n        /* \"#utility.yul\":23913:23916   */\n      dup2\n        /* \"#utility.yul\":23910:23911   */\n      0x00\n        /* \"#utility.yul\":23903:23917   */\n      mstore\n        /* \"#utility.yul\":23947:23951   */\n      0x20\n        /* \"#utility.yul\":23944:23945   */\n      0x00\n        /* \"#utility.yul\":23934:23952   */\n      keccak256\n        /* \"#utility.yul\":23926:23952   */\n      swap1\n      pop\n        /* \"#utility.yul\":23818:23959   */\n      swap2\n      swap1\n      pop\n      jump\t// out\n        /* \"#utility.yul\":23965:24058   */\n    tag_280:\n        /* \"#utility.yul\":24002:24008   */\n      0x00\n        /* \"#utility.yul\":24049:24051   */\n      0x20\n        /* \"#utility.yul\":24044:24046   */\n      0x1f\n        /* \"#utility.yul\":24037:24042   */\n      dup4\n        /* \"#utility.yul\":24033:24047   */\n      add\n        /* \"#utility.yul\":24029:24052   */\n      div\n        /* \"#utility.yul\":24019:24052   */\n      swap1\n      pop\n        /* \"#utility.yul\":23965:24058   */\n      swap2\n      swap1\n      pop\n      jump\t// out\n        /* \"#utility.yul\":24064:24171   */\n    tag_281:\n        /* \"#utility.yul\":24108:24116   */\n      0x00\n        /* \"#utility.yul\":24158:24163   */\n      dup3\n        /* \"#utility.yul\":24152:24156   */\n      dup3\n        /* \"#utility.yul\":24148:24164   */\n      shl\n        /* \"#utility.yul\":24127:24164   */\n      swap1\n      pop\n        /* \"#utility.yul\":24064:24171   */\n      swap3\n      swap2\n      pop\n      pop\n      jump\t// out\n        /* \"#utility.yul\":24177:24570   */\n    tag_282:\n        /* \"#utility.yul\":24246:24252   */\n      0x00\n        /* \"#utility.yul\":24296:24297   */\n      0x08\n        /* \"#utility.yul\":24284:24294   */\n      dup4\n        /* \"#utility.yul\":24280:24298   */\n      mul\n        /* \"#utility.yul\":24319:24416   */\n      tag_501\n        /* \"#utility.yul\":24349:24415   */\n      0xffffffffffffffffffffffffffffffffffffffffffffffffffffffffffffffff\n        /* \"#utility.yul\":24338:24347   */\n      dup3\n        /* \"#utility.yul\":24319:24416   */\n      tag_281\n      jump\t// in\n    tag_501:\n        /* \"#utility.yul\":24437:24476   */\n      tag_502\n        /* \"#utility.yul\":24467:24475   */\n      dup7\n        /* \"#utility.yul\":24456:24465   */\n      dup4\n        /* \"#utility.yul\":24437:24476   */\n      tag_281\n      jump\t// in\n    tag_502:\n        /* \"#utility.yul\":24425:24476   */\n      swap6\n      pop\n        /* \"#utility.yul\":24509:24513   */\n      dup1\n        /* \"#utility.yul\":24505:24514   */\n      not\n        /* \"#utility.yul\":24498:24503   */\n      dup5\n        /* \"#utility.yul\":24494:24515   */\n      and\n        /* \"#utility.yul\":24485:24515   */\n      swap4\n      pop\n        /* \"#utility.yul\":24558:24562   */\n      dup1\n        /* \"#utility.yul\":24548:24556   */\n      dup7\n        /* \"#utility.yul\":24544:24563   */\n      and\n        /* \"#utility.yul\":24537:24542   */\n      dup5\n        /* \"#utility.yul\":24534:24564   */\n      or\n        /* \"#utility.yul\":24524:24564   */\n      swap3\n      pop\n        /* \"#utility.yul\":24253:24570   */\n      pop\n      pop\n        /* \"#utility.yul\":24177:24570   */\n      swap4\n      swap3\n      pop\n      pop\n      pop\n      jump\t// out\n        /* \"#utility.yul\":24576:24636   */\n    tag_283:\n        /* \"#utility.yul\":24604:24607   */\n      0x00\n        /* \"#utility.yul\":24625:24630   */\n      dup2\n        /* \"#utility.yul\":24618:24630   */\n      swap1\n      pop\n        /* \"#utility.yul\":24576:24636   */\n      swap2\n      swap1\n      pop\n      jump\t// out\n        /* \"#utility.yul\":24642:24784   */\n    tag_284:\n        /* \"#utility.yul\":24692:24701   */\n      0x00\n        /* \"#utility.yul\":24725:24778   */\n      tag_505\n        /* \"#utility.yul\":24743:24777   */\n      tag_506\n        /* \"#utility.yul\":24752:24776   */\n      tag_507\n        /* \"#utility.yul\":24770:24775   */\n      dup5\n        /* \"#utility.yul\":24752:24776   */\n      tag_234\n      jump\t// in\n    tag_507:\n        /* \"#utility.yul\":24743:24777   */\n      tag_283\n      jump\t// in\n    tag_506:\n        /* \"#utility.yul\":24725:24778   */\n      tag_234\n      jump\t// in\n    tag_505:\n        /* \"#utility.yul\":24712:24778   */\n      swap1\n      pop\n        /* \"#utility.yul\":24642:24784   */\n      swap2\n      swap1\n      pop\n      jump\t// out\n        /* \"#utility.yul\":24790:24865   */\n    tag_285:\n        /* \"#utility.yul\":24833:24836   */\n      0x00\n        /* \"#utility.yul\":24854:24859   */\n      dup2\n        /* \"#utility.yul\":24847:24859   */\n      swap1\n      pop\n        /* \"#utility.yul\":24790:24865   */\n      swap2\n      swap1\n      pop\n      jump\t// out\n        /* \"#utility.yul\":24871:25140   */\n    tag_286:\n        /* \"#utility.yul\":24981:25020   */\n      tag_510\n        /* \"#utility.yul\":25012:25019   */\n      dup4\n        /* \"#utility.yul\":24981:25020   */\n      tag_284\n      jump\t// in\n    tag_510:\n        /* \"#utility.yul\":25042:25133   */\n      tag_511\n        /* \"#utility.yul\":25091:25132   */\n      tag_512\n        /* \"#utility.yul\":25115:25131   */\n      dup3\n        /* \"#utility.yul\":25091:25132   */\n      tag_285\n      jump\t// in\n    tag_512:\n        /* \"#utility.yul\":25083:25089   */\n      dup5\n        /* \"#utility.yul\":25076:25080   */\n      dup5\n        /* \"#utility.yul\":25070:25081   */\n      sload\n        /* \"#utility.yul\":25042:25133   */\n      tag_282\n      jump\t// in\n    tag_511:\n        /* \"#utility.yul\":25036:25040   */\n      dup3\n        /* \"#utility.yul\":25029:25134   */\n      sstore\n        /* \"#utility.yul\":24947:25140   */\n      pop\n        /* \"#utility.yul\":24871:25140   */\n      pop\n      pop\n      pop\n      jump\t// out\n        /* \"#utility.yul\":25146:25219   */\n    tag_287:\n        /* \"#utility.yul\":25191:25194   */\n      0x00\n        /* \"#utility.yul\":25146:25219   */\n      swap1\n      jump\t// out\n        /* \"#utility.yul\":25225:25414   */\n    tag_288:\n        /* \"#utility.yul\":25302:25334   */\n      tag_515\n      tag_287\n      jump\t// in\n    tag_515:\n        /* \"#utility.yul\":25343:25408   */\n      tag_516\n        /* \"#utility.yul\":25401:25407   */\n      dup2\n        /* \"#utility.yul\":25393:25399   */\n      dup5\n        /* \"#utility.yul\":25387:25391   */\n      dup5\n        /* \"#utility.yul\":25343:25408   */\n      tag_286\n      jump\t// in\n    tag_516:\n        /* \"#utility.yul\":25278:25414   */\n      pop\n        /* \"#utility.yul\":25225:25414   */\n      pop\n      pop\n      jump\t// out\n        /* \"#utility.yul\":25420:25606   */\n    tag_289:\n        /* \"#utility.yul\":25480:25600   */\n    tag_518:\n        /* \"#utility.yul\":25497:25500   */\n      dup2\n        /* \"#utility.yul\":25490:25495   */\n      dup2\n        /* \"#utility.yul\":25487:25501   */\n      lt\n        /* \"#utility.yul\":25480:25600   */\n      iszero\n      tag_520\n      jumpi\n        /* \"#utility.yul\":25551:25590   */\n      tag_521\n        /* \"#utility.yul\":25588:25589   */\n      0x00\n        /* \"#utility.yul\":25581:25586   */\n      dup3\n        /* \"#utility.yul\":25551:25590   */\n      tag_288\n      jump\t// in\n    tag_521:\n        /* \"#utility.yul\":25524:25525   */\n      0x01\n        /* \"#utility.yul\":25517:25522   */\n      dup2\n        /* \"#utility.yul\":25513:25526   */\n      add\n        /* \"#utility.yul\":25504:25526   */\n      swap1\n      pop\n        /* \"#utility.yul\":25480:25600   */\n      jump(tag_518)\n    tag_520:\n        /* \"#utility.yul\":25420:25606   */\n      pop\n      pop\n      jump\t// out\n        /* \"#utility.yul\":25612:26155   */\n    tag_290:\n        /* \"#utility.yul\":25713:25715   */\n      0x1f\n        /* \"#utility.yul\":25708:25711   */\n      dup3\n        /* \"#utility.yul\":25705:25716   */\n      gt\n        /* \"#utility.yul\":25702:26148   */\n      iszero\n      tag_523\n      jumpi\n        /* \"#utility.yul\":25747:25785   */\n      tag_524\n        /* \"#utility.yul\":25779:25784   */\n      dup2\n        /* \"#utility.yul\":25747:25785   */\n      tag_279\n      jump\t// in\n    tag_524:\n        /* \"#utility.yul\":25831:25860   */\n      tag_525\n        /* \"#utility.yul\":25849:25859   */\n      dup5\n        /* \"#utility.yul\":25831:25860   */\n      tag_280\n      jump\t// in\n    tag_525:\n        /* \"#utility.yul\":25821:25829   */\n      dup2\n        /* \"#utility.yul\":25817:25861   */\n      add\n        /* \"#utility.yul\":26014:26016   */\n      0x20\n        /* \"#utility.yul\":26002:26012   */\n      dup6\n        /* \"#utility.yul\":25999:26017   */\n      lt\n        /* \"#utility.yul\":25996:26045   */\n      iszero\n      tag_526\n      jumpi\n        /* \"#utility.yul\":26035:26043   */\n      dup2\n        /* \"#utility.yul\":26020:26043   */\n      swap1\n      pop\n        /* \"#utility.yul\":25996:26045   */\n    tag_526:\n        /* \"#utility.yul\":26058:26138   */\n      tag_527\n        /* \"#utility.yul\":26114:26136   */\n      tag_528\n        /* \"#utility.yul\":26132:26135   */\n      dup6\n        /* \"#utility.yul\":26114:26136   */\n      tag_280\n      jump\t// in\n    tag_528:\n        /* \"#utility.yul\":26104:26112   */\n      dup4\n        /* \"#utility.yul\":26100:26137   */\n      add\n        /* \"#utility.yul\":26087:26098   */\n      dup3\n        /* \"#utility.yul\":26058:26138   */\n      tag_289\n      jump\t// in\n    tag_527:\n        /* \"#utility.yul\":25717:26148   */\n      pop\n      pop\n        /* \"#utility.yul\":25702:26148   */\n    tag_523:\n        /* \"#utility.yul\":25612:26155   */\n      pop\n      pop\n      pop\n      jump\t// out\n        /* \"#utility.yul\":26161:26278   */\n    tag_291:\n        /* \"#utility.yul\":26215:26223   */\n      0x00\n        /* \"#utility.yul\":26265:26270   */\n      dup3\n        /* \"#utility.yul\":26259:26263   */\n      dup3\n        /* \"#utility.yul\":26255:26271   */\n      shr\n        /* \"#utility.yul\":26234:26271   */\n      swap1\n      pop\n        /* \"#utility.yul\":26161:26278   */\n      swap3\n      swap2\n      pop\n      pop\n      jump\t// out\n        /* \"#utility.yul\":26284:26453   */\n    tag_292:\n        /* \"#utility.yul\":26328:26334   */\n      0x00\n        /* \"#utility.yul\":26361:26412   */\n      tag_531\n        /* \"#utility.yul\":26409:26410   */\n      0x00\n        /* \"#utility.yul\":26405:26411   */\n      not\n        /* \"#utility.yul\":26397:26402   */\n      dup5\n        /* \"#utility.yul\":26394:26395   */\n      0x08\n        /* \"#utility.yul\":26390:26403   */\n      mul\n        /* \"#utility.yul\":26361:26412   */\n      tag_291\n      jump\t// in\n    tag_531:\n        /* \"#utility.yul\":26357:26413   */\n      not\n        /* \"#utility.yul\":26442:26446   */\n      dup1\n        /* \"#utility.yul\":26436:26440   */\n      dup4\n        /* \"#utility.yul\":26432:26447   */\n      and\n        /* \"#utility.yul\":26422:26447   */\n      swap2\n      pop\n        /* \"#utility.yul\":26335:26453   */\n      pop\n        /* \"#utility.yul\":26284:26453   */\n      swap3\n      swap2\n      pop\n      pop\n      jump\t// out\n        /* \"#utility.yul\":26458:26753   */\n    tag_293:\n        /* \"#utility.yul\":26534:26538   */\n      0x00\n        /* \"#utility.yul\":26680:26709   */\n      tag_533\n        /* \"#utility.yul\":26705:26708   */\n      dup4\n        /* \"#utility.yul\":26699:26703   */\n      dup4\n        /* \"#utility.yul\":26680:26709   */\n      tag_292\n      jump\t// in\n    tag_533:\n        /* \"#utility.yul\":26672:26709   */\n      swap2\n      pop\n        /* \"#utility.yul\":26742:26745   */\n      dup3\n        /* \"#utility.yul\":26739:26740   */\n      0x02\n        /* \"#utility.yul\":26735:26746   */\n      mul\n        /* \"#utility.yul\":26729:26733   */\n      dup3\n        /* \"#utility.yul\":26726:26747   */\n      or\n        /* \"#utility.yul\":26718:26747   */\n      swap1\n      pop\n        /* \"#utility.yul\":26458:26753   */\n      swap3\n      swap2\n      pop\n      pop\n      jump\t// out\n        /* \"#utility.yul\":26758:28153   */\n    tag_178:\n        /* \"#utility.yul\":26875:26912   */\n      tag_535\n        /* \"#utility.yul\":26908:26911   */\n      dup3\n        /* \"#utility.yul\":26875:26912   */\n      tag_229\n      jump\t// in\n    tag_535:\n        /* \"#utility.yul\":26977:26995   */\n      0xffffffffffffffff\n        /* \"#utility.yul\":26969:26975   */\n      dup2\n        /* \"#utility.yul\":26966:26996   */\n      gt\n        /* \"#utility.yul\":26963:27019   */\n      iszero\n      tag_536\n      jumpi\n        /* \"#utility.yul\":26999:27017   */\n      tag_537\n      tag_64\n      jump\t// in\n    tag_537:\n        /* \"#utility.yul\":26963:27019   */\n    tag_536:\n        /* \"#utility.yul\":27043:27081   */\n      tag_538\n        /* \"#utility.yul\":27075:27079   */\n      dup3\n        /* \"#utility.yul\":27069:27080   */\n      sload\n        /* \"#utility.yul\":27043:27081   */\n      tag_73\n      jump\t// in\n    tag_538:\n        /* \"#utility.yul\":27128:27195   */\n      tag_539\n        /* \"#utility.yul\":27188:27194   */\n      dup3\n        /* \"#utility.yul\":27180:27186   */\n      dup3\n        /* \"#utility.yul\":27174:27178   */\n      dup6\n        /* \"#utility.yul\":27128:27195   */\n      tag_290\n      jump\t// in\n    tag_539:\n        /* \"#utility.yul\":27222:27223   */\n      0x00\n        /* \"#utility.yul\":27246:27250   */\n      0x20\n        /* \"#utility.yul\":27233:27250   */\n      swap1\n      pop\n        /* \"#utility.yul\":27278:27280   */\n      0x1f\n        /* \"#utility.yul\":27270:27276   */\n      dup4\n        /* \"#utility.yul\":27267:27281   */\n      gt\n        /* \"#utility.yul\":27295:27296   */\n      0x01\n        /* \"#utility.yul\":27290:27908   */\n      dup2\n      eq\n      tag_541\n      jumpi\n        /* \"#utility.yul\":27952:27953   */\n      0x00\n        /* \"#utility.yul\":27969:27975   */\n      dup5\n        /* \"#utility.yul\":27966:28043   */\n      iszero\n      tag_542\n      jumpi\n        /* \"#utility.yul\":28018:28027   */\n      dup3\n        /* \"#utility.yul\":28013:28016   */\n      dup8\n        /* \"#utility.yul\":28009:28028   */\n      add\n        /* \"#utility.yul\":28003:28029   */\n      mload\n        /* \"#utility.yul\":27994:28029   */\n      swap1\n      pop\n        /* \"#utility.yul\":27966:28043   */\n    tag_542:\n        /* \"#utility.yul\":28069:28136   */\n      tag_543\n        /* \"#utility.yul\":28129:28135   */\n      dup6\n        /* \"#utility.yul\":28122:28127   */\n      dup3\n        /* \"#utility.yul\":28069:28136   */\n      tag_293\n      jump\t// in\n    tag_543:\n        /* \"#utility.yul\":28063:28067   */\n      dup7\n        /* \"#utility.yul\":28056:28137   */\n      sstore\n        /* \"#utility.yul\":27925:28147   */\n      pop\n        /* \"#utility.yul\":27260:28147   */\n      jump(tag_540)\n        /* \"#utility.yul\":27290:27908   */\n    tag_541:\n        /* \"#utility.yul\":27342:27346   */\n      0x1f\n        /* \"#utility.yul\":27338:27347   */\n      not\n        /* \"#utility.yul\":27330:27336   */\n      dup5\n        /* \"#utility.yul\":27326:27348   */\n      and\n        /* \"#utility.yul\":27376:27413   */\n      tag_544\n        /* \"#utility.yul\":27408:27412   */\n      dup7\n        /* \"#utility.yul\":27376:27413   */\n      tag_279\n      jump\t// in\n    tag_544:\n        /* \"#utility.yul\":27435:27436   */\n      0x00\n        /* \"#utility.yul\":27449:27657   */\n    tag_545:\n        /* \"#utility.yul\":27463:27470   */\n      dup3\n        /* \"#utility.yul\":27460:27461   */\n      dup2\n        /* \"#utility.yul\":27457:27471   */\n      lt\n        /* \"#utility.yul\":27449:27657   */\n      iszero\n      tag_547\n      jumpi\n        /* \"#utility.yul\":27542:27551   */\n      dup5\n        /* \"#utility.yul\":27537:27540   */\n      dup10\n        /* \"#utility.yul\":27533:27552   */\n      add\n        /* \"#utility.yul\":27527:27553   */\n      mload\n        /* \"#utility.yul\":27519:27525   */\n      dup3\n        /* \"#utility.yul\":27512:27554   */\n      sstore\n        /* \"#utility.yul\":27593:27594   */\n      0x01\n        /* \"#utility.yul\":27585:27591   */\n      dup3\n        /* \"#utility.yul\":27581:27595   */\n      add\n        /* \"#utility.yul\":27571:27595   */\n      swap2\n      pop\n        /* \"#utility.yul\":27640:27642   */\n      0x20\n        /* \"#utility.yul\":27629:27638   */\n      dup6\n        /* \"#utility.yul\":27625:27643   */\n      add\n        /* \"#utility.yul\":27612:27643   */\n      swap5\n      pop\n        /* \"#utility.yul\":27486:27490   */\n      0x20\n        /* \"#utility.yul\":27483:27484   */\n      dup2\n        /* \"#utility.yul\":27479:27491   */\n      add\n        /* \"#utility.yul\":27474:27491   */\n      swap1\n      pop\n        /* \"#utility.yul\":27449:27657   */\n      jump(tag_545)\n    tag_547:\n        /* \"#utility.yul\":27685:27691   */\n      dup7\n        /* \"#utility.yul\":27676:27683   */\n      dup4\n        /* \"#utility.yul\":27673:27692   */\n      lt\n        /* \"#utility.yul\":27670:27849   */\n      iszero\n      tag_548\n      jumpi\n        /* \"#utility.yul\":27743:27752   */\n      dup5\n        /* \"#utility.yul\":27738:27741   */\n      dup10\n        /* \"#utility.yul\":27734:27753   */\n      add\n        /* \"#utility.yul\":27728:27754   */\n      mload\n        /* \"#utility.yul\":27786:27834   */\n      tag_549\n        /* \"#utility.yul\":27828:27832   */\n      0x1f\n        /* \"#utility.yul\":27820:27826   */\n      dup10\n        /* \"#utility.yul\":27816:27833   */\n      and\n        /* \"#utility.yul\":27805:27814   */\n      dup3\n        /* \"#utility.yul\":27786:27834   */\n      tag_292\n      jump\t// in\n    tag_549:\n        /* \"#utility.yul\":27778:27784   */\n      dup4\n        /* \"#utility.yul\":27771:27835   */\n      sstore\n        /* \"#utility.yul\":27693:27849   */\n      pop\n        /* \"#utility.yul\":27670:27849   */\n    tag_548:\n        /* \"#utility.yul\":27895:27896   */\n      0x01\n        /* \"#utility.yul\":27891:27892   */\n      0x02\n        /* \"#utility.yul\":27883:27889   */\n      dup9\n        /* \"#utility.yul\":27879:27893   */\n      mul\n        /* \"#utility.yul\":27875:27897   */\n      add\n        /* \"#utility.yul\":27869:27873   */\n      dup9\n        /* \"#utility.yul\":27862:27898   */\n      sstore\n        /* \"#utility.yul\":27297:27908   */\n      pop\n      pop\n      pop\n        /* \"#utility.yul\":27260:28147   */\n    tag_540:\n      pop\n        /* \"#utility.yul\":26850:28153   */\n      pop\n      pop\n      pop\n        /* \"#utility.yul\":26758:28153   */\n      pop\n      pop\n      jump\t// out\n        /* \"#utility.yul\":28159:28350   */\n    tag_186:\n        /* \"#utility.yul\":28199:28202   */\n      0x00\n        /* \"#utility.yul\":28218:28238   */\n      tag_551\n        /* \"#utility.yul\":28236:28237   */\n      dup3\n        /* \"#utility.yul\":28218:28238   */\n      tag_234\n      jump\t// in\n    tag_551:\n        /* \"#utility.yul\":28213:28238   */\n      swap2\n      pop\n        /* \"#utility.yul\":28252:28272   */\n      tag_552\n        /* \"#utility.yul\":28270:28271   */\n      dup4\n        /* \"#utility.yul\":28252:28272   */\n      tag_234\n      jump\t// in\n    tag_552:\n        /* \"#utility.yul\":28247:28272   */\n      swap3\n      pop\n        /* \"#utility.yul\":28295:28296   */\n      dup3\n        /* \"#utility.yul\":28292:28293   */\n      dup3\n        /* \"#utility.yul\":28288:28297   */\n      add\n        /* \"#utility.yul\":28281:28297   */\n      swap1\n      pop\n        /* \"#utility.yul\":28316:28319   */\n      dup1\n        /* \"#utility.yul\":28313:28314   */\n      dup3\n        /* \"#utility.yul\":28310:28320   */\n      gt\n        /* \"#utility.yul\":28307:28343   */\n      iszero\n      tag_553\n      jumpi\n        /* \"#utility.yul\":28323:28341   */\n      tag_554\n      tag_267\n      jump\t// in\n    tag_554:\n        /* \"#utility.yul\":28307:28343   */\n    tag_553:\n        /* \"#utility.yul\":28159:28350   */\n      swap3\n      swap2\n      pop\n      pop\n      jump\t// out\n        /* \"#utility.yul\":28356:28525   */\n    tag_294:\n        /* \"#utility.yul\":28496:28517   */\n      0x596f7520617265206e6f74206120766f74657200000000000000000000000000\n        /* \"#utility.yul\":28492:28493   */\n      0x00\n        /* \"#utility.yul\":28484:28490   */\n      dup3\n        /* \"#utility.yul\":28480:28494   */\n      add\n        /* \"#utility.yul\":28473:28518   */\n      mstore\n        /* \"#utility.yul\":28356:28525   */\n      pop\n      jump\t// out\n        /* \"#utility.yul\":28531:28897   */\n    tag_295:\n        /* \"#utility.yul\":28673:28676   */\n      0x00\n        /* \"#utility.yul\":28694:28761   */\n      tag_557\n        /* \"#utility.yul\":28758:28760   */\n      0x13\n        /* \"#utility.yul\":28753:28756   */\n      dup4\n        /* \"#utility.yul\":28694:28761   */\n      tag_248\n      jump\t// in\n    tag_557:\n        /* \"#utility.yul\":28687:28761   */\n      swap2\n      pop\n        /* \"#utility.yul\":28770:28863   */\n      tag_558\n        /* \"#utility.yul\":28859:28862   */\n      dup3\n        /* \"#utility.yul\":28770:28863   */\n      tag_294\n      jump\t// in\n    tag_558:\n        /* \"#utility.yul\":28888:28890   */\n      0x20\n        /* \"#utility.yul\":28883:28886   */\n      dup3\n        /* \"#utility.yul\":28879:28891   */\n      add\n        /* \"#utility.yul\":28872:28891   */\n      swap1\n      pop\n        /* \"#utility.yul\":28531:28897   */\n      swap2\n      swap1\n      pop\n      jump\t// out\n        /* \"#utility.yul\":28903:29322   */\n    tag_197:\n        /* \"#utility.yul\":29069:29073   */\n      0x00\n        /* \"#utility.yul\":29107:29109   */\n      0x20\n        /* \"#utility.yul\":29096:29105   */\n      dup3\n        /* \"#utility.yul\":29092:29110   */\n      add\n        /* \"#utility.yul\":29084:29110   */\n      swap1\n      pop\n        /* \"#utility.yul\":29156:29165   */\n      dup2\n        /* \"#utility.yul\":29150:29154   */\n      dup2\n        /* \"#utility.yul\":29146:29166   */\n      sub\n        /* \"#utility.yul\":29142:29143   */\n      0x00\n        /* \"#utility.yul\":29131:29140   */\n      dup4\n        /* \"#utility.yul\":29127:29144   */\n      add\n        /* \"#utility.yul\":29120:29167   */\n      mstore\n        /* \"#utility.yul\":29184:29315   */\n      tag_560\n        /* \"#utility.yul\":29310:29314   */\n      dup2\n        /* \"#utility.yul\":29184:29315   */\n      tag_295\n      jump\t// in\n    tag_560:\n        /* \"#utility.yul\":29176:29315   */\n      swap1\n      pop\n        /* \"#utility.yul\":28903:29322   */\n      swap2\n      swap1\n      pop\n      jump\t// out\n        /* \"#utility.yul\":29328:29505   */\n    tag_296:\n        /* \"#utility.yul\":29468:29497   */\n      0x566f74696e672068617665206e6f742073746172746564207965740000000000\n        /* \"#utility.yul\":29464:29465   */\n      0x00\n        /* \"#utility.yul\":29456:29462   */\n      dup3\n        /* \"#utility.yul\":29452:29466   */\n      add\n        /* \"#utility.yul\":29445:29498   */\n      mstore\n        /* \"#utility.yul\":29328:29505   */\n      pop\n      jump\t// out\n        /* \"#utility.yul\":29511:29877   */\n    tag_297:\n        /* \"#utility.yul\":29653:29656   */\n      0x00\n        /* \"#utility.yul\":29674:29741   */\n      tag_563\n        /* \"#utility.yul\":29738:29740   */\n      0x1b\n        /* \"#utility.yul\":29733:29736   */\n      dup4\n        /* \"#utility.yul\":29674:29741   */\n      tag_248\n      jump\t// in\n    tag_563:\n        /* \"#utility.yul\":29667:29741   */\n      swap2\n      pop\n        /* \"#utility.yul\":29750:29843   */\n      tag_564\n        /* \"#utility.yul\":29839:29842   */\n      dup3\n        /* \"#utility.yul\":29750:29843   */\n      tag_296\n      jump\t// in\n    tag_564:\n        /* \"#utility.yul\":29868:29870   */\n      0x20\n        /* \"#utility.yul\":29863:29866   */\n      dup3\n        /* \"#utility.yul\":29859:29871   */\n      add\n        /* \"#utility.yul\":29852:29871   */\n      swap1\n      pop\n        /* \"#utility.yul\":29511:29877   */\n      swap2\n      swap1\n      pop\n      jump\t// out\n        /* \"#utility.yul\":29883:30302   */\n    tag_200:\n        /* \"#utility.yul\":30049:30053   */\n      0x00\n        /* \"#utility.yul\":30087:30089   */\n      0x20\n        /* \"#utility.yul\":30076:30085   */\n      dup3\n        /* \"#utility.yul\":30072:30090   */\n      add\n        /* \"#utility.yul\":30064:30090   */\n      swap1\n      pop\n        /* \"#utility.yul\":30136:30145   */\n      dup2\n        /* \"#utility.yul\":30130:30134   */\n      dup2\n        /* \"#utility.yul\":30126:30146   */\n      sub\n        /* \"#utility.yul\":30122:30123   */\n      0x00\n        /* \"#utility.yul\":30111:30120   */\n      dup4\n        /* \"#utility.yul\":30107:30124   */\n      add\n        /* \"#utility.yul\":30100:30147   */\n      mstore\n        /* \"#utility.yul\":30164:30295   */\n      tag_566\n        /* \"#utility.yul\":30290:30294   */\n      dup2\n        /* \"#utility.yul\":30164:30295   */\n      tag_297\n      jump\t// in\n    tag_566:\n        /* \"#utility.yul\":30156:30295   */\n      swap1\n      pop\n        /* \"#utility.yul\":29883:30302   */\n      swap2\n      swap1\n      pop\n      jump\t// out\n        /* \"#utility.yul\":30308:30539   */\n    tag_298:\n        /* \"#utility.yul\":30448:30482   */\n      0x416c6c2063616e64696461746520726567697374726174696f6e206861766520\n        /* \"#utility.yul\":30444:30445   */\n      0x00\n        /* \"#utility.yul\":30436:30442   */\n      dup3\n        /* \"#utility.yul\":30432:30446   */\n      add\n        /* \"#utility.yul\":30425:30483   */\n      mstore\n        /* \"#utility.yul\":30517:30531   */\n      0x6e6f7420646f6e65207965740000000000000000000000000000000000000000\n        /* \"#utility.yul\":30512:30514   */\n      0x20\n        /* \"#utility.yul\":30504:30510   */\n      dup3\n        /* \"#utility.yul\":30500:30515   */\n      add\n        /* \"#utility.yul\":30493:30532   */\n      mstore\n        /* \"#utility.yul\":30308:30539   */\n      pop\n      jump\t// out\n        /* \"#utility.yul\":30545:30911   */\n    tag_299:\n        /* \"#utility.yul\":30687:30690   */\n      0x00\n        /* \"#utility.yul\":30708:30775   */\n      tag_569\n        /* \"#utility.yul\":30772:30774   */\n      0x2c\n        /* \"#utility.yul\":30767:30770   */\n      dup4\n        /* \"#utility.yul\":30708:30775   */\n      tag_248\n      jump\t// in\n    tag_569:\n        /* \"#utility.yul\":30701:30775   */\n      swap2\n      pop\n        /* \"#utility.yul\":30784:30877   */\n      tag_570\n        /* \"#utility.yul\":30873:30876   */\n      dup3\n        /* \"#utility.yul\":30784:30877   */\n      tag_298\n      jump\t// in\n    tag_570:\n        /* \"#utility.yul\":30902:30904   */\n      0x40\n        /* \"#utility.yul\":30897:30900   */\n      dup3\n        /* \"#utility.yul\":30893:30905   */\n      add\n        /* \"#utility.yul\":30886:30905   */\n      swap1\n      pop\n        /* \"#utility.yul\":30545:30911   */\n      swap2\n      swap1\n      pop\n      jump\t// out\n        /* \"#utility.yul\":30917:31336   */\n    tag_203:\n        /* \"#utility.yul\":31083:31087   */\n      0x00\n        /* \"#utility.yul\":31121:31123   */\n      0x20\n        /* \"#utility.yul\":31110:31119   */\n      dup3\n        /* \"#utility.yul\":31106:31124   */\n      add\n        /* \"#utility.yul\":31098:31124   */\n      swap1\n      pop\n        /* \"#utility.yul\":31170:31179   */\n      dup2\n        /* \"#utility.yul\":31164:31168   */\n      dup2\n        /* \"#utility.yul\":31160:31180   */\n      sub\n        /* \"#utility.yul\":31156:31157   */\n      0x00\n        /* \"#utility.yul\":31145:31154   */\n      dup4\n        /* \"#utility.yul\":31141:31158   */\n      add\n        /* \"#utility.yul\":31134:31181   */\n      mstore\n        /* \"#utility.yul\":31198:31329   */\n      tag_572\n        /* \"#utility.yul\":31324:31328   */\n      dup2\n        /* \"#utility.yul\":31198:31329   */\n      tag_299\n      jump\t// in\n    tag_572:\n        /* \"#utility.yul\":31190:31329   */\n      swap1\n      pop\n        /* \"#utility.yul\":30917:31336   */\n      swap2\n      swap1\n      pop\n      jump\t// out\n        /* \"#utility.yul\":31342:31512   */\n    tag_300:\n        /* \"#utility.yul\":31482:31504   */\n      0x496e76616c69642063616e646964617465206964000000000000000000000000\n        /* \"#utility.yul\":31478:31479   */\n      0x00\n        /* \"#utility.yul\":31470:31476   */\n      dup3\n        /* \"#utility.yul\":31466:31480   */\n      add\n        /* \"#utility.yul\":31459:31505   */\n      mstore\n        /* \"#utility.yul\":31342:31512   */\n      pop\n      jump\t// out\n        /* \"#utility.yul\":31518:31884   */\n    tag_301:\n        /* \"#utility.yul\":31660:31663   */\n      0x00\n        /* \"#utility.yul\":31681:31748   */\n      tag_575\n        /* \"#utility.yul\":31745:31747   */\n      0x14\n        /* \"#utility.yul\":31740:31743   */\n      dup4\n        /* \"#utility.yul\":31681:31748   */\n      tag_248\n      jump\t// in\n    tag_575:\n        /* \"#utility.yul\":31674:31748   */\n      swap2\n      pop\n        /* \"#utility.yul\":31757:31850   */\n      tag_576\n        /* \"#utility.yul\":31846:31849   */\n      dup3\n        /* \"#utility.yul\":31757:31850   */\n      tag_300\n      jump\t// in\n    tag_576:\n        /* \"#utility.yul\":31875:31877   */\n      0x20\n        /* \"#utility.yul\":31870:31873   */\n      dup3\n        /* \"#utility.yul\":31866:31878   */\n      add\n        /* \"#utility.yul\":31859:31878   */\n      swap1\n      pop\n        /* \"#utility.yul\":31518:31884   */\n      swap2\n      swap1\n      pop\n      jump\t// out\n        /* \"#utility.yul\":31890:32309   */\n    tag_207:\n        /* \"#utility.yul\":32056:32060   */\n      0x00\n        /* \"#utility.yul\":32094:32096   */\n      0x20\n        /* \"#utility.yul\":32083:32092   */\n      dup3\n        /* \"#utility.yul\":32079:32097   */\n      add\n        /* \"#utility.yul\":32071:32097   */\n      swap1\n      pop\n        /* \"#utility.yul\":32143:32152   */\n      dup2\n        /* \"#utility.yul\":32137:32141   */\n      dup2\n        /* \"#utility.yul\":32133:32153   */\n      sub\n        /* \"#utility.yul\":32129:32130   */\n      0x00\n        /* \"#utility.yul\":32118:32127   */\n      dup4\n        /* \"#utility.yul\":32114:32131   */\n      add\n        /* \"#utility.yul\":32107:32154   */\n      mstore\n        /* \"#utility.yul\":32171:32302   */\n      tag_578\n        /* \"#utility.yul\":32297:32301   */\n      dup2\n        /* \"#utility.yul\":32171:32302   */\n      tag_301\n      jump\t// in\n    tag_578:\n        /* \"#utility.yul\":32163:32302   */\n      swap1\n      pop\n        /* \"#utility.yul\":31890:32309   */\n      swap2\n      swap1\n      pop\n      jump\t// out\n\n    auxdata: 0xa2646970667358221220e5909a9a95aebbf0ce415643b091e782b625ffb34e1234c67bff7f2f9a3ebc0964736f6c63430008140033\n}\n",
				"bytecode": {
					"linkReferences": {},
					"object": "608060405260015f5560018055348015610017575f80fd5b503360055f6101000a81548173ffffffffffffffffffffffffffffffffffffffff021916908373ffffffffffffffffffffffffffffffffffffffff1602179055506124ab806100655f395ff3fe608060405234801561000f575f80fd5b50600436106100a7575f3560e01c8063845d26e01161006f578063845d26e01461015c578063875791481461018c57806390fe5609146101a8578063b384abef146101c4578063caa6fea4146101e0578063cca3f136146101ea576100a7565b806324089918146100ab578063322f029d146100c9578063498ea441146100fe5780636247e5321461011c5780636537214714610152575b5f80fd5b6100b3610208565b6040516100c0919061177e565b60405180910390f35b6100e360048036038101906100de91906117d0565b61046c565b6040516100f596959493929190611861565b60405180910390f35b6101066105cf565b6040516101139190611a30565b60405180910390f35b610136600480360381019061013191906117d0565b6108c8565b6040516101499796959493929190611a50565b60405180910390f35b61015a610ab7565b005b61017660048036038101906101719190611afc565b610c7f565b6040516101839190611b41565b60405180910390f35b6101a660048036038101906101a19190611bbb565b610d1c565b005b6101c260048036038101906101bd9190611c4c565b610f39565b005b6101de60048036038101906101d99190611c4c565b61100b565b005b6101e8611280565b005b6101f261132b565b6040516101ff9190611c8a565b60405180910390f35b60605f60015f546102199190611cd7565b67ffffffffffffffff81111561023257610231611d0a565b5b60405190808252806020026020018201604052801561026b57816020015b6102586114be565b8152602001906001900390816102505790505b5090505f5b5f548110156104645760065f8281526020019081526020015f206040518060c00160405290815f820180546102a490611d64565b80601f01602080910402602001604051908101604052809291908181526020018280546102d090611d64565b801561031b5780601f106102f25761010080835404028352916020019161031b565b820191905f5260205f20905b8154815290600101906020018083116102fe57829003601f168201915b50505050508152602001600182015481526020016002820154815260200160038201805461034890611d64565b80601f016020809104026020016040519081016040528092919081815260200182805461037490611d64565b80156103bf5780601f10610396576101008083540402835291602001916103bf565b820191905f5260205f20905b8154815290600101906020018083116103a257829003601f168201915b5050505050815260200160048201548152602001600582015f9054906101000a900473ffffffffffffffffffffffffffffffffffffffff1673ffffffffffffffffffffffffffffffffffffffff1673ffffffffffffffffffffffffffffffffffffffff1681525050826001836104359190611cd7565b8151811061044657610445611d94565b5b6020026020010181905250808061045c90611dc1565b915050610270565b508091505090565b6006602052805f5260405f205f91509050805f01805461048b90611d64565b80601f01602080910402602001604051908101604052809291908181526020018280546104b790611d64565b80156105025780601f106104d957610100808354040283529160200191610502565b820191905f5260205f20905b8154815290600101906020018083116104e557829003601f168201915b50505050509080600101549080600201549080600301805461052390611d64565b80601f016020809104026020016040519081016040528092919081815260200182805461054f90611d64565b801561059a5780601f106105715761010080835404028352916020019161059a565b820191905f5260205f20905b81548152906001019060200180831161057d57829003601f168201915b505050505090806004015490806005015f9054906101000a900473ffffffffffffffffffffffffffffffffffffffff16905086565b60605f600180546105e09190611cd7565b67ffffffffffffffff8111156105f9576105f8611d0a565b5b60405190808252806020026020018201604052801561063257816020015b61061f611506565b8152602001906001900390816106175790505b5090505f600190505b6001548110156108c05760075f8281526020019081526020015f206040518060e00160405290815f8201805461067090611d64565b80601f016020809104026020016040519081016040528092919081815260200182805461069c90611d64565b80156106e75780601f106106be576101008083540402835291602001916106e7565b820191905f5260205f20905b8154815290600101906020018083116106ca57829003601f168201915b5050505050815260200160018201805461070090611d64565b80601f016020809104026020016040519081016040528092919081815260200182805461072c90611d64565b80156107775780601f1061074e57610100808354040283529160200191610777565b820191905f5260205f20905b81548152906001019060200180831161075a57829003601f168201915b505050505081526020016002820154815260200160038201805461079a90611d64565b80601f01602080910402602001604051908101604052809291908181526020018280546107c690611d64565b80156108115780601f106107e857610100808354040283529160200191610811565b820191905f5260205f20905b8154815290600101906020018083116107f457829003601f168201915b5050505050815260200160048201548152602001600582015f9054906101000a900473ffffffffffffffffffffffffffffffffffffffff1673ffffffffffffffffffffffffffffffffffffffff1673ffffffffffffffffffffffffffffffffffffffff168152602001600682015481525050826001836108919190611cd7565b815181106108a2576108a1611d94565b5b602002602001018190525080806108b890611dc1565b91505061063b565b508091505090565b6007602052805f5260405f205f91509050805f0180546108e790611d64565b80601f016020809104026020016040519081016040528092919081815260200182805461091390611d64565b801561095e5780601f106109355761010080835404028352916020019161095e565b820191905f5260205f20905b81548152906001019060200180831161094157829003601f168201915b50505050509080600101805461097390611d64565b80601f016020809104026020016040519081016040528092919081815260200182805461099f90611d64565b80156109ea5780601f106109c1576101008083540402835291602001916109ea565b820191905f5260205f20905b8154815290600101906020018083116109cd57829003601f168201915b505050505090806002015490806003018054610a0590611d64565b80601f0160208091040260200160405190810160405280929190818152602001828054610a3190611d64565b8015610a7c5780601f10610a5357610100808354040283529160200191610a7c565b820191905f5260205f20905b815481529060010190602001808311610a5f57829003601f168201915b505050505090806004015490806005015f9054906101000a900473ffffffffffffffffffffffffffffffffffffffff16908060060154905087565b3373ffffffffffffffffffffffffffffffffffffffff1660055f9054906101000a900473ffffffffffffffffffffffffffffffffffffffff1673ffffffffffffffffffffffffffffffffffffffff1614610b46576040517f08c379a0000000000000000000000000000000000000000000000000000000008152600401610b3d90611e52565b60405180910390fd5b60035442118015610b6857505f151560045f9054906101000a900460ff161515145b610ba7576040517f08c379a0000000000000000000000000000000000000000000000000000000008152600401610b9e90611eba565b60405180910390fd5b6001805411610beb576040517f08c379a0000000000000000000000000000000000000000000000000000000008152600401610be290611f22565b60405180910390fd5b5f8080600190505b600154811015610c7a578260075f8381526020019081526020015f20600601541115610c675760075f8281526020019081526020015f2060060154925060075f8281526020019081526020015f206005015f9054906101000a900473ffffffffffffffffffffffffffffffffffffffff1691505b8080610c7290611dc1565b915050610bf3565b505050565b5f805f90505b600154811015610d11578273ffffffffffffffffffffffffffffffffffffffff1660075f8381526020019081526020015f206005015f9054906101000a900473ffffffffffffffffffffffffffffffffffffffff1673ffffffffffffffffffffffffffffffffffffffff1603610cfe575f915050610d17565b8080610d0990611dc1565b915050610c85565b50600190505b919050565b6012831015610d60576040517f08c379a0000000000000000000000000000000000000000000000000000000008152600401610d5790611f8a565b60405180910390fd5b60011515610d6d33611421565b151514610daf576040517f08c379a0000000000000000000000000000000000000000000000000000000008152600401610da690611ff2565b60405180910390fd5b6040518060c0016040528086868080601f0160208091040260200160405190810160405280939291908181526020018383808284375f81840152601f19601f8201169050808301925050505050505081526020018481526020015f54815260200183838080601f0160208091040260200160405190810160405280939291908181526020018383808284375f81840152601f19601f8201169050808301925050505050505081526020015f81526020013373ffffffffffffffffffffffffffffffffffffffff1681525060065f805481526020019081526020015f205f820151815f019081610e9e91906121ad565b5060208201518160010155604082015181600201556060820151816003019081610ec891906121ad565b506080820151816004015560a0820151816005015f6101000a81548173ffffffffffffffffffffffffffffffffffffffff021916908373ffffffffffffffffffffffffffffffffffffffff1602179055509050505f80815480929190610f2d90611dc1565b91905055505050505050565b3373ffffffffffffffffffffffffffffffffffffffff1660055f9054906101000a900473ffffffffffffffffffffffffffffffffffffffff1673ffffffffffffffffffffffffffffffffffffffff1614610fc8576040517f08c379a0000000000000000000000000000000000000000000000000000000008152600401610fbf90611e52565b60405180910390fd5b8142610fd4919061227c565b60028190555080600254610fe8919061227c565b6003819055505f60045f6101000a81548160ff0219169083151502179055505050565b6003544211801561102d57505f151560045f9054906101000a900460ff161515145b61106c576040517f08c379a000000000000000000000000000000000000000000000000000000000815260040161106390611eba565b60405180910390fd5b5f60065f8481526020019081526020015f2060040154146110c2576040517f08c379a00000000000000000000000000000000000000000000000000000000081526004016110b990611ff2565b60405180910390fd5b3373ffffffffffffffffffffffffffffffffffffffff1660065f8481526020019081526020015f206005015f9054906101000a900473ffffffffffffffffffffffffffffffffffffffff1673ffffffffffffffffffffffffffffffffffffffff1614611163576040517f08c379a000000000000000000000000000000000000000000000000000000000815260040161115a906122f9565b60405180910390fd5b5f600254036111a7576040517f08c379a000000000000000000000000000000000000000000000000000000000815260040161119e90612361565b60405180910390fd5b6003600154146111ec576040517f08c379a00000000000000000000000000000000000000000000000000000000081526004016111e3906123ef565b60405180910390fd5b5f811180156111fb5750600381105b61123a576040517f08c379a000000000000000000000000000000000000000000000000000000000815260040161123190612457565b60405180910390fd5b8060065f8481526020019081526020015f206004018190555060075f8281526020019081526020015f206006015f81548092919061127790611dc1565b91905055505050565b3373ffffffffffffffffffffffffffffffffffffffff1660055f9054906101000a900473ffffffffffffffffffffffffffffffffffffffff1673ffffffffffffffffffffffffffffffffffffffff161461130f576040517f08c379a000000000000000000000000000000000000000000000000000000000815260040161130690611e52565b60405180910390fd5b600160045f6101000a81548160ff021916908315150217905550565b60605f60025403611373576040518060400160405280601681526020017f566f74696e6720686173206e6f74207374617274656400000000000000000000815250905061141e565b5f60025414158015611386575042600354115b80156113a357505f151560045f9054906101000a900460ff161515145b156113e5576040518060400160405280601281526020017f566f74696e6720696e2070726f67726573730000000000000000000000000000815250905061141e565b6040518060400160405280600581526020017f456e64656400000000000000000000000000000000000000000000000000000081525090505b90565b5f80600190505b5f548110156114b3578273ffffffffffffffffffffffffffffffffffffffff1660065f8381526020019081526020015f206005015f9054906101000a900473ffffffffffffffffffffffffffffffffffffffff1673ffffffffffffffffffffffffffffffffffffffff16036114a0575f9150506114b9565b80806114ab90611dc1565b915050611428565b50600190505b919050565b6040518060c00160405280606081526020015f81526020015f8152602001606081526020015f81526020015f73ffffffffffffffffffffffffffffffffffffffff1681525090565b6040518060e0016040528060608152602001606081526020015f8152602001606081526020015f81526020015f73ffffffffffffffffffffffffffffffffffffffff1681526020015f81525090565b5f81519050919050565b5f82825260208201905092915050565b5f819050602082019050919050565b5f81519050919050565b5f82825260208201905092915050565b5f5b838110156115b557808201518184015260208101905061159a565b5f8484015250505050565b5f601f19601f8301169050919050565b5f6115da8261157e565b6115e48185611588565b93506115f4818560208601611598565b6115fd816115c0565b840191505092915050565b5f819050919050565b61161a81611608565b82525050565b5f73ffffffffffffffffffffffffffffffffffffffff82169050919050565b5f61164982611620565b9050919050565b6116598161163f565b82525050565b5f60c083015f8301518482035f86015261167982826115d0565b915050602083015161168e6020860182611611565b5060408301516116a16040860182611611565b50606083015184820360608601526116b982826115d0565b91505060808301516116ce6080860182611611565b5060a08301516116e160a0860182611650565b508091505092915050565b5f6116f7838361165f565b905092915050565b5f602082019050919050565b5f61171582611555565b61171f818561155f565b9350836020820285016117318561156f565b805f5b8581101561176c578484038952815161174d85826116ec565b9450611758836116ff565b925060208a01995050600181019050611734565b50829750879550505050505092915050565b5f6020820190508181035f830152611796818461170b565b905092915050565b5f80fd5b5f80fd5b6117af81611608565b81146117b9575f80fd5b50565b5f813590506117ca816117a6565b92915050565b5f602082840312156117e5576117e461179e565b5b5f6117f2848285016117bc565b91505092915050565b5f82825260208201905092915050565b5f6118158261157e565b61181f81856117fb565b935061182f818560208601611598565b611838816115c0565b840191505092915050565b61184c81611608565b82525050565b61185b8161163f565b82525050565b5f60c0820190508181035f830152611879818961180b565b90506118886020830188611843565b6118956040830187611843565b81810360608301526118a7818661180b565b90506118b66080830185611843565b6118c360a0830184611852565b979650505050505050565b5f81519050919050565b5f82825260208201905092915050565b5f819050602082019050919050565b5f60e083015f8301518482035f86015261191182826115d0565b9150506020830151848203602086015261192b82826115d0565b91505060408301516119406040860182611611565b506060830151848203606086015261195882826115d0565b915050608083015161196d6080860182611611565b5060a083015161198060a0860182611650565b5060c083015161199360c0860182611611565b508091505092915050565b5f6119a983836118f7565b905092915050565b5f602082019050919050565b5f6119c7826118ce565b6119d181856118d8565b9350836020820285016119e3856118e8565b805f5b85811015611a1e57848403895281516119ff858261199e565b9450611a0a836119b1565b925060208a019950506001810190506119e6565b50829750879550505050505092915050565b5f6020820190508181035f830152611a4881846119bd565b905092915050565b5f60e0820190508181035f830152611a68818a61180b565b90508181036020830152611a7c818961180b565b9050611a8b6040830188611843565b8181036060830152611a9d818761180b565b9050611aac6080830186611843565b611ab960a0830185611852565b611ac660c0830184611843565b98975050505050505050565b611adb8161163f565b8114611ae5575f80fd5b50565b5f81359050611af681611ad2565b92915050565b5f60208284031215611b1157611b1061179e565b5b5f611b1e84828501611ae8565b91505092915050565b5f8115159050919050565b611b3b81611b27565b82525050565b5f602082019050611b545f830184611b32565b92915050565b5f80fd5b5f80fd5b5f80fd5b5f8083601f840112611b7b57611b7a611b5a565b5b8235905067ffffffffffffffff811115611b9857611b97611b5e565b5b602083019150836001820283011115611bb457611bb3611b62565b5b9250929050565b5f805f805f60608688031215611bd457611bd361179e565b5b5f86013567ffffffffffffffff811115611bf157611bf06117a2565b5b611bfd88828901611b66565b95509550506020611c10888289016117bc565b935050604086013567ffffffffffffffff811115611c3157611c306117a2565b5b611c3d88828901611b66565b92509250509295509295909350565b5f8060408385031215611c6257611c6161179e565b5b5f611c6f858286016117bc565b9250506020611c80858286016117bc565b9150509250929050565b5f6020820190508181035f830152611ca2818461180b565b905092915050565b7f4e487b71000000000000000000000000000000000000000000000000000000005f52601160045260245ffd5b5f611ce182611608565b9150611cec83611608565b9250828203905081811115611d0457611d03611caa565b5b92915050565b7f4e487b71000000000000000000000000000000000000000000000000000000005f52604160045260245ffd5b7f4e487b71000000000000000000000000000000000000000000000000000000005f52602260045260245ffd5b5f6002820490506001821680611d7b57607f821691505b602082108103611d8e57611d8d611d37565b5b50919050565b7f4e487b71000000000000000000000000000000000000000000000000000000005f52603260045260245ffd5b5f611dcb82611608565b91507fffffffffffffffffffffffffffffffffffffffffffffffffffffffffffffffff8203611dfd57611dfc611caa565b5b600182019050919050565b7f4e6f7420666f726d20456c656374696f6e20436f6d6d6973696f6e00000000005f82015250565b5f611e3c601b836117fb565b9150611e4782611e08565b602082019050919050565b5f6020820190508181035f830152611e6981611e30565b9050919050565b7f566f74696e67206973206f7665720000000000000000000000000000000000005f82015250565b5f611ea4600e836117fb565b9150611eaf82611e70565b602082019050919050565b5f6020820190508181035f830152611ed181611e98565b9050919050565b7f4e6f2043616e64696461746520726567697374657200000000000000000000005f82015250565b5f611f0c6015836117fb565b9150611f1782611ed8565b602082019050919050565b5f6020820190508181035f830152611f3981611f00565b9050919050565b7f596f7520617265206e6f7420656c696769626c6520666f7220766f74696e67005f82015250565b5f611f74601f836117fb565b9150611f7f82611f40565b602082019050919050565b5f6020820190508181035f830152611fa181611f68565b9050919050565b7f596f75206861766520616c726561647920766f746564000000000000000000005f82015250565b5f611fdc6016836117fb565b9150611fe782611fa8565b602082019050919050565b5f6020820190508181035f83015261200981611fd0565b9050919050565b5f819050815f5260205f209050919050565b5f6020601f8301049050919050565b5f82821b905092915050565b5f6008830261206c7fffffffffffffffffffffffffffffffffffffffffffffffffffffffffffffffff82612031565b6120768683612031565b95508019841693508086168417925050509392505050565b5f819050919050565b5f6120b16120ac6120a784611608565b61208e565b611608565b9050919050565b5f819050919050565b6120ca83612097565b6120de6120d6826120b8565b84845461203d565b825550505050565b5f90565b6120f26120e6565b6120fd8184846120c1565b505050565b5b81811015612120576121155f826120ea565b600181019050612103565b5050565b601f8211156121655761213681612010565b61213f84612022565b8101602085101561214e578190505b61216261215a85612022565b830182612102565b50505b505050565b5f82821c905092915050565b5f6121855f198460080261216a565b1980831691505092915050565b5f61219d8383612176565b9150826002028217905092915050565b6121b68261157e565b67ffffffffffffffff8111156121cf576121ce611d0a565b5b6121d98254611d64565b6121e4828285612124565b5f60209050601f831160018114612215575f8415612203578287015190505b61220d8582612192565b865550612274565b601f19841661222386612010565b5f5b8281101561224a57848901518255600182019150602085019450602081019050612225565b868310156122675784890151612263601f891682612176565b8355505b6001600288020188555050505b505050505050565b5f61228682611608565b915061229183611608565b92508282019050808211156122a9576122a8611caa565b5b92915050565b7f596f7520617265206e6f74206120766f746572000000000000000000000000005f82015250565b5f6122e36013836117fb565b91506122ee826122af565b602082019050919050565b5f6020820190508181035f830152612310816122d7565b9050919050565b7f566f74696e672068617665206e6f7420737461727465642079657400000000005f82015250565b5f61234b601b836117fb565b915061235682612317565b602082019050919050565b5f6020820190508181035f8301526123788161233f565b9050919050565b7f416c6c2063616e64696461746520726567697374726174696f6e2068617665205f8201527f6e6f7420646f6e65207965740000000000000000000000000000000000000000602082015250565b5f6123d9602c836117fb565b91506123e48261237f565b604082019050919050565b5f6020820190508181035f830152612406816123cd565b9050919050565b7f496e76616c69642063616e6469646174652069640000000000000000000000005f82015250565b5f6124416014836117fb565b915061244c8261240d565b602082019050919050565b5f6020820190508181035f83015261246e81612435565b905091905056fea2646970667358221220e5909a9a95aebbf0ce415643b091e782b625ffb34e1234c67bff7f2f9a3ebc0964736f6c63430008140033",
					"opcodes": "PUSH1 0x80 PUSH1 0x40 MSTORE PUSH1 0x1 PUSH0 SSTORE PUSH1 0x1 DUP1 SSTORE CALLVALUE DUP1 ISZERO PUSH2 0x17 JUMPI PUSH0 DUP1 REVERT JUMPDEST POP CALLER PUSH1 0x5 PUSH0 PUSH2 0x100 EXP DUP2 SLOAD DUP2 PUSH20 0xFFFFFFFFFFFFFFFFFFFFFFFFFFFFFFFFFFFFFFFF MUL NOT AND SWAP1 DUP4 PUSH20 0xFFFFFFFFFFFFFFFFFFFFFFFFFFFFFFFFFFFFFFFF AND MUL OR SWAP1 SSTORE POP PUSH2 0x24AB DUP1 PUSH2 0x65 PUSH0 CODECOPY PUSH0 RETURN INVALID PUSH1 0x80 PUSH1 0x40 MSTORE CALLVALUE DUP1 ISZERO PUSH2 0xF JUMPI PUSH0 DUP1 REVERT JUMPDEST POP PUSH1 0x4 CALLDATASIZE LT PUSH2 0xA7 JUMPI PUSH0 CALLDATALOAD PUSH1 0xE0 SHR DUP1 PUSH4 0x845D26E0 GT PUSH2 0x6F JUMPI DUP1 PUSH4 0x845D26E0 EQ PUSH2 0x15C JUMPI DUP1 PUSH4 0x87579148 EQ PUSH2 0x18C JUMPI DUP1 PUSH4 0x90FE5609 EQ PUSH2 0x1A8 JUMPI DUP1 PUSH4 0xB384ABEF EQ PUSH2 0x1C4 JUMPI DUP1 PUSH4 0xCAA6FEA4 EQ PUSH2 0x1E0 JUMPI DUP1 PUSH4 0xCCA3F136 EQ PUSH2 0x1EA JUMPI PUSH2 0xA7 JUMP JUMPDEST DUP1 PUSH4 0x24089918 EQ PUSH2 0xAB JUMPI DUP1 PUSH4 0x322F029D EQ PUSH2 0xC9 JUMPI DUP1 PUSH4 0x498EA441 EQ PUSH2 0xFE JUMPI DUP1 PUSH4 0x6247E532 EQ PUSH2 0x11C JUMPI DUP1 PUSH4 0x65372147 EQ PUSH2 0x152 JUMPI JUMPDEST PUSH0 DUP1 REVERT JUMPDEST PUSH2 0xB3 PUSH2 0x208 JUMP JUMPDEST PUSH1 0x40 MLOAD PUSH2 0xC0 SWAP2 SWAP1 PUSH2 0x177E JUMP JUMPDEST PUSH1 0x40 MLOAD DUP1 SWAP2 SUB SWAP1 RETURN JUMPDEST PUSH2 0xE3 PUSH1 0x4 DUP1 CALLDATASIZE SUB DUP2 ADD SWAP1 PUSH2 0xDE SWAP2 SWAP1 PUSH2 0x17D0 JUMP JUMPDEST PUSH2 0x46C JUMP JUMPDEST PUSH1 0x40 MLOAD PUSH2 0xF5 SWAP7 SWAP6 SWAP5 SWAP4 SWAP3 SWAP2 SWAP1 PUSH2 0x1861 JUMP JUMPDEST PUSH1 0x40 MLOAD DUP1 SWAP2 SUB SWAP1 RETURN JUMPDEST PUSH2 0x106 PUSH2 0x5CF JUMP JUMPDEST PUSH1 0x40 MLOAD PUSH2 0x113 SWAP2 SWAP1 PUSH2 0x1A30 JUMP JUMPDEST PUSH1 0x40 MLOAD DUP1 SWAP2 SUB SWAP1 RETURN JUMPDEST PUSH2 0x136 PUSH1 0x4 DUP1 CALLDATASIZE SUB DUP2 ADD SWAP1 PUSH2 0x131 SWAP2 SWAP1 PUSH2 0x17D0 JUMP JUMPDEST PUSH2 0x8C8 JUMP JUMPDEST PUSH1 0x40 MLOAD PUSH2 0x149 SWAP8 SWAP7 SWAP6 SWAP5 SWAP4 SWAP3 SWAP2 SWAP1 PUSH2 0x1A50 JUMP JUMPDEST PUSH1 0x40 MLOAD DUP1 SWAP2 SUB SWAP1 RETURN JUMPDEST PUSH2 0x15A PUSH2 0xAB7 JUMP JUMPDEST STOP JUMPDEST PUSH2 0x176 PUSH1 0x4 DUP1 CALLDATASIZE SUB DUP2 ADD SWAP1 PUSH2 0x171 SWAP2 SWAP1 PUSH2 0x1AFC JUMP JUMPDEST PUSH2 0xC7F JUMP JUMPDEST PUSH1 0x40 MLOAD PUSH2 0x183 SWAP2 SWAP1 PUSH2 0x1B41 JUMP JUMPDEST PUSH1 0x40 MLOAD DUP1 SWAP2 SUB SWAP1 RETURN JUMPDEST PUSH2 0x1A6 PUSH1 0x4 DUP1 CALLDATASIZE SUB DUP2 ADD SWAP1 PUSH2 0x1A1 SWAP2 SWAP1 PUSH2 0x1BBB JUMP JUMPDEST PUSH2 0xD1C JUMP JUMPDEST STOP JUMPDEST PUSH2 0x1C2 PUSH1 0x4 DUP1 CALLDATASIZE SUB DUP2 ADD SWAP1 PUSH2 0x1BD SWAP2 SWAP1 PUSH2 0x1C4C JUMP JUMPDEST PUSH2 0xF39 JUMP JUMPDEST STOP JUMPDEST PUSH2 0x1DE PUSH1 0x4 DUP1 CALLDATASIZE SUB DUP2 ADD SWAP1 PUSH2 0x1D9 SWAP2 SWAP1 PUSH2 0x1C4C JUMP JUMPDEST PUSH2 0x100B JUMP JUMPDEST STOP JUMPDEST PUSH2 0x1E8 PUSH2 0x1280 JUMP JUMPDEST STOP JUMPDEST PUSH2 0x1F2 PUSH2 0x132B JUMP JUMPDEST PUSH1 0x40 MLOAD PUSH2 0x1FF SWAP2 SWAP1 PUSH2 0x1C8A JUMP JUMPDEST PUSH1 0x40 MLOAD DUP1 SWAP2 SUB SWAP1 RETURN JUMPDEST PUSH1 0x60 PUSH0 PUSH1 0x1 PUSH0 SLOAD PUSH2 0x219 SWAP2 SWAP1 PUSH2 0x1CD7 JUMP JUMPDEST PUSH8 0xFFFFFFFFFFFFFFFF DUP2 GT ISZERO PUSH2 0x232 JUMPI PUSH2 0x231 PUSH2 0x1D0A JUMP JUMPDEST JUMPDEST PUSH1 0x40 MLOAD SWAP1 DUP1 DUP3 MSTORE DUP1 PUSH1 0x20 MUL PUSH1 0x20 ADD DUP3 ADD PUSH1 0x40 MSTORE DUP1 ISZERO PUSH2 0x26B JUMPI DUP2 PUSH1 0x20 ADD JUMPDEST PUSH2 0x258 PUSH2 0x14BE JUMP JUMPDEST DUP2 MSTORE PUSH1 0x20 ADD SWAP1 PUSH1 0x1 SWAP1 SUB SWAP1 DUP2 PUSH2 0x250 JUMPI SWAP1 POP JUMPDEST POP SWAP1 POP PUSH0 JUMPDEST PUSH0 SLOAD DUP2 LT ISZERO PUSH2 0x464 JUMPI PUSH1 0x6 PUSH0 DUP3 DUP2 MSTORE PUSH1 0x20 ADD SWAP1 DUP2 MSTORE PUSH1 0x20 ADD PUSH0 KECCAK256 PUSH1 0x40 MLOAD DUP1 PUSH1 0xC0 ADD PUSH1 0x40 MSTORE SWAP1 DUP2 PUSH0 DUP3 ADD DUP1 SLOAD PUSH2 0x2A4 SWAP1 PUSH2 0x1D64 JUMP JUMPDEST DUP1 PUSH1 0x1F ADD PUSH1 0x20 DUP1 SWAP2 DIV MUL PUSH1 0x20 ADD PUSH1 0x40 MLOAD SWAP1 DUP2 ADD PUSH1 0x40 MSTORE DUP1 SWAP3 SWAP2 SWAP1 DUP2 DUP2 MSTORE PUSH1 0x20 ADD DUP3 DUP1 SLOAD PUSH2 0x2D0 SWAP1 PUSH2 0x1D64 JUMP JUMPDEST DUP1 ISZERO PUSH2 0x31B JUMPI DUP1 PUSH1 0x1F LT PUSH2 0x2F2 JUMPI PUSH2 0x100 DUP1 DUP4 SLOAD DIV MUL DUP4 MSTORE SWAP2 PUSH1 0x20 ADD SWAP2 PUSH2 0x31B JUMP JUMPDEST DUP3 ADD SWAP2 SWAP1 PUSH0 MSTORE PUSH1 0x20 PUSH0 KECCAK256 SWAP1 JUMPDEST DUP2 SLOAD DUP2 MSTORE SWAP1 PUSH1 0x1 ADD SWAP1 PUSH1 0x20 ADD DUP1 DUP4 GT PUSH2 0x2FE JUMPI DUP3 SWAP1 SUB PUSH1 0x1F AND DUP3 ADD SWAP2 JUMPDEST POP POP POP POP POP DUP2 MSTORE PUSH1 0x20 ADD PUSH1 0x1 DUP3 ADD SLOAD DUP2 MSTORE PUSH1 0x20 ADD PUSH1 0x2 DUP3 ADD SLOAD DUP2 MSTORE PUSH1 0x20 ADD PUSH1 0x3 DUP3 ADD DUP1 SLOAD PUSH2 0x348 SWAP1 PUSH2 0x1D64 JUMP JUMPDEST DUP1 PUSH1 0x1F ADD PUSH1 0x20 DUP1 SWAP2 DIV MUL PUSH1 0x20 ADD PUSH1 0x40 MLOAD SWAP1 DUP2 ADD PUSH1 0x40 MSTORE DUP1 SWAP3 SWAP2 SWAP1 DUP2 DUP2 MSTORE PUSH1 0x20 ADD DUP3 DUP1 SLOAD PUSH2 0x374 SWAP1 PUSH2 0x1D64 JUMP JUMPDEST DUP1 ISZERO PUSH2 0x3BF JUMPI DUP1 PUSH1 0x1F LT PUSH2 0x396 JUMPI PUSH2 0x100 DUP1 DUP4 SLOAD DIV MUL DUP4 MSTORE SWAP2 PUSH1 0x20 ADD SWAP2 PUSH2 0x3BF JUMP JUMPDEST DUP3 ADD SWAP2 SWAP1 PUSH0 MSTORE PUSH1 0x20 PUSH0 KECCAK256 SWAP1 JUMPDEST DUP2 SLOAD DUP2 MSTORE SWAP1 PUSH1 0x1 ADD SWAP1 PUSH1 0x20 ADD DUP1 DUP4 GT PUSH2 0x3A2 JUMPI DUP3 SWAP1 SUB PUSH1 0x1F AND DUP3 ADD SWAP2 JUMPDEST POP POP POP POP POP DUP2 MSTORE PUSH1 0x20 ADD PUSH1 0x4 DUP3 ADD SLOAD DUP2 MSTORE PUSH1 0x20 ADD PUSH1 0x5 DUP3 ADD PUSH0 SWAP1 SLOAD SWAP1 PUSH2 0x100 EXP SWAP1 DIV PUSH20 0xFFFFFFFFFFFFFFFFFFFFFFFFFFFFFFFFFFFFFFFF AND PUSH20 0xFFFFFFFFFFFFFFFFFFFFFFFFFFFFFFFFFFFFFFFF AND PUSH20 0xFFFFFFFFFFFFFFFFFFFFFFFFFFFFFFFFFFFFFFFF AND DUP2 MSTORE POP POP DUP3 PUSH1 0x1 DUP4 PUSH2 0x435 SWAP2 SWAP1 PUSH2 0x1CD7 JUMP JUMPDEST DUP2 MLOAD DUP2 LT PUSH2 0x446 JUMPI PUSH2 0x445 PUSH2 0x1D94 JUMP JUMPDEST JUMPDEST PUSH1 0x20 MUL PUSH1 0x20 ADD ADD DUP2 SWAP1 MSTORE POP DUP1 DUP1 PUSH2 0x45C SWAP1 PUSH2 0x1DC1 JUMP JUMPDEST SWAP2 POP POP PUSH2 0x270 JUMP JUMPDEST POP DUP1 SWAP2 POP POP SWAP1 JUMP JUMPDEST PUSH1 0x6 PUSH1 0x20 MSTORE DUP1 PUSH0 MSTORE PUSH1 0x40 PUSH0 KECCAK256 PUSH0 SWAP2 POP SWAP1 POP DUP1 PUSH0 ADD DUP1 SLOAD PUSH2 0x48B SWAP1 PUSH2 0x1D64 JUMP JUMPDEST DUP1 PUSH1 0x1F ADD PUSH1 0x20 DUP1 SWAP2 DIV MUL PUSH1 0x20 ADD PUSH1 0x40 MLOAD SWAP1 DUP2 ADD PUSH1 0x40 MSTORE DUP1 SWAP3 SWAP2 SWAP1 DUP2 DUP2 MSTORE PUSH1 0x20 ADD DUP3 DUP1 SLOAD PUSH2 0x4B7 SWAP1 PUSH2 0x1D64 JUMP JUMPDEST DUP1 ISZERO PUSH2 0x502 JUMPI DUP1 PUSH1 0x1F LT PUSH2 0x4D9 JUMPI PUSH2 0x100 DUP1 DUP4 SLOAD DIV MUL DUP4 MSTORE SWAP2 PUSH1 0x20 ADD SWAP2 PUSH2 0x502 JUMP JUMPDEST DUP3 ADD SWAP2 SWAP1 PUSH0 MSTORE PUSH1 0x20 PUSH0 KECCAK256 SWAP1 JUMPDEST DUP2 SLOAD DUP2 MSTORE SWAP1 PUSH1 0x1 ADD SWAP1 PUSH1 0x20 ADD DUP1 DUP4 GT PUSH2 0x4E5 JUMPI DUP3 SWAP1 SUB PUSH1 0x1F AND DUP3 ADD SWAP2 JUMPDEST POP POP POP POP POP SWAP1 DUP1 PUSH1 0x1 ADD SLOAD SWAP1 DUP1 PUSH1 0x2 ADD SLOAD SWAP1 DUP1 PUSH1 0x3 ADD DUP1 SLOAD PUSH2 0x523 SWAP1 PUSH2 0x1D64 JUMP JUMPDEST DUP1 PUSH1 0x1F ADD PUSH1 0x20 DUP1 SWAP2 DIV MUL PUSH1 0x20 ADD PUSH1 0x40 MLOAD SWAP1 DUP2 ADD PUSH1 0x40 MSTORE DUP1 SWAP3 SWAP2 SWAP1 DUP2 DUP2 MSTORE PUSH1 0x20 ADD DUP3 DUP1 SLOAD PUSH2 0x54F SWAP1 PUSH2 0x1D64 JUMP JUMPDEST DUP1 ISZERO PUSH2 0x59A JUMPI DUP1 PUSH1 0x1F LT PUSH2 0x571 JUMPI PUSH2 0x100 DUP1 DUP4 SLOAD DIV MUL DUP4 MSTORE SWAP2 PUSH1 0x20 ADD SWAP2 PUSH2 0x59A JUMP JUMPDEST DUP3 ADD SWAP2 SWAP1 PUSH0 MSTORE PUSH1 0x20 PUSH0 KECCAK256 SWAP1 JUMPDEST DUP2 SLOAD DUP2 MSTORE SWAP1 PUSH1 0x1 ADD SWAP1 PUSH1 0x20 ADD DUP1 DUP4 GT PUSH2 0x57D JUMPI DUP3 SWAP1 SUB PUSH1 0x1F AND DUP3 ADD SWAP2 JUMPDEST POP POP POP POP POP SWAP1 DUP1 PUSH1 0x4 ADD SLOAD SWAP1 DUP1 PUSH1 0x5 ADD PUSH0 SWAP1 SLOAD SWAP1 PUSH2 0x100 EXP SWAP1 DIV PUSH20 0xFFFFFFFFFFFFFFFFFFFFFFFFFFFFFFFFFFFFFFFF AND SWAP1 POP DUP7 JUMP JUMPDEST PUSH1 0x60 PUSH0 PUSH1 0x1 DUP1 SLOAD PUSH2 0x5E0 SWAP2 SWAP1 PUSH2 0x1CD7 JUMP JUMPDEST PUSH8 0xFFFFFFFFFFFFFFFF DUP2 GT ISZERO PUSH2 0x5F9 JUMPI PUSH2 0x5F8 PUSH2 0x1D0A JUMP JUMPDEST JUMPDEST PUSH1 0x40 MLOAD SWAP1 DUP1 DUP3 MSTORE DUP1 PUSH1 0x20 MUL PUSH1 0x20 ADD DUP3 ADD PUSH1 0x40 MSTORE DUP1 ISZERO PUSH2 0x632 JUMPI DUP2 PUSH1 0x20 ADD JUMPDEST PUSH2 0x61F PUSH2 0x1506 JUMP JUMPDEST DUP2 MSTORE PUSH1 0x20 ADD SWAP1 PUSH1 0x1 SWAP1 SUB SWAP1 DUP2 PUSH2 0x617 JUMPI SWAP1 POP JUMPDEST POP SWAP1 POP PUSH0 PUSH1 0x1 SWAP1 POP JUMPDEST PUSH1 0x1 SLOAD DUP2 LT ISZERO PUSH2 0x8C0 JUMPI PUSH1 0x7 PUSH0 DUP3 DUP2 MSTORE PUSH1 0x20 ADD SWAP1 DUP2 MSTORE PUSH1 0x20 ADD PUSH0 KECCAK256 PUSH1 0x40 MLOAD DUP1 PUSH1 0xE0 ADD PUSH1 0x40 MSTORE SWAP1 DUP2 PUSH0 DUP3 ADD DUP1 SLOAD PUSH2 0x670 SWAP1 PUSH2 0x1D64 JUMP JUMPDEST DUP1 PUSH1 0x1F ADD PUSH1 0x20 DUP1 SWAP2 DIV MUL PUSH1 0x20 ADD PUSH1 0x40 MLOAD SWAP1 DUP2 ADD PUSH1 0x40 MSTORE DUP1 SWAP3 SWAP2 SWAP1 DUP2 DUP2 MSTORE PUSH1 0x20 ADD DUP3 DUP1 SLOAD PUSH2 0x69C SWAP1 PUSH2 0x1D64 JUMP JUMPDEST DUP1 ISZERO PUSH2 0x6E7 JUMPI DUP1 PUSH1 0x1F LT PUSH2 0x6BE JUMPI PUSH2 0x100 DUP1 DUP4 SLOAD DIV MUL DUP4 MSTORE SWAP2 PUSH1 0x20 ADD SWAP2 PUSH2 0x6E7 JUMP JUMPDEST DUP3 ADD SWAP2 SWAP1 PUSH0 MSTORE PUSH1 0x20 PUSH0 KECCAK256 SWAP1 JUMPDEST DUP2 SLOAD DUP2 MSTORE SWAP1 PUSH1 0x1 ADD SWAP1 PUSH1 0x20 ADD DUP1 DUP4 GT PUSH2 0x6CA JUMPI DUP3 SWAP1 SUB PUSH1 0x1F AND DUP3 ADD SWAP2 JUMPDEST POP POP POP POP POP DUP2 MSTORE PUSH1 0x20 ADD PUSH1 0x1 DUP3 ADD DUP1 SLOAD PUSH2 0x700 SWAP1 PUSH2 0x1D64 JUMP JUMPDEST DUP1 PUSH1 0x1F ADD PUSH1 0x20 DUP1 SWAP2 DIV MUL PUSH1 0x20 ADD PUSH1 0x40 MLOAD SWAP1 DUP2 ADD PUSH1 0x40 MSTORE DUP1 SWAP3 SWAP2 SWAP1 DUP2 DUP2 MSTORE PUSH1 0x20 ADD DUP3 DUP1 SLOAD PUSH2 0x72C SWAP1 PUSH2 0x1D64 JUMP JUMPDEST DUP1 ISZERO PUSH2 0x777 JUMPI DUP1 PUSH1 0x1F LT PUSH2 0x74E JUMPI PUSH2 0x100 DUP1 DUP4 SLOAD DIV MUL DUP4 MSTORE SWAP2 PUSH1 0x20 ADD SWAP2 PUSH2 0x777 JUMP JUMPDEST DUP3 ADD SWAP2 SWAP1 PUSH0 MSTORE PUSH1 0x20 PUSH0 KECCAK256 SWAP1 JUMPDEST DUP2 SLOAD DUP2 MSTORE SWAP1 PUSH1 0x1 ADD SWAP1 PUSH1 0x20 ADD DUP1 DUP4 GT PUSH2 0x75A JUMPI DUP3 SWAP1 SUB PUSH1 0x1F AND DUP3 ADD SWAP2 JUMPDEST POP POP POP POP POP DUP2 MSTORE PUSH1 0x20 ADD PUSH1 0x2 DUP3 ADD SLOAD DUP2 MSTORE PUSH1 0x20 ADD PUSH1 0x3 DUP3 ADD DUP1 SLOAD PUSH2 0x79A SWAP1 PUSH2 0x1D64 JUMP JUMPDEST DUP1 PUSH1 0x1F ADD PUSH1 0x20 DUP1 SWAP2 DIV MUL PUSH1 0x20 ADD PUSH1 0x40 MLOAD SWAP1 DUP2 ADD PUSH1 0x40 MSTORE DUP1 SWAP3 SWAP2 SWAP1 DUP2 DUP2 MSTORE PUSH1 0x20 ADD DUP3 DUP1 SLOAD PUSH2 0x7C6 SWAP1 PUSH2 0x1D64 JUMP JUMPDEST DUP1 ISZERO PUSH2 0x811 JUMPI DUP1 PUSH1 0x1F LT PUSH2 0x7E8 JUMPI PUSH2 0x100 DUP1 DUP4 SLOAD DIV MUL DUP4 MSTORE SWAP2 PUSH1 0x20 ADD SWAP2 PUSH2 0x811 JUMP JUMPDEST DUP3 ADD SWAP2 SWAP1 PUSH0 MSTORE PUSH1 0x20 PUSH0 KECCAK256 SWAP1 JUMPDEST DUP2 SLOAD DUP2 MSTORE SWAP1 PUSH1 0x1 ADD SWAP1 PUSH1 0x20 ADD DUP1 DUP4 GT PUSH2 0x7F4 JUMPI DUP3 SWAP1 SUB PUSH1 0x1F AND DUP3 ADD SWAP2 JUMPDEST POP POP POP POP POP DUP2 MSTORE PUSH1 0x20 ADD PUSH1 0x4 DUP3 ADD SLOAD DUP2 MSTORE PUSH1 0x20 ADD PUSH1 0x5 DUP3 ADD PUSH0 SWAP1 SLOAD SWAP1 PUSH2 0x100 EXP SWAP1 DIV PUSH20 0xFFFFFFFFFFFFFFFFFFFFFFFFFFFFFFFFFFFFFFFF AND PUSH20 0xFFFFFFFFFFFFFFFFFFFFFFFFFFFFFFFFFFFFFFFF AND PUSH20 0xFFFFFFFFFFFFFFFFFFFFFFFFFFFFFFFFFFFFFFFF AND DUP2 MSTORE PUSH1 0x20 ADD PUSH1 0x6 DUP3 ADD SLOAD DUP2 MSTORE POP POP DUP3 PUSH1 0x1 DUP4 PUSH2 0x891 SWAP2 SWAP1 PUSH2 0x1CD7 JUMP JUMPDEST DUP2 MLOAD DUP2 LT PUSH2 0x8A2 JUMPI PUSH2 0x8A1 PUSH2 0x1D94 JUMP JUMPDEST JUMPDEST PUSH1 0x20 MUL PUSH1 0x20 ADD ADD DUP2 SWAP1 MSTORE POP DUP1 DUP1 PUSH2 0x8B8 SWAP1 PUSH2 0x1DC1 JUMP JUMPDEST SWAP2 POP POP PUSH2 0x63B JUMP JUMPDEST POP DUP1 SWAP2 POP POP SWAP1 JUMP JUMPDEST PUSH1 0x7 PUSH1 0x20 MSTORE DUP1 PUSH0 MSTORE PUSH1 0x40 PUSH0 KECCAK256 PUSH0 SWAP2 POP SWAP1 POP DUP1 PUSH0 ADD DUP1 SLOAD PUSH2 0x8E7 SWAP1 PUSH2 0x1D64 JUMP JUMPDEST DUP1 PUSH1 0x1F ADD PUSH1 0x20 DUP1 SWAP2 DIV MUL PUSH1 0x20 ADD PUSH1 0x40 MLOAD SWAP1 DUP2 ADD PUSH1 0x40 MSTORE DUP1 SWAP3 SWAP2 SWAP1 DUP2 DUP2 MSTORE PUSH1 0x20 ADD DUP3 DUP1 SLOAD PUSH2 0x913 SWAP1 PUSH2 0x1D64 JUMP JUMPDEST DUP1 ISZERO PUSH2 0x95E JUMPI DUP1 PUSH1 0x1F LT PUSH2 0x935 JUMPI PUSH2 0x100 DUP1 DUP4 SLOAD DIV MUL DUP4 MSTORE SWAP2 PUSH1 0x20 ADD SWAP2 PUSH2 0x95E JUMP JUMPDEST DUP3 ADD SWAP2 SWAP1 PUSH0 MSTORE PUSH1 0x20 PUSH0 KECCAK256 SWAP1 JUMPDEST DUP2 SLOAD DUP2 MSTORE SWAP1 PUSH1 0x1 ADD SWAP1 PUSH1 0x20 ADD DUP1 DUP4 GT PUSH2 0x941 JUMPI DUP3 SWAP1 SUB PUSH1 0x1F AND DUP3 ADD SWAP2 JUMPDEST POP POP POP POP POP SWAP1 DUP1 PUSH1 0x1 ADD DUP1 SLOAD PUSH2 0x973 SWAP1 PUSH2 0x1D64 JUMP JUMPDEST DUP1 PUSH1 0x1F ADD PUSH1 0x20 DUP1 SWAP2 DIV MUL PUSH1 0x20 ADD PUSH1 0x40 MLOAD SWAP1 DUP2 ADD PUSH1 0x40 MSTORE DUP1 SWAP3 SWAP2 SWAP1 DUP2 DUP2 MSTORE PUSH1 0x20 ADD DUP3 DUP1 SLOAD PUSH2 0x99F SWAP1 PUSH2 0x1D64 JUMP JUMPDEST DUP1 ISZERO PUSH2 0x9EA JUMPI DUP1 PUSH1 0x1F LT PUSH2 0x9C1 JUMPI PUSH2 0x100 DUP1 DUP4 SLOAD DIV MUL DUP4 MSTORE SWAP2 PUSH1 0x20 ADD SWAP2 PUSH2 0x9EA JUMP JUMPDEST DUP3 ADD SWAP2 SWAP1 PUSH0 MSTORE PUSH1 0x20 PUSH0 KECCAK256 SWAP1 JUMPDEST DUP2 SLOAD DUP2 MSTORE SWAP1 PUSH1 0x1 ADD SWAP1 PUSH1 0x20 ADD DUP1 DUP4 GT PUSH2 0x9CD JUMPI DUP3 SWAP1 SUB PUSH1 0x1F AND DUP3 ADD SWAP2 JUMPDEST POP POP POP POP POP SWAP1 DUP1 PUSH1 0x2 ADD SLOAD SWAP1 DUP1 PUSH1 0x3 ADD DUP1 SLOAD PUSH2 0xA05 SWAP1 PUSH2 0x1D64 JUMP JUMPDEST DUP1 PUSH1 0x1F ADD PUSH1 0x20 DUP1 SWAP2 DIV MUL PUSH1 0x20 ADD PUSH1 0x40 MLOAD SWAP1 DUP2 ADD PUSH1 0x40 MSTORE DUP1 SWAP3 SWAP2 SWAP1 DUP2 DUP2 MSTORE PUSH1 0x20 ADD DUP3 DUP1 SLOAD PUSH2 0xA31 SWAP1 PUSH2 0x1D64 JUMP JUMPDEST DUP1 ISZERO PUSH2 0xA7C JUMPI DUP1 PUSH1 0x1F LT PUSH2 0xA53 JUMPI PUSH2 0x100 DUP1 DUP4 SLOAD DIV MUL DUP4 MSTORE SWAP2 PUSH1 0x20 ADD SWAP2 PUSH2 0xA7C JUMP JUMPDEST DUP3 ADD SWAP2 SWAP1 PUSH0 MSTORE PUSH1 0x20 PUSH0 KECCAK256 SWAP1 JUMPDEST DUP2 SLOAD DUP2 MSTORE SWAP1 PUSH1 0x1 ADD SWAP1 PUSH1 0x20 ADD DUP1 DUP4 GT PUSH2 0xA5F JUMPI DUP3 SWAP1 SUB PUSH1 0x1F AND DUP3 ADD SWAP2 JUMPDEST POP POP POP POP POP SWAP1 DUP1 PUSH1 0x4 ADD SLOAD SWAP1 DUP1 PUSH1 0x5 ADD PUSH0 SWAP1 SLOAD SWAP1 PUSH2 0x100 EXP SWAP1 DIV PUSH20 0xFFFFFFFFFFFFFFFFFFFFFFFFFFFFFFFFFFFFFFFF AND SWAP1 DUP1 PUSH1 0x6 ADD SLOAD SWAP1 POP DUP8 JUMP JUMPDEST CALLER PUSH20 0xFFFFFFFFFFFFFFFFFFFFFFFFFFFFFFFFFFFFFFFF AND PUSH1 0x5 PUSH0 SWAP1 SLOAD SWAP1 PUSH2 0x100 EXP SWAP1 DIV PUSH20 0xFFFFFFFFFFFFFFFFFFFFFFFFFFFFFFFFFFFFFFFF AND PUSH20 0xFFFFFFFFFFFFFFFFFFFFFFFFFFFFFFFFFFFFFFFF AND EQ PUSH2 0xB46 JUMPI PUSH1 0x40 MLOAD PUSH32 0x8C379A000000000000000000000000000000000000000000000000000000000 DUP2 MSTORE PUSH1 0x4 ADD PUSH2 0xB3D SWAP1 PUSH2 0x1E52 JUMP JUMPDEST PUSH1 0x40 MLOAD DUP1 SWAP2 SUB SWAP1 REVERT JUMPDEST PUSH1 0x3 SLOAD TIMESTAMP GT DUP1 ISZERO PUSH2 0xB68 JUMPI POP PUSH0 ISZERO ISZERO PUSH1 0x4 PUSH0 SWAP1 SLOAD SWAP1 PUSH2 0x100 EXP SWAP1 DIV PUSH1 0xFF AND ISZERO ISZERO EQ JUMPDEST PUSH2 0xBA7 JUMPI PUSH1 0x40 MLOAD PUSH32 0x8C379A000000000000000000000000000000000000000000000000000000000 DUP2 MSTORE PUSH1 0x4 ADD PUSH2 0xB9E SWAP1 PUSH2 0x1EBA JUMP JUMPDEST PUSH1 0x40 MLOAD DUP1 SWAP2 SUB SWAP1 REVERT JUMPDEST PUSH1 0x1 DUP1 SLOAD GT PUSH2 0xBEB JUMPI PUSH1 0x40 MLOAD PUSH32 0x8C379A000000000000000000000000000000000000000000000000000000000 DUP2 MSTORE PUSH1 0x4 ADD PUSH2 0xBE2 SWAP1 PUSH2 0x1F22 JUMP JUMPDEST PUSH1 0x40 MLOAD DUP1 SWAP2 SUB SWAP1 REVERT JUMPDEST PUSH0 DUP1 DUP1 PUSH1 0x1 SWAP1 POP JUMPDEST PUSH1 0x1 SLOAD DUP2 LT ISZERO PUSH2 0xC7A JUMPI DUP3 PUSH1 0x7 PUSH0 DUP4 DUP2 MSTORE PUSH1 0x20 ADD SWAP1 DUP2 MSTORE PUSH1 0x20 ADD PUSH0 KECCAK256 PUSH1 0x6 ADD SLOAD GT ISZERO PUSH2 0xC67 JUMPI PUSH1 0x7 PUSH0 DUP3 DUP2 MSTORE PUSH1 0x20 ADD SWAP1 DUP2 MSTORE PUSH1 0x20 ADD PUSH0 KECCAK256 PUSH1 0x6 ADD SLOAD SWAP3 POP PUSH1 0x7 PUSH0 DUP3 DUP2 MSTORE PUSH1 0x20 ADD SWAP1 DUP2 MSTORE PUSH1 0x20 ADD PUSH0 KECCAK256 PUSH1 0x5 ADD PUSH0 SWAP1 SLOAD SWAP1 PUSH2 0x100 EXP SWAP1 DIV PUSH20 0xFFFFFFFFFFFFFFFFFFFFFFFFFFFFFFFFFFFFFFFF AND SWAP2 POP JUMPDEST DUP1 DUP1 PUSH2 0xC72 SWAP1 PUSH2 0x1DC1 JUMP JUMPDEST SWAP2 POP POP PUSH2 0xBF3 JUMP JUMPDEST POP POP POP JUMP JUMPDEST PUSH0 DUP1 PUSH0 SWAP1 POP JUMPDEST PUSH1 0x1 SLOAD DUP2 LT ISZERO PUSH2 0xD11 JUMPI DUP3 PUSH20 0xFFFFFFFFFFFFFFFFFFFFFFFFFFFFFFFFFFFFFFFF AND PUSH1 0x7 PUSH0 DUP4 DUP2 MSTORE PUSH1 0x20 ADD SWAP1 DUP2 MSTORE PUSH1 0x20 ADD PUSH0 KECCAK256 PUSH1 0x5 ADD PUSH0 SWAP1 SLOAD SWAP1 PUSH2 0x100 EXP SWAP1 DIV PUSH20 0xFFFFFFFFFFFFFFFFFFFFFFFFFFFFFFFFFFFFFFFF AND PUSH20 0xFFFFFFFFFFFFFFFFFFFFFFFFFFFFFFFFFFFFFFFF AND SUB PUSH2 0xCFE JUMPI PUSH0 SWAP2 POP POP PUSH2 0xD17 JUMP JUMPDEST DUP1 DUP1 PUSH2 0xD09 SWAP1 PUSH2 0x1DC1 JUMP JUMPDEST SWAP2 POP POP PUSH2 0xC85 JUMP JUMPDEST POP PUSH1 0x1 SWAP1 POP JUMPDEST SWAP2 SWAP1 POP JUMP JUMPDEST PUSH1 0x12 DUP4 LT ISZERO PUSH2 0xD60 JUMPI PUSH1 0x40 MLOAD PUSH32 0x8C379A000000000000000000000000000000000000000000000000000000000 DUP2 MSTORE PUSH1 0x4 ADD PUSH2 0xD57 SWAP1 PUSH2 0x1F8A JUMP JUMPDEST PUSH1 0x40 MLOAD DUP1 SWAP2 SUB SWAP1 REVERT JUMPDEST PUSH1 0x1 ISZERO ISZERO PUSH2 0xD6D CALLER PUSH2 0x1421 JUMP JUMPDEST ISZERO ISZERO EQ PUSH2 0xDAF JUMPI PUSH1 0x40 MLOAD PUSH32 0x8C379A000000000000000000000000000000000000000000000000000000000 DUP2 MSTORE PUSH1 0x4 ADD PUSH2 0xDA6 SWAP1 PUSH2 0x1FF2 JUMP JUMPDEST PUSH1 0x40 MLOAD DUP1 SWAP2 SUB SWAP1 REVERT JUMPDEST PUSH1 0x40 MLOAD DUP1 PUSH1 0xC0 ADD PUSH1 0x40 MSTORE DUP1 DUP7 DUP7 DUP1 DUP1 PUSH1 0x1F ADD PUSH1 0x20 DUP1 SWAP2 DIV MUL PUSH1 0x20 ADD PUSH1 0x40 MLOAD SWAP1 DUP2 ADD PUSH1 0x40 MSTORE DUP1 SWAP4 SWAP3 SWAP2 SWAP1 DUP2 DUP2 MSTORE PUSH1 0x20 ADD DUP4 DUP4 DUP1 DUP3 DUP5 CALLDATACOPY PUSH0 DUP2 DUP5 ADD MSTORE PUSH1 0x1F NOT PUSH1 0x1F DUP3 ADD AND SWAP1 POP DUP1 DUP4 ADD SWAP3 POP POP POP POP POP POP POP DUP2 MSTORE PUSH1 0x20 ADD DUP5 DUP2 MSTORE PUSH1 0x20 ADD PUSH0 SLOAD DUP2 MSTORE PUSH1 0x20 ADD DUP4 DUP4 DUP1 DUP1 PUSH1 0x1F ADD PUSH1 0x20 DUP1 SWAP2 DIV MUL PUSH1 0x20 ADD PUSH1 0x40 MLOAD SWAP1 DUP2 ADD PUSH1 0x40 MSTORE DUP1 SWAP4 SWAP3 SWAP2 SWAP1 DUP2 DUP2 MSTORE PUSH1 0x20 ADD DUP4 DUP4 DUP1 DUP3 DUP5 CALLDATACOPY PUSH0 DUP2 DUP5 ADD MSTORE PUSH1 0x1F NOT PUSH1 0x1F DUP3 ADD AND SWAP1 POP DUP1 DUP4 ADD SWAP3 POP POP POP POP POP POP POP DUP2 MSTORE PUSH1 0x20 ADD PUSH0 DUP2 MSTORE PUSH1 0x20 ADD CALLER PUSH20 0xFFFFFFFFFFFFFFFFFFFFFFFFFFFFFFFFFFFFFFFF AND DUP2 MSTORE POP PUSH1 0x6 PUSH0 DUP1 SLOAD DUP2 MSTORE PUSH1 0x20 ADD SWAP1 DUP2 MSTORE PUSH1 0x20 ADD PUSH0 KECCAK256 PUSH0 DUP3 ADD MLOAD DUP2 PUSH0 ADD SWAP1 DUP2 PUSH2 0xE9E SWAP2 SWAP1 PUSH2 0x21AD JUMP JUMPDEST POP PUSH1 0x20 DUP3 ADD MLOAD DUP2 PUSH1 0x1 ADD SSTORE PUSH1 0x40 DUP3 ADD MLOAD DUP2 PUSH1 0x2 ADD SSTORE PUSH1 0x60 DUP3 ADD MLOAD DUP2 PUSH1 0x3 ADD SWAP1 DUP2 PUSH2 0xEC8 SWAP2 SWAP1 PUSH2 0x21AD JUMP JUMPDEST POP PUSH1 0x80 DUP3 ADD MLOAD DUP2 PUSH1 0x4 ADD SSTORE PUSH1 0xA0 DUP3 ADD MLOAD DUP2 PUSH1 0x5 ADD PUSH0 PUSH2 0x100 EXP DUP2 SLOAD DUP2 PUSH20 0xFFFFFFFFFFFFFFFFFFFFFFFFFFFFFFFFFFFFFFFF MUL NOT AND SWAP1 DUP4 PUSH20 0xFFFFFFFFFFFFFFFFFFFFFFFFFFFFFFFFFFFFFFFF AND MUL OR SWAP1 SSTORE POP SWAP1 POP POP PUSH0 DUP1 DUP2 SLOAD DUP1 SWAP3 SWAP2 SWAP1 PUSH2 0xF2D SWAP1 PUSH2 0x1DC1 JUMP JUMPDEST SWAP2 SWAP1 POP SSTORE POP POP POP POP POP POP JUMP JUMPDEST CALLER PUSH20 0xFFFFFFFFFFFFFFFFFFFFFFFFFFFFFFFFFFFFFFFF AND PUSH1 0x5 PUSH0 SWAP1 SLOAD SWAP1 PUSH2 0x100 EXP SWAP1 DIV PUSH20 0xFFFFFFFFFFFFFFFFFFFFFFFFFFFFFFFFFFFFFFFF AND PUSH20 0xFFFFFFFFFFFFFFFFFFFFFFFFFFFFFFFFFFFFFFFF AND EQ PUSH2 0xFC8 JUMPI PUSH1 0x40 MLOAD PUSH32 0x8C379A000000000000000000000000000000000000000000000000000000000 DUP2 MSTORE PUSH1 0x4 ADD PUSH2 0xFBF SWAP1 PUSH2 0x1E52 JUMP JUMPDEST PUSH1 0x40 MLOAD DUP1 SWAP2 SUB SWAP1 REVERT JUMPDEST DUP2 TIMESTAMP PUSH2 0xFD4 SWAP2 SWAP1 PUSH2 0x227C JUMP JUMPDEST PUSH1 0x2 DUP2 SWAP1 SSTORE POP DUP1 PUSH1 0x2 SLOAD PUSH2 0xFE8 SWAP2 SWAP1 PUSH2 0x227C JUMP JUMPDEST PUSH1 0x3 DUP2 SWAP1 SSTORE POP PUSH0 PUSH1 0x4 PUSH0 PUSH2 0x100 EXP DUP2 SLOAD DUP2 PUSH1 0xFF MUL NOT AND SWAP1 DUP4 ISZERO ISZERO MUL OR SWAP1 SSTORE POP POP POP JUMP JUMPDEST PUSH1 0x3 SLOAD TIMESTAMP GT DUP1 ISZERO PUSH2 0x102D JUMPI POP PUSH0 ISZERO ISZERO PUSH1 0x4 PUSH0 SWAP1 SLOAD SWAP1 PUSH2 0x100 EXP SWAP1 DIV PUSH1 0xFF AND ISZERO ISZERO EQ JUMPDEST PUSH2 0x106C JUMPI PUSH1 0x40 MLOAD PUSH32 0x8C379A000000000000000000000000000000000000000000000000000000000 DUP2 MSTORE PUSH1 0x4 ADD PUSH2 0x1063 SWAP1 PUSH2 0x1EBA JUMP JUMPDEST PUSH1 0x40 MLOAD DUP1 SWAP2 SUB SWAP1 REVERT JUMPDEST PUSH0 PUSH1 0x6 PUSH0 DUP5 DUP2 MSTORE PUSH1 0x20 ADD SWAP1 DUP2 MSTORE PUSH1 0x20 ADD PUSH0 KECCAK256 PUSH1 0x4 ADD SLOAD EQ PUSH2 0x10C2 JUMPI PUSH1 0x40 MLOAD PUSH32 0x8C379A000000000000000000000000000000000000000000000000000000000 DUP2 MSTORE PUSH1 0x4 ADD PUSH2 0x10B9 SWAP1 PUSH2 0x1FF2 JUMP JUMPDEST PUSH1 0x40 MLOAD DUP1 SWAP2 SUB SWAP1 REVERT JUMPDEST CALLER PUSH20 0xFFFFFFFFFFFFFFFFFFFFFFFFFFFFFFFFFFFFFFFF AND PUSH1 0x6 PUSH0 DUP5 DUP2 MSTORE PUSH1 0x20 ADD SWAP1 DUP2 MSTORE PUSH1 0x20 ADD PUSH0 KECCAK256 PUSH1 0x5 ADD PUSH0 SWAP1 SLOAD SWAP1 PUSH2 0x100 EXP SWAP1 DIV PUSH20 0xFFFFFFFFFFFFFFFFFFFFFFFFFFFFFFFFFFFFFFFF AND PUSH20 0xFFFFFFFFFFFFFFFFFFFFFFFFFFFFFFFFFFFFFFFF AND EQ PUSH2 0x1163 JUMPI PUSH1 0x40 MLOAD PUSH32 0x8C379A000000000000000000000000000000000000000000000000000000000 DUP2 MSTORE PUSH1 0x4 ADD PUSH2 0x115A SWAP1 PUSH2 0x22F9 JUMP JUMPDEST PUSH1 0x40 MLOAD DUP1 SWAP2 SUB SWAP1 REVERT JUMPDEST PUSH0 PUSH1 0x2 SLOAD SUB PUSH2 0x11A7 JUMPI PUSH1 0x40 MLOAD PUSH32 0x8C379A000000000000000000000000000000000000000000000000000000000 DUP2 MSTORE PUSH1 0x4 ADD PUSH2 0x119E SWAP1 PUSH2 0x2361 JUMP JUMPDEST PUSH1 0x40 MLOAD DUP1 SWAP2 SUB SWAP1 REVERT JUMPDEST PUSH1 0x3 PUSH1 0x1 SLOAD EQ PUSH2 0x11EC JUMPI PUSH1 0x40 MLOAD PUSH32 0x8C379A000000000000000000000000000000000000000000000000000000000 DUP2 MSTORE PUSH1 0x4 ADD PUSH2 0x11E3 SWAP1 PUSH2 0x23EF JUMP JUMPDEST PUSH1 0x40 MLOAD DUP1 SWAP2 SUB SWAP1 REVERT JUMPDEST PUSH0 DUP2 GT DUP1 ISZERO PUSH2 0x11FB JUMPI POP PUSH1 0x3 DUP2 LT JUMPDEST PUSH2 0x123A JUMPI PUSH1 0x40 MLOAD PUSH32 0x8C379A000000000000000000000000000000000000000000000000000000000 DUP2 MSTORE PUSH1 0x4 ADD PUSH2 0x1231 SWAP1 PUSH2 0x2457 JUMP JUMPDEST PUSH1 0x40 MLOAD DUP1 SWAP2 SUB SWAP1 REVERT JUMPDEST DUP1 PUSH1 0x6 PUSH0 DUP5 DUP2 MSTORE PUSH1 0x20 ADD SWAP1 DUP2 MSTORE PUSH1 0x20 ADD PUSH0 KECCAK256 PUSH1 0x4 ADD DUP2 SWAP1 SSTORE POP PUSH1 0x7 PUSH0 DUP3 DUP2 MSTORE PUSH1 0x20 ADD SWAP1 DUP2 MSTORE PUSH1 0x20 ADD PUSH0 KECCAK256 PUSH1 0x6 ADD PUSH0 DUP2 SLOAD DUP1 SWAP3 SWAP2 SWAP1 PUSH2 0x1277 SWAP1 PUSH2 0x1DC1 JUMP JUMPDEST SWAP2 SWAP1 POP SSTORE POP POP POP JUMP JUMPDEST CALLER PUSH20 0xFFFFFFFFFFFFFFFFFFFFFFFFFFFFFFFFFFFFFFFF AND PUSH1 0x5 PUSH0 SWAP1 SLOAD SWAP1 PUSH2 0x100 EXP SWAP1 DIV PUSH20 0xFFFFFFFFFFFFFFFFFFFFFFFFFFFFFFFFFFFFFFFF AND PUSH20 0xFFFFFFFFFFFFFFFFFFFFFFFFFFFFFFFFFFFFFFFF AND EQ PUSH2 0x130F JUMPI PUSH1 0x40 MLOAD PUSH32 0x8C379A000000000000000000000000000000000000000000000000000000000 DUP2 MSTORE PUSH1 0x4 ADD PUSH2 0x1306 SWAP1 PUSH2 0x1E52 JUMP JUMPDEST PUSH1 0x40 MLOAD DUP1 SWAP2 SUB SWAP1 REVERT JUMPDEST PUSH1 0x1 PUSH1 0x4 PUSH0 PUSH2 0x100 EXP DUP2 SLOAD DUP2 PUSH1 0xFF MUL NOT AND SWAP1 DUP4 ISZERO ISZERO MUL OR SWAP1 SSTORE POP JUMP JUMPDEST PUSH1 0x60 PUSH0 PUSH1 0x2 SLOAD SUB PUSH2 0x1373 JUMPI PUSH1 0x40 MLOAD DUP1 PUSH1 0x40 ADD PUSH1 0x40 MSTORE DUP1 PUSH1 0x16 DUP2 MSTORE PUSH1 0x20 ADD PUSH32 0x566F74696E6720686173206E6F74207374617274656400000000000000000000 DUP2 MSTORE POP SWAP1 POP PUSH2 0x141E JUMP JUMPDEST PUSH0 PUSH1 0x2 SLOAD EQ ISZERO DUP1 ISZERO PUSH2 0x1386 JUMPI POP TIMESTAMP PUSH1 0x3 SLOAD GT JUMPDEST DUP1 ISZERO PUSH2 0x13A3 JUMPI POP PUSH0 ISZERO ISZERO PUSH1 0x4 PUSH0 SWAP1 SLOAD SWAP1 PUSH2 0x100 EXP SWAP1 DIV PUSH1 0xFF AND ISZERO ISZERO EQ JUMPDEST ISZERO PUSH2 0x13E5 JUMPI PUSH1 0x40 MLOAD DUP1 PUSH1 0x40 ADD PUSH1 0x40 MSTORE DUP1 PUSH1 0x12 DUP2 MSTORE PUSH1 0x20 ADD PUSH32 0x566F74696E6720696E2070726F67726573730000000000000000000000000000 DUP2 MSTORE POP SWAP1 POP PUSH2 0x141E JUMP JUMPDEST PUSH1 0x40 MLOAD DUP1 PUSH1 0x40 ADD PUSH1 0x40 MSTORE DUP1 PUSH1 0x5 DUP2 MSTORE PUSH1 0x20 ADD PUSH32 0x456E646564000000000000000000000000000000000000000000000000000000 DUP2 MSTORE POP SWAP1 POP JUMPDEST SWAP1 JUMP JUMPDEST PUSH0 DUP1 PUSH1 0x1 SWAP1 POP JUMPDEST PUSH0 SLOAD DUP2 LT ISZERO PUSH2 0x14B3 JUMPI DUP3 PUSH20 0xFFFFFFFFFFFFFFFFFFFFFFFFFFFFFFFFFFFFFFFF AND PUSH1 0x6 PUSH0 DUP4 DUP2 MSTORE PUSH1 0x20 ADD SWAP1 DUP2 MSTORE PUSH1 0x20 ADD PUSH0 KECCAK256 PUSH1 0x5 ADD PUSH0 SWAP1 SLOAD SWAP1 PUSH2 0x100 EXP SWAP1 DIV PUSH20 0xFFFFFFFFFFFFFFFFFFFFFFFFFFFFFFFFFFFFFFFF AND PUSH20 0xFFFFFFFFFFFFFFFFFFFFFFFFFFFFFFFFFFFFFFFF AND SUB PUSH2 0x14A0 JUMPI PUSH0 SWAP2 POP POP PUSH2 0x14B9 JUMP JUMPDEST DUP1 DUP1 PUSH2 0x14AB SWAP1 PUSH2 0x1DC1 JUMP JUMPDEST SWAP2 POP POP PUSH2 0x1428 JUMP JUMPDEST POP PUSH1 0x1 SWAP1 POP JUMPDEST SWAP2 SWAP1 POP JUMP JUMPDEST PUSH1 0x40 MLOAD DUP1 PUSH1 0xC0 ADD PUSH1 0x40 MSTORE DUP1 PUSH1 0x60 DUP2 MSTORE PUSH1 0x20 ADD PUSH0 DUP2 MSTORE PUSH1 0x20 ADD PUSH0 DUP2 MSTORE PUSH1 0x20 ADD PUSH1 0x60 DUP2 MSTORE PUSH1 0x20 ADD PUSH0 DUP2 MSTORE PUSH1 0x20 ADD PUSH0 PUSH20 0xFFFFFFFFFFFFFFFFFFFFFFFFFFFFFFFFFFFFFFFF AND DUP2 MSTORE POP SWAP1 JUMP JUMPDEST PUSH1 0x40 MLOAD DUP1 PUSH1 0xE0 ADD PUSH1 0x40 MSTORE DUP1 PUSH1 0x60 DUP2 MSTORE PUSH1 0x20 ADD PUSH1 0x60 DUP2 MSTORE PUSH1 0x20 ADD PUSH0 DUP2 MSTORE PUSH1 0x20 ADD PUSH1 0x60 DUP2 MSTORE PUSH1 0x20 ADD PUSH0 DUP2 MSTORE PUSH1 0x20 ADD PUSH0 PUSH20 0xFFFFFFFFFFFFFFFFFFFFFFFFFFFFFFFFFFFFFFFF AND DUP2 MSTORE PUSH1 0x20 ADD PUSH0 DUP2 MSTORE POP SWAP1 JUMP JUMPDEST PUSH0 DUP2 MLOAD SWAP1 POP SWAP2 SWAP1 POP JUMP JUMPDEST PUSH0 DUP3 DUP3 MSTORE PUSH1 0x20 DUP3 ADD SWAP1 POP SWAP3 SWAP2 POP POP JUMP JUMPDEST PUSH0 DUP2 SWAP1 POP PUSH1 0x20 DUP3 ADD SWAP1 POP SWAP2 SWAP1 POP JUMP JUMPDEST PUSH0 DUP2 MLOAD SWAP1 POP SWAP2 SWAP1 POP JUMP JUMPDEST PUSH0 DUP3 DUP3 MSTORE PUSH1 0x20 DUP3 ADD SWAP1 POP SWAP3 SWAP2 POP POP JUMP JUMPDEST PUSH0 JUMPDEST DUP4 DUP2 LT ISZERO PUSH2 0x15B5 JUMPI DUP1 DUP3 ADD MLOAD DUP2 DUP5 ADD MSTORE PUSH1 0x20 DUP2 ADD SWAP1 POP PUSH2 0x159A JUMP JUMPDEST PUSH0 DUP5 DUP5 ADD MSTORE POP POP POP POP JUMP JUMPDEST PUSH0 PUSH1 0x1F NOT PUSH1 0x1F DUP4 ADD AND SWAP1 POP SWAP2 SWAP1 POP JUMP JUMPDEST PUSH0 PUSH2 0x15DA DUP3 PUSH2 0x157E JUMP JUMPDEST PUSH2 0x15E4 DUP2 DUP6 PUSH2 0x1588 JUMP JUMPDEST SWAP4 POP PUSH2 0x15F4 DUP2 DUP6 PUSH1 0x20 DUP7 ADD PUSH2 0x1598 JUMP JUMPDEST PUSH2 0x15FD DUP2 PUSH2 0x15C0 JUMP JUMPDEST DUP5 ADD SWAP2 POP POP SWAP3 SWAP2 POP POP JUMP JUMPDEST PUSH0 DUP2 SWAP1 POP SWAP2 SWAP1 POP JUMP JUMPDEST PUSH2 0x161A DUP2 PUSH2 0x1608 JUMP JUMPDEST DUP3 MSTORE POP POP JUMP JUMPDEST PUSH0 PUSH20 0xFFFFFFFFFFFFFFFFFFFFFFFFFFFFFFFFFFFFFFFF DUP3 AND SWAP1 POP SWAP2 SWAP1 POP JUMP JUMPDEST PUSH0 PUSH2 0x1649 DUP3 PUSH2 0x1620 JUMP JUMPDEST SWAP1 POP SWAP2 SWAP1 POP JUMP JUMPDEST PUSH2 0x1659 DUP2 PUSH2 0x163F JUMP JUMPDEST DUP3 MSTORE POP POP JUMP JUMPDEST PUSH0 PUSH1 0xC0 DUP4 ADD PUSH0 DUP4 ADD MLOAD DUP5 DUP3 SUB PUSH0 DUP7 ADD MSTORE PUSH2 0x1679 DUP3 DUP3 PUSH2 0x15D0 JUMP JUMPDEST SWAP2 POP POP PUSH1 0x20 DUP4 ADD MLOAD PUSH2 0x168E PUSH1 0x20 DUP7 ADD DUP3 PUSH2 0x1611 JUMP JUMPDEST POP PUSH1 0x40 DUP4 ADD MLOAD PUSH2 0x16A1 PUSH1 0x40 DUP7 ADD DUP3 PUSH2 0x1611 JUMP JUMPDEST POP PUSH1 0x60 DUP4 ADD MLOAD DUP5 DUP3 SUB PUSH1 0x60 DUP7 ADD MSTORE PUSH2 0x16B9 DUP3 DUP3 PUSH2 0x15D0 JUMP JUMPDEST SWAP2 POP POP PUSH1 0x80 DUP4 ADD MLOAD PUSH2 0x16CE PUSH1 0x80 DUP7 ADD DUP3 PUSH2 0x1611 JUMP JUMPDEST POP PUSH1 0xA0 DUP4 ADD MLOAD PUSH2 0x16E1 PUSH1 0xA0 DUP7 ADD DUP3 PUSH2 0x1650 JUMP JUMPDEST POP DUP1 SWAP2 POP POP SWAP3 SWAP2 POP POP JUMP JUMPDEST PUSH0 PUSH2 0x16F7 DUP4 DUP4 PUSH2 0x165F JUMP JUMPDEST SWAP1 POP SWAP3 SWAP2 POP POP JUMP JUMPDEST PUSH0 PUSH1 0x20 DUP3 ADD SWAP1 POP SWAP2 SWAP1 POP JUMP JUMPDEST PUSH0 PUSH2 0x1715 DUP3 PUSH2 0x1555 JUMP JUMPDEST PUSH2 0x171F DUP2 DUP6 PUSH2 0x155F JUMP JUMPDEST SWAP4 POP DUP4 PUSH1 0x20 DUP3 MUL DUP6 ADD PUSH2 0x1731 DUP6 PUSH2 0x156F JUMP JUMPDEST DUP1 PUSH0 JUMPDEST DUP6 DUP2 LT ISZERO PUSH2 0x176C JUMPI DUP5 DUP5 SUB DUP10 MSTORE DUP2 MLOAD PUSH2 0x174D DUP6 DUP3 PUSH2 0x16EC JUMP JUMPDEST SWAP5 POP PUSH2 0x1758 DUP4 PUSH2 0x16FF JUMP JUMPDEST SWAP3 POP PUSH1 0x20 DUP11 ADD SWAP10 POP POP PUSH1 0x1 DUP2 ADD SWAP1 POP PUSH2 0x1734 JUMP JUMPDEST POP DUP3 SWAP8 POP DUP8 SWAP6 POP POP POP POP POP POP SWAP3 SWAP2 POP POP JUMP JUMPDEST PUSH0 PUSH1 0x20 DUP3 ADD SWAP1 POP DUP2 DUP2 SUB PUSH0 DUP4 ADD MSTORE PUSH2 0x1796 DUP2 DUP5 PUSH2 0x170B JUMP JUMPDEST SWAP1 POP SWAP3 SWAP2 POP POP JUMP JUMPDEST PUSH0 DUP1 REVERT JUMPDEST PUSH0 DUP1 REVERT JUMPDEST PUSH2 0x17AF DUP2 PUSH2 0x1608 JUMP JUMPDEST DUP2 EQ PUSH2 0x17B9 JUMPI PUSH0 DUP1 REVERT JUMPDEST POP JUMP JUMPDEST PUSH0 DUP2 CALLDATALOAD SWAP1 POP PUSH2 0x17CA DUP2 PUSH2 0x17A6 JUMP JUMPDEST SWAP3 SWAP2 POP POP JUMP JUMPDEST PUSH0 PUSH1 0x20 DUP3 DUP5 SUB SLT ISZERO PUSH2 0x17E5 JUMPI PUSH2 0x17E4 PUSH2 0x179E JUMP JUMPDEST JUMPDEST PUSH0 PUSH2 0x17F2 DUP5 DUP3 DUP6 ADD PUSH2 0x17BC JUMP JUMPDEST SWAP2 POP POP SWAP3 SWAP2 POP POP JUMP JUMPDEST PUSH0 DUP3 DUP3 MSTORE PUSH1 0x20 DUP3 ADD SWAP1 POP SWAP3 SWAP2 POP POP JUMP JUMPDEST PUSH0 PUSH2 0x1815 DUP3 PUSH2 0x157E JUMP JUMPDEST PUSH2 0x181F DUP2 DUP6 PUSH2 0x17FB JUMP JUMPDEST SWAP4 POP PUSH2 0x182F DUP2 DUP6 PUSH1 0x20 DUP7 ADD PUSH2 0x1598 JUMP JUMPDEST PUSH2 0x1838 DUP2 PUSH2 0x15C0 JUMP JUMPDEST DUP5 ADD SWAP2 POP POP SWAP3 SWAP2 POP POP JUMP JUMPDEST PUSH2 0x184C DUP2 PUSH2 0x1608 JUMP JUMPDEST DUP3 MSTORE POP POP JUMP JUMPDEST PUSH2 0x185B DUP2 PUSH2 0x163F JUMP JUMPDEST DUP3 MSTORE POP POP JUMP JUMPDEST PUSH0 PUSH1 0xC0 DUP3 ADD SWAP1 POP DUP2 DUP2 SUB PUSH0 DUP4 ADD MSTORE PUSH2 0x1879 DUP2 DUP10 PUSH2 0x180B JUMP JUMPDEST SWAP1 POP PUSH2 0x1888 PUSH1 0x20 DUP4 ADD DUP9 PUSH2 0x1843 JUMP JUMPDEST PUSH2 0x1895 PUSH1 0x40 DUP4 ADD DUP8 PUSH2 0x1843 JUMP JUMPDEST DUP2 DUP2 SUB PUSH1 0x60 DUP4 ADD MSTORE PUSH2 0x18A7 DUP2 DUP7 PUSH2 0x180B JUMP JUMPDEST SWAP1 POP PUSH2 0x18B6 PUSH1 0x80 DUP4 ADD DUP6 PUSH2 0x1843 JUMP JUMPDEST PUSH2 0x18C3 PUSH1 0xA0 DUP4 ADD DUP5 PUSH2 0x1852 JUMP JUMPDEST SWAP8 SWAP7 POP POP POP POP POP POP POP JUMP JUMPDEST PUSH0 DUP2 MLOAD SWAP1 POP SWAP2 SWAP1 POP JUMP JUMPDEST PUSH0 DUP3 DUP3 MSTORE PUSH1 0x20 DUP3 ADD SWAP1 POP SWAP3 SWAP2 POP POP JUMP JUMPDEST PUSH0 DUP2 SWAP1 POP PUSH1 0x20 DUP3 ADD SWAP1 POP SWAP2 SWAP1 POP JUMP JUMPDEST PUSH0 PUSH1 0xE0 DUP4 ADD PUSH0 DUP4 ADD MLOAD DUP5 DUP3 SUB PUSH0 DUP7 ADD MSTORE PUSH2 0x1911 DUP3 DUP3 PUSH2 0x15D0 JUMP JUMPDEST SWAP2 POP POP PUSH1 0x20 DUP4 ADD MLOAD DUP5 DUP3 SUB PUSH1 0x20 DUP7 ADD MSTORE PUSH2 0x192B DUP3 DUP3 PUSH2 0x15D0 JUMP JUMPDEST SWAP2 POP POP PUSH1 0x40 DUP4 ADD MLOAD PUSH2 0x1940 PUSH1 0x40 DUP7 ADD DUP3 PUSH2 0x1611 JUMP JUMPDEST POP PUSH1 0x60 DUP4 ADD MLOAD DUP5 DUP3 SUB PUSH1 0x60 DUP7 ADD MSTORE PUSH2 0x1958 DUP3 DUP3 PUSH2 0x15D0 JUMP JUMPDEST SWAP2 POP POP PUSH1 0x80 DUP4 ADD MLOAD PUSH2 0x196D PUSH1 0x80 DUP7 ADD DUP3 PUSH2 0x1611 JUMP JUMPDEST POP PUSH1 0xA0 DUP4 ADD MLOAD PUSH2 0x1980 PUSH1 0xA0 DUP7 ADD DUP3 PUSH2 0x1650 JUMP JUMPDEST POP PUSH1 0xC0 DUP4 ADD MLOAD PUSH2 0x1993 PUSH1 0xC0 DUP7 ADD DUP3 PUSH2 0x1611 JUMP JUMPDEST POP DUP1 SWAP2 POP POP SWAP3 SWAP2 POP POP JUMP JUMPDEST PUSH0 PUSH2 0x19A9 DUP4 DUP4 PUSH2 0x18F7 JUMP JUMPDEST SWAP1 POP SWAP3 SWAP2 POP POP JUMP JUMPDEST PUSH0 PUSH1 0x20 DUP3 ADD SWAP1 POP SWAP2 SWAP1 POP JUMP JUMPDEST PUSH0 PUSH2 0x19C7 DUP3 PUSH2 0x18CE JUMP JUMPDEST PUSH2 0x19D1 DUP2 DUP6 PUSH2 0x18D8 JUMP JUMPDEST SWAP4 POP DUP4 PUSH1 0x20 DUP3 MUL DUP6 ADD PUSH2 0x19E3 DUP6 PUSH2 0x18E8 JUMP JUMPDEST DUP1 PUSH0 JUMPDEST DUP6 DUP2 LT ISZERO PUSH2 0x1A1E JUMPI DUP5 DUP5 SUB DUP10 MSTORE DUP2 MLOAD PUSH2 0x19FF DUP6 DUP3 PUSH2 0x199E JUMP JUMPDEST SWAP5 POP PUSH2 0x1A0A DUP4 PUSH2 0x19B1 JUMP JUMPDEST SWAP3 POP PUSH1 0x20 DUP11 ADD SWAP10 POP POP PUSH1 0x1 DUP2 ADD SWAP1 POP PUSH2 0x19E6 JUMP JUMPDEST POP DUP3 SWAP8 POP DUP8 SWAP6 POP POP POP POP POP POP SWAP3 SWAP2 POP POP JUMP JUMPDEST PUSH0 PUSH1 0x20 DUP3 ADD SWAP1 POP DUP2 DUP2 SUB PUSH0 DUP4 ADD MSTORE PUSH2 0x1A48 DUP2 DUP5 PUSH2 0x19BD JUMP JUMPDEST SWAP1 POP SWAP3 SWAP2 POP POP JUMP JUMPDEST PUSH0 PUSH1 0xE0 DUP3 ADD SWAP1 POP DUP2 DUP2 SUB PUSH0 DUP4 ADD MSTORE PUSH2 0x1A68 DUP2 DUP11 PUSH2 0x180B JUMP JUMPDEST SWAP1 POP DUP2 DUP2 SUB PUSH1 0x20 DUP4 ADD MSTORE PUSH2 0x1A7C DUP2 DUP10 PUSH2 0x180B JUMP JUMPDEST SWAP1 POP PUSH2 0x1A8B PUSH1 0x40 DUP4 ADD DUP9 PUSH2 0x1843 JUMP JUMPDEST DUP2 DUP2 SUB PUSH1 0x60 DUP4 ADD MSTORE PUSH2 0x1A9D DUP2 DUP8 PUSH2 0x180B JUMP JUMPDEST SWAP1 POP PUSH2 0x1AAC PUSH1 0x80 DUP4 ADD DUP7 PUSH2 0x1843 JUMP JUMPDEST PUSH2 0x1AB9 PUSH1 0xA0 DUP4 ADD DUP6 PUSH2 0x1852 JUMP JUMPDEST PUSH2 0x1AC6 PUSH1 0xC0 DUP4 ADD DUP5 PUSH2 0x1843 JUMP JUMPDEST SWAP9 SWAP8 POP POP POP POP POP POP POP POP JUMP JUMPDEST PUSH2 0x1ADB DUP2 PUSH2 0x163F JUMP JUMPDEST DUP2 EQ PUSH2 0x1AE5 JUMPI PUSH0 DUP1 REVERT JUMPDEST POP JUMP JUMPDEST PUSH0 DUP2 CALLDATALOAD SWAP1 POP PUSH2 0x1AF6 DUP2 PUSH2 0x1AD2 JUMP JUMPDEST SWAP3 SWAP2 POP POP JUMP JUMPDEST PUSH0 PUSH1 0x20 DUP3 DUP5 SUB SLT ISZERO PUSH2 0x1B11 JUMPI PUSH2 0x1B10 PUSH2 0x179E JUMP JUMPDEST JUMPDEST PUSH0 PUSH2 0x1B1E DUP5 DUP3 DUP6 ADD PUSH2 0x1AE8 JUMP JUMPDEST SWAP2 POP POP SWAP3 SWAP2 POP POP JUMP JUMPDEST PUSH0 DUP2 ISZERO ISZERO SWAP1 POP SWAP2 SWAP1 POP JUMP JUMPDEST PUSH2 0x1B3B DUP2 PUSH2 0x1B27 JUMP JUMPDEST DUP3 MSTORE POP POP JUMP JUMPDEST PUSH0 PUSH1 0x20 DUP3 ADD SWAP1 POP PUSH2 0x1B54 PUSH0 DUP4 ADD DUP5 PUSH2 0x1B32 JUMP JUMPDEST SWAP3 SWAP2 POP POP JUMP JUMPDEST PUSH0 DUP1 REVERT JUMPDEST PUSH0 DUP1 REVERT JUMPDEST PUSH0 DUP1 REVERT JUMPDEST PUSH0 DUP1 DUP4 PUSH1 0x1F DUP5 ADD SLT PUSH2 0x1B7B JUMPI PUSH2 0x1B7A PUSH2 0x1B5A JUMP JUMPDEST JUMPDEST DUP3 CALLDATALOAD SWAP1 POP PUSH8 0xFFFFFFFFFFFFFFFF DUP2 GT ISZERO PUSH2 0x1B98 JUMPI PUSH2 0x1B97 PUSH2 0x1B5E JUMP JUMPDEST JUMPDEST PUSH1 0x20 DUP4 ADD SWAP2 POP DUP4 PUSH1 0x1 DUP3 MUL DUP4 ADD GT ISZERO PUSH2 0x1BB4 JUMPI PUSH2 0x1BB3 PUSH2 0x1B62 JUMP JUMPDEST JUMPDEST SWAP3 POP SWAP3 SWAP1 POP JUMP JUMPDEST PUSH0 DUP1 PUSH0 DUP1 PUSH0 PUSH1 0x60 DUP7 DUP9 SUB SLT ISZERO PUSH2 0x1BD4 JUMPI PUSH2 0x1BD3 PUSH2 0x179E JUMP JUMPDEST JUMPDEST PUSH0 DUP7 ADD CALLDATALOAD PUSH8 0xFFFFFFFFFFFFFFFF DUP2 GT ISZERO PUSH2 0x1BF1 JUMPI PUSH2 0x1BF0 PUSH2 0x17A2 JUMP JUMPDEST JUMPDEST PUSH2 0x1BFD DUP9 DUP3 DUP10 ADD PUSH2 0x1B66 JUMP JUMPDEST SWAP6 POP SWAP6 POP POP PUSH1 0x20 PUSH2 0x1C10 DUP9 DUP3 DUP10 ADD PUSH2 0x17BC JUMP JUMPDEST SWAP4 POP POP PUSH1 0x40 DUP7 ADD CALLDATALOAD PUSH8 0xFFFFFFFFFFFFFFFF DUP2 GT ISZERO PUSH2 0x1C31 JUMPI PUSH2 0x1C30 PUSH2 0x17A2 JUMP JUMPDEST JUMPDEST PUSH2 0x1C3D DUP9 DUP3 DUP10 ADD PUSH2 0x1B66 JUMP JUMPDEST SWAP3 POP SWAP3 POP POP SWAP3 SWAP6 POP SWAP3 SWAP6 SWAP1 SWAP4 POP JUMP JUMPDEST PUSH0 DUP1 PUSH1 0x40 DUP4 DUP6 SUB SLT ISZERO PUSH2 0x1C62 JUMPI PUSH2 0x1C61 PUSH2 0x179E JUMP JUMPDEST JUMPDEST PUSH0 PUSH2 0x1C6F DUP6 DUP3 DUP7 ADD PUSH2 0x17BC JUMP JUMPDEST SWAP3 POP POP PUSH1 0x20 PUSH2 0x1C80 DUP6 DUP3 DUP7 ADD PUSH2 0x17BC JUMP JUMPDEST SWAP2 POP POP SWAP3 POP SWAP3 SWAP1 POP JUMP JUMPDEST PUSH0 PUSH1 0x20 DUP3 ADD SWAP1 POP DUP2 DUP2 SUB PUSH0 DUP4 ADD MSTORE PUSH2 0x1CA2 DUP2 DUP5 PUSH2 0x180B JUMP JUMPDEST SWAP1 POP SWAP3 SWAP2 POP POP JUMP JUMPDEST PUSH32 0x4E487B7100000000000000000000000000000000000000000000000000000000 PUSH0 MSTORE PUSH1 0x11 PUSH1 0x4 MSTORE PUSH1 0x24 PUSH0 REVERT JUMPDEST PUSH0 PUSH2 0x1CE1 DUP3 PUSH2 0x1608 JUMP JUMPDEST SWAP2 POP PUSH2 0x1CEC DUP4 PUSH2 0x1608 JUMP JUMPDEST SWAP3 POP DUP3 DUP3 SUB SWAP1 POP DUP2 DUP2 GT ISZERO PUSH2 0x1D04 JUMPI PUSH2 0x1D03 PUSH2 0x1CAA JUMP JUMPDEST JUMPDEST SWAP3 SWAP2 POP POP JUMP JUMPDEST PUSH32 0x4E487B7100000000000000000000000000000000000000000000000000000000 PUSH0 MSTORE PUSH1 0x41 PUSH1 0x4 MSTORE PUSH1 0x24 PUSH0 REVERT JUMPDEST PUSH32 0x4E487B7100000000000000000000000000000000000000000000000000000000 PUSH0 MSTORE PUSH1 0x22 PUSH1 0x4 MSTORE PUSH1 0x24 PUSH0 REVERT JUMPDEST PUSH0 PUSH1 0x2 DUP3 DIV SWAP1 POP PUSH1 0x1 DUP3 AND DUP1 PUSH2 0x1D7B JUMPI PUSH1 0x7F DUP3 AND SWAP2 POP JUMPDEST PUSH1 0x20 DUP3 LT DUP2 SUB PUSH2 0x1D8E JUMPI PUSH2 0x1D8D PUSH2 0x1D37 JUMP JUMPDEST JUMPDEST POP SWAP2 SWAP1 POP JUMP JUMPDEST PUSH32 0x4E487B7100000000000000000000000000000000000000000000000000000000 PUSH0 MSTORE PUSH1 0x32 PUSH1 0x4 MSTORE PUSH1 0x24 PUSH0 REVERT JUMPDEST PUSH0 PUSH2 0x1DCB DUP3 PUSH2 0x1608 JUMP JUMPDEST SWAP2 POP PUSH32 0xFFFFFFFFFFFFFFFFFFFFFFFFFFFFFFFFFFFFFFFFFFFFFFFFFFFFFFFFFFFFFFFF DUP3 SUB PUSH2 0x1DFD JUMPI PUSH2 0x1DFC PUSH2 0x1CAA JUMP JUMPDEST JUMPDEST PUSH1 0x1 DUP3 ADD SWAP1 POP SWAP2 SWAP1 POP JUMP JUMPDEST PUSH32 0x4E6F7420666F726D20456C656374696F6E20436F6D6D6973696F6E0000000000 PUSH0 DUP3 ADD MSTORE POP JUMP JUMPDEST PUSH0 PUSH2 0x1E3C PUSH1 0x1B DUP4 PUSH2 0x17FB JUMP JUMPDEST SWAP2 POP PUSH2 0x1E47 DUP3 PUSH2 0x1E08 JUMP JUMPDEST PUSH1 0x20 DUP3 ADD SWAP1 POP SWAP2 SWAP1 POP JUMP JUMPDEST PUSH0 PUSH1 0x20 DUP3 ADD SWAP1 POP DUP2 DUP2 SUB PUSH0 DUP4 ADD MSTORE PUSH2 0x1E69 DUP2 PUSH2 0x1E30 JUMP JUMPDEST SWAP1 POP SWAP2 SWAP1 POP JUMP JUMPDEST PUSH32 0x566F74696E67206973206F766572000000000000000000000000000000000000 PUSH0 DUP3 ADD MSTORE POP JUMP JUMPDEST PUSH0 PUSH2 0x1EA4 PUSH1 0xE DUP4 PUSH2 0x17FB JUMP JUMPDEST SWAP2 POP PUSH2 0x1EAF DUP3 PUSH2 0x1E70 JUMP JUMPDEST PUSH1 0x20 DUP3 ADD SWAP1 POP SWAP2 SWAP1 POP JUMP JUMPDEST PUSH0 PUSH1 0x20 DUP3 ADD SWAP1 POP DUP2 DUP2 SUB PUSH0 DUP4 ADD MSTORE PUSH2 0x1ED1 DUP2 PUSH2 0x1E98 JUMP JUMPDEST SWAP1 POP SWAP2 SWAP1 POP JUMP JUMPDEST PUSH32 0x4E6F2043616E6469646174652072656769737465720000000000000000000000 PUSH0 DUP3 ADD MSTORE POP JUMP JUMPDEST PUSH0 PUSH2 0x1F0C PUSH1 0x15 DUP4 PUSH2 0x17FB JUMP JUMPDEST SWAP2 POP PUSH2 0x1F17 DUP3 PUSH2 0x1ED8 JUMP JUMPDEST PUSH1 0x20 DUP3 ADD SWAP1 POP SWAP2 SWAP1 POP JUMP JUMPDEST PUSH0 PUSH1 0x20 DUP3 ADD SWAP1 POP DUP2 DUP2 SUB PUSH0 DUP4 ADD MSTORE PUSH2 0x1F39 DUP2 PUSH2 0x1F00 JUMP JUMPDEST SWAP1 POP SWAP2 SWAP1 POP JUMP JUMPDEST PUSH32 0x596F7520617265206E6F7420656C696769626C6520666F7220766F74696E6700 PUSH0 DUP3 ADD MSTORE POP JUMP JUMPDEST PUSH0 PUSH2 0x1F74 PUSH1 0x1F DUP4 PUSH2 0x17FB JUMP JUMPDEST SWAP2 POP PUSH2 0x1F7F DUP3 PUSH2 0x1F40 JUMP JUMPDEST PUSH1 0x20 DUP3 ADD SWAP1 POP SWAP2 SWAP1 POP JUMP JUMPDEST PUSH0 PUSH1 0x20 DUP3 ADD SWAP1 POP DUP2 DUP2 SUB PUSH0 DUP4 ADD MSTORE PUSH2 0x1FA1 DUP2 PUSH2 0x1F68 JUMP JUMPDEST SWAP1 POP SWAP2 SWAP1 POP JUMP JUMPDEST PUSH32 0x596F75206861766520616C726561647920766F74656400000000000000000000 PUSH0 DUP3 ADD MSTORE POP JUMP JUMPDEST PUSH0 PUSH2 0x1FDC PUSH1 0x16 DUP4 PUSH2 0x17FB JUMP JUMPDEST SWAP2 POP PUSH2 0x1FE7 DUP3 PUSH2 0x1FA8 JUMP JUMPDEST PUSH1 0x20 DUP3 ADD SWAP1 POP SWAP2 SWAP1 POP JUMP JUMPDEST PUSH0 PUSH1 0x20 DUP3 ADD SWAP1 POP DUP2 DUP2 SUB PUSH0 DUP4 ADD MSTORE PUSH2 0x2009 DUP2 PUSH2 0x1FD0 JUMP JUMPDEST SWAP1 POP SWAP2 SWAP1 POP JUMP JUMPDEST PUSH0 DUP2 SWAP1 POP DUP2 PUSH0 MSTORE PUSH1 0x20 PUSH0 KECCAK256 SWAP1 POP SWAP2 SWAP1 POP JUMP JUMPDEST PUSH0 PUSH1 0x20 PUSH1 0x1F DUP4 ADD DIV SWAP1 POP SWAP2 SWAP1 POP JUMP JUMPDEST PUSH0 DUP3 DUP3 SHL SWAP1 POP SWAP3 SWAP2 POP POP JUMP JUMPDEST PUSH0 PUSH1 0x8 DUP4 MUL PUSH2 0x206C PUSH32 0xFFFFFFFFFFFFFFFFFFFFFFFFFFFFFFFFFFFFFFFFFFFFFFFFFFFFFFFFFFFFFFFF DUP3 PUSH2 0x2031 JUMP JUMPDEST PUSH2 0x2076 DUP7 DUP4 PUSH2 0x2031 JUMP JUMPDEST SWAP6 POP DUP1 NOT DUP5 AND SWAP4 POP DUP1 DUP7 AND DUP5 OR SWAP3 POP POP POP SWAP4 SWAP3 POP POP POP JUMP JUMPDEST PUSH0 DUP2 SWAP1 POP SWAP2 SWAP1 POP JUMP JUMPDEST PUSH0 PUSH2 0x20B1 PUSH2 0x20AC PUSH2 0x20A7 DUP5 PUSH2 0x1608 JUMP JUMPDEST PUSH2 0x208E JUMP JUMPDEST PUSH2 0x1608 JUMP JUMPDEST SWAP1 POP SWAP2 SWAP1 POP JUMP JUMPDEST PUSH0 DUP2 SWAP1 POP SWAP2 SWAP1 POP JUMP JUMPDEST PUSH2 0x20CA DUP4 PUSH2 0x2097 JUMP JUMPDEST PUSH2 0x20DE PUSH2 0x20D6 DUP3 PUSH2 0x20B8 JUMP JUMPDEST DUP5 DUP5 SLOAD PUSH2 0x203D JUMP JUMPDEST DUP3 SSTORE POP POP POP POP JUMP JUMPDEST PUSH0 SWAP1 JUMP JUMPDEST PUSH2 0x20F2 PUSH2 0x20E6 JUMP JUMPDEST PUSH2 0x20FD DUP2 DUP5 DUP5 PUSH2 0x20C1 JUMP JUMPDEST POP POP POP JUMP JUMPDEST JUMPDEST DUP2 DUP2 LT ISZERO PUSH2 0x2120 JUMPI PUSH2 0x2115 PUSH0 DUP3 PUSH2 0x20EA JUMP JUMPDEST PUSH1 0x1 DUP2 ADD SWAP1 POP PUSH2 0x2103 JUMP JUMPDEST POP POP JUMP JUMPDEST PUSH1 0x1F DUP3 GT ISZERO PUSH2 0x2165 JUMPI PUSH2 0x2136 DUP2 PUSH2 0x2010 JUMP JUMPDEST PUSH2 0x213F DUP5 PUSH2 0x2022 JUMP JUMPDEST DUP2 ADD PUSH1 0x20 DUP6 LT ISZERO PUSH2 0x214E JUMPI DUP2 SWAP1 POP JUMPDEST PUSH2 0x2162 PUSH2 0x215A DUP6 PUSH2 0x2022 JUMP JUMPDEST DUP4 ADD DUP3 PUSH2 0x2102 JUMP JUMPDEST POP POP JUMPDEST POP POP POP JUMP JUMPDEST PUSH0 DUP3 DUP3 SHR SWAP1 POP SWAP3 SWAP2 POP POP JUMP JUMPDEST PUSH0 PUSH2 0x2185 PUSH0 NOT DUP5 PUSH1 0x8 MUL PUSH2 0x216A JUMP JUMPDEST NOT DUP1 DUP4 AND SWAP2 POP POP SWAP3 SWAP2 POP POP JUMP JUMPDEST PUSH0 PUSH2 0x219D DUP4 DUP4 PUSH2 0x2176 JUMP JUMPDEST SWAP2 POP DUP3 PUSH1 0x2 MUL DUP3 OR SWAP1 POP SWAP3 SWAP2 POP POP JUMP JUMPDEST PUSH2 0x21B6 DUP3 PUSH2 0x157E JUMP JUMPDEST PUSH8 0xFFFFFFFFFFFFFFFF DUP2 GT ISZERO PUSH2 0x21CF JUMPI PUSH2 0x21CE PUSH2 0x1D0A JUMP JUMPDEST JUMPDEST PUSH2 0x21D9 DUP3 SLOAD PUSH2 0x1D64 JUMP JUMPDEST PUSH2 0x21E4 DUP3 DUP3 DUP6 PUSH2 0x2124 JUMP JUMPDEST PUSH0 PUSH1 0x20 SWAP1 POP PUSH1 0x1F DUP4 GT PUSH1 0x1 DUP2 EQ PUSH2 0x2215 JUMPI PUSH0 DUP5 ISZERO PUSH2 0x2203 JUMPI DUP3 DUP8 ADD MLOAD SWAP1 POP JUMPDEST PUSH2 0x220D DUP6 DUP3 PUSH2 0x2192 JUMP JUMPDEST DUP7 SSTORE POP PUSH2 0x2274 JUMP JUMPDEST PUSH1 0x1F NOT DUP5 AND PUSH2 0x2223 DUP7 PUSH2 0x2010 JUMP JUMPDEST PUSH0 JUMPDEST DUP3 DUP2 LT ISZERO PUSH2 0x224A JUMPI DUP5 DUP10 ADD MLOAD DUP3 SSTORE PUSH1 0x1 DUP3 ADD SWAP2 POP PUSH1 0x20 DUP6 ADD SWAP5 POP PUSH1 0x20 DUP2 ADD SWAP1 POP PUSH2 0x2225 JUMP JUMPDEST DUP7 DUP4 LT ISZERO PUSH2 0x2267 JUMPI DUP5 DUP10 ADD MLOAD PUSH2 0x2263 PUSH1 0x1F DUP10 AND DUP3 PUSH2 0x2176 JUMP JUMPDEST DUP4 SSTORE POP JUMPDEST PUSH1 0x1 PUSH1 0x2 DUP9 MUL ADD DUP9 SSTORE POP POP POP JUMPDEST POP POP POP POP POP POP JUMP JUMPDEST PUSH0 PUSH2 0x2286 DUP3 PUSH2 0x1608 JUMP JUMPDEST SWAP2 POP PUSH2 0x2291 DUP4 PUSH2 0x1608 JUMP JUMPDEST SWAP3 POP DUP3 DUP3 ADD SWAP1 POP DUP1 DUP3 GT ISZERO PUSH2 0x22A9 JUMPI PUSH2 0x22A8 PUSH2 0x1CAA JUMP JUMPDEST JUMPDEST SWAP3 SWAP2 POP POP JUMP JUMPDEST PUSH32 0x596F7520617265206E6F74206120766F74657200000000000000000000000000 PUSH0 DUP3 ADD MSTORE POP JUMP JUMPDEST PUSH0 PUSH2 0x22E3 PUSH1 0x13 DUP4 PUSH2 0x17FB JUMP JUMPDEST SWAP2 POP PUSH2 0x22EE DUP3 PUSH2 0x22AF JUMP JUMPDEST PUSH1 0x20 DUP3 ADD SWAP1 POP SWAP2 SWAP1 POP JUMP JUMPDEST PUSH0 PUSH1 0x20 DUP3 ADD SWAP1 POP DUP2 DUP2 SUB PUSH0 DUP4 ADD MSTORE PUSH2 0x2310 DUP2 PUSH2 0x22D7 JUMP JUMPDEST SWAP1 POP SWAP2 SWAP1 POP JUMP JUMPDEST PUSH32 0x566F74696E672068617665206E6F742073746172746564207965740000000000 PUSH0 DUP3 ADD MSTORE POP JUMP JUMPDEST PUSH0 PUSH2 0x234B PUSH1 0x1B DUP4 PUSH2 0x17FB JUMP JUMPDEST SWAP2 POP PUSH2 0x2356 DUP3 PUSH2 0x2317 JUMP JUMPDEST PUSH1 0x20 DUP3 ADD SWAP1 POP SWAP2 SWAP1 POP JUMP JUMPDEST PUSH0 PUSH1 0x20 DUP3 ADD SWAP1 POP DUP2 DUP2 SUB PUSH0 DUP4 ADD MSTORE PUSH2 0x2378 DUP2 PUSH2 0x233F JUMP JUMPDEST SWAP1 POP SWAP2 SWAP1 POP JUMP JUMPDEST PUSH32 0x416C6C2063616E64696461746520726567697374726174696F6E206861766520 PUSH0 DUP3 ADD MSTORE PUSH32 0x6E6F7420646F6E65207965740000000000000000000000000000000000000000 PUSH1 0x20 DUP3 ADD MSTORE POP JUMP JUMPDEST PUSH0 PUSH2 0x23D9 PUSH1 0x2C DUP4 PUSH2 0x17FB JUMP JUMPDEST SWAP2 POP PUSH2 0x23E4 DUP3 PUSH2 0x237F JUMP JUMPDEST PUSH1 0x40 DUP3 ADD SWAP1 POP SWAP2 SWAP1 POP JUMP JUMPDEST PUSH0 PUSH1 0x20 DUP3 ADD SWAP1 POP DUP2 DUP2 SUB PUSH0 DUP4 ADD MSTORE PUSH2 0x2406 DUP2 PUSH2 0x23CD JUMP JUMPDEST SWAP1 POP SWAP2 SWAP1 POP JUMP JUMPDEST PUSH32 0x496E76616C69642063616E646964617465206964000000000000000000000000 PUSH0 DUP3 ADD MSTORE POP JUMP JUMPDEST PUSH0 PUSH2 0x2441 PUSH1 0x14 DUP4 PUSH2 0x17FB JUMP JUMPDEST SWAP2 POP PUSH2 0x244C DUP3 PUSH2 0x240D JUMP JUMPDEST PUSH1 0x20 DUP3 ADD SWAP1 POP SWAP2 SWAP1 POP JUMP JUMPDEST PUSH0 PUSH1 0x20 DUP3 ADD SWAP1 POP DUP2 DUP2 SUB PUSH0 DUP4 ADD MSTORE PUSH2 0x246E DUP2 PUSH2 0x2435 JUMP JUMPDEST SWAP1 POP SWAP2 SWAP1 POP JUMP INVALID LOG2 PUSH5 0x6970667358 0x22 SLT KECCAK256 0xE5 SWAP1 SWAP11 SWAP11 SWAP6 0xAE 0xBB CREATE 0xCE COINBASE JUMP NUMBER 0xB0 SWAP2 0xE7 DUP3 0xB6 0x25 SELFDESTRUCT 0xB3 0x4E SLT CALLVALUE 0xC6 PUSH28 0xFF7F2F9A3EBC0964736F6C6343000814003300000000000000000000 "
				},
				"gasEstimates": {
					"creation": {
						"codeDepositCost": "1877400",
						"executionCost": "70457",
						"totalCost": "1947857"
					},
					"external": {
						"VotingStatus()": "infinite",
						"candidateDetails(uint256)": "infinite",
						"candidateList()": "infinite",
						"candidateVerification(address)": "infinite",
						"emergency()": "26666",
						"result()": "infinite",
						"startVoting(uint256,uint256)": "infinite",
						"vote(uint256,uint256)": "infinite",
						"voteRegister(string,uint256,string)": "infinite",
						"voterDetails(uint256)": "infinite",
						"voterList()": "infinite"
					},
					"internal": {
						"candidateRegister(string calldata,string calldata,uint256,string calldata)": "infinite",
						"voterVerification(address)": "infinite"
					}
				},
				"methodIdentifiers": {
					"VotingStatus()": "cca3f136",
					"candidateDetails(uint256)": "6247e532",
					"candidateList()": "498ea441",
					"candidateVerification(address)": "845d26e0",
					"emergency()": "caa6fea4",
					"result()": "65372147",
					"startVoting(uint256,uint256)": "90fe5609",
					"vote(uint256,uint256)": "b384abef",
					"voteRegister(string,uint256,string)": "87579148",
					"voterDetails(uint256)": "322f029d",
					"voterList()": "24089918"
				}
			},
			"storageLayout": {
				"storage": [
					{
						"astId": 32,
						"contract": "contracts/Voting.sol:Voting",
						"label": "nextVoterId",
						"offset": 0,
						"slot": "0",
						"type": "t_uint256"
					},
					{
						"astId": 35,
						"contract": "contracts/Voting.sol:Voting",
						"label": "nextCandidateId",
						"offset": 0,
						"slot": "1",
						"type": "t_uint256"
					},
					{
						"astId": 37,
						"contract": "contracts/Voting.sol:Voting",
						"label": "startTime",
						"offset": 0,
						"slot": "2",
						"type": "t_uint256"
					},
					{
						"astId": 39,
						"contract": "contracts/Voting.sol:Voting",
						"label": "endTime",
						"offset": 0,
						"slot": "3",
						"type": "t_uint256"
					},
					{
						"astId": 41,
						"contract": "contracts/Voting.sol:Voting",
						"label": "stopVoting",
						"offset": 0,
						"slot": "4",
						"type": "t_bool"
					},
					{
						"astId": 43,
						"contract": "contracts/Voting.sol:Voting",
						"label": "winner",
						"offset": 1,
						"slot": "4",
						"type": "t_address"
					},
					{
						"astId": 45,
						"contract": "contracts/Voting.sol:Voting",
						"label": "electionComision",
						"offset": 0,
						"slot": "5",
						"type": "t_address"
					},
					{
						"astId": 50,
						"contract": "contracts/Voting.sol:Voting",
						"label": "voterDetails",
						"offset": 0,
						"slot": "6",
						"type": "t_mapping(t_uint256,t_struct(Voter)14_storage)"
					},
					{
						"astId": 55,
						"contract": "contracts/Voting.sol:Voting",
						"label": "candidateDetails",
						"offset": 0,
						"slot": "7",
						"type": "t_mapping(t_uint256,t_struct(Candidate)29_storage)"
					}
				],
				"types": {
					"t_address": {
						"encoding": "inplace",
						"label": "address",
						"numberOfBytes": "20"
					},
					"t_bool": {
						"encoding": "inplace",
						"label": "bool",
						"numberOfBytes": "1"
					},
					"t_mapping(t_uint256,t_struct(Candidate)29_storage)": {
						"encoding": "mapping",
						"key": "t_uint256",
						"label": "mapping(uint256 => struct Voting.Candidate)",
						"numberOfBytes": "32",
						"value": "t_struct(Candidate)29_storage"
					},
					"t_mapping(t_uint256,t_struct(Voter)14_storage)": {
						"encoding": "mapping",
						"key": "t_uint256",
						"label": "mapping(uint256 => struct Voting.Voter)",
						"numberOfBytes": "32",
						"value": "t_struct(Voter)14_storage"
					},
					"t_string_storage": {
						"encoding": "bytes",
						"label": "string",
						"numberOfBytes": "32"
					},
					"t_struct(Candidate)29_storage": {
						"encoding": "inplace",
						"label": "struct Voting.Candidate",
						"members": [
							{
								"astId": 16,
								"contract": "contracts/Voting.sol:Voting",
								"label": "name",
								"offset": 0,
								"slot": "0",
								"type": "t_string_storage"
							},
							{
								"astId": 18,
								"contract": "contracts/Voting.sol:Voting",
								"label": "party",
								"offset": 0,
								"slot": "1",
								"type": "t_string_storage"
							},
							{
								"astId": 20,
								"contract": "contracts/Voting.sol:Voting",
								"label": "age",
								"offset": 0,
								"slot": "2",
								"type": "t_uint256"
							},
							{
								"astId": 22,
								"contract": "contracts/Voting.sol:Voting",
								"label": "gender",
								"offset": 0,
								"slot": "3",
								"type": "t_string_storage"
							},
							{
								"astId": 24,
								"contract": "contracts/Voting.sol:Voting",
								"label": "candidateId",
								"offset": 0,
								"slot": "4",
								"type": "t_uint256"
							},
							{
								"astId": 26,
								"contract": "contracts/Voting.sol:Voting",
								"label": "candidateAddress",
								"offset": 0,
								"slot": "5",
								"type": "t_address"
							},
							{
								"astId": 28,
								"contract": "contracts/Voting.sol:Voting",
								"label": "votes",
								"offset": 0,
								"slot": "6",
								"type": "t_uint256"
							}
						],
						"numberOfBytes": "224"
					},
					"t_struct(Voter)14_storage": {
						"encoding": "inplace",
						"label": "struct Voting.Voter",
						"members": [
							{
								"astId": 3,
								"contract": "contracts/Voting.sol:Voting",
								"label": "name",
								"offset": 0,
								"slot": "0",
								"type": "t_string_storage"
							},
							{
								"astId": 5,
								"contract": "contracts/Voting.sol:Voting",
								"label": "age",
								"offset": 0,
								"slot": "1",
								"type": "t_uint256"
							},
							{
								"astId": 7,
								"contract": "contracts/Voting.sol:Voting",
								"label": "voterId",
								"offset": 0,
								"slot": "2",
								"type": "t_uint256"
							},
							{
								"astId": 9,
								"contract": "contracts/Voting.sol:Voting",
								"label": "gender",
								"offset": 0,
								"slot": "3",
								"type": "t_string_storage"
							},
							{
								"astId": 11,
								"contract": "contracts/Voting.sol:Voting",
								"label": "voteCandidateId",
								"offset": 0,
								"slot": "4",
								"type": "t_uint256"
							},
							{
								"astId": 13,
								"contract": "contracts/Voting.sol:Voting",
								"label": "voterAddress",
								"offset": 0,
								"slot": "5",
								"type": "t_address"
							}
						],
						"numberOfBytes": "192"
					},
					"t_uint256": {
						"encoding": "inplace",
						"label": "uint256",
						"numberOfBytes": "32"
					}
				}
			},
			"userdoc": {
				"kind": "user",
				"methods": {},
				"version": 1
			}
		}
	}
}