{
	"contracts/Twitter.sol": {
		"TweetContract": {
			"abi": [
				{
					"inputs": [
						{
							"internalType": "address",
							"name": "_operator",
							"type": "address"
						}
					],
					"name": "allow",
					"outputs": [],
					"stateMutability": "nonpayable",
					"type": "function"
				},
				{
					"inputs": [
						{
							"internalType": "address",
							"name": "",
							"type": "address"
						},
						{
							"internalType": "uint256",
							"name": "",
							"type": "uint256"
						}
					],
					"name": "conversations",
					"outputs": [
						{
							"internalType": "uint256",
							"name": "id",
							"type": "uint256"
						},
						{
							"internalType": "string",
							"name": "content",
							"type": "string"
						},
						{
							"internalType": "address",
							"name": "from",
							"type": "address"
						},
						{
							"internalType": "address",
							"name": "to",
							"type": "address"
						},
						{
							"internalType": "uint256",
							"name": "createdAt",
							"type": "uint256"
						}
					],
					"stateMutability": "view",
					"type": "function"
				},
				{
					"inputs": [
						{
							"internalType": "address",
							"name": "_operator",
							"type": "address"
						}
					],
					"name": "disallow",
					"outputs": [],
					"stateMutability": "nonpayable",
					"type": "function"
				},
				{
					"inputs": [
						{
							"internalType": "address",
							"name": "_followed",
							"type": "address"
						}
					],
					"name": "follow",
					"outputs": [],
					"stateMutability": "nonpayable",
					"type": "function"
				},
				{
					"inputs": [
						{
							"internalType": "address",
							"name": "",
							"type": "address"
						},
						{
							"internalType": "uint256",
							"name": "",
							"type": "uint256"
						}
					],
					"name": "following",
					"outputs": [
						{
							"internalType": "address",
							"name": "",
							"type": "address"
						}
					],
					"stateMutability": "view",
					"type": "function"
				},
				{
					"inputs": [
						{
							"internalType": "uint256",
							"name": "count",
							"type": "uint256"
						}
					],
					"name": "getLatestTweets",
					"outputs": [
						{
							"components": [
								{
									"internalType": "uint256",
									"name": "id",
									"type": "uint256"
								},
								{
									"internalType": "address",
									"name": "author",
									"type": "address"
								},
								{
									"internalType": "string",
									"name": "content",
									"type": "string"
								},
								{
									"internalType": "uint256",
									"name": "createdAt",
									"type": "uint256"
								}
							],
							"internalType": "struct TweetContract.Tweet[]",
							"name": "",
							"type": "tuple[]"
						}
					],
					"stateMutability": "view",
					"type": "function"
				},
				{
					"inputs": [
						{
							"internalType": "address",
							"name": "_user",
							"type": "address"
						},
						{
							"internalType": "uint256",
							"name": "count",
							"type": "uint256"
						}
					],
					"name": "getLatestofUser",
					"outputs": [
						{
							"components": [
								{
									"internalType": "uint256",
									"name": "id",
									"type": "uint256"
								},
								{
									"internalType": "address",
									"name": "author",
									"type": "address"
								},
								{
									"internalType": "string",
									"name": "content",
									"type": "string"
								},
								{
									"internalType": "uint256",
									"name": "createdAt",
									"type": "uint256"
								}
							],
							"internalType": "struct TweetContract.Tweet[]",
							"name": "",
							"type": "tuple[]"
						}
					],
					"stateMutability": "view",
					"type": "function"
				},
				{
					"inputs": [
						{
							"internalType": "address",
							"name": "",
							"type": "address"
						},
						{
							"internalType": "address",
							"name": "",
							"type": "address"
						}
					],
					"name": "operators",
					"outputs": [
						{
							"internalType": "bool",
							"name": "",
							"type": "bool"
						}
					],
					"stateMutability": "view",
					"type": "function"
				},
				{
					"inputs": [
						{
							"internalType": "address",
							"name": "_from",
							"type": "address"
						},
						{
							"internalType": "address",
							"name": "_to",
							"type": "address"
						},
						{
							"internalType": "string",
							"name": "_content",
							"type": "string"
						}
					],
					"name": "sendMessage",
					"outputs": [],
					"stateMutability": "nonpayable",
					"type": "function"
				},
				{
					"inputs": [
						{
							"internalType": "string",
							"name": "_content",
							"type": "string"
						},
						{
							"internalType": "address",
							"name": "_to",
							"type": "address"
						}
					],
					"name": "sendMessage",
					"outputs": [],
					"stateMutability": "nonpayable",
					"type": "function"
				},
				{
					"inputs": [
						{
							"internalType": "address",
							"name": "_from",
							"type": "address"
						},
						{
							"internalType": "string",
							"name": "_content",
							"type": "string"
						}
					],
					"name": "tweet",
					"outputs": [],
					"stateMutability": "nonpayable",
					"type": "function"
				},
				{
					"inputs": [
						{
							"internalType": "string",
							"name": "_content",
							"type": "string"
						}
					],
					"name": "tweet",
					"outputs": [],
					"stateMutability": "nonpayable",
					"type": "function"
				},
				{
					"inputs": [
						{
							"internalType": "uint256",
							"name": "",
							"type": "uint256"
						}
					],
					"name": "tweets",
					"outputs": [
						{
							"internalType": "uint256",
							"name": "id",
							"type": "uint256"
						},
						{
							"internalType": "address",
							"name": "author",
							"type": "address"
						},
						{
							"internalType": "string",
							"name": "content",
							"type": "string"
						},
						{
							"internalType": "uint256",
							"name": "createdAt",
							"type": "uint256"
						}
					],
					"stateMutability": "view",
					"type": "function"
				},
				{
					"inputs": [
						{
							"internalType": "address",
							"name": "",
							"type": "address"
						},
						{
							"internalType": "uint256",
							"name": "",
							"type": "uint256"
						}
					],
					"name": "tweetsOf",
					"outputs": [
						{
							"internalType": "uint256",
							"name": "",
							"type": "uint256"
						}
					],
					"stateMutability": "view",
					"type": "function"
				}
			],
			"devdoc": {
				"kind": "dev",
				"methods": {},
				"version": 1
			},
			"evm": {
				"assembly": "    /* \"contracts/Twitter.sol\":70:3615  contract TweetContract {... */\n  mstore(0x40, 0x80)\n  callvalue\n  dup1\n  iszero\n  tag_1\n  jumpi\n  0x00\n  dup1\n  revert\ntag_1:\n  pop\n  dataSize(sub_0)\n  dup1\n  dataOffset(sub_0)\n  0x00\n  codecopy\n  0x00\n  return\nstop\n\nsub_0: assembly {\n        /* \"contracts/Twitter.sol\":70:3615  contract TweetContract {... */\n      mstore(0x40, 0x80)\n      callvalue\n      dup1\n      iszero\n      tag_1\n      jumpi\n      0x00\n      dup1\n      revert\n    tag_1:\n      pop\n      jumpi(tag_2, lt(calldatasize, 0x04))\n      shr(0xe0, calldataload(0x00))\n      dup1\n      0xaf22bf94\n      gt\n      tag_17\n      jumpi\n      dup1\n      0xd21d1596\n      gt\n      tag_18\n      jumpi\n      dup1\n      0xd21d1596\n      eq\n      tag_13\n      jumpi\n      dup1\n      0xe8d857b0\n      eq\n      tag_14\n      jumpi\n      dup1\n      0xfb46d4c5\n      eq\n      tag_15\n      jumpi\n      dup1\n      0xff9913e8\n      eq\n      tag_16\n      jumpi\n      jump(tag_2)\n    tag_18:\n      dup1\n      0xaf22bf94\n      eq\n      tag_10\n      jumpi\n      dup1\n      0xb88e318d\n      eq\n      tag_11\n      jumpi\n      dup1\n      0xc48d6d5e\n      eq\n      tag_12\n      jumpi\n      jump(tag_2)\n    tag_17:\n      dup1\n      0x4dc0a687\n      gt\n      tag_19\n      jumpi\n      dup1\n      0x4dc0a687\n      eq\n      tag_6\n      jumpi\n      dup1\n      0x5284b64a\n      eq\n      tag_7\n      jumpi\n      dup1\n      0x9139cda5\n      eq\n      tag_8\n      jumpi\n      dup1\n      0xa9ed9cb8\n      eq\n      tag_9\n      jumpi\n      jump(tag_2)\n    tag_19:\n      dup1\n      0x2637588e\n      eq\n      tag_3\n      jumpi\n      dup1\n      0x3befea09\n      eq\n      tag_4\n      jumpi\n      dup1\n      0x4dbf27cc\n      eq\n      tag_5\n      jumpi\n    tag_2:\n      0x00\n      dup1\n      revert\n        /* \"contracts/Twitter.sol\":534:591  mapping(address=>mapping(address=>bool)) public operators */\n    tag_3:\n      tag_20\n      0x04\n      dup1\n      calldatasize\n      sub\n      dup2\n      add\n      swap1\n      tag_21\n      swap2\n      swap1\n      tag_22\n      jump\t// in\n    tag_21:\n      tag_23\n      jump\t// in\n    tag_20:\n      mload(0x40)\n      tag_24\n      swap2\n      swap1\n      tag_25\n      jump\t// in\n    tag_24:\n      mload(0x40)\n      dup1\n      swap2\n      sub\n      swap1\n      return\n        /* \"contracts/Twitter.sol\":479:527  mapping(address=>Message[]) public conversations */\n    tag_4:\n      tag_26\n      0x04\n      dup1\n      calldatasize\n      sub\n      dup2\n      add\n      swap1\n      tag_27\n      swap2\n      swap1\n      tag_28\n      jump\t// in\n    tag_27:\n      tag_29\n      jump\t// in\n    tag_26:\n      mload(0x40)\n      tag_30\n      swap6\n      swap5\n      swap4\n      swap3\n      swap2\n      swap1\n      tag_31\n      jump\t// in\n    tag_30:\n      mload(0x40)\n      dup1\n      swap2\n      sub\n      swap1\n      return\n        /* \"contracts/Twitter.sol\":1971:2093  function follow(address _followed) public... */\n    tag_5:\n      tag_32\n      0x04\n      dup1\n      calldatasize\n      sub\n      dup2\n      add\n      swap1\n      tag_33\n      swap2\n      swap1\n      tag_34\n      jump\t// in\n    tag_33:\n      tag_35\n      jump\t// in\n    tag_32:\n      stop\n        /* \"contracts/Twitter.sol\":2337:2883  function getLatestTweets(uint count) public view returns(Tweet[] memory){... */\n    tag_6:\n      tag_36\n      0x04\n      dup1\n      calldatasize\n      sub\n      dup2\n      add\n      swap1\n      tag_37\n      swap2\n      swap1\n      tag_38\n      jump\t// in\n    tag_37:\n      tag_39\n      jump\t// in\n    tag_36:\n      mload(0x40)\n      tag_40\n      swap2\n      swap1\n      tag_41\n      jump\t// in\n    tag_40:\n      mload(0x40)\n      dup1\n      swap2\n      sub\n      swap1\n      return\n        /* \"contracts/Twitter.sol\":2895:3606  function getLatestofUser(address _user,uint count) public view returns(Tweet[] memory) ... */\n    tag_7:\n      tag_42\n      0x04\n      dup1\n      calldatasize\n      sub\n      dup2\n      add\n      swap1\n      tag_43\n      swap2\n      swap1\n      tag_28\n      jump\t// in\n    tag_43:\n      tag_44\n      jump\t// in\n    tag_42:\n      mload(0x40)\n      tag_45\n      swap2\n      swap1\n      tag_41\n      jump\t// in\n    tag_45:\n      mload(0x40)\n      dup1\n      swap2\n      sub\n      swap1\n      return\n        /* \"contracts/Twitter.sol\":598:642  mapping(address=>address[]) public following */\n    tag_8:\n      tag_46\n      0x04\n      dup1\n      calldatasize\n      sub\n      dup2\n      add\n      swap1\n      tag_47\n      swap2\n      swap1\n      tag_28\n      jump\t// in\n    tag_47:\n      tag_48\n      jump\t// in\n    tag_46:\n      mload(0x40)\n      tag_49\n      swap2\n      swap1\n      tag_50\n      jump\t// in\n    tag_49:\n      mload(0x40)\n      dup1\n      swap2\n      sub\n      swap1\n      return\n        /* \"contracts/Twitter.sol\":2215:2325  function disallow(address _operator) public... */\n    tag_9:\n      tag_51\n      0x04\n      dup1\n      calldatasize\n      sub\n      dup2\n      add\n      swap1\n      tag_52\n      swap2\n      swap1\n      tag_34\n      jump\t// in\n    tag_52:\n      tag_53\n      jump\t// in\n    tag_51:\n      stop\n        /* \"contracts/Twitter.sol\":406:446  mapping(address=>uint[]) public tweetsOf */\n    tag_10:\n      tag_54\n      0x04\n      dup1\n      calldatasize\n      sub\n      dup2\n      add\n      swap1\n      tag_55\n      swap2\n      swap1\n      tag_28\n      jump\t// in\n    tag_55:\n      tag_56\n      jump\t// in\n    tag_54:\n      mload(0x40)\n      tag_57\n      swap2\n      swap1\n      tag_58\n      jump\t// in\n    tag_57:\n      mload(0x40)\n      dup1\n      swap2\n      sub\n      swap1\n      return\n        /* \"contracts/Twitter.sol\":1799:1959  function sendMessage(address _from,address _to,string memory _content) public ... */\n    tag_11:\n      tag_59\n      0x04\n      dup1\n      calldatasize\n      sub\n      dup2\n      add\n      swap1\n      tag_60\n      swap2\n      swap1\n      tag_61\n      jump\t// in\n    tag_60:\n      tag_62\n      jump\t// in\n    tag_59:\n      stop\n        /* \"contracts/Twitter.sol\":1664:1791  function sendMessage(string memory _content,address _to) public {//owner... */\n    tag_12:\n      tag_63\n      0x04\n      dup1\n      calldatasize\n      sub\n      dup2\n      add\n      swap1\n      tag_64\n      swap2\n      swap1\n      tag_65\n      jump\t// in\n    tag_64:\n      tag_66\n      jump\t// in\n    tag_63:\n      stop\n        /* \"contracts/Twitter.sol\":1531:1656  function tweet(address _from,string memory _content) public... */\n    tag_13:\n      tag_67\n      0x04\n      dup1\n      calldatasize\n      sub\n      dup2\n      add\n      swap1\n      tag_68\n      swap2\n      swap1\n      tag_69\n      jump\t// in\n    tag_68:\n      tag_70\n      jump\t// in\n    tag_67:\n      stop\n        /* \"contracts/Twitter.sol\":365:399  mapping(uint=>Tweet) public tweets */\n    tag_14:\n      tag_71\n      0x04\n      dup1\n      calldatasize\n      sub\n      dup2\n      add\n      swap1\n      tag_72\n      swap2\n      swap1\n      tag_38\n      jump\t// in\n    tag_72:\n      tag_73\n      jump\t// in\n    tag_71:\n      mload(0x40)\n      tag_74\n      swap5\n      swap4\n      swap3\n      swap2\n      swap1\n      tag_75\n      jump\t// in\n    tag_74:\n      mload(0x40)\n      dup1\n      swap2\n      sub\n      swap1\n      return\n        /* \"contracts/Twitter.sol\":1413:1519  function tweet(string memory _content) public ... */\n    tag_15:\n      tag_76\n      0x04\n      dup1\n      calldatasize\n      sub\n      dup2\n      add\n      swap1\n      tag_77\n      swap2\n      swap1\n      tag_78\n      jump\t// in\n    tag_77:\n      tag_79\n      jump\t// in\n    tag_76:\n      stop\n        /* \"contracts/Twitter.sol\":2105:2203  function allow(address _operator) public... */\n    tag_16:\n      tag_80\n      0x04\n      dup1\n      calldatasize\n      sub\n      dup2\n      add\n      swap1\n      tag_81\n      swap2\n      swap1\n      tag_34\n      jump\t// in\n    tag_81:\n      tag_82\n      jump\t// in\n    tag_80:\n      stop\n        /* \"contracts/Twitter.sol\":534:591  mapping(address=>mapping(address=>bool)) public operators */\n    tag_23:\n      mstore(0x20, 0x03)\n      dup2\n      0x00\n      mstore\n      mstore(0x20, keccak256(0x00, 0x40))\n      dup1\n      0x00\n      mstore\n      keccak256(0x00, 0x40)\n      0x00\n      swap2\n      pop\n      swap2\n      pop\n      swap1\n      sload\n      swap1\n      0x0100\n      exp\n      swap1\n      div\n      0xff\n      and\n      dup2\n      jump\t// out\n        /* \"contracts/Twitter.sol\":479:527  mapping(address=>Message[]) public conversations */\n    tag_29:\n      mstore(0x20, 0x02)\n      dup2\n      0x00\n      mstore\n      keccak256(0x00, 0x40)\n      dup2\n      dup2\n      sload\n      dup2\n      lt\n      tag_83\n      jumpi\n      0x00\n      dup1\n      revert\n    tag_83:\n      swap1\n      0x00\n      mstore\n      keccak256(0x00, 0x20)\n      swap1\n      0x05\n      mul\n      add\n      0x00\n      swap2\n      pop\n      swap2\n      pop\n      pop\n      dup1\n      0x00\n      add\n      sload\n      swap1\n      dup1\n      0x01\n      add\n      dup1\n      sload\n      tag_85\n      swap1\n      tag_86\n      jump\t// in\n    tag_85:\n      dup1\n      0x1f\n      add\n      0x20\n      dup1\n      swap2\n      div\n      mul\n      0x20\n      add\n      mload(0x40)\n      swap1\n      dup2\n      add\n      0x40\n      mstore\n      dup1\n      swap3\n      swap2\n      swap1\n      dup2\n      dup2\n      mstore\n      0x20\n      add\n      dup3\n      dup1\n      sload\n      tag_87\n      swap1\n      tag_86\n      jump\t// in\n    tag_87:\n      dup1\n      iszero\n      tag_88\n      jumpi\n      dup1\n      0x1f\n      lt\n      tag_89\n      jumpi\n      0x0100\n      dup1\n      dup4\n      sload\n      div\n      mul\n      dup4\n      mstore\n      swap2\n      0x20\n      add\n      swap2\n      jump(tag_88)\n    tag_89:\n      dup3\n      add\n      swap2\n      swap1\n      0x00\n      mstore\n      keccak256(0x00, 0x20)\n      swap1\n    tag_90:\n      dup2\n      sload\n      dup2\n      mstore\n      swap1\n      0x01\n      add\n      swap1\n      0x20\n      add\n      dup1\n      dup4\n      gt\n      tag_90\n      jumpi\n      dup3\n      swap1\n      sub\n      0x1f\n      and\n      dup3\n      add\n      swap2\n    tag_88:\n      pop\n      pop\n      pop\n      pop\n      pop\n      swap1\n      dup1\n      0x02\n      add\n      0x00\n      swap1\n      sload\n      swap1\n      0x0100\n      exp\n      swap1\n      div\n      0xffffffffffffffffffffffffffffffffffffffff\n      and\n      swap1\n      dup1\n      0x03\n      add\n      0x00\n      swap1\n      sload\n      swap1\n      0x0100\n      exp\n      swap1\n      div\n      0xffffffffffffffffffffffffffffffffffffffff\n      and\n      swap1\n      dup1\n      0x04\n      add\n      sload\n      swap1\n      pop\n      dup6\n      jump\t// out\n        /* \"contracts/Twitter.sol\":1971:2093  function follow(address _followed) public... */\n    tag_35:\n        /* \"contracts/Twitter.sol\":2048:2057  following */\n      0x04\n        /* \"contracts/Twitter.sol\":2048:2069  following[msg.sender] */\n      0x00\n        /* \"contracts/Twitter.sol\":2058:2068  msg.sender */\n      caller\n        /* \"contracts/Twitter.sol\":2048:2069  following[msg.sender] */\n      0xffffffffffffffffffffffffffffffffffffffff\n      and\n      0xffffffffffffffffffffffffffffffffffffffff\n      and\n      dup2\n      mstore\n      0x20\n      add\n      swap1\n      dup2\n      mstore\n      0x20\n      add\n      0x00\n      keccak256\n        /* \"contracts/Twitter.sol\":2075:2084  _followed */\n      dup2\n        /* \"contracts/Twitter.sol\":2048:2085  following[msg.sender].push(_followed) */\n      swap1\n      dup1\n      0x01\n      dup2\n      sload\n      add\n      dup1\n      dup3\n      sstore\n      dup1\n      swap2\n      pop\n      pop\n      0x01\n      swap1\n      sub\n      swap1\n      0x00\n      mstore\n      keccak256(0x00, 0x20)\n      add\n      0x00\n      swap1\n      swap2\n      swap1\n      swap2\n      swap1\n      swap2\n      0x0100\n      exp\n      dup2\n      sload\n      dup2\n      0xffffffffffffffffffffffffffffffffffffffff\n      mul\n      not\n      and\n      swap1\n      dup4\n      0xffffffffffffffffffffffffffffffffffffffff\n      and\n      mul\n      or\n      swap1\n      sstore\n      pop\n        /* \"contracts/Twitter.sol\":1971:2093  function follow(address _followed) public... */\n      pop\n      jump\t// out\n        /* \"contracts/Twitter.sol\":2337:2883  function getLatestTweets(uint count) public view returns(Tweet[] memory){... */\n    tag_39:\n        /* \"contracts/Twitter.sol\":2394:2408  Tweet[] memory */\n      0x60\n        /* \"contracts/Twitter.sol\":2436:2437  0 */\n      0x00\n        /* \"contracts/Twitter.sol\":2430:2435  count */\n      dup3\n        /* \"contracts/Twitter.sol\":2430:2437  count>0 */\n      gt\n        /* \"contracts/Twitter.sol\":2430:2454  count>0 && count<=nextId */\n      dup1\n      iszero\n      tag_94\n      jumpi\n      pop\n        /* \"contracts/Twitter.sol\":2448:2454  nextId */\n      sload(0x05)\n        /* \"contracts/Twitter.sol\":2441:2446  count */\n      dup3\n        /* \"contracts/Twitter.sol\":2441:2454  count<=nextId */\n      gt\n      iszero\n        /* \"contracts/Twitter.sol\":2430:2454  count>0 && count<=nextId */\n    tag_94:\n        /* \"contracts/Twitter.sol\":2422:2477  require(count>0 && count<=nextId,\"Count is not proper\") */\n      tag_95\n      jumpi\n      mload(0x40)\n      0x08c379a000000000000000000000000000000000000000000000000000000000\n      dup2\n      mstore\n      0x04\n      add\n      tag_96\n      swap1\n      tag_97\n      jump\t// in\n    tag_96:\n      mload(0x40)\n      dup1\n      swap2\n      sub\n      swap1\n      revert\n    tag_95:\n        /* \"contracts/Twitter.sol\":2488:2510  Tweet[] memory _tweets */\n      0x00\n        /* \"contracts/Twitter.sol\":2525:2530  count */\n      dup3\n        /* \"contracts/Twitter.sol\":2513:2531  new Tweet[](count) */\n      0xffffffffffffffff\n      dup2\n      gt\n      iszero\n      tag_98\n      jumpi\n      tag_99\n      tag_100\n      jump\t// in\n    tag_99:\n    tag_98:\n      mload(0x40)\n      swap1\n      dup1\n      dup3\n      mstore\n      dup1\n      0x20\n      mul\n      0x20\n      add\n      dup3\n      add\n      0x40\n      mstore\n      dup1\n      iszero\n      tag_101\n      jumpi\n      dup2\n      0x20\n      add\n    tag_102:\n      tag_103\n      tag_104\n      jump\t// in\n    tag_103:\n      dup2\n      mstore\n      0x20\n      add\n      swap1\n      0x01\n      swap1\n      sub\n      swap1\n      dup2\n      tag_102\n      jumpi\n      swap1\n      pop\n    tag_101:\n      pop\n        /* \"contracts/Twitter.sol\":2488:2531  Tweet[] memory _tweets = new Tweet[](count) */\n      swap1\n      pop\n        /* \"contracts/Twitter.sol\":2565:2571  uint j */\n      0x00\n        /* \"contracts/Twitter.sol\":2586:2592  uint i */\n      dup1\n        /* \"contracts/Twitter.sol\":2600:2605  count */\n      dup5\n        /* \"contracts/Twitter.sol\":2593:2599  nextId */\n      sload(0x05)\n        /* \"contracts/Twitter.sol\":2593:2605  nextId-count */\n      tag_108\n      swap2\n      swap1\n      tag_109\n      jump\t// in\n    tag_108:\n        /* \"contracts/Twitter.sol\":2586:2605  uint i=nextId-count */\n      swap1\n      pop\n        /* \"contracts/Twitter.sol\":2582:2851  for(uint i=nextId-count;i<nextId;i++)... */\n    tag_105:\n        /* \"contracts/Twitter.sol\":2608:2614  nextId */\n      sload(0x05)\n        /* \"contracts/Twitter.sol\":2606:2607  i */\n      dup2\n        /* \"contracts/Twitter.sol\":2606:2614  i<nextId */\n      lt\n        /* \"contracts/Twitter.sol\":2582:2851  for(uint i=nextId-count;i<nextId;i++)... */\n      iszero\n      tag_106\n      jumpi\n        /* \"contracts/Twitter.sol\":2679:2703  Tweet storage _structure */\n      0x00\n        /* \"contracts/Twitter.sol\":2706:2712  tweets */\n      dup1\n        /* \"contracts/Twitter.sol\":2706:2715  tweets[i] */\n      0x00\n        /* \"contracts/Twitter.sol\":2713:2714  i */\n      dup4\n        /* \"contracts/Twitter.sol\":2706:2715  tweets[i] */\n      dup2\n      mstore\n      0x20\n      add\n      swap1\n      dup2\n      mstore\n      0x20\n      add\n      0x00\n      keccak256\n        /* \"contracts/Twitter.sol\":2679:2715  Tweet storage _structure = tweets[i] */\n      swap1\n      pop\n        /* \"contracts/Twitter.sol\":2741:2819  Tweet(_structure.id,_structure.author,_structure.content,_structure.createdAt) */\n      mload(0x40)\n      dup1\n      0x80\n      add\n      0x40\n      mstore\n      dup1\n        /* \"contracts/Twitter.sol\":2747:2757  _structure */\n      dup3\n        /* \"contracts/Twitter.sol\":2747:2760  _structure.id */\n      0x00\n      add\n      sload\n        /* \"contracts/Twitter.sol\":2741:2819  Tweet(_structure.id,_structure.author,_structure.content,_structure.createdAt) */\n      dup2\n      mstore\n      0x20\n      add\n        /* \"contracts/Twitter.sol\":2761:2771  _structure */\n      dup3\n        /* \"contracts/Twitter.sol\":2761:2778  _structure.author */\n      0x01\n      add\n      0x00\n      swap1\n      sload\n      swap1\n      0x0100\n      exp\n      swap1\n      div\n      0xffffffffffffffffffffffffffffffffffffffff\n      and\n        /* \"contracts/Twitter.sol\":2741:2819  Tweet(_structure.id,_structure.author,_structure.content,_structure.createdAt) */\n      0xffffffffffffffffffffffffffffffffffffffff\n      and\n      dup2\n      mstore\n      0x20\n      add\n        /* \"contracts/Twitter.sol\":2779:2789  _structure */\n      dup3\n        /* \"contracts/Twitter.sol\":2779:2797  _structure.content */\n      0x02\n      add\n        /* \"contracts/Twitter.sol\":2741:2819  Tweet(_structure.id,_structure.author,_structure.content,_structure.createdAt) */\n      dup1\n      sload\n      tag_110\n      swap1\n      tag_86\n      jump\t// in\n    tag_110:\n      dup1\n      0x1f\n      add\n      0x20\n      dup1\n      swap2\n      div\n      mul\n      0x20\n      add\n      mload(0x40)\n      swap1\n      dup2\n      add\n      0x40\n      mstore\n      dup1\n      swap3\n      swap2\n      swap1\n      dup2\n      dup2\n      mstore\n      0x20\n      add\n      dup3\n      dup1\n      sload\n      tag_111\n      swap1\n      tag_86\n      jump\t// in\n    tag_111:\n      dup1\n      iszero\n      tag_112\n      jumpi\n      dup1\n      0x1f\n      lt\n      tag_113\n      jumpi\n      0x0100\n      dup1\n      dup4\n      sload\n      div\n      mul\n      dup4\n      mstore\n      swap2\n      0x20\n      add\n      swap2\n      jump(tag_112)\n    tag_113:\n      dup3\n      add\n      swap2\n      swap1\n      0x00\n      mstore\n      keccak256(0x00, 0x20)\n      swap1\n    tag_114:\n      dup2\n      sload\n      dup2\n      mstore\n      swap1\n      0x01\n      add\n      swap1\n      0x20\n      add\n      dup1\n      dup4\n      gt\n      tag_114\n      jumpi\n      dup3\n      swap1\n      sub\n      0x1f\n      and\n      dup3\n      add\n      swap2\n    tag_112:\n      pop\n      pop\n      pop\n      pop\n      pop\n      dup2\n      mstore\n      0x20\n      add\n        /* \"contracts/Twitter.sol\":2798:2808  _structure */\n      dup3\n        /* \"contracts/Twitter.sol\":2798:2818  _structure.createdAt */\n      0x03\n      add\n      sload\n        /* \"contracts/Twitter.sol\":2741:2819  Tweet(_structure.id,_structure.author,_structure.content,_structure.createdAt) */\n      dup2\n      mstore\n      pop\n        /* \"contracts/Twitter.sol\":2730:2737  _tweets */\n      dup5\n        /* \"contracts/Twitter.sol\":2738:2739  j */\n      dup5\n        /* \"contracts/Twitter.sol\":2730:2740  _tweets[j] */\n      dup2\n      mload\n      dup2\n      lt\n      tag_115\n      jumpi\n      tag_116\n      tag_117\n      jump\t// in\n    tag_116:\n    tag_115:\n      0x20\n      mul\n      0x20\n      add\n      add\n        /* \"contracts/Twitter.sol\":2730:2819  _tweets[j]=Tweet(_structure.id,_structure.author,_structure.content,_structure.createdAt) */\n      dup2\n      swap1\n      mstore\n      pop\n        /* \"contracts/Twitter.sol\":2838:2839  1 */\n      0x01\n        /* \"contracts/Twitter.sol\":2836:2837  j */\n      dup4\n        /* \"contracts/Twitter.sol\":2836:2839  j+1 */\n      tag_118\n      swap2\n      swap1\n      tag_119\n      jump\t// in\n    tag_118:\n        /* \"contracts/Twitter.sol\":2834:2839  j=j+1 */\n      swap3\n      pop\n        /* \"contracts/Twitter.sol\":2629:2851  {//count = 5 nextId=7; 7-5=2,3,4,5,6... */\n      pop\n        /* \"contracts/Twitter.sol\":2615:2618  i++ */\n      dup1\n      dup1\n      tag_120\n      swap1\n      tag_121\n      jump\t// in\n    tag_120:\n      swap2\n      pop\n      pop\n        /* \"contracts/Twitter.sol\":2582:2851  for(uint i=nextId-count;i<nextId;i++)... */\n      jump(tag_105)\n    tag_106:\n      pop\n        /* \"contracts/Twitter.sol\":2868:2875  _tweets */\n      dup2\n        /* \"contracts/Twitter.sol\":2861:2875  return _tweets */\n      swap3\n      pop\n      pop\n      pop\n        /* \"contracts/Twitter.sol\":2337:2883  function getLatestTweets(uint count) public view returns(Tweet[] memory){... */\n      swap2\n      swap1\n      pop\n      jump\t// out\n        /* \"contracts/Twitter.sol\":2895:3606  function getLatestofUser(address _user,uint count) public view returns(Tweet[] memory) ... */\n    tag_44:\n        /* \"contracts/Twitter.sol\":2966:2980  Tweet[] memory */\n      0x60\n        /* \"contracts/Twitter.sol\":3003:3025  Tweet[] memory _tweets */\n      0x00\n        /* \"contracts/Twitter.sol\":3039:3044  count */\n      dup3\n        /* \"contracts/Twitter.sol\":3027:3045  new Tweet[](count) */\n      0xffffffffffffffff\n      dup2\n      gt\n      iszero\n      tag_123\n      jumpi\n      tag_124\n      tag_100\n      jump\t// in\n    tag_124:\n    tag_123:\n      mload(0x40)\n      swap1\n      dup1\n      dup3\n      mstore\n      dup1\n      0x20\n      mul\n      0x20\n      add\n      dup3\n      add\n      0x40\n      mstore\n      dup1\n      iszero\n      tag_125\n      jumpi\n      dup2\n      0x20\n      add\n    tag_126:\n      tag_127\n      tag_104\n      jump\t// in\n    tag_127:\n      dup2\n      mstore\n      0x20\n      add\n      swap1\n      0x01\n      swap1\n      sub\n      swap1\n      dup2\n      tag_126\n      jumpi\n      swap1\n      pop\n    tag_125:\n      pop\n        /* \"contracts/Twitter.sol\":3003:3045  Tweet[] memory _tweets= new Tweet[](count) */\n      swap1\n      pop\n        /* \"contracts/Twitter.sol\":3165:3182  uint[] memory ids */\n      0x00\n        /* \"contracts/Twitter.sol\":3185:3193  tweetsOf */\n      0x01\n        /* \"contracts/Twitter.sol\":3185:3200  tweetsOf[_user] */\n      0x00\n        /* \"contracts/Twitter.sol\":3194:3199  _user */\n      dup7\n        /* \"contracts/Twitter.sol\":3185:3200  tweetsOf[_user] */\n      0xffffffffffffffffffffffffffffffffffffffff\n      and\n      0xffffffffffffffffffffffffffffffffffffffff\n      and\n      dup2\n      mstore\n      0x20\n      add\n      swap1\n      dup2\n      mstore\n      0x20\n      add\n      0x00\n      keccak256\n        /* \"contracts/Twitter.sol\":3165:3200  uint[] memory ids = tweetsOf[_user] */\n      dup1\n      sload\n      dup1\n      0x20\n      mul\n      0x20\n      add\n      mload(0x40)\n      swap1\n      dup2\n      add\n      0x40\n      mstore\n      dup1\n      swap3\n      swap2\n      swap1\n      dup2\n      dup2\n      mstore\n      0x20\n      add\n      dup3\n      dup1\n      sload\n      dup1\n      iszero\n      tag_128\n      jumpi\n      0x20\n      mul\n      dup3\n      add\n      swap2\n      swap1\n      0x00\n      mstore\n      keccak256(0x00, 0x20)\n      swap1\n    tag_129:\n      dup2\n      sload\n      dup2\n      mstore\n      0x20\n      add\n      swap1\n      0x01\n      add\n      swap1\n      dup1\n      dup4\n      gt\n      tag_129\n      jumpi\n    tag_128:\n      pop\n      pop\n      pop\n      pop\n      pop\n      swap1\n      pop\n        /* \"contracts/Twitter.sol\":3244:3245  0 */\n      0x00\n        /* \"contracts/Twitter.sol\":3238:3243  count */\n      dup5\n        /* \"contracts/Twitter.sol\":3238:3245  count>0 */\n      gt\n        /* \"contracts/Twitter.sol\":3238:3266  count>0 && count<=ids.length */\n      dup1\n      iszero\n      tag_130\n      jumpi\n      pop\n        /* \"contracts/Twitter.sol\":3256:3259  ids */\n      dup1\n        /* \"contracts/Twitter.sol\":3256:3266  ids.length */\n      mload\n        /* \"contracts/Twitter.sol\":3249:3254  count */\n      dup5\n        /* \"contracts/Twitter.sol\":3249:3266  count<=ids.length */\n      gt\n      iszero\n        /* \"contracts/Twitter.sol\":3238:3266  count>0 && count<=ids.length */\n    tag_130:\n        /* \"contracts/Twitter.sol\":3230:3290  require(count>0 && count<=ids.length,\"Count is not defined\") */\n      tag_131\n      jumpi\n      mload(0x40)\n      0x08c379a000000000000000000000000000000000000000000000000000000000\n      dup2\n      mstore\n      0x04\n      add\n      tag_132\n      swap1\n      tag_133\n      jump\t// in\n    tag_132:\n      mload(0x40)\n      dup1\n      swap2\n      sub\n      swap1\n      revert\n    tag_131:\n        /* \"contracts/Twitter.sol\":3301:3307  uint j */\n      0x00\n        /* \"contracts/Twitter.sol\":3323:3329  uint i */\n      dup1\n        /* \"contracts/Twitter.sol\":3342:3347  count */\n      dup6\n        /* \"contracts/Twitter.sol\":3331:3334  ids */\n      dup4\n        /* \"contracts/Twitter.sol\":3331:3341  ids.length */\n      mload\n        /* \"contracts/Twitter.sol\":3331:3347  ids.length-count */\n      tag_137\n      swap2\n      swap1\n      tag_109\n      jump\t// in\n    tag_137:\n        /* \"contracts/Twitter.sol\":3323:3347  uint i= ids.length-count */\n      swap1\n      pop\n        /* \"contracts/Twitter.sol\":3318:3582  for (uint i= ids.length-count;i<ids.length;i++){//5-3 = 2 to 5... */\n    tag_134:\n        /* \"contracts/Twitter.sol\":3350:3353  ids */\n      dup3\n        /* \"contracts/Twitter.sol\":3350:3360  ids.length */\n      mload\n        /* \"contracts/Twitter.sol\":3348:3349  i */\n      dup2\n        /* \"contracts/Twitter.sol\":3348:3360  i<ids.length */\n      lt\n        /* \"contracts/Twitter.sol\":3318:3582  for (uint i= ids.length-count;i<ids.length;i++){//5-3 = 2 to 5... */\n      iszero\n      tag_135\n      jumpi\n        /* \"contracts/Twitter.sol\":3390:3414  Tweet storage _structure */\n      0x00\n        /* \"contracts/Twitter.sol\":3417:3423  tweets */\n      dup1\n        /* \"contracts/Twitter.sol\":3417:3431  tweets[ids[i]] */\n      0x00\n        /* \"contracts/Twitter.sol\":3424:3427  ids */\n      dup6\n        /* \"contracts/Twitter.sol\":3428:3429  i */\n      dup5\n        /* \"contracts/Twitter.sol\":3424:3430  ids[i] */\n      dup2\n      mload\n      dup2\n      lt\n      tag_138\n      jumpi\n      tag_139\n      tag_117\n      jump\t// in\n    tag_139:\n    tag_138:\n      0x20\n      mul\n      0x20\n      add\n      add\n      mload\n        /* \"contracts/Twitter.sol\":3417:3431  tweets[ids[i]] */\n      dup2\n      mstore\n      0x20\n      add\n      swap1\n      dup2\n      mstore\n      0x20\n      add\n      0x00\n      keccak256\n        /* \"contracts/Twitter.sol\":3390:3431  Tweet storage _structure = tweets[ids[i]] */\n      swap1\n      pop\n        /* \"contracts/Twitter.sol\":3480:3558  Tweet(_structure.id,_structure.author,_structure.content,_structure.createdAt) */\n      mload(0x40)\n      dup1\n      0x80\n      add\n      0x40\n      mstore\n      dup1\n        /* \"contracts/Twitter.sol\":3486:3496  _structure */\n      dup3\n        /* \"contracts/Twitter.sol\":3486:3499  _structure.id */\n      0x00\n      add\n      sload\n        /* \"contracts/Twitter.sol\":3480:3558  Tweet(_structure.id,_structure.author,_structure.content,_structure.createdAt) */\n      dup2\n      mstore\n      0x20\n      add\n        /* \"contracts/Twitter.sol\":3500:3510  _structure */\n      dup3\n        /* \"contracts/Twitter.sol\":3500:3517  _structure.author */\n      0x01\n      add\n      0x00\n      swap1\n      sload\n      swap1\n      0x0100\n      exp\n      swap1\n      div\n      0xffffffffffffffffffffffffffffffffffffffff\n      and\n        /* \"contracts/Twitter.sol\":3480:3558  Tweet(_structure.id,_structure.author,_structure.content,_structure.createdAt) */\n      0xffffffffffffffffffffffffffffffffffffffff\n      and\n      dup2\n      mstore\n      0x20\n      add\n        /* \"contracts/Twitter.sol\":3518:3528  _structure */\n      dup3\n        /* \"contracts/Twitter.sol\":3518:3536  _structure.content */\n      0x02\n      add\n        /* \"contracts/Twitter.sol\":3480:3558  Tweet(_structure.id,_structure.author,_structure.content,_structure.createdAt) */\n      dup1\n      sload\n      tag_140\n      swap1\n      tag_86\n      jump\t// in\n    tag_140:\n      dup1\n      0x1f\n      add\n      0x20\n      dup1\n      swap2\n      div\n      mul\n      0x20\n      add\n      mload(0x40)\n      swap1\n      dup2\n      add\n      0x40\n      mstore\n      dup1\n      swap3\n      swap2\n      swap1\n      dup2\n      dup2\n      mstore\n      0x20\n      add\n      dup3\n      dup1\n      sload\n      tag_141\n      swap1\n      tag_86\n      jump\t// in\n    tag_141:\n      dup1\n      iszero\n      tag_142\n      jumpi\n      dup1\n      0x1f\n      lt\n      tag_143\n      jumpi\n      0x0100\n      dup1\n      dup4\n      sload\n      div\n      mul\n      dup4\n      mstore\n      swap2\n      0x20\n      add\n      swap2\n      jump(tag_142)\n    tag_143:\n      dup3\n      add\n      swap2\n      swap1\n      0x00\n      mstore\n      keccak256(0x00, 0x20)\n      swap1\n    tag_144:\n      dup2\n      sload\n      dup2\n      mstore\n      swap1\n      0x01\n      add\n      swap1\n      0x20\n      add\n      dup1\n      dup4\n      gt\n      tag_144\n      jumpi\n      dup3\n      swap1\n      sub\n      0x1f\n      and\n      dup3\n      add\n      swap2\n    tag_142:\n      pop\n      pop\n      pop\n      pop\n      pop\n      dup2\n      mstore\n      0x20\n      add\n        /* \"contracts/Twitter.sol\":3537:3547  _structure */\n      dup3\n        /* \"contracts/Twitter.sol\":3537:3557  _structure.createdAt */\n      0x03\n      add\n      sload\n        /* \"contracts/Twitter.sol\":3480:3558  Tweet(_structure.id,_structure.author,_structure.content,_structure.createdAt) */\n      dup2\n      mstore\n      pop\n        /* \"contracts/Twitter.sol\":3469:3476  _tweets */\n      dup6\n        /* \"contracts/Twitter.sol\":3477:3478  j */\n      dup5\n        /* \"contracts/Twitter.sol\":3469:3479  _tweets[j] */\n      dup2\n      mload\n      dup2\n      lt\n      tag_145\n      jumpi\n      tag_146\n      tag_117\n      jump\t// in\n    tag_146:\n    tag_145:\n      0x20\n      mul\n      0x20\n      add\n      add\n        /* \"contracts/Twitter.sol\":3469:3558  _tweets[j]=Tweet(_structure.id,_structure.author,_structure.content,_structure.createdAt) */\n      dup2\n      swap1\n      mstore\n      pop\n        /* \"contracts/Twitter.sol\":3573:3574  1 */\n      0x01\n        /* \"contracts/Twitter.sol\":3571:3572  j */\n      dup4\n        /* \"contracts/Twitter.sol\":3571:3574  j+1 */\n      tag_147\n      swap2\n      swap1\n      tag_119\n      jump\t// in\n    tag_147:\n        /* \"contracts/Twitter.sol\":3569:3574  j=j+1 */\n      swap3\n      pop\n        /* \"contracts/Twitter.sol\":3365:3582  {//5-3 = 2 to 5... */\n      pop\n        /* \"contracts/Twitter.sol\":3361:3364  i++ */\n      dup1\n      dup1\n      tag_148\n      swap1\n      tag_121\n      jump\t// in\n    tag_148:\n      swap2\n      pop\n      pop\n        /* \"contracts/Twitter.sol\":3318:3582  for (uint i= ids.length-count;i<ids.length;i++){//5-3 = 2 to 5... */\n      jump(tag_134)\n    tag_135:\n      pop\n        /* \"contracts/Twitter.sol\":3593:3600  _tweets */\n      dup3\n        /* \"contracts/Twitter.sol\":3586:3600  return _tweets */\n      swap4\n      pop\n      pop\n      pop\n      pop\n        /* \"contracts/Twitter.sol\":2895:3606  function getLatestofUser(address _user,uint count) public view returns(Tweet[] memory) ... */\n      swap3\n      swap2\n      pop\n      pop\n      jump\t// out\n        /* \"contracts/Twitter.sol\":598:642  mapping(address=>address[]) public following */\n    tag_48:\n      mstore(0x20, 0x04)\n      dup2\n      0x00\n      mstore\n      keccak256(0x00, 0x40)\n      dup2\n      dup2\n      sload\n      dup2\n      lt\n      tag_149\n      jumpi\n      0x00\n      dup1\n      revert\n    tag_149:\n      swap1\n      0x00\n      mstore\n      keccak256(0x00, 0x20)\n      add\n      0x00\n      swap2\n      pop\n      swap2\n      pop\n      swap1\n      sload\n      swap1\n      0x0100\n      exp\n      swap1\n      div\n      0xffffffffffffffffffffffffffffffffffffffff\n      and\n      dup2\n      jump\t// out\n        /* \"contracts/Twitter.sol\":2215:2325  function disallow(address _operator) public... */\n    tag_53:\n        /* \"contracts/Twitter.sol\":2308:2313  false */\n      0x00\n        /* \"contracts/Twitter.sol\":2275:2284  operators */\n      0x03\n        /* \"contracts/Twitter.sol\":2275:2296  operators[msg.sender] */\n      0x00\n        /* \"contracts/Twitter.sol\":2285:2295  msg.sender */\n      caller\n        /* \"contracts/Twitter.sol\":2275:2296  operators[msg.sender] */\n      0xffffffffffffffffffffffffffffffffffffffff\n      and\n      0xffffffffffffffffffffffffffffffffffffffff\n      and\n      dup2\n      mstore\n      0x20\n      add\n      swap1\n      dup2\n      mstore\n      0x20\n      add\n      0x00\n      keccak256\n        /* \"contracts/Twitter.sol\":2275:2307  operators[msg.sender][_operator] */\n      0x00\n        /* \"contracts/Twitter.sol\":2297:2306  _operator */\n      dup4\n        /* \"contracts/Twitter.sol\":2275:2307  operators[msg.sender][_operator] */\n      0xffffffffffffffffffffffffffffffffffffffff\n      and\n      0xffffffffffffffffffffffffffffffffffffffff\n      and\n      dup2\n      mstore\n      0x20\n      add\n      swap1\n      dup2\n      mstore\n      0x20\n      add\n      0x00\n      keccak256\n      0x00\n        /* \"contracts/Twitter.sol\":2275:2313  operators[msg.sender][_operator]=false */\n      0x0100\n      exp\n      dup2\n      sload\n      dup2\n      0xff\n      mul\n      not\n      and\n      swap1\n      dup4\n      iszero\n      iszero\n      mul\n      or\n      swap1\n      sstore\n      pop\n        /* \"contracts/Twitter.sol\":2215:2325  function disallow(address _operator) public... */\n      pop\n      jump\t// out\n        /* \"contracts/Twitter.sol\":406:446  mapping(address=>uint[]) public tweetsOf */\n    tag_56:\n      mstore(0x20, 0x01)\n      dup2\n      0x00\n      mstore\n      keccak256(0x00, 0x40)\n      dup2\n      dup2\n      sload\n      dup2\n      lt\n      tag_152\n      jumpi\n      0x00\n      dup1\n      revert\n    tag_152:\n      swap1\n      0x00\n      mstore\n      keccak256(0x00, 0x20)\n      add\n      0x00\n      swap2\n      pop\n      swap2\n      pop\n      pop\n      sload\n      dup2\n      jump\t// out\n        /* \"contracts/Twitter.sol\":1799:1959  function sendMessage(address _from,address _to,string memory _content) public ... */\n    tag_62:\n        /* \"contracts/Twitter.sol\":1919:1951  _sendMessage(_from,_to,_content) */\n      tag_155\n        /* \"contracts/Twitter.sol\":1932:1937  _from */\n      dup4\n        /* \"contracts/Twitter.sol\":1938:1941  _to */\n      dup4\n        /* \"contracts/Twitter.sol\":1942:1950  _content */\n      dup4\n        /* \"contracts/Twitter.sol\":1919:1931  _sendMessage */\n      tag_156\n        /* \"contracts/Twitter.sol\":1919:1951  _sendMessage(_from,_to,_content) */\n      jump\t// in\n    tag_155:\n        /* \"contracts/Twitter.sol\":1799:1959  function sendMessage(address _from,address _to,string memory _content) public ... */\n      pop\n      pop\n      pop\n      jump\t// out\n        /* \"contracts/Twitter.sol\":1664:1791  function sendMessage(string memory _content,address _to) public {//owner... */\n    tag_66:\n        /* \"contracts/Twitter.sol\":1746:1783  _sendMessage(msg.sender,_to,_content) */\n      tag_158\n        /* \"contracts/Twitter.sol\":1759:1769  msg.sender */\n      caller\n        /* \"contracts/Twitter.sol\":1770:1773  _to */\n      dup3\n        /* \"contracts/Twitter.sol\":1774:1782  _content */\n      dup5\n        /* \"contracts/Twitter.sol\":1746:1758  _sendMessage */\n      tag_156\n        /* \"contracts/Twitter.sol\":1746:1783  _sendMessage(msg.sender,_to,_content) */\n      jump\t// in\n    tag_158:\n        /* \"contracts/Twitter.sol\":1664:1791  function sendMessage(string memory _content,address _to) public {//owner... */\n      pop\n      pop\n      jump\t// out\n        /* \"contracts/Twitter.sol\":1531:1656  function tweet(address _from,string memory _content) public... */\n    tag_70:\n        /* \"contracts/Twitter.sol\":1626:1648  _tweet(_from,_content) */\n      tag_160\n        /* \"contracts/Twitter.sol\":1633:1638  _from */\n      dup3\n        /* \"contracts/Twitter.sol\":1639:1647  _content */\n      dup3\n        /* \"contracts/Twitter.sol\":1626:1632  _tweet */\n      tag_161\n        /* \"contracts/Twitter.sol\":1626:1648  _tweet(_from,_content) */\n      jump\t// in\n    tag_160:\n        /* \"contracts/Twitter.sol\":1531:1656  function tweet(address _from,string memory _content) public... */\n      pop\n      pop\n      jump\t// out\n        /* \"contracts/Twitter.sol\":365:399  mapping(uint=>Tweet) public tweets */\n    tag_73:\n      mstore(0x20, 0x00)\n      dup1\n      0x00\n      mstore\n      keccak256(0x00, 0x40)\n      0x00\n      swap2\n      pop\n      swap1\n      pop\n      dup1\n      0x00\n      add\n      sload\n      swap1\n      dup1\n      0x01\n      add\n      0x00\n      swap1\n      sload\n      swap1\n      0x0100\n      exp\n      swap1\n      div\n      0xffffffffffffffffffffffffffffffffffffffff\n      and\n      swap1\n      dup1\n      0x02\n      add\n      dup1\n      sload\n      tag_162\n      swap1\n      tag_86\n      jump\t// in\n    tag_162:\n      dup1\n      0x1f\n      add\n      0x20\n      dup1\n      swap2\n      div\n      mul\n      0x20\n      add\n      mload(0x40)\n      swap1\n      dup2\n      add\n      0x40\n      mstore\n      dup1\n      swap3\n      swap2\n      swap1\n      dup2\n      dup2\n      mstore\n      0x20\n      add\n      dup3\n      dup1\n      sload\n      tag_163\n      swap1\n      tag_86\n      jump\t// in\n    tag_163:\n      dup1\n      iszero\n      tag_164\n      jumpi\n      dup1\n      0x1f\n      lt\n      tag_165\n      jumpi\n      0x0100\n      dup1\n      dup4\n      sload\n      div\n      mul\n      dup4\n      mstore\n      swap2\n      0x20\n      add\n      swap2\n      jump(tag_164)\n    tag_165:\n      dup3\n      add\n      swap2\n      swap1\n      0x00\n      mstore\n      keccak256(0x00, 0x20)\n      swap1\n    tag_166:\n      dup2\n      sload\n      dup2\n      mstore\n      swap1\n      0x01\n      add\n      swap1\n      0x20\n      add\n      dup1\n      dup4\n      gt\n      tag_166\n      jumpi\n      dup3\n      swap1\n      sub\n      0x1f\n      and\n      dup3\n      add\n      swap2\n    tag_164:\n      pop\n      pop\n      pop\n      pop\n      pop\n      swap1\n      dup1\n      0x03\n      add\n      sload\n      swap1\n      pop\n      dup5\n      jump\t// out\n        /* \"contracts/Twitter.sol\":1413:1519  function tweet(string memory _content) public ... */\n    tag_79:\n        /* \"contracts/Twitter.sol\":1484:1511  _tweet(msg.sender,_content) */\n      tag_168\n        /* \"contracts/Twitter.sol\":1491:1501  msg.sender */\n      caller\n        /* \"contracts/Twitter.sol\":1502:1510  _content */\n      dup3\n        /* \"contracts/Twitter.sol\":1484:1490  _tweet */\n      tag_161\n        /* \"contracts/Twitter.sol\":1484:1511  _tweet(msg.sender,_content) */\n      jump\t// in\n    tag_168:\n        /* \"contracts/Twitter.sol\":1413:1519  function tweet(string memory _content) public ... */\n      pop\n      jump\t// out\n        /* \"contracts/Twitter.sol\":2105:2203  function allow(address _operator) public... */\n    tag_82:\n        /* \"contracts/Twitter.sol\":2191:2195  true */\n      0x01\n        /* \"contracts/Twitter.sol\":2158:2167  operators */\n      0x03\n        /* \"contracts/Twitter.sol\":2158:2179  operators[msg.sender] */\n      0x00\n        /* \"contracts/Twitter.sol\":2168:2178  msg.sender */\n      caller\n        /* \"contracts/Twitter.sol\":2158:2179  operators[msg.sender] */\n      0xffffffffffffffffffffffffffffffffffffffff\n      and\n      0xffffffffffffffffffffffffffffffffffffffff\n      and\n      dup2\n      mstore\n      0x20\n      add\n      swap1\n      dup2\n      mstore\n      0x20\n      add\n      0x00\n      keccak256\n        /* \"contracts/Twitter.sol\":2158:2190  operators[msg.sender][_operator] */\n      0x00\n        /* \"contracts/Twitter.sol\":2180:2189  _operator */\n      dup4\n        /* \"contracts/Twitter.sol\":2158:2190  operators[msg.sender][_operator] */\n      0xffffffffffffffffffffffffffffffffffffffff\n      and\n      0xffffffffffffffffffffffffffffffffffffffff\n      and\n      dup2\n      mstore\n      0x20\n      add\n      swap1\n      dup2\n      mstore\n      0x20\n      add\n      0x00\n      keccak256\n      0x00\n        /* \"contracts/Twitter.sol\":2158:2195  operators[msg.sender][_operator]=true */\n      0x0100\n      exp\n      dup2\n      sload\n      dup2\n      0xff\n      mul\n      not\n      and\n      swap1\n      dup4\n      iszero\n      iszero\n      mul\n      or\n      swap1\n      sstore\n      pop\n        /* \"contracts/Twitter.sol\":2105:2203  function allow(address _operator) public... */\n      pop\n      jump\t// out\n        /* \"contracts/Twitter.sol\":1056:1405  function _sendMessage(address _from,address _to,string memory _content) internal... */\n    tag_156:\n        /* \"contracts/Twitter.sol\":1209:1219  msg.sender */\n      caller\n        /* \"contracts/Twitter.sol\":1202:1219  _from==msg.sender */\n      0xffffffffffffffffffffffffffffffffffffffff\n      and\n        /* \"contracts/Twitter.sol\":1202:1207  _from */\n      dup4\n        /* \"contracts/Twitter.sol\":1202:1219  _from==msg.sender */\n      0xffffffffffffffffffffffffffffffffffffffff\n      and\n      eq\n        /* \"contracts/Twitter.sol\":1202:1251  _from==msg.sender || operators[_from][msg.sender] */\n      dup1\n      tag_171\n      jumpi\n      pop\n        /* \"contracts/Twitter.sol\":1223:1232  operators */\n      0x03\n        /* \"contracts/Twitter.sol\":1223:1239  operators[_from] */\n      0x00\n        /* \"contracts/Twitter.sol\":1233:1238  _from */\n      dup5\n        /* \"contracts/Twitter.sol\":1223:1239  operators[_from] */\n      0xffffffffffffffffffffffffffffffffffffffff\n      and\n      0xffffffffffffffffffffffffffffffffffffffff\n      and\n      dup2\n      mstore\n      0x20\n      add\n      swap1\n      dup2\n      mstore\n      0x20\n      add\n      0x00\n      keccak256\n        /* \"contracts/Twitter.sol\":1223:1251  operators[_from][msg.sender] */\n      0x00\n        /* \"contracts/Twitter.sol\":1240:1250  msg.sender */\n      caller\n        /* \"contracts/Twitter.sol\":1223:1251  operators[_from][msg.sender] */\n      0xffffffffffffffffffffffffffffffffffffffff\n      and\n      0xffffffffffffffffffffffffffffffffffffffff\n      and\n      dup2\n      mstore\n      0x20\n      add\n      swap1\n      dup2\n      mstore\n      0x20\n      add\n      0x00\n      keccak256\n      0x00\n      swap1\n      sload\n      swap1\n      0x0100\n      exp\n      swap1\n      div\n      0xff\n      and\n        /* \"contracts/Twitter.sol\":1202:1251  _from==msg.sender || operators[_from][msg.sender] */\n    tag_171:\n        /* \"contracts/Twitter.sol\":1194:1276  require(_from==msg.sender || operators[_from][msg.sender],\"You don't have access\") */\n      tag_172\n      jumpi\n      mload(0x40)\n      0x08c379a000000000000000000000000000000000000000000000000000000000\n      dup2\n      mstore\n      0x04\n      add\n      tag_173\n      swap1\n      tag_174\n      jump\t// in\n    tag_173:\n      mload(0x40)\n      dup1\n      swap2\n      sub\n      swap1\n      revert\n    tag_172:\n        /* \"contracts/Twitter.sol\":1287:1300  conversations */\n      0x02\n        /* \"contracts/Twitter.sol\":1287:1307  conversations[_from] */\n      0x00\n        /* \"contracts/Twitter.sol\":1301:1306  _from */\n      dup5\n        /* \"contracts/Twitter.sol\":1287:1307  conversations[_from] */\n      0xffffffffffffffffffffffffffffffffffffffff\n      and\n      0xffffffffffffffffffffffffffffffffffffffff\n      and\n      dup2\n      mstore\n      0x20\n      add\n      swap1\n      dup2\n      mstore\n      0x20\n      add\n      0x00\n      keccak256\n        /* \"contracts/Twitter.sol\":1313:1370  Message(nextMessageId,_content,_from,_to,block.timestamp) */\n      mload(0x40)\n      dup1\n      0xa0\n      add\n      0x40\n      mstore\n      dup1\n        /* \"contracts/Twitter.sol\":1321:1334  nextMessageId */\n      sload(0x06)\n        /* \"contracts/Twitter.sol\":1313:1370  Message(nextMessageId,_content,_from,_to,block.timestamp) */\n      dup2\n      mstore\n      0x20\n      add\n        /* \"contracts/Twitter.sol\":1335:1343  _content */\n      dup4\n        /* \"contracts/Twitter.sol\":1313:1370  Message(nextMessageId,_content,_from,_to,block.timestamp) */\n      dup2\n      mstore\n      0x20\n      add\n        /* \"contracts/Twitter.sol\":1344:1349  _from */\n      dup6\n        /* \"contracts/Twitter.sol\":1313:1370  Message(nextMessageId,_content,_from,_to,block.timestamp) */\n      0xffffffffffffffffffffffffffffffffffffffff\n      and\n      dup2\n      mstore\n      0x20\n      add\n        /* \"contracts/Twitter.sol\":1350:1353  _to */\n      dup5\n        /* \"contracts/Twitter.sol\":1313:1370  Message(nextMessageId,_content,_from,_to,block.timestamp) */\n      0xffffffffffffffffffffffffffffffffffffffff\n      and\n      dup2\n      mstore\n      0x20\n      add\n        /* \"contracts/Twitter.sol\":1354:1369  block.timestamp */\n      timestamp\n        /* \"contracts/Twitter.sol\":1313:1370  Message(nextMessageId,_content,_from,_to,block.timestamp) */\n      dup2\n      mstore\n      pop\n        /* \"contracts/Twitter.sol\":1287:1371  conversations[_from].push(Message(nextMessageId,_content,_from,_to,block.timestamp)) */\n      swap1\n      dup1\n      0x01\n      dup2\n      sload\n      add\n      dup1\n      dup3\n      sstore\n      dup1\n      swap2\n      pop\n      pop\n      0x01\n      swap1\n      sub\n      swap1\n      0x00\n      mstore\n      keccak256(0x00, 0x20)\n      swap1\n      0x05\n      mul\n      add\n      0x00\n      swap1\n      swap2\n      swap1\n      swap2\n      swap1\n      swap2\n      pop\n      0x00\n      dup3\n      add\n      mload\n      dup2\n      0x00\n      add\n      sstore\n      0x20\n      dup3\n      add\n      mload\n      dup2\n      0x01\n      add\n      swap1\n      dup2\n      tag_176\n      swap2\n      swap1\n      tag_177\n      jump\t// in\n    tag_176:\n      pop\n      0x40\n      dup3\n      add\n      mload\n      dup2\n      0x02\n      add\n      exp(0x0100, 0x00)\n      dup2\n      sload\n      dup2\n      0xffffffffffffffffffffffffffffffffffffffff\n      mul\n      not\n      and\n      swap1\n      dup4\n      0xffffffffffffffffffffffffffffffffffffffff\n      and\n      mul\n      or\n      swap1\n      sstore\n      pop\n      0x60\n      dup3\n      add\n      mload\n      dup2\n      0x03\n      add\n      exp(0x0100, 0x00)\n      dup2\n      sload\n      dup2\n      0xffffffffffffffffffffffffffffffffffffffff\n      mul\n      not\n      and\n      swap1\n      dup4\n      0xffffffffffffffffffffffffffffffffffffffff\n      and\n      mul\n      or\n      swap1\n      sstore\n      pop\n      0x80\n      dup3\n      add\n      mload\n      dup2\n      0x04\n      add\n      sstore\n      pop\n      pop\n        /* \"contracts/Twitter.sol\":1382:1395  nextMessageId */\n      0x06\n      0x00\n        /* \"contracts/Twitter.sol\":1382:1397  nextMessageId++ */\n      dup2\n      sload\n      dup1\n      swap3\n      swap2\n      swap1\n      tag_178\n      swap1\n      tag_121\n      jump\t// in\n    tag_178:\n      swap2\n      swap1\n      pop\n      sstore\n      pop\n        /* \"contracts/Twitter.sol\":1056:1405  function _sendMessage(address _from,address _to,string memory _content) internal... */\n      pop\n      pop\n      pop\n      jump\t// out\n        /* \"contracts/Twitter.sol\":702:1044  function _tweet(address _from,string memory _content) internal... */\n    tag_161:\n        /* \"contracts/Twitter.sol\":834:844  msg.sender */\n      caller\n        /* \"contracts/Twitter.sol\":827:844  _from==msg.sender */\n      0xffffffffffffffffffffffffffffffffffffffff\n      and\n        /* \"contracts/Twitter.sol\":827:832  _from */\n      dup3\n        /* \"contracts/Twitter.sol\":827:844  _from==msg.sender */\n      0xffffffffffffffffffffffffffffffffffffffff\n      and\n      eq\n        /* \"contracts/Twitter.sol\":827:876  _from==msg.sender || operators[_from][msg.sender] */\n      dup1\n      tag_180\n      jumpi\n      pop\n        /* \"contracts/Twitter.sol\":848:857  operators */\n      0x03\n        /* \"contracts/Twitter.sol\":848:864  operators[_from] */\n      0x00\n        /* \"contracts/Twitter.sol\":858:863  _from */\n      dup4\n        /* \"contracts/Twitter.sol\":848:864  operators[_from] */\n      0xffffffffffffffffffffffffffffffffffffffff\n      and\n      0xffffffffffffffffffffffffffffffffffffffff\n      and\n      dup2\n      mstore\n      0x20\n      add\n      swap1\n      dup2\n      mstore\n      0x20\n      add\n      0x00\n      keccak256\n        /* \"contracts/Twitter.sol\":848:876  operators[_from][msg.sender] */\n      0x00\n        /* \"contracts/Twitter.sol\":865:875  msg.sender */\n      caller\n        /* \"contracts/Twitter.sol\":848:876  operators[_from][msg.sender] */\n      0xffffffffffffffffffffffffffffffffffffffff\n      and\n      0xffffffffffffffffffffffffffffffffffffffff\n      and\n      dup2\n      mstore\n      0x20\n      add\n      swap1\n      dup2\n      mstore\n      0x20\n      add\n      0x00\n      keccak256\n      0x00\n      swap1\n      sload\n      swap1\n      0x0100\n      exp\n      swap1\n      div\n      0xff\n      and\n        /* \"contracts/Twitter.sol\":827:876  _from==msg.sender || operators[_from][msg.sender] */\n    tag_180:\n        /* \"contracts/Twitter.sol\":819:901  require(_from==msg.sender || operators[_from][msg.sender],\"You don't have access\") */\n      tag_181\n      jumpi\n      mload(0x40)\n      0x08c379a000000000000000000000000000000000000000000000000000000000\n      dup2\n      mstore\n      0x04\n      add\n      tag_182\n      swap1\n      tag_174\n      jump\t// in\n    tag_182:\n      mload(0x40)\n      dup1\n      swap2\n      sub\n      swap1\n      revert\n    tag_181:\n        /* \"contracts/Twitter.sol\":927:971  Tweet(nextId,_from,_content,block.timestamp) */\n      mload(0x40)\n      dup1\n      0x80\n      add\n      0x40\n      mstore\n      dup1\n        /* \"contracts/Twitter.sol\":933:939  nextId */\n      sload(0x05)\n        /* \"contracts/Twitter.sol\":927:971  Tweet(nextId,_from,_content,block.timestamp) */\n      dup2\n      mstore\n      0x20\n      add\n        /* \"contracts/Twitter.sol\":940:945  _from */\n      dup4\n        /* \"contracts/Twitter.sol\":927:971  Tweet(nextId,_from,_content,block.timestamp) */\n      0xffffffffffffffffffffffffffffffffffffffff\n      and\n      dup2\n      mstore\n      0x20\n      add\n        /* \"contracts/Twitter.sol\":946:954  _content */\n      dup3\n        /* \"contracts/Twitter.sol\":927:971  Tweet(nextId,_from,_content,block.timestamp) */\n      dup2\n      mstore\n      0x20\n      add\n        /* \"contracts/Twitter.sol\":955:970  block.timestamp */\n      timestamp\n        /* \"contracts/Twitter.sol\":927:971  Tweet(nextId,_from,_content,block.timestamp) */\n      dup2\n      mstore\n      pop\n        /* \"contracts/Twitter.sol\":912:918  tweets */\n      0x00\n        /* \"contracts/Twitter.sol\":912:926  tweets[nextId] */\n      dup1\n        /* \"contracts/Twitter.sol\":919:925  nextId */\n      sload(0x05)\n        /* \"contracts/Twitter.sol\":912:926  tweets[nextId] */\n      dup2\n      mstore\n      0x20\n      add\n      swap1\n      dup2\n      mstore\n      0x20\n      add\n      0x00\n      keccak256\n        /* \"contracts/Twitter.sol\":912:971  tweets[nextId]=Tweet(nextId,_from,_content,block.timestamp) */\n      0x00\n      dup3\n      add\n      mload\n      dup2\n      0x00\n      add\n      sstore\n      0x20\n      dup3\n      add\n      mload\n      dup2\n      0x01\n      add\n      exp(0x0100, 0x00)\n      dup2\n      sload\n      dup2\n      0xffffffffffffffffffffffffffffffffffffffff\n      mul\n      not\n      and\n      swap1\n      dup4\n      0xffffffffffffffffffffffffffffffffffffffff\n      and\n      mul\n      or\n      swap1\n      sstore\n      pop\n      0x40\n      dup3\n      add\n      mload\n      dup2\n      0x02\n      add\n      swap1\n      dup2\n      tag_183\n      swap2\n      swap1\n      tag_177\n      jump\t// in\n    tag_183:\n      pop\n      0x60\n      dup3\n      add\n      mload\n      dup2\n      0x03\n      add\n      sstore\n      swap1\n      pop\n      pop\n        /* \"contracts/Twitter.sol\":982:990  tweetsOf */\n      0x01\n        /* \"contracts/Twitter.sol\":982:997  tweetsOf[_from] */\n      0x00\n        /* \"contracts/Twitter.sol\":991:996  _from */\n      dup4\n        /* \"contracts/Twitter.sol\":982:997  tweetsOf[_from] */\n      0xffffffffffffffffffffffffffffffffffffffff\n      and\n      0xffffffffffffffffffffffffffffffffffffffff\n      and\n      dup2\n      mstore\n      0x20\n      add\n      swap1\n      dup2\n      mstore\n      0x20\n      add\n      0x00\n      keccak256\n        /* \"contracts/Twitter.sol\":1003:1009  nextId */\n      sload(0x05)\n        /* \"contracts/Twitter.sol\":982:1010  tweetsOf[_from].push(nextId) */\n      swap1\n      dup1\n      0x01\n      dup2\n      sload\n      add\n      dup1\n      dup3\n      sstore\n      dup1\n      swap2\n      pop\n      pop\n      0x01\n      swap1\n      sub\n      swap1\n      0x00\n      mstore\n      keccak256(0x00, 0x20)\n      add\n      0x00\n      swap1\n      swap2\n      swap1\n      swap2\n      swap1\n      swap2\n      pop\n      sstore\n        /* \"contracts/Twitter.sol\":1035:1036  1 */\n      0x01\n        /* \"contracts/Twitter.sol\":1028:1034  nextId */\n      sload(0x05)\n        /* \"contracts/Twitter.sol\":1028:1036  nextId+1 */\n      tag_185\n      swap2\n      swap1\n      tag_119\n      jump\t// in\n    tag_185:\n        /* \"contracts/Twitter.sol\":1021:1027  nextId */\n      0x05\n        /* \"contracts/Twitter.sol\":1021:1036  nextId=nextId+1 */\n      dup2\n      swap1\n      sstore\n      pop\n        /* \"contracts/Twitter.sol\":702:1044  function _tweet(address _from,string memory _content) internal... */\n      pop\n      pop\n      jump\t// out\n    tag_104:\n      mload(0x40)\n      dup1\n      0x80\n      add\n      0x40\n      mstore\n      dup1\n      0x00\n      dup2\n      mstore\n      0x20\n      add\n      and(0xffffffffffffffffffffffffffffffffffffffff, 0x00)\n      dup2\n      mstore\n      0x20\n      add\n      0x60\n      dup2\n      mstore\n      0x20\n      add\n      0x00\n      dup2\n      mstore\n      pop\n      swap1\n      jump\t// out\n        /* \"#utility.yul\":7:82   */\n    tag_186:\n        /* \"#utility.yul\":40:46   */\n      0x00\n        /* \"#utility.yul\":73:75   */\n      0x40\n        /* \"#utility.yul\":67:76   */\n      mload\n        /* \"#utility.yul\":57:76   */\n      swap1\n      pop\n        /* \"#utility.yul\":7:82   */\n      swap1\n      jump\t// out\n        /* \"#utility.yul\":88:205   */\n    tag_187:\n        /* \"#utility.yul\":197:198   */\n      0x00\n        /* \"#utility.yul\":194:195   */\n      dup1\n        /* \"#utility.yul\":187:199   */\n      revert\n        /* \"#utility.yul\":211:328   */\n    tag_188:\n        /* \"#utility.yul\":320:321   */\n      0x00\n        /* \"#utility.yul\":317:318   */\n      dup1\n        /* \"#utility.yul\":310:322   */\n      revert\n        /* \"#utility.yul\":334:460   */\n    tag_189:\n        /* \"#utility.yul\":371:378   */\n      0x00\n        /* \"#utility.yul\":411:453   */\n      0xffffffffffffffffffffffffffffffffffffffff\n        /* \"#utility.yul\":404:409   */\n      dup3\n        /* \"#utility.yul\":400:454   */\n      and\n        /* \"#utility.yul\":389:454   */\n      swap1\n      pop\n        /* \"#utility.yul\":334:460   */\n      swap2\n      swap1\n      pop\n      jump\t// out\n        /* \"#utility.yul\":466:562   */\n    tag_190:\n        /* \"#utility.yul\":503:510   */\n      0x00\n        /* \"#utility.yul\":532:556   */\n      tag_253\n        /* \"#utility.yul\":550:555   */\n      dup3\n        /* \"#utility.yul\":532:556   */\n      tag_189\n      jump\t// in\n    tag_253:\n        /* \"#utility.yul\":521:556   */\n      swap1\n      pop\n        /* \"#utility.yul\":466:562   */\n      swap2\n      swap1\n      pop\n      jump\t// out\n        /* \"#utility.yul\":568:690   */\n    tag_191:\n        /* \"#utility.yul\":641:665   */\n      tag_255\n        /* \"#utility.yul\":659:664   */\n      dup2\n        /* \"#utility.yul\":641:665   */\n      tag_190\n      jump\t// in\n    tag_255:\n        /* \"#utility.yul\":634:639   */\n      dup2\n        /* \"#utility.yul\":631:666   */\n      eq\n        /* \"#utility.yul\":621:684   */\n      tag_256\n      jumpi\n        /* \"#utility.yul\":680:681   */\n      0x00\n        /* \"#utility.yul\":677:678   */\n      dup1\n        /* \"#utility.yul\":670:682   */\n      revert\n        /* \"#utility.yul\":621:684   */\n    tag_256:\n        /* \"#utility.yul\":568:690   */\n      pop\n      jump\t// out\n        /* \"#utility.yul\":696:835   */\n    tag_192:\n        /* \"#utility.yul\":742:747   */\n      0x00\n        /* \"#utility.yul\":780:786   */\n      dup2\n        /* \"#utility.yul\":767:787   */\n      calldataload\n        /* \"#utility.yul\":758:787   */\n      swap1\n      pop\n        /* \"#utility.yul\":796:829   */\n      tag_258\n        /* \"#utility.yul\":823:828   */\n      dup2\n        /* \"#utility.yul\":796:829   */\n      tag_191\n      jump\t// in\n    tag_258:\n        /* \"#utility.yul\":696:835   */\n      swap3\n      swap2\n      pop\n      pop\n      jump\t// out\n        /* \"#utility.yul\":841:1315   */\n    tag_22:\n        /* \"#utility.yul\":909:915   */\n      0x00\n        /* \"#utility.yul\":917:923   */\n      dup1\n        /* \"#utility.yul\":966:968   */\n      0x40\n        /* \"#utility.yul\":954:963   */\n      dup4\n        /* \"#utility.yul\":945:952   */\n      dup6\n        /* \"#utility.yul\":941:964   */\n      sub\n        /* \"#utility.yul\":937:969   */\n      slt\n        /* \"#utility.yul\":934:1053   */\n      iszero\n      tag_260\n      jumpi\n        /* \"#utility.yul\":972:1051   */\n      tag_261\n      tag_187\n      jump\t// in\n    tag_261:\n        /* \"#utility.yul\":934:1053   */\n    tag_260:\n        /* \"#utility.yul\":1092:1093   */\n      0x00\n        /* \"#utility.yul\":1117:1170   */\n      tag_262\n        /* \"#utility.yul\":1162:1169   */\n      dup6\n        /* \"#utility.yul\":1153:1159   */\n      dup3\n        /* \"#utility.yul\":1142:1151   */\n      dup7\n        /* \"#utility.yul\":1138:1160   */\n      add\n        /* \"#utility.yul\":1117:1170   */\n      tag_192\n      jump\t// in\n    tag_262:\n        /* \"#utility.yul\":1107:1170   */\n      swap3\n      pop\n        /* \"#utility.yul\":1063:1180   */\n      pop\n        /* \"#utility.yul\":1219:1221   */\n      0x20\n        /* \"#utility.yul\":1245:1298   */\n      tag_263\n        /* \"#utility.yul\":1290:1297   */\n      dup6\n        /* \"#utility.yul\":1281:1287   */\n      dup3\n        /* \"#utility.yul\":1270:1279   */\n      dup7\n        /* \"#utility.yul\":1266:1288   */\n      add\n        /* \"#utility.yul\":1245:1298   */\n      tag_192\n      jump\t// in\n    tag_263:\n        /* \"#utility.yul\":1235:1298   */\n      swap2\n      pop\n        /* \"#utility.yul\":1190:1308   */\n      pop\n        /* \"#utility.yul\":841:1315   */\n      swap3\n      pop\n      swap3\n      swap1\n      pop\n      jump\t// out\n        /* \"#utility.yul\":1321:1411   */\n    tag_193:\n        /* \"#utility.yul\":1355:1362   */\n      0x00\n        /* \"#utility.yul\":1398:1403   */\n      dup2\n        /* \"#utility.yul\":1391:1404   */\n      iszero\n        /* \"#utility.yul\":1384:1405   */\n      iszero\n        /* \"#utility.yul\":1373:1405   */\n      swap1\n      pop\n        /* \"#utility.yul\":1321:1411   */\n      swap2\n      swap1\n      pop\n      jump\t// out\n        /* \"#utility.yul\":1417:1526   */\n    tag_194:\n        /* \"#utility.yul\":1498:1519   */\n      tag_266\n        /* \"#utility.yul\":1513:1518   */\n      dup2\n        /* \"#utility.yul\":1498:1519   */\n      tag_193\n      jump\t// in\n    tag_266:\n        /* \"#utility.yul\":1493:1496   */\n      dup3\n        /* \"#utility.yul\":1486:1520   */\n      mstore\n        /* \"#utility.yul\":1417:1526   */\n      pop\n      pop\n      jump\t// out\n        /* \"#utility.yul\":1532:1742   */\n    tag_25:\n        /* \"#utility.yul\":1619:1623   */\n      0x00\n        /* \"#utility.yul\":1657:1659   */\n      0x20\n        /* \"#utility.yul\":1646:1655   */\n      dup3\n        /* \"#utility.yul\":1642:1660   */\n      add\n        /* \"#utility.yul\":1634:1660   */\n      swap1\n      pop\n        /* \"#utility.yul\":1670:1735   */\n      tag_268\n        /* \"#utility.yul\":1732:1733   */\n      0x00\n        /* \"#utility.yul\":1721:1730   */\n      dup4\n        /* \"#utility.yul\":1717:1734   */\n      add\n        /* \"#utility.yul\":1708:1714   */\n      dup5\n        /* \"#utility.yul\":1670:1735   */\n      tag_194\n      jump\t// in\n    tag_268:\n        /* \"#utility.yul\":1532:1742   */\n      swap3\n      swap2\n      pop\n      pop\n      jump\t// out\n        /* \"#utility.yul\":1748:1825   */\n    tag_195:\n        /* \"#utility.yul\":1785:1792   */\n      0x00\n        /* \"#utility.yul\":1814:1819   */\n      dup2\n        /* \"#utility.yul\":1803:1819   */\n      swap1\n      pop\n        /* \"#utility.yul\":1748:1825   */\n      swap2\n      swap1\n      pop\n      jump\t// out\n        /* \"#utility.yul\":1831:1953   */\n    tag_196:\n        /* \"#utility.yul\":1904:1928   */\n      tag_271\n        /* \"#utility.yul\":1922:1927   */\n      dup2\n        /* \"#utility.yul\":1904:1928   */\n      tag_195\n      jump\t// in\n    tag_271:\n        /* \"#utility.yul\":1897:1902   */\n      dup2\n        /* \"#utility.yul\":1894:1929   */\n      eq\n        /* \"#utility.yul\":1884:1947   */\n      tag_272\n      jumpi\n        /* \"#utility.yul\":1943:1944   */\n      0x00\n        /* \"#utility.yul\":1940:1941   */\n      dup1\n        /* \"#utility.yul\":1933:1945   */\n      revert\n        /* \"#utility.yul\":1884:1947   */\n    tag_272:\n        /* \"#utility.yul\":1831:1953   */\n      pop\n      jump\t// out\n        /* \"#utility.yul\":1959:2098   */\n    tag_197:\n        /* \"#utility.yul\":2005:2010   */\n      0x00\n        /* \"#utility.yul\":2043:2049   */\n      dup2\n        /* \"#utility.yul\":2030:2050   */\n      calldataload\n        /* \"#utility.yul\":2021:2050   */\n      swap1\n      pop\n        /* \"#utility.yul\":2059:2092   */\n      tag_274\n        /* \"#utility.yul\":2086:2091   */\n      dup2\n        /* \"#utility.yul\":2059:2092   */\n      tag_196\n      jump\t// in\n    tag_274:\n        /* \"#utility.yul\":1959:2098   */\n      swap3\n      swap2\n      pop\n      pop\n      jump\t// out\n        /* \"#utility.yul\":2104:2578   */\n    tag_28:\n        /* \"#utility.yul\":2172:2178   */\n      0x00\n        /* \"#utility.yul\":2180:2186   */\n      dup1\n        /* \"#utility.yul\":2229:2231   */\n      0x40\n        /* \"#utility.yul\":2217:2226   */\n      dup4\n        /* \"#utility.yul\":2208:2215   */\n      dup6\n        /* \"#utility.yul\":2204:2227   */\n      sub\n        /* \"#utility.yul\":2200:2232   */\n      slt\n        /* \"#utility.yul\":2197:2316   */\n      iszero\n      tag_276\n      jumpi\n        /* \"#utility.yul\":2235:2314   */\n      tag_277\n      tag_187\n      jump\t// in\n    tag_277:\n        /* \"#utility.yul\":2197:2316   */\n    tag_276:\n        /* \"#utility.yul\":2355:2356   */\n      0x00\n        /* \"#utility.yul\":2380:2433   */\n      tag_278\n        /* \"#utility.yul\":2425:2432   */\n      dup6\n        /* \"#utility.yul\":2416:2422   */\n      dup3\n        /* \"#utility.yul\":2405:2414   */\n      dup7\n        /* \"#utility.yul\":2401:2423   */\n      add\n        /* \"#utility.yul\":2380:2433   */\n      tag_192\n      jump\t// in\n    tag_278:\n        /* \"#utility.yul\":2370:2433   */\n      swap3\n      pop\n        /* \"#utility.yul\":2326:2443   */\n      pop\n        /* \"#utility.yul\":2482:2484   */\n      0x20\n        /* \"#utility.yul\":2508:2561   */\n      tag_279\n        /* \"#utility.yul\":2553:2560   */\n      dup6\n        /* \"#utility.yul\":2544:2550   */\n      dup3\n        /* \"#utility.yul\":2533:2542   */\n      dup7\n        /* \"#utility.yul\":2529:2551   */\n      add\n        /* \"#utility.yul\":2508:2561   */\n      tag_197\n      jump\t// in\n    tag_279:\n        /* \"#utility.yul\":2498:2561   */\n      swap2\n      pop\n        /* \"#utility.yul\":2453:2571   */\n      pop\n        /* \"#utility.yul\":2104:2578   */\n      swap3\n      pop\n      swap3\n      swap1\n      pop\n      jump\t// out\n        /* \"#utility.yul\":2584:2702   */\n    tag_198:\n        /* \"#utility.yul\":2671:2695   */\n      tag_281\n        /* \"#utility.yul\":2689:2694   */\n      dup2\n        /* \"#utility.yul\":2671:2695   */\n      tag_195\n      jump\t// in\n    tag_281:\n        /* \"#utility.yul\":2666:2669   */\n      dup3\n        /* \"#utility.yul\":2659:2696   */\n      mstore\n        /* \"#utility.yul\":2584:2702   */\n      pop\n      pop\n      jump\t// out\n        /* \"#utility.yul\":2708:2807   */\n    tag_199:\n        /* \"#utility.yul\":2760:2766   */\n      0x00\n        /* \"#utility.yul\":2794:2799   */\n      dup2\n        /* \"#utility.yul\":2788:2800   */\n      mload\n        /* \"#utility.yul\":2778:2800   */\n      swap1\n      pop\n        /* \"#utility.yul\":2708:2807   */\n      swap2\n      swap1\n      pop\n      jump\t// out\n        /* \"#utility.yul\":2813:2982   */\n    tag_200:\n        /* \"#utility.yul\":2897:2908   */\n      0x00\n        /* \"#utility.yul\":2931:2937   */\n      dup3\n        /* \"#utility.yul\":2926:2929   */\n      dup3\n        /* \"#utility.yul\":2919:2938   */\n      mstore\n        /* \"#utility.yul\":2971:2975   */\n      0x20\n        /* \"#utility.yul\":2966:2969   */\n      dup3\n        /* \"#utility.yul\":2962:2976   */\n      add\n        /* \"#utility.yul\":2947:2976   */\n      swap1\n      pop\n        /* \"#utility.yul\":2813:2982   */\n      swap3\n      swap2\n      pop\n      pop\n      jump\t// out\n        /* \"#utility.yul\":2988:3234   */\n    tag_201:\n        /* \"#utility.yul\":3069:3070   */\n      0x00\n        /* \"#utility.yul\":3079:3192   */\n    tag_285:\n        /* \"#utility.yul\":3093:3099   */\n      dup4\n        /* \"#utility.yul\":3090:3091   */\n      dup2\n        /* \"#utility.yul\":3087:3100   */\n      lt\n        /* \"#utility.yul\":3079:3192   */\n      iszero\n      tag_287\n      jumpi\n        /* \"#utility.yul\":3178:3179   */\n      dup1\n        /* \"#utility.yul\":3173:3176   */\n      dup3\n        /* \"#utility.yul\":3169:3180   */\n      add\n        /* \"#utility.yul\":3163:3181   */\n      mload\n        /* \"#utility.yul\":3159:3160   */\n      dup2\n        /* \"#utility.yul\":3154:3157   */\n      dup5\n        /* \"#utility.yul\":3150:3161   */\n      add\n        /* \"#utility.yul\":3143:3182   */\n      mstore\n        /* \"#utility.yul\":3115:3117   */\n      0x20\n        /* \"#utility.yul\":3112:3113   */\n      dup2\n        /* \"#utility.yul\":3108:3118   */\n      add\n        /* \"#utility.yul\":3103:3118   */\n      swap1\n      pop\n        /* \"#utility.yul\":3079:3192   */\n      jump(tag_285)\n    tag_287:\n        /* \"#utility.yul\":3226:3227   */\n      0x00\n        /* \"#utility.yul\":3217:3223   */\n      dup5\n        /* \"#utility.yul\":3212:3215   */\n      dup5\n        /* \"#utility.yul\":3208:3224   */\n      add\n        /* \"#utility.yul\":3201:3228   */\n      mstore\n        /* \"#utility.yul\":3050:3234   */\n      pop\n        /* \"#utility.yul\":2988:3234   */\n      pop\n      pop\n      pop\n      jump\t// out\n        /* \"#utility.yul\":3240:3342   */\n    tag_202:\n        /* \"#utility.yul\":3281:3287   */\n      0x00\n        /* \"#utility.yul\":3332:3334   */\n      0x1f\n        /* \"#utility.yul\":3328:3335   */\n      not\n        /* \"#utility.yul\":3323:3325   */\n      0x1f\n        /* \"#utility.yul\":3316:3321   */\n      dup4\n        /* \"#utility.yul\":3312:3326   */\n      add\n        /* \"#utility.yul\":3308:3336   */\n      and\n        /* \"#utility.yul\":3298:3336   */\n      swap1\n      pop\n        /* \"#utility.yul\":3240:3342   */\n      swap2\n      swap1\n      pop\n      jump\t// out\n        /* \"#utility.yul\":3348:3725   */\n    tag_203:\n        /* \"#utility.yul\":3436:3439   */\n      0x00\n        /* \"#utility.yul\":3464:3503   */\n      tag_290\n        /* \"#utility.yul\":3497:3502   */\n      dup3\n        /* \"#utility.yul\":3464:3503   */\n      tag_199\n      jump\t// in\n    tag_290:\n        /* \"#utility.yul\":3519:3590   */\n      tag_291\n        /* \"#utility.yul\":3583:3589   */\n      dup2\n        /* \"#utility.yul\":3578:3581   */\n      dup6\n        /* \"#utility.yul\":3519:3590   */\n      tag_200\n      jump\t// in\n    tag_291:\n        /* \"#utility.yul\":3512:3590   */\n      swap4\n      pop\n        /* \"#utility.yul\":3599:3664   */\n      tag_292\n        /* \"#utility.yul\":3657:3663   */\n      dup2\n        /* \"#utility.yul\":3652:3655   */\n      dup6\n        /* \"#utility.yul\":3645:3649   */\n      0x20\n        /* \"#utility.yul\":3638:3643   */\n      dup7\n        /* \"#utility.yul\":3634:3650   */\n      add\n        /* \"#utility.yul\":3599:3664   */\n      tag_201\n      jump\t// in\n    tag_292:\n        /* \"#utility.yul\":3689:3718   */\n      tag_293\n        /* \"#utility.yul\":3711:3717   */\n      dup2\n        /* \"#utility.yul\":3689:3718   */\n      tag_202\n      jump\t// in\n    tag_293:\n        /* \"#utility.yul\":3684:3687   */\n      dup5\n        /* \"#utility.yul\":3680:3719   */\n      add\n        /* \"#utility.yul\":3673:3719   */\n      swap2\n      pop\n        /* \"#utility.yul\":3440:3725   */\n      pop\n        /* \"#utility.yul\":3348:3725   */\n      swap3\n      swap2\n      pop\n      pop\n      jump\t// out\n        /* \"#utility.yul\":3731:3849   */\n    tag_204:\n        /* \"#utility.yul\":3818:3842   */\n      tag_295\n        /* \"#utility.yul\":3836:3841   */\n      dup2\n        /* \"#utility.yul\":3818:3842   */\n      tag_190\n      jump\t// in\n    tag_295:\n        /* \"#utility.yul\":3813:3816   */\n      dup3\n        /* \"#utility.yul\":3806:3843   */\n      mstore\n        /* \"#utility.yul\":3731:3849   */\n      pop\n      pop\n      jump\t// out\n        /* \"#utility.yul\":3855:4610   */\n    tag_31:\n        /* \"#utility.yul\":4080:4084   */\n      0x00\n        /* \"#utility.yul\":4118:4121   */\n      0xa0\n        /* \"#utility.yul\":4107:4116   */\n      dup3\n        /* \"#utility.yul\":4103:4122   */\n      add\n        /* \"#utility.yul\":4095:4122   */\n      swap1\n      pop\n        /* \"#utility.yul\":4132:4203   */\n      tag_297\n        /* \"#utility.yul\":4200:4201   */\n      0x00\n        /* \"#utility.yul\":4189:4198   */\n      dup4\n        /* \"#utility.yul\":4185:4202   */\n      add\n        /* \"#utility.yul\":4176:4182   */\n      dup9\n        /* \"#utility.yul\":4132:4203   */\n      tag_198\n      jump\t// in\n    tag_297:\n        /* \"#utility.yul\":4250:4259   */\n      dup2\n        /* \"#utility.yul\":4244:4248   */\n      dup2\n        /* \"#utility.yul\":4240:4260   */\n      sub\n        /* \"#utility.yul\":4235:4237   */\n      0x20\n        /* \"#utility.yul\":4224:4233   */\n      dup4\n        /* \"#utility.yul\":4220:4238   */\n      add\n        /* \"#utility.yul\":4213:4261   */\n      mstore\n        /* \"#utility.yul\":4278:4356   */\n      tag_298\n        /* \"#utility.yul\":4351:4355   */\n      dup2\n        /* \"#utility.yul\":4342:4348   */\n      dup8\n        /* \"#utility.yul\":4278:4356   */\n      tag_203\n      jump\t// in\n    tag_298:\n        /* \"#utility.yul\":4270:4356   */\n      swap1\n      pop\n        /* \"#utility.yul\":4366:4438   */\n      tag_299\n        /* \"#utility.yul\":4434:4436   */\n      0x40\n        /* \"#utility.yul\":4423:4432   */\n      dup4\n        /* \"#utility.yul\":4419:4437   */\n      add\n        /* \"#utility.yul\":4410:4416   */\n      dup7\n        /* \"#utility.yul\":4366:4438   */\n      tag_204\n      jump\t// in\n    tag_299:\n        /* \"#utility.yul\":4448:4520   */\n      tag_300\n        /* \"#utility.yul\":4516:4518   */\n      0x60\n        /* \"#utility.yul\":4505:4514   */\n      dup4\n        /* \"#utility.yul\":4501:4519   */\n      add\n        /* \"#utility.yul\":4492:4498   */\n      dup6\n        /* \"#utility.yul\":4448:4520   */\n      tag_204\n      jump\t// in\n    tag_300:\n        /* \"#utility.yul\":4530:4603   */\n      tag_301\n        /* \"#utility.yul\":4598:4601   */\n      0x80\n        /* \"#utility.yul\":4587:4596   */\n      dup4\n        /* \"#utility.yul\":4583:4602   */\n      add\n        /* \"#utility.yul\":4574:4580   */\n      dup5\n        /* \"#utility.yul\":4530:4603   */\n      tag_198\n      jump\t// in\n    tag_301:\n        /* \"#utility.yul\":3855:4610   */\n      swap7\n      swap6\n      pop\n      pop\n      pop\n      pop\n      pop\n      pop\n      jump\t// out\n        /* \"#utility.yul\":4616:4945   */\n    tag_34:\n        /* \"#utility.yul\":4675:4681   */\n      0x00\n        /* \"#utility.yul\":4724:4726   */\n      0x20\n        /* \"#utility.yul\":4712:4721   */\n      dup3\n        /* \"#utility.yul\":4703:4710   */\n      dup5\n        /* \"#utility.yul\":4699:4722   */\n      sub\n        /* \"#utility.yul\":4695:4727   */\n      slt\n        /* \"#utility.yul\":4692:4811   */\n      iszero\n      tag_303\n      jumpi\n        /* \"#utility.yul\":4730:4809   */\n      tag_304\n      tag_187\n      jump\t// in\n    tag_304:\n        /* \"#utility.yul\":4692:4811   */\n    tag_303:\n        /* \"#utility.yul\":4850:4851   */\n      0x00\n        /* \"#utility.yul\":4875:4928   */\n      tag_305\n        /* \"#utility.yul\":4920:4927   */\n      dup5\n        /* \"#utility.yul\":4911:4917   */\n      dup3\n        /* \"#utility.yul\":4900:4909   */\n      dup6\n        /* \"#utility.yul\":4896:4918   */\n      add\n        /* \"#utility.yul\":4875:4928   */\n      tag_192\n      jump\t// in\n    tag_305:\n        /* \"#utility.yul\":4865:4928   */\n      swap2\n      pop\n        /* \"#utility.yul\":4821:4938   */\n      pop\n        /* \"#utility.yul\":4616:4945   */\n      swap3\n      swap2\n      pop\n      pop\n      jump\t// out\n        /* \"#utility.yul\":4951:5280   */\n    tag_38:\n        /* \"#utility.yul\":5010:5016   */\n      0x00\n        /* \"#utility.yul\":5059:5061   */\n      0x20\n        /* \"#utility.yul\":5047:5056   */\n      dup3\n        /* \"#utility.yul\":5038:5045   */\n      dup5\n        /* \"#utility.yul\":5034:5057   */\n      sub\n        /* \"#utility.yul\":5030:5062   */\n      slt\n        /* \"#utility.yul\":5027:5146   */\n      iszero\n      tag_307\n      jumpi\n        /* \"#utility.yul\":5065:5144   */\n      tag_308\n      tag_187\n      jump\t// in\n    tag_308:\n        /* \"#utility.yul\":5027:5146   */\n    tag_307:\n        /* \"#utility.yul\":5185:5186   */\n      0x00\n        /* \"#utility.yul\":5210:5263   */\n      tag_309\n        /* \"#utility.yul\":5255:5262   */\n      dup5\n        /* \"#utility.yul\":5246:5252   */\n      dup3\n        /* \"#utility.yul\":5235:5244   */\n      dup6\n        /* \"#utility.yul\":5231:5253   */\n      add\n        /* \"#utility.yul\":5210:5263   */\n      tag_197\n      jump\t// in\n    tag_309:\n        /* \"#utility.yul\":5200:5263   */\n      swap2\n      pop\n        /* \"#utility.yul\":5156:5273   */\n      pop\n        /* \"#utility.yul\":4951:5280   */\n      swap3\n      swap2\n      pop\n      pop\n      jump\t// out\n        /* \"#utility.yul\":5286:5421   */\n    tag_205:\n        /* \"#utility.yul\":5374:5380   */\n      0x00\n        /* \"#utility.yul\":5408:5413   */\n      dup2\n        /* \"#utility.yul\":5402:5414   */\n      mload\n        /* \"#utility.yul\":5392:5414   */\n      swap1\n      pop\n        /* \"#utility.yul\":5286:5421   */\n      swap2\n      swap1\n      pop\n      jump\t// out\n        /* \"#utility.yul\":5427:5632   */\n    tag_206:\n        /* \"#utility.yul\":5547:5558   */\n      0x00\n        /* \"#utility.yul\":5581:5587   */\n      dup3\n        /* \"#utility.yul\":5576:5579   */\n      dup3\n        /* \"#utility.yul\":5569:5588   */\n      mstore\n        /* \"#utility.yul\":5621:5625   */\n      0x20\n        /* \"#utility.yul\":5616:5619   */\n      dup3\n        /* \"#utility.yul\":5612:5626   */\n      add\n        /* \"#utility.yul\":5597:5626   */\n      swap1\n      pop\n        /* \"#utility.yul\":5427:5632   */\n      swap3\n      swap2\n      pop\n      pop\n      jump\t// out\n        /* \"#utility.yul\":5638:5791   */\n    tag_207:\n        /* \"#utility.yul\":5726:5730   */\n      0x00\n        /* \"#utility.yul\":5749:5752   */\n      dup2\n        /* \"#utility.yul\":5741:5752   */\n      swap1\n      pop\n        /* \"#utility.yul\":5779:5783   */\n      0x20\n        /* \"#utility.yul\":5774:5777   */\n      dup3\n        /* \"#utility.yul\":5770:5784   */\n      add\n        /* \"#utility.yul\":5762:5784   */\n      swap1\n      pop\n        /* \"#utility.yul\":5638:5791   */\n      swap2\n      swap1\n      pop\n      jump\t// out\n        /* \"#utility.yul\":5797:5905   */\n    tag_208:\n        /* \"#utility.yul\":5874:5898   */\n      tag_314\n        /* \"#utility.yul\":5892:5897   */\n      dup2\n        /* \"#utility.yul\":5874:5898   */\n      tag_195\n      jump\t// in\n    tag_314:\n        /* \"#utility.yul\":5869:5872   */\n      dup3\n        /* \"#utility.yul\":5862:5899   */\n      mstore\n        /* \"#utility.yul\":5797:5905   */\n      pop\n      pop\n      jump\t// out\n        /* \"#utility.yul\":5911:6019   */\n    tag_209:\n        /* \"#utility.yul\":5988:6012   */\n      tag_316\n        /* \"#utility.yul\":6006:6011   */\n      dup2\n        /* \"#utility.yul\":5988:6012   */\n      tag_190\n      jump\t// in\n    tag_316:\n        /* \"#utility.yul\":5983:5986   */\n      dup3\n        /* \"#utility.yul\":5976:6013   */\n      mstore\n        /* \"#utility.yul\":5911:6019   */\n      pop\n      pop\n      jump\t// out\n        /* \"#utility.yul\":6025:6184   */\n    tag_210:\n        /* \"#utility.yul\":6099:6110   */\n      0x00\n        /* \"#utility.yul\":6133:6139   */\n      dup3\n        /* \"#utility.yul\":6128:6131   */\n      dup3\n        /* \"#utility.yul\":6121:6140   */\n      mstore\n        /* \"#utility.yul\":6173:6177   */\n      0x20\n        /* \"#utility.yul\":6168:6171   */\n      dup3\n        /* \"#utility.yul\":6164:6178   */\n      add\n        /* \"#utility.yul\":6149:6178   */\n      swap1\n      pop\n        /* \"#utility.yul\":6025:6184   */\n      swap3\n      swap2\n      pop\n      pop\n      jump\t// out\n        /* \"#utility.yul\":6190:6547   */\n    tag_211:\n        /* \"#utility.yul\":6268:6271   */\n      0x00\n        /* \"#utility.yul\":6296:6335   */\n      tag_319\n        /* \"#utility.yul\":6329:6334   */\n      dup3\n        /* \"#utility.yul\":6296:6335   */\n      tag_199\n      jump\t// in\n    tag_319:\n        /* \"#utility.yul\":6351:6412   */\n      tag_320\n        /* \"#utility.yul\":6405:6411   */\n      dup2\n        /* \"#utility.yul\":6400:6403   */\n      dup6\n        /* \"#utility.yul\":6351:6412   */\n      tag_210\n      jump\t// in\n    tag_320:\n        /* \"#utility.yul\":6344:6412   */\n      swap4\n      pop\n        /* \"#utility.yul\":6421:6486   */\n      tag_321\n        /* \"#utility.yul\":6479:6485   */\n      dup2\n        /* \"#utility.yul\":6474:6477   */\n      dup6\n        /* \"#utility.yul\":6467:6471   */\n      0x20\n        /* \"#utility.yul\":6460:6465   */\n      dup7\n        /* \"#utility.yul\":6456:6472   */\n      add\n        /* \"#utility.yul\":6421:6486   */\n      tag_201\n      jump\t// in\n    tag_321:\n        /* \"#utility.yul\":6511:6540   */\n      tag_322\n        /* \"#utility.yul\":6533:6539   */\n      dup2\n        /* \"#utility.yul\":6511:6540   */\n      tag_202\n      jump\t// in\n    tag_322:\n        /* \"#utility.yul\":6506:6509   */\n      dup5\n        /* \"#utility.yul\":6502:6541   */\n      add\n        /* \"#utility.yul\":6495:6541   */\n      swap2\n      pop\n        /* \"#utility.yul\":6272:6547   */\n      pop\n        /* \"#utility.yul\":6190:6547   */\n      swap3\n      swap2\n      pop\n      pop\n      jump\t// out\n        /* \"#utility.yul\":6617:7561   */\n    tag_212:\n        /* \"#utility.yul\":6718:6721   */\n      0x00\n        /* \"#utility.yul\":6754:6758   */\n      0x80\n        /* \"#utility.yul\":6749:6752   */\n      dup4\n        /* \"#utility.yul\":6745:6759   */\n      add\n        /* \"#utility.yul\":6839:6843   */\n      0x00\n        /* \"#utility.yul\":6832:6837   */\n      dup4\n        /* \"#utility.yul\":6828:6844   */\n      add\n        /* \"#utility.yul\":6822:6845   */\n      mload\n        /* \"#utility.yul\":6858:6921   */\n      tag_324\n        /* \"#utility.yul\":6915:6919   */\n      0x00\n        /* \"#utility.yul\":6910:6913   */\n      dup7\n        /* \"#utility.yul\":6906:6920   */\n      add\n        /* \"#utility.yul\":6892:6904   */\n      dup3\n        /* \"#utility.yul\":6858:6921   */\n      tag_208\n      jump\t// in\n    tag_324:\n        /* \"#utility.yul\":6769:6931   */\n      pop\n        /* \"#utility.yul\":7015:7019   */\n      0x20\n        /* \"#utility.yul\":7008:7013   */\n      dup4\n        /* \"#utility.yul\":7004:7020   */\n      add\n        /* \"#utility.yul\":6998:7021   */\n      mload\n        /* \"#utility.yul\":7034:7097   */\n      tag_325\n        /* \"#utility.yul\":7091:7095   */\n      0x20\n        /* \"#utility.yul\":7086:7089   */\n      dup7\n        /* \"#utility.yul\":7082:7096   */\n      add\n        /* \"#utility.yul\":7068:7080   */\n      dup3\n        /* \"#utility.yul\":7034:7097   */\n      tag_209\n      jump\t// in\n    tag_325:\n        /* \"#utility.yul\":6941:7107   */\n      pop\n        /* \"#utility.yul\":7192:7196   */\n      0x40\n        /* \"#utility.yul\":7185:7190   */\n      dup4\n        /* \"#utility.yul\":7181:7197   */\n      add\n        /* \"#utility.yul\":7175:7198   */\n      mload\n        /* \"#utility.yul\":7245:7248   */\n      dup5\n        /* \"#utility.yul\":7239:7243   */\n      dup3\n        /* \"#utility.yul\":7235:7249   */\n      sub\n        /* \"#utility.yul\":7228:7232   */\n      0x40\n        /* \"#utility.yul\":7223:7226   */\n      dup7\n        /* \"#utility.yul\":7219:7233   */\n      add\n        /* \"#utility.yul\":7212:7250   */\n      mstore\n        /* \"#utility.yul\":7271:7344   */\n      tag_326\n        /* \"#utility.yul\":7339:7343   */\n      dup3\n        /* \"#utility.yul\":7325:7337   */\n      dup3\n        /* \"#utility.yul\":7271:7344   */\n      tag_211\n      jump\t// in\n    tag_326:\n        /* \"#utility.yul\":7263:7344   */\n      swap2\n      pop\n        /* \"#utility.yul\":7117:7355   */\n      pop\n        /* \"#utility.yul\":7442:7446   */\n      0x60\n        /* \"#utility.yul\":7435:7440   */\n      dup4\n        /* \"#utility.yul\":7431:7447   */\n      add\n        /* \"#utility.yul\":7425:7448   */\n      mload\n        /* \"#utility.yul\":7461:7524   */\n      tag_327\n        /* \"#utility.yul\":7518:7522   */\n      0x60\n        /* \"#utility.yul\":7513:7516   */\n      dup7\n        /* \"#utility.yul\":7509:7523   */\n      add\n        /* \"#utility.yul\":7495:7507   */\n      dup3\n        /* \"#utility.yul\":7461:7524   */\n      tag_208\n      jump\t// in\n    tag_327:\n        /* \"#utility.yul\":7365:7534   */\n      pop\n        /* \"#utility.yul\":7551:7555   */\n      dup1\n        /* \"#utility.yul\":7544:7555   */\n      swap2\n      pop\n        /* \"#utility.yul\":6723:7561   */\n      pop\n        /* \"#utility.yul\":6617:7561   */\n      swap3\n      swap2\n      pop\n      pop\n      jump\t// out\n        /* \"#utility.yul\":7567:7807   */\n    tag_213:\n        /* \"#utility.yul\":7678:7688   */\n      0x00\n        /* \"#utility.yul\":7713:7801   */\n      tag_329\n        /* \"#utility.yul\":7797:7800   */\n      dup4\n        /* \"#utility.yul\":7789:7795   */\n      dup4\n        /* \"#utility.yul\":7713:7801   */\n      tag_212\n      jump\t// in\n    tag_329:\n        /* \"#utility.yul\":7699:7801   */\n      swap1\n      pop\n        /* \"#utility.yul\":7567:7807   */\n      swap3\n      swap2\n      pop\n      pop\n      jump\t// out\n        /* \"#utility.yul\":7813:7947   */\n    tag_214:\n        /* \"#utility.yul\":7904:7908   */\n      0x00\n        /* \"#utility.yul\":7936:7940   */\n      0x20\n        /* \"#utility.yul\":7931:7934   */\n      dup3\n        /* \"#utility.yul\":7927:7941   */\n      add\n        /* \"#utility.yul\":7919:7941   */\n      swap1\n      pop\n        /* \"#utility.yul\":7813:7947   */\n      swap2\n      swap1\n      pop\n      jump\t// out\n        /* \"#utility.yul\":8021:9100   */\n    tag_215:\n        /* \"#utility.yul\":8182:8185   */\n      0x00\n        /* \"#utility.yul\":8211:8286   */\n      tag_332\n        /* \"#utility.yul\":8280:8285   */\n      dup3\n        /* \"#utility.yul\":8211:8286   */\n      tag_205\n      jump\t// in\n    tag_332:\n        /* \"#utility.yul\":8302:8409   */\n      tag_333\n        /* \"#utility.yul\":8402:8408   */\n      dup2\n        /* \"#utility.yul\":8397:8400   */\n      dup6\n        /* \"#utility.yul\":8302:8409   */\n      tag_206\n      jump\t// in\n    tag_333:\n        /* \"#utility.yul\":8295:8409   */\n      swap4\n      pop\n        /* \"#utility.yul\":8435:8438   */\n      dup4\n        /* \"#utility.yul\":8480:8484   */\n      0x20\n        /* \"#utility.yul\":8472:8478   */\n      dup3\n        /* \"#utility.yul\":8468:8485   */\n      mul\n        /* \"#utility.yul\":8463:8466   */\n      dup6\n        /* \"#utility.yul\":8459:8486   */\n      add\n        /* \"#utility.yul\":8510:8587   */\n      tag_334\n        /* \"#utility.yul\":8581:8586   */\n      dup6\n        /* \"#utility.yul\":8510:8587   */\n      tag_207\n      jump\t// in\n    tag_334:\n        /* \"#utility.yul\":8610:8617   */\n      dup1\n        /* \"#utility.yul\":8641:8642   */\n      0x00\n        /* \"#utility.yul\":8626:9055   */\n    tag_335:\n        /* \"#utility.yul\":8651:8657   */\n      dup6\n        /* \"#utility.yul\":8648:8649   */\n      dup2\n        /* \"#utility.yul\":8645:8658   */\n      lt\n        /* \"#utility.yul\":8626:9055   */\n      iszero\n      tag_337\n      jumpi\n        /* \"#utility.yul\":8722:8731   */\n      dup5\n        /* \"#utility.yul\":8716:8720   */\n      dup5\n        /* \"#utility.yul\":8712:8732   */\n      sub\n        /* \"#utility.yul\":8707:8710   */\n      dup10\n        /* \"#utility.yul\":8700:8733   */\n      mstore\n        /* \"#utility.yul\":8773:8779   */\n      dup2\n        /* \"#utility.yul\":8767:8780   */\n      mload\n        /* \"#utility.yul\":8801:8907   */\n      tag_338\n        /* \"#utility.yul\":8902:8906   */\n      dup6\n        /* \"#utility.yul\":8887:8900   */\n      dup3\n        /* \"#utility.yul\":8801:8907   */\n      tag_213\n      jump\t// in\n    tag_338:\n        /* \"#utility.yul\":8793:8907   */\n      swap5\n      pop\n        /* \"#utility.yul\":8930:9011   */\n      tag_339\n        /* \"#utility.yul\":9004:9010   */\n      dup4\n        /* \"#utility.yul\":8930:9011   */\n      tag_214\n      jump\t// in\n    tag_339:\n        /* \"#utility.yul\":8920:9011   */\n      swap3\n      pop\n        /* \"#utility.yul\":9040:9044   */\n      0x20\n        /* \"#utility.yul\":9035:9038   */\n      dup11\n        /* \"#utility.yul\":9031:9045   */\n      add\n        /* \"#utility.yul\":9024:9045   */\n      swap10\n      pop\n        /* \"#utility.yul\":8686:9055   */\n      pop\n        /* \"#utility.yul\":8673:8674   */\n      0x01\n        /* \"#utility.yul\":8670:8671   */\n      dup2\n        /* \"#utility.yul\":8666:8675   */\n      add\n        /* \"#utility.yul\":8661:8675   */\n      swap1\n      pop\n        /* \"#utility.yul\":8626:9055   */\n      jump(tag_335)\n    tag_337:\n        /* \"#utility.yul\":8630:8644   */\n      pop\n        /* \"#utility.yul\":9071:9075   */\n      dup3\n        /* \"#utility.yul\":9064:9075   */\n      swap8\n      pop\n        /* \"#utility.yul\":9091:9094   */\n      dup8\n        /* \"#utility.yul\":9084:9094   */\n      swap6\n      pop\n        /* \"#utility.yul\":8187:9100   */\n      pop\n      pop\n      pop\n      pop\n      pop\n        /* \"#utility.yul\":8021:9100   */\n      swap3\n      swap2\n      pop\n      pop\n      jump\t// out\n        /* \"#utility.yul\":9106:9563   */\n    tag_41:\n        /* \"#utility.yul\":9291:9295   */\n      0x00\n        /* \"#utility.yul\":9329:9331   */\n      0x20\n        /* \"#utility.yul\":9318:9327   */\n      dup3\n        /* \"#utility.yul\":9314:9332   */\n      add\n        /* \"#utility.yul\":9306:9332   */\n      swap1\n      pop\n        /* \"#utility.yul\":9378:9387   */\n      dup2\n        /* \"#utility.yul\":9372:9376   */\n      dup2\n        /* \"#utility.yul\":9368:9388   */\n      sub\n        /* \"#utility.yul\":9364:9365   */\n      0x00\n        /* \"#utility.yul\":9353:9362   */\n      dup4\n        /* \"#utility.yul\":9349:9366   */\n      add\n        /* \"#utility.yul\":9342:9389   */\n      mstore\n        /* \"#utility.yul\":9406:9556   */\n      tag_341\n        /* \"#utility.yul\":9551:9555   */\n      dup2\n        /* \"#utility.yul\":9542:9548   */\n      dup5\n        /* \"#utility.yul\":9406:9556   */\n      tag_215\n      jump\t// in\n    tag_341:\n        /* \"#utility.yul\":9398:9556   */\n      swap1\n      pop\n        /* \"#utility.yul\":9106:9563   */\n      swap3\n      swap2\n      pop\n      pop\n      jump\t// out\n        /* \"#utility.yul\":9569:9791   */\n    tag_50:\n        /* \"#utility.yul\":9662:9666   */\n      0x00\n        /* \"#utility.yul\":9700:9702   */\n      0x20\n        /* \"#utility.yul\":9689:9698   */\n      dup3\n        /* \"#utility.yul\":9685:9703   */\n      add\n        /* \"#utility.yul\":9677:9703   */\n      swap1\n      pop\n        /* \"#utility.yul\":9713:9784   */\n      tag_343\n        /* \"#utility.yul\":9781:9782   */\n      0x00\n        /* \"#utility.yul\":9770:9779   */\n      dup4\n        /* \"#utility.yul\":9766:9783   */\n      add\n        /* \"#utility.yul\":9757:9763   */\n      dup5\n        /* \"#utility.yul\":9713:9784   */\n      tag_204\n      jump\t// in\n    tag_343:\n        /* \"#utility.yul\":9569:9791   */\n      swap3\n      swap2\n      pop\n      pop\n      jump\t// out\n        /* \"#utility.yul\":9797:10019   */\n    tag_58:\n        /* \"#utility.yul\":9890:9894   */\n      0x00\n        /* \"#utility.yul\":9928:9930   */\n      0x20\n        /* \"#utility.yul\":9917:9926   */\n      dup3\n        /* \"#utility.yul\":9913:9931   */\n      add\n        /* \"#utility.yul\":9905:9931   */\n      swap1\n      pop\n        /* \"#utility.yul\":9941:10012   */\n      tag_345\n        /* \"#utility.yul\":10009:10010   */\n      0x00\n        /* \"#utility.yul\":9998:10007   */\n      dup4\n        /* \"#utility.yul\":9994:10011   */\n      add\n        /* \"#utility.yul\":9985:9991   */\n      dup5\n        /* \"#utility.yul\":9941:10012   */\n      tag_198\n      jump\t// in\n    tag_345:\n        /* \"#utility.yul\":9797:10019   */\n      swap3\n      swap2\n      pop\n      pop\n      jump\t// out\n        /* \"#utility.yul\":10025:10142   */\n    tag_216:\n        /* \"#utility.yul\":10134:10135   */\n      0x00\n        /* \"#utility.yul\":10131:10132   */\n      dup1\n        /* \"#utility.yul\":10124:10136   */\n      revert\n        /* \"#utility.yul\":10148:10265   */\n    tag_217:\n        /* \"#utility.yul\":10257:10258   */\n      0x00\n        /* \"#utility.yul\":10254:10255   */\n      dup1\n        /* \"#utility.yul\":10247:10259   */\n      revert\n        /* \"#utility.yul\":10271:10451   */\n    tag_100:\n        /* \"#utility.yul\":10319:10396   */\n      0x4e487b7100000000000000000000000000000000000000000000000000000000\n        /* \"#utility.yul\":10316:10317   */\n      0x00\n        /* \"#utility.yul\":10309:10397   */\n      mstore\n        /* \"#utility.yul\":10416:10420   */\n      0x41\n        /* \"#utility.yul\":10413:10414   */\n      0x04\n        /* \"#utility.yul\":10406:10421   */\n      mstore\n        /* \"#utility.yul\":10440:10444   */\n      0x24\n        /* \"#utility.yul\":10437:10438   */\n      0x00\n        /* \"#utility.yul\":10430:10445   */\n      revert\n        /* \"#utility.yul\":10457:10738   */\n    tag_218:\n        /* \"#utility.yul\":10540:10567   */\n      tag_350\n        /* \"#utility.yul\":10562:10566   */\n      dup3\n        /* \"#utility.yul\":10540:10567   */\n      tag_202\n      jump\t// in\n    tag_350:\n        /* \"#utility.yul\":10532:10538   */\n      dup2\n        /* \"#utility.yul\":10528:10568   */\n      add\n        /* \"#utility.yul\":10670:10676   */\n      dup2\n        /* \"#utility.yul\":10658:10668   */\n      dup2\n        /* \"#utility.yul\":10655:10677   */\n      lt\n        /* \"#utility.yul\":10634:10652   */\n      0xffffffffffffffff\n        /* \"#utility.yul\":10622:10632   */\n      dup3\n        /* \"#utility.yul\":10619:10653   */\n      gt\n        /* \"#utility.yul\":10616:10678   */\n      or\n        /* \"#utility.yul\":10613:10701   */\n      iszero\n      tag_351\n      jumpi\n        /* \"#utility.yul\":10681:10699   */\n      tag_352\n      tag_100\n      jump\t// in\n    tag_352:\n        /* \"#utility.yul\":10613:10701   */\n    tag_351:\n        /* \"#utility.yul\":10721:10731   */\n      dup1\n        /* \"#utility.yul\":10717:10719   */\n      0x40\n        /* \"#utility.yul\":10710:10732   */\n      mstore\n        /* \"#utility.yul\":10500:10738   */\n      pop\n        /* \"#utility.yul\":10457:10738   */\n      pop\n      pop\n      jump\t// out\n        /* \"#utility.yul\":10744:10873   */\n    tag_219:\n        /* \"#utility.yul\":10778:10784   */\n      0x00\n        /* \"#utility.yul\":10805:10825   */\n      tag_354\n      tag_186\n      jump\t// in\n    tag_354:\n        /* \"#utility.yul\":10795:10825   */\n      swap1\n      pop\n        /* \"#utility.yul\":10834:10867   */\n      tag_355\n        /* \"#utility.yul\":10862:10866   */\n      dup3\n        /* \"#utility.yul\":10854:10860   */\n      dup3\n        /* \"#utility.yul\":10834:10867   */\n      tag_218\n      jump\t// in\n    tag_355:\n        /* \"#utility.yul\":10744:10873   */\n      swap2\n      swap1\n      pop\n      jump\t// out\n        /* \"#utility.yul\":10879:11187   */\n    tag_220:\n        /* \"#utility.yul\":10941:10945   */\n      0x00\n        /* \"#utility.yul\":11031:11049   */\n      0xffffffffffffffff\n        /* \"#utility.yul\":11023:11029   */\n      dup3\n        /* \"#utility.yul\":11020:11050   */\n      gt\n        /* \"#utility.yul\":11017:11073   */\n      iszero\n      tag_357\n      jumpi\n        /* \"#utility.yul\":11053:11071   */\n      tag_358\n      tag_100\n      jump\t// in\n    tag_358:\n        /* \"#utility.yul\":11017:11073   */\n    tag_357:\n        /* \"#utility.yul\":11091:11120   */\n      tag_359\n        /* \"#utility.yul\":11113:11119   */\n      dup3\n        /* \"#utility.yul\":11091:11120   */\n      tag_202\n      jump\t// in\n    tag_359:\n        /* \"#utility.yul\":11083:11120   */\n      swap1\n      pop\n        /* \"#utility.yul\":11175:11179   */\n      0x20\n        /* \"#utility.yul\":11169:11173   */\n      dup2\n        /* \"#utility.yul\":11165:11180   */\n      add\n        /* \"#utility.yul\":11157:11180   */\n      swap1\n      pop\n        /* \"#utility.yul\":10879:11187   */\n      swap2\n      swap1\n      pop\n      jump\t// out\n        /* \"#utility.yul\":11193:11339   */\n    tag_221:\n        /* \"#utility.yul\":11290:11296   */\n      dup3\n        /* \"#utility.yul\":11285:11288   */\n      dup2\n        /* \"#utility.yul\":11280:11283   */\n      dup4\n        /* \"#utility.yul\":11267:11297   */\n      calldatacopy\n        /* \"#utility.yul\":11331:11332   */\n      0x00\n        /* \"#utility.yul\":11322:11328   */\n      dup4\n        /* \"#utility.yul\":11317:11320   */\n      dup4\n        /* \"#utility.yul\":11313:11329   */\n      add\n        /* \"#utility.yul\":11306:11333   */\n      mstore\n        /* \"#utility.yul\":11193:11339   */\n      pop\n      pop\n      pop\n      jump\t// out\n        /* \"#utility.yul\":11345:11770   */\n    tag_222:\n        /* \"#utility.yul\":11423:11428   */\n      0x00\n        /* \"#utility.yul\":11448:11514   */\n      tag_362\n        /* \"#utility.yul\":11464:11513   */\n      tag_363\n        /* \"#utility.yul\":11506:11512   */\n      dup5\n        /* \"#utility.yul\":11464:11513   */\n      tag_220\n      jump\t// in\n    tag_363:\n        /* \"#utility.yul\":11448:11514   */\n      tag_219\n      jump\t// in\n    tag_362:\n        /* \"#utility.yul\":11439:11514   */\n      swap1\n      pop\n        /* \"#utility.yul\":11537:11543   */\n      dup3\n        /* \"#utility.yul\":11530:11535   */\n      dup2\n        /* \"#utility.yul\":11523:11544   */\n      mstore\n        /* \"#utility.yul\":11575:11579   */\n      0x20\n        /* \"#utility.yul\":11568:11573   */\n      dup2\n        /* \"#utility.yul\":11564:11580   */\n      add\n        /* \"#utility.yul\":11613:11616   */\n      dup5\n        /* \"#utility.yul\":11604:11610   */\n      dup5\n        /* \"#utility.yul\":11599:11602   */\n      dup5\n        /* \"#utility.yul\":11595:11611   */\n      add\n        /* \"#utility.yul\":11592:11617   */\n      gt\n        /* \"#utility.yul\":11589:11701   */\n      iszero\n      tag_364\n      jumpi\n        /* \"#utility.yul\":11620:11699   */\n      tag_365\n      tag_217\n      jump\t// in\n    tag_365:\n        /* \"#utility.yul\":11589:11701   */\n    tag_364:\n        /* \"#utility.yul\":11710:11764   */\n      tag_366\n        /* \"#utility.yul\":11757:11763   */\n      dup5\n        /* \"#utility.yul\":11752:11755   */\n      dup3\n        /* \"#utility.yul\":11747:11750   */\n      dup6\n        /* \"#utility.yul\":11710:11764   */\n      tag_221\n      jump\t// in\n    tag_366:\n        /* \"#utility.yul\":11429:11770   */\n      pop\n        /* \"#utility.yul\":11345:11770   */\n      swap4\n      swap3\n      pop\n      pop\n      pop\n      jump\t// out\n        /* \"#utility.yul\":11790:12130   */\n    tag_223:\n        /* \"#utility.yul\":11846:11851   */\n      0x00\n        /* \"#utility.yul\":11895:11898   */\n      dup3\n        /* \"#utility.yul\":11888:11892   */\n      0x1f\n        /* \"#utility.yul\":11880:11886   */\n      dup4\n        /* \"#utility.yul\":11876:11893   */\n      add\n        /* \"#utility.yul\":11872:11899   */\n      slt\n        /* \"#utility.yul\":11862:11984   */\n      tag_368\n      jumpi\n        /* \"#utility.yul\":11903:11982   */\n      tag_369\n      tag_216\n      jump\t// in\n    tag_369:\n        /* \"#utility.yul\":11862:11984   */\n    tag_368:\n        /* \"#utility.yul\":12020:12026   */\n      dup2\n        /* \"#utility.yul\":12007:12027   */\n      calldataload\n        /* \"#utility.yul\":12045:12124   */\n      tag_370\n        /* \"#utility.yul\":12120:12123   */\n      dup5\n        /* \"#utility.yul\":12112:12118   */\n      dup3\n        /* \"#utility.yul\":12105:12109   */\n      0x20\n        /* \"#utility.yul\":12097:12103   */\n      dup7\n        /* \"#utility.yul\":12093:12110   */\n      add\n        /* \"#utility.yul\":12045:12124   */\n      tag_222\n      jump\t// in\n    tag_370:\n        /* \"#utility.yul\":12036:12124   */\n      swap2\n      pop\n        /* \"#utility.yul\":11852:12130   */\n      pop\n        /* \"#utility.yul\":11790:12130   */\n      swap3\n      swap2\n      pop\n      pop\n      jump\t// out\n        /* \"#utility.yul\":12136:12935   */\n    tag_61:\n        /* \"#utility.yul\":12223:12229   */\n      0x00\n        /* \"#utility.yul\":12231:12237   */\n      dup1\n        /* \"#utility.yul\":12239:12245   */\n      0x00\n        /* \"#utility.yul\":12288:12290   */\n      0x60\n        /* \"#utility.yul\":12276:12285   */\n      dup5\n        /* \"#utility.yul\":12267:12274   */\n      dup7\n        /* \"#utility.yul\":12263:12286   */\n      sub\n        /* \"#utility.yul\":12259:12291   */\n      slt\n        /* \"#utility.yul\":12256:12375   */\n      iszero\n      tag_372\n      jumpi\n        /* \"#utility.yul\":12294:12373   */\n      tag_373\n      tag_187\n      jump\t// in\n    tag_373:\n        /* \"#utility.yul\":12256:12375   */\n    tag_372:\n        /* \"#utility.yul\":12414:12415   */\n      0x00\n        /* \"#utility.yul\":12439:12492   */\n      tag_374\n        /* \"#utility.yul\":12484:12491   */\n      dup7\n        /* \"#utility.yul\":12475:12481   */\n      dup3\n        /* \"#utility.yul\":12464:12473   */\n      dup8\n        /* \"#utility.yul\":12460:12482   */\n      add\n        /* \"#utility.yul\":12439:12492   */\n      tag_192\n      jump\t// in\n    tag_374:\n        /* \"#utility.yul\":12429:12492   */\n      swap4\n      pop\n        /* \"#utility.yul\":12385:12502   */\n      pop\n        /* \"#utility.yul\":12541:12543   */\n      0x20\n        /* \"#utility.yul\":12567:12620   */\n      tag_375\n        /* \"#utility.yul\":12612:12619   */\n      dup7\n        /* \"#utility.yul\":12603:12609   */\n      dup3\n        /* \"#utility.yul\":12592:12601   */\n      dup8\n        /* \"#utility.yul\":12588:12610   */\n      add\n        /* \"#utility.yul\":12567:12620   */\n      tag_192\n      jump\t// in\n    tag_375:\n        /* \"#utility.yul\":12557:12620   */\n      swap3\n      pop\n        /* \"#utility.yul\":12512:12630   */\n      pop\n        /* \"#utility.yul\":12697:12699   */\n      0x40\n        /* \"#utility.yul\":12686:12695   */\n      dup5\n        /* \"#utility.yul\":12682:12700   */\n      add\n        /* \"#utility.yul\":12669:12701   */\n      calldataload\n        /* \"#utility.yul\":12728:12746   */\n      0xffffffffffffffff\n        /* \"#utility.yul\":12720:12726   */\n      dup2\n        /* \"#utility.yul\":12717:12747   */\n      gt\n        /* \"#utility.yul\":12714:12831   */\n      iszero\n      tag_376\n      jumpi\n        /* \"#utility.yul\":12750:12829   */\n      tag_377\n      tag_188\n      jump\t// in\n    tag_377:\n        /* \"#utility.yul\":12714:12831   */\n    tag_376:\n        /* \"#utility.yul\":12855:12918   */\n      tag_378\n        /* \"#utility.yul\":12910:12917   */\n      dup7\n        /* \"#utility.yul\":12901:12907   */\n      dup3\n        /* \"#utility.yul\":12890:12899   */\n      dup8\n        /* \"#utility.yul\":12886:12908   */\n      add\n        /* \"#utility.yul\":12855:12918   */\n      tag_223\n      jump\t// in\n    tag_378:\n        /* \"#utility.yul\":12845:12918   */\n      swap2\n      pop\n        /* \"#utility.yul\":12640:12928   */\n      pop\n        /* \"#utility.yul\":12136:12935   */\n      swap3\n      pop\n      swap3\n      pop\n      swap3\n      jump\t// out\n        /* \"#utility.yul\":12941:13595   */\n    tag_65:\n        /* \"#utility.yul\":13019:13025   */\n      0x00\n        /* \"#utility.yul\":13027:13033   */\n      dup1\n        /* \"#utility.yul\":13076:13078   */\n      0x40\n        /* \"#utility.yul\":13064:13073   */\n      dup4\n        /* \"#utility.yul\":13055:13062   */\n      dup6\n        /* \"#utility.yul\":13051:13074   */\n      sub\n        /* \"#utility.yul\":13047:13079   */\n      slt\n        /* \"#utility.yul\":13044:13163   */\n      iszero\n      tag_380\n      jumpi\n        /* \"#utility.yul\":13082:13161   */\n      tag_381\n      tag_187\n      jump\t// in\n    tag_381:\n        /* \"#utility.yul\":13044:13163   */\n    tag_380:\n        /* \"#utility.yul\":13230:13231   */\n      0x00\n        /* \"#utility.yul\":13219:13228   */\n      dup4\n        /* \"#utility.yul\":13215:13232   */\n      add\n        /* \"#utility.yul\":13202:13233   */\n      calldataload\n        /* \"#utility.yul\":13260:13278   */\n      0xffffffffffffffff\n        /* \"#utility.yul\":13252:13258   */\n      dup2\n        /* \"#utility.yul\":13249:13279   */\n      gt\n        /* \"#utility.yul\":13246:13363   */\n      iszero\n      tag_382\n      jumpi\n        /* \"#utility.yul\":13282:13361   */\n      tag_383\n      tag_188\n      jump\t// in\n    tag_383:\n        /* \"#utility.yul\":13246:13363   */\n    tag_382:\n        /* \"#utility.yul\":13387:13450   */\n      tag_384\n        /* \"#utility.yul\":13442:13449   */\n      dup6\n        /* \"#utility.yul\":13433:13439   */\n      dup3\n        /* \"#utility.yul\":13422:13431   */\n      dup7\n        /* \"#utility.yul\":13418:13440   */\n      add\n        /* \"#utility.yul\":13387:13450   */\n      tag_223\n      jump\t// in\n    tag_384:\n        /* \"#utility.yul\":13377:13450   */\n      swap3\n      pop\n        /* \"#utility.yul\":13173:13460   */\n      pop\n        /* \"#utility.yul\":13499:13501   */\n      0x20\n        /* \"#utility.yul\":13525:13578   */\n      tag_385\n        /* \"#utility.yul\":13570:13577   */\n      dup6\n        /* \"#utility.yul\":13561:13567   */\n      dup3\n        /* \"#utility.yul\":13550:13559   */\n      dup7\n        /* \"#utility.yul\":13546:13568   */\n      add\n        /* \"#utility.yul\":13525:13578   */\n      tag_192\n      jump\t// in\n    tag_385:\n        /* \"#utility.yul\":13515:13578   */\n      swap2\n      pop\n        /* \"#utility.yul\":13470:13588   */\n      pop\n        /* \"#utility.yul\":12941:13595   */\n      swap3\n      pop\n      swap3\n      swap1\n      pop\n      jump\t// out\n        /* \"#utility.yul\":13601:14255   */\n    tag_69:\n        /* \"#utility.yul\":13679:13685   */\n      0x00\n        /* \"#utility.yul\":13687:13693   */\n      dup1\n        /* \"#utility.yul\":13736:13738   */\n      0x40\n        /* \"#utility.yul\":13724:13733   */\n      dup4\n        /* \"#utility.yul\":13715:13722   */\n      dup6\n        /* \"#utility.yul\":13711:13734   */\n      sub\n        /* \"#utility.yul\":13707:13739   */\n      slt\n        /* \"#utility.yul\":13704:13823   */\n      iszero\n      tag_387\n      jumpi\n        /* \"#utility.yul\":13742:13821   */\n      tag_388\n      tag_187\n      jump\t// in\n    tag_388:\n        /* \"#utility.yul\":13704:13823   */\n    tag_387:\n        /* \"#utility.yul\":13862:13863   */\n      0x00\n        /* \"#utility.yul\":13887:13940   */\n      tag_389\n        /* \"#utility.yul\":13932:13939   */\n      dup6\n        /* \"#utility.yul\":13923:13929   */\n      dup3\n        /* \"#utility.yul\":13912:13921   */\n      dup7\n        /* \"#utility.yul\":13908:13930   */\n      add\n        /* \"#utility.yul\":13887:13940   */\n      tag_192\n      jump\t// in\n    tag_389:\n        /* \"#utility.yul\":13877:13940   */\n      swap3\n      pop\n        /* \"#utility.yul\":13833:13950   */\n      pop\n        /* \"#utility.yul\":14017:14019   */\n      0x20\n        /* \"#utility.yul\":14006:14015   */\n      dup4\n        /* \"#utility.yul\":14002:14020   */\n      add\n        /* \"#utility.yul\":13989:14021   */\n      calldataload\n        /* \"#utility.yul\":14048:14066   */\n      0xffffffffffffffff\n        /* \"#utility.yul\":14040:14046   */\n      dup2\n        /* \"#utility.yul\":14037:14067   */\n      gt\n        /* \"#utility.yul\":14034:14151   */\n      iszero\n      tag_390\n      jumpi\n        /* \"#utility.yul\":14070:14149   */\n      tag_391\n      tag_188\n      jump\t// in\n    tag_391:\n        /* \"#utility.yul\":14034:14151   */\n    tag_390:\n        /* \"#utility.yul\":14175:14238   */\n      tag_392\n        /* \"#utility.yul\":14230:14237   */\n      dup6\n        /* \"#utility.yul\":14221:14227   */\n      dup3\n        /* \"#utility.yul\":14210:14219   */\n      dup7\n        /* \"#utility.yul\":14206:14228   */\n      add\n        /* \"#utility.yul\":14175:14238   */\n      tag_223\n      jump\t// in\n    tag_392:\n        /* \"#utility.yul\":14165:14238   */\n      swap2\n      pop\n        /* \"#utility.yul\":13960:14248   */\n      pop\n        /* \"#utility.yul\":13601:14255   */\n      swap3\n      pop\n      swap3\n      swap1\n      pop\n      jump\t// out\n        /* \"#utility.yul\":14261:14905   */\n    tag_75:\n        /* \"#utility.yul\":14458:14462   */\n      0x00\n        /* \"#utility.yul\":14496:14499   */\n      0x80\n        /* \"#utility.yul\":14485:14494   */\n      dup3\n        /* \"#utility.yul\":14481:14500   */\n      add\n        /* \"#utility.yul\":14473:14500   */\n      swap1\n      pop\n        /* \"#utility.yul\":14510:14581   */\n      tag_394\n        /* \"#utility.yul\":14578:14579   */\n      0x00\n        /* \"#utility.yul\":14567:14576   */\n      dup4\n        /* \"#utility.yul\":14563:14580   */\n      add\n        /* \"#utility.yul\":14554:14560   */\n      dup8\n        /* \"#utility.yul\":14510:14581   */\n      tag_198\n      jump\t// in\n    tag_394:\n        /* \"#utility.yul\":14591:14663   */\n      tag_395\n        /* \"#utility.yul\":14659:14661   */\n      0x20\n        /* \"#utility.yul\":14648:14657   */\n      dup4\n        /* \"#utility.yul\":14644:14662   */\n      add\n        /* \"#utility.yul\":14635:14641   */\n      dup7\n        /* \"#utility.yul\":14591:14663   */\n      tag_204\n      jump\t// in\n    tag_395:\n        /* \"#utility.yul\":14710:14719   */\n      dup2\n        /* \"#utility.yul\":14704:14708   */\n      dup2\n        /* \"#utility.yul\":14700:14720   */\n      sub\n        /* \"#utility.yul\":14695:14697   */\n      0x40\n        /* \"#utility.yul\":14684:14693   */\n      dup4\n        /* \"#utility.yul\":14680:14698   */\n      add\n        /* \"#utility.yul\":14673:14721   */\n      mstore\n        /* \"#utility.yul\":14738:14816   */\n      tag_396\n        /* \"#utility.yul\":14811:14815   */\n      dup2\n        /* \"#utility.yul\":14802:14808   */\n      dup6\n        /* \"#utility.yul\":14738:14816   */\n      tag_203\n      jump\t// in\n    tag_396:\n        /* \"#utility.yul\":14730:14816   */\n      swap1\n      pop\n        /* \"#utility.yul\":14826:14898   */\n      tag_397\n        /* \"#utility.yul\":14894:14896   */\n      0x60\n        /* \"#utility.yul\":14883:14892   */\n      dup4\n        /* \"#utility.yul\":14879:14897   */\n      add\n        /* \"#utility.yul\":14870:14876   */\n      dup5\n        /* \"#utility.yul\":14826:14898   */\n      tag_198\n      jump\t// in\n    tag_397:\n        /* \"#utility.yul\":14261:14905   */\n      swap6\n      swap5\n      pop\n      pop\n      pop\n      pop\n      pop\n      jump\t// out\n        /* \"#utility.yul\":14911:15420   */\n    tag_78:\n        /* \"#utility.yul\":14980:14986   */\n      0x00\n        /* \"#utility.yul\":15029:15031   */\n      0x20\n        /* \"#utility.yul\":15017:15026   */\n      dup3\n        /* \"#utility.yul\":15008:15015   */\n      dup5\n        /* \"#utility.yul\":15004:15027   */\n      sub\n        /* \"#utility.yul\":15000:15032   */\n      slt\n        /* \"#utility.yul\":14997:15116   */\n      iszero\n      tag_399\n      jumpi\n        /* \"#utility.yul\":15035:15114   */\n      tag_400\n      tag_187\n      jump\t// in\n    tag_400:\n        /* \"#utility.yul\":14997:15116   */\n    tag_399:\n        /* \"#utility.yul\":15183:15184   */\n      0x00\n        /* \"#utility.yul\":15172:15181   */\n      dup3\n        /* \"#utility.yul\":15168:15185   */\n      add\n        /* \"#utility.yul\":15155:15186   */\n      calldataload\n        /* \"#utility.yul\":15213:15231   */\n      0xffffffffffffffff\n        /* \"#utility.yul\":15205:15211   */\n      dup2\n        /* \"#utility.yul\":15202:15232   */\n      gt\n        /* \"#utility.yul\":15199:15316   */\n      iszero\n      tag_401\n      jumpi\n        /* \"#utility.yul\":15235:15314   */\n      tag_402\n      tag_188\n      jump\t// in\n    tag_402:\n        /* \"#utility.yul\":15199:15316   */\n    tag_401:\n        /* \"#utility.yul\":15340:15403   */\n      tag_403\n        /* \"#utility.yul\":15395:15402   */\n      dup5\n        /* \"#utility.yul\":15386:15392   */\n      dup3\n        /* \"#utility.yul\":15375:15384   */\n      dup6\n        /* \"#utility.yul\":15371:15393   */\n      add\n        /* \"#utility.yul\":15340:15403   */\n      tag_223\n      jump\t// in\n    tag_403:\n        /* \"#utility.yul\":15330:15403   */\n      swap2\n      pop\n        /* \"#utility.yul\":15126:15413   */\n      pop\n        /* \"#utility.yul\":14911:15420   */\n      swap3\n      swap2\n      pop\n      pop\n      jump\t// out\n        /* \"#utility.yul\":15426:15606   */\n    tag_224:\n        /* \"#utility.yul\":15474:15551   */\n      0x4e487b7100000000000000000000000000000000000000000000000000000000\n        /* \"#utility.yul\":15471:15472   */\n      0x00\n        /* \"#utility.yul\":15464:15552   */\n      mstore\n        /* \"#utility.yul\":15571:15575   */\n      0x22\n        /* \"#utility.yul\":15568:15569   */\n      0x04\n        /* \"#utility.yul\":15561:15576   */\n      mstore\n        /* \"#utility.yul\":15595:15599   */\n      0x24\n        /* \"#utility.yul\":15592:15593   */\n      0x00\n        /* \"#utility.yul\":15585:15600   */\n      revert\n        /* \"#utility.yul\":15612:15932   */\n    tag_86:\n        /* \"#utility.yul\":15656:15662   */\n      0x00\n        /* \"#utility.yul\":15693:15694   */\n      0x02\n        /* \"#utility.yul\":15687:15691   */\n      dup3\n        /* \"#utility.yul\":15683:15695   */\n      div\n        /* \"#utility.yul\":15673:15695   */\n      swap1\n      pop\n        /* \"#utility.yul\":15740:15741   */\n      0x01\n        /* \"#utility.yul\":15734:15738   */\n      dup3\n        /* \"#utility.yul\":15730:15742   */\n      and\n        /* \"#utility.yul\":15761:15779   */\n      dup1\n        /* \"#utility.yul\":15751:15832   */\n      tag_406\n      jumpi\n        /* \"#utility.yul\":15817:15821   */\n      0x7f\n        /* \"#utility.yul\":15809:15815   */\n      dup3\n        /* \"#utility.yul\":15805:15822   */\n      and\n        /* \"#utility.yul\":15795:15822   */\n      swap2\n      pop\n        /* \"#utility.yul\":15751:15832   */\n    tag_406:\n        /* \"#utility.yul\":15879:15881   */\n      0x20\n        /* \"#utility.yul\":15871:15877   */\n      dup3\n        /* \"#utility.yul\":15868:15882   */\n      lt\n        /* \"#utility.yul\":15848:15866   */\n      dup2\n        /* \"#utility.yul\":15845:15883   */\n      sub\n        /* \"#utility.yul\":15842:15926   */\n      tag_407\n      jumpi\n        /* \"#utility.yul\":15898:15916   */\n      tag_408\n      tag_224\n      jump\t// in\n    tag_408:\n        /* \"#utility.yul\":15842:15926   */\n    tag_407:\n        /* \"#utility.yul\":15663:15932   */\n      pop\n        /* \"#utility.yul\":15612:15932   */\n      swap2\n      swap1\n      pop\n      jump\t// out\n        /* \"#utility.yul\":15938:16107   */\n    tag_225:\n        /* \"#utility.yul\":16078:16099   */\n      0x436f756e74206973206e6f742070726f70657200000000000000000000000000\n        /* \"#utility.yul\":16074:16075   */\n      0x00\n        /* \"#utility.yul\":16066:16072   */\n      dup3\n        /* \"#utility.yul\":16062:16076   */\n      add\n        /* \"#utility.yul\":16055:16100   */\n      mstore\n        /* \"#utility.yul\":15938:16107   */\n      pop\n      jump\t// out\n        /* \"#utility.yul\":16113:16479   */\n    tag_226:\n        /* \"#utility.yul\":16255:16258   */\n      0x00\n        /* \"#utility.yul\":16276:16343   */\n      tag_411\n        /* \"#utility.yul\":16340:16342   */\n      0x13\n        /* \"#utility.yul\":16335:16338   */\n      dup4\n        /* \"#utility.yul\":16276:16343   */\n      tag_200\n      jump\t// in\n    tag_411:\n        /* \"#utility.yul\":16269:16343   */\n      swap2\n      pop\n        /* \"#utility.yul\":16352:16445   */\n      tag_412\n        /* \"#utility.yul\":16441:16444   */\n      dup3\n        /* \"#utility.yul\":16352:16445   */\n      tag_225\n      jump\t// in\n    tag_412:\n        /* \"#utility.yul\":16470:16472   */\n      0x20\n        /* \"#utility.yul\":16465:16468   */\n      dup3\n        /* \"#utility.yul\":16461:16473   */\n      add\n        /* \"#utility.yul\":16454:16473   */\n      swap1\n      pop\n        /* \"#utility.yul\":16113:16479   */\n      swap2\n      swap1\n      pop\n      jump\t// out\n        /* \"#utility.yul\":16485:16904   */\n    tag_97:\n        /* \"#utility.yul\":16651:16655   */\n      0x00\n        /* \"#utility.yul\":16689:16691   */\n      0x20\n        /* \"#utility.yul\":16678:16687   */\n      dup3\n        /* \"#utility.yul\":16674:16692   */\n      add\n        /* \"#utility.yul\":16666:16692   */\n      swap1\n      pop\n        /* \"#utility.yul\":16738:16747   */\n      dup2\n        /* \"#utility.yul\":16732:16736   */\n      dup2\n        /* \"#utility.yul\":16728:16748   */\n      sub\n        /* \"#utility.yul\":16724:16725   */\n      0x00\n        /* \"#utility.yul\":16713:16722   */\n      dup4\n        /* \"#utility.yul\":16709:16726   */\n      add\n        /* \"#utility.yul\":16702:16749   */\n      mstore\n        /* \"#utility.yul\":16766:16897   */\n      tag_414\n        /* \"#utility.yul\":16892:16896   */\n      dup2\n        /* \"#utility.yul\":16766:16897   */\n      tag_226\n      jump\t// in\n    tag_414:\n        /* \"#utility.yul\":16758:16897   */\n      swap1\n      pop\n        /* \"#utility.yul\":16485:16904   */\n      swap2\n      swap1\n      pop\n      jump\t// out\n        /* \"#utility.yul\":16910:17090   */\n    tag_227:\n        /* \"#utility.yul\":16958:17035   */\n      0x4e487b7100000000000000000000000000000000000000000000000000000000\n        /* \"#utility.yul\":16955:16956   */\n      0x00\n        /* \"#utility.yul\":16948:17036   */\n      mstore\n        /* \"#utility.yul\":17055:17059   */\n      0x11\n        /* \"#utility.yul\":17052:17053   */\n      0x04\n        /* \"#utility.yul\":17045:17060   */\n      mstore\n        /* \"#utility.yul\":17079:17083   */\n      0x24\n        /* \"#utility.yul\":17076:17077   */\n      0x00\n        /* \"#utility.yul\":17069:17084   */\n      revert\n        /* \"#utility.yul\":17096:17290   */\n    tag_109:\n        /* \"#utility.yul\":17136:17140   */\n      0x00\n        /* \"#utility.yul\":17156:17176   */\n      tag_417\n        /* \"#utility.yul\":17174:17175   */\n      dup3\n        /* \"#utility.yul\":17156:17176   */\n      tag_195\n      jump\t// in\n    tag_417:\n        /* \"#utility.yul\":17151:17176   */\n      swap2\n      pop\n        /* \"#utility.yul\":17190:17210   */\n      tag_418\n        /* \"#utility.yul\":17208:17209   */\n      dup4\n        /* \"#utility.yul\":17190:17210   */\n      tag_195\n      jump\t// in\n    tag_418:\n        /* \"#utility.yul\":17185:17210   */\n      swap3\n      pop\n        /* \"#utility.yul\":17234:17235   */\n      dup3\n        /* \"#utility.yul\":17231:17232   */\n      dup3\n        /* \"#utility.yul\":17227:17236   */\n      sub\n        /* \"#utility.yul\":17219:17236   */\n      swap1\n      pop\n        /* \"#utility.yul\":17258:17259   */\n      dup2\n        /* \"#utility.yul\":17252:17256   */\n      dup2\n        /* \"#utility.yul\":17249:17260   */\n      gt\n        /* \"#utility.yul\":17246:17283   */\n      iszero\n      tag_419\n      jumpi\n        /* \"#utility.yul\":17263:17281   */\n      tag_420\n      tag_227\n      jump\t// in\n    tag_420:\n        /* \"#utility.yul\":17246:17283   */\n    tag_419:\n        /* \"#utility.yul\":17096:17290   */\n      swap3\n      swap2\n      pop\n      pop\n      jump\t// out\n        /* \"#utility.yul\":17296:17476   */\n    tag_117:\n        /* \"#utility.yul\":17344:17421   */\n      0x4e487b7100000000000000000000000000000000000000000000000000000000\n        /* \"#utility.yul\":17341:17342   */\n      0x00\n        /* \"#utility.yul\":17334:17422   */\n      mstore\n        /* \"#utility.yul\":17441:17445   */\n      0x32\n        /* \"#utility.yul\":17438:17439   */\n      0x04\n        /* \"#utility.yul\":17431:17446   */\n      mstore\n        /* \"#utility.yul\":17465:17469   */\n      0x24\n        /* \"#utility.yul\":17462:17463   */\n      0x00\n        /* \"#utility.yul\":17455:17470   */\n      revert\n        /* \"#utility.yul\":17482:17673   */\n    tag_119:\n        /* \"#utility.yul\":17522:17525   */\n      0x00\n        /* \"#utility.yul\":17541:17561   */\n      tag_423\n        /* \"#utility.yul\":17559:17560   */\n      dup3\n        /* \"#utility.yul\":17541:17561   */\n      tag_195\n      jump\t// in\n    tag_423:\n        /* \"#utility.yul\":17536:17561   */\n      swap2\n      pop\n        /* \"#utility.yul\":17575:17595   */\n      tag_424\n        /* \"#utility.yul\":17593:17594   */\n      dup4\n        /* \"#utility.yul\":17575:17595   */\n      tag_195\n      jump\t// in\n    tag_424:\n        /* \"#utility.yul\":17570:17595   */\n      swap3\n      pop\n        /* \"#utility.yul\":17618:17619   */\n      dup3\n        /* \"#utility.yul\":17615:17616   */\n      dup3\n        /* \"#utility.yul\":17611:17620   */\n      add\n        /* \"#utility.yul\":17604:17620   */\n      swap1\n      pop\n        /* \"#utility.yul\":17639:17642   */\n      dup1\n        /* \"#utility.yul\":17636:17637   */\n      dup3\n        /* \"#utility.yul\":17633:17643   */\n      gt\n        /* \"#utility.yul\":17630:17666   */\n      iszero\n      tag_425\n      jumpi\n        /* \"#utility.yul\":17646:17664   */\n      tag_426\n      tag_227\n      jump\t// in\n    tag_426:\n        /* \"#utility.yul\":17630:17666   */\n    tag_425:\n        /* \"#utility.yul\":17482:17673   */\n      swap3\n      swap2\n      pop\n      pop\n      jump\t// out\n        /* \"#utility.yul\":17679:17912   */\n    tag_121:\n        /* \"#utility.yul\":17718:17721   */\n      0x00\n        /* \"#utility.yul\":17741:17765   */\n      tag_428\n        /* \"#utility.yul\":17759:17764   */\n      dup3\n        /* \"#utility.yul\":17741:17765   */\n      tag_195\n      jump\t// in\n    tag_428:\n        /* \"#utility.yul\":17732:17765   */\n      swap2\n      pop\n        /* \"#utility.yul\":17787:17853   */\n      0xffffffffffffffffffffffffffffffffffffffffffffffffffffffffffffffff\n        /* \"#utility.yul\":17780:17785   */\n      dup3\n        /* \"#utility.yul\":17777:17854   */\n      sub\n        /* \"#utility.yul\":17774:17877   */\n      tag_429\n      jumpi\n        /* \"#utility.yul\":17857:17875   */\n      tag_430\n      tag_227\n      jump\t// in\n    tag_430:\n        /* \"#utility.yul\":17774:17877   */\n    tag_429:\n        /* \"#utility.yul\":17904:17905   */\n      0x01\n        /* \"#utility.yul\":17897:17902   */\n      dup3\n        /* \"#utility.yul\":17893:17906   */\n      add\n        /* \"#utility.yul\":17886:17906   */\n      swap1\n      pop\n        /* \"#utility.yul\":17679:17912   */\n      swap2\n      swap1\n      pop\n      jump\t// out\n        /* \"#utility.yul\":17918:18088   */\n    tag_228:\n        /* \"#utility.yul\":18058:18080   */\n      0x436f756e74206973206e6f7420646566696e6564000000000000000000000000\n        /* \"#utility.yul\":18054:18055   */\n      0x00\n        /* \"#utility.yul\":18046:18052   */\n      dup3\n        /* \"#utility.yul\":18042:18056   */\n      add\n        /* \"#utility.yul\":18035:18081   */\n      mstore\n        /* \"#utility.yul\":17918:18088   */\n      pop\n      jump\t// out\n        /* \"#utility.yul\":18094:18460   */\n    tag_229:\n        /* \"#utility.yul\":18236:18239   */\n      0x00\n        /* \"#utility.yul\":18257:18324   */\n      tag_433\n        /* \"#utility.yul\":18321:18323   */\n      0x14\n        /* \"#utility.yul\":18316:18319   */\n      dup4\n        /* \"#utility.yul\":18257:18324   */\n      tag_200\n      jump\t// in\n    tag_433:\n        /* \"#utility.yul\":18250:18324   */\n      swap2\n      pop\n        /* \"#utility.yul\":18333:18426   */\n      tag_434\n        /* \"#utility.yul\":18422:18425   */\n      dup3\n        /* \"#utility.yul\":18333:18426   */\n      tag_228\n      jump\t// in\n    tag_434:\n        /* \"#utility.yul\":18451:18453   */\n      0x20\n        /* \"#utility.yul\":18446:18449   */\n      dup3\n        /* \"#utility.yul\":18442:18454   */\n      add\n        /* \"#utility.yul\":18435:18454   */\n      swap1\n      pop\n        /* \"#utility.yul\":18094:18460   */\n      swap2\n      swap1\n      pop\n      jump\t// out\n        /* \"#utility.yul\":18466:18885   */\n    tag_133:\n        /* \"#utility.yul\":18632:18636   */\n      0x00\n        /* \"#utility.yul\":18670:18672   */\n      0x20\n        /* \"#utility.yul\":18659:18668   */\n      dup3\n        /* \"#utility.yul\":18655:18673   */\n      add\n        /* \"#utility.yul\":18647:18673   */\n      swap1\n      pop\n        /* \"#utility.yul\":18719:18728   */\n      dup2\n        /* \"#utility.yul\":18713:18717   */\n      dup2\n        /* \"#utility.yul\":18709:18729   */\n      sub\n        /* \"#utility.yul\":18705:18706   */\n      0x00\n        /* \"#utility.yul\":18694:18703   */\n      dup4\n        /* \"#utility.yul\":18690:18707   */\n      add\n        /* \"#utility.yul\":18683:18730   */\n      mstore\n        /* \"#utility.yul\":18747:18878   */\n      tag_436\n        /* \"#utility.yul\":18873:18877   */\n      dup2\n        /* \"#utility.yul\":18747:18878   */\n      tag_229\n      jump\t// in\n    tag_436:\n        /* \"#utility.yul\":18739:18878   */\n      swap1\n      pop\n        /* \"#utility.yul\":18466:18885   */\n      swap2\n      swap1\n      pop\n      jump\t// out\n        /* \"#utility.yul\":18891:19062   */\n    tag_230:\n        /* \"#utility.yul\":19031:19054   */\n      0x596f7520646f6e27742068617665206163636573730000000000000000000000\n        /* \"#utility.yul\":19027:19028   */\n      0x00\n        /* \"#utility.yul\":19019:19025   */\n      dup3\n        /* \"#utility.yul\":19015:19029   */\n      add\n        /* \"#utility.yul\":19008:19055   */\n      mstore\n        /* \"#utility.yul\":18891:19062   */\n      pop\n      jump\t// out\n        /* \"#utility.yul\":19068:19434   */\n    tag_231:\n        /* \"#utility.yul\":19210:19213   */\n      0x00\n        /* \"#utility.yul\":19231:19298   */\n      tag_439\n        /* \"#utility.yul\":19295:19297   */\n      0x15\n        /* \"#utility.yul\":19290:19293   */\n      dup4\n        /* \"#utility.yul\":19231:19298   */\n      tag_200\n      jump\t// in\n    tag_439:\n        /* \"#utility.yul\":19224:19298   */\n      swap2\n      pop\n        /* \"#utility.yul\":19307:19400   */\n      tag_440\n        /* \"#utility.yul\":19396:19399   */\n      dup3\n        /* \"#utility.yul\":19307:19400   */\n      tag_230\n      jump\t// in\n    tag_440:\n        /* \"#utility.yul\":19425:19427   */\n      0x20\n        /* \"#utility.yul\":19420:19423   */\n      dup3\n        /* \"#utility.yul\":19416:19428   */\n      add\n        /* \"#utility.yul\":19409:19428   */\n      swap1\n      pop\n        /* \"#utility.yul\":19068:19434   */\n      swap2\n      swap1\n      pop\n      jump\t// out\n        /* \"#utility.yul\":19440:19859   */\n    tag_174:\n        /* \"#utility.yul\":19606:19610   */\n      0x00\n        /* \"#utility.yul\":19644:19646   */\n      0x20\n        /* \"#utility.yul\":19633:19642   */\n      dup3\n        /* \"#utility.yul\":19629:19647   */\n      add\n        /* \"#utility.yul\":19621:19647   */\n      swap1\n      pop\n        /* \"#utility.yul\":19693:19702   */\n      dup2\n        /* \"#utility.yul\":19687:19691   */\n      dup2\n        /* \"#utility.yul\":19683:19703   */\n      sub\n        /* \"#utility.yul\":19679:19680   */\n      0x00\n        /* \"#utility.yul\":19668:19677   */\n      dup4\n        /* \"#utility.yul\":19664:19681   */\n      add\n        /* \"#utility.yul\":19657:19704   */\n      mstore\n        /* \"#utility.yul\":19721:19852   */\n      tag_442\n        /* \"#utility.yul\":19847:19851   */\n      dup2\n        /* \"#utility.yul\":19721:19852   */\n      tag_231\n      jump\t// in\n    tag_442:\n        /* \"#utility.yul\":19713:19852   */\n      swap1\n      pop\n        /* \"#utility.yul\":19440:19859   */\n      swap2\n      swap1\n      pop\n      jump\t// out\n        /* \"#utility.yul\":19865:20006   */\n    tag_232:\n        /* \"#utility.yul\":19914:19918   */\n      0x00\n        /* \"#utility.yul\":19937:19940   */\n      dup2\n        /* \"#utility.yul\":19929:19940   */\n      swap1\n      pop\n        /* \"#utility.yul\":19960:19963   */\n      dup2\n        /* \"#utility.yul\":19957:19958   */\n      0x00\n        /* \"#utility.yul\":19950:19964   */\n      mstore\n        /* \"#utility.yul\":19994:19998   */\n      0x20\n        /* \"#utility.yul\":19991:19992   */\n      0x00\n        /* \"#utility.yul\":19981:19999   */\n      keccak256\n        /* \"#utility.yul\":19973:19999   */\n      swap1\n      pop\n        /* \"#utility.yul\":19865:20006   */\n      swap2\n      swap1\n      pop\n      jump\t// out\n        /* \"#utility.yul\":20012:20105   */\n    tag_233:\n        /* \"#utility.yul\":20049:20055   */\n      0x00\n        /* \"#utility.yul\":20096:20098   */\n      0x20\n        /* \"#utility.yul\":20091:20093   */\n      0x1f\n        /* \"#utility.yul\":20084:20089   */\n      dup4\n        /* \"#utility.yul\":20080:20094   */\n      add\n        /* \"#utility.yul\":20076:20099   */\n      div\n        /* \"#utility.yul\":20066:20099   */\n      swap1\n      pop\n        /* \"#utility.yul\":20012:20105   */\n      swap2\n      swap1\n      pop\n      jump\t// out\n        /* \"#utility.yul\":20111:20218   */\n    tag_234:\n        /* \"#utility.yul\":20155:20163   */\n      0x00\n        /* \"#utility.yul\":20205:20210   */\n      dup3\n        /* \"#utility.yul\":20199:20203   */\n      dup3\n        /* \"#utility.yul\":20195:20211   */\n      shl\n        /* \"#utility.yul\":20174:20211   */\n      swap1\n      pop\n        /* \"#utility.yul\":20111:20218   */\n      swap3\n      swap2\n      pop\n      pop\n      jump\t// out\n        /* \"#utility.yul\":20224:20617   */\n    tag_235:\n        /* \"#utility.yul\":20293:20299   */\n      0x00\n        /* \"#utility.yul\":20343:20344   */\n      0x08\n        /* \"#utility.yul\":20331:20341   */\n      dup4\n        /* \"#utility.yul\":20327:20345   */\n      mul\n        /* \"#utility.yul\":20366:20463   */\n      tag_447\n        /* \"#utility.yul\":20396:20462   */\n      0xffffffffffffffffffffffffffffffffffffffffffffffffffffffffffffffff\n        /* \"#utility.yul\":20385:20394   */\n      dup3\n        /* \"#utility.yul\":20366:20463   */\n      tag_234\n      jump\t// in\n    tag_447:\n        /* \"#utility.yul\":20484:20523   */\n      tag_448\n        /* \"#utility.yul\":20514:20522   */\n      dup7\n        /* \"#utility.yul\":20503:20512   */\n      dup4\n        /* \"#utility.yul\":20484:20523   */\n      tag_234\n      jump\t// in\n    tag_448:\n        /* \"#utility.yul\":20472:20523   */\n      swap6\n      pop\n        /* \"#utility.yul\":20556:20560   */\n      dup1\n        /* \"#utility.yul\":20552:20561   */\n      not\n        /* \"#utility.yul\":20545:20550   */\n      dup5\n        /* \"#utility.yul\":20541:20562   */\n      and\n        /* \"#utility.yul\":20532:20562   */\n      swap4\n      pop\n        /* \"#utility.yul\":20605:20609   */\n      dup1\n        /* \"#utility.yul\":20595:20603   */\n      dup7\n        /* \"#utility.yul\":20591:20610   */\n      and\n        /* \"#utility.yul\":20584:20589   */\n      dup5\n        /* \"#utility.yul\":20581:20611   */\n      or\n        /* \"#utility.yul\":20571:20611   */\n      swap3\n      pop\n        /* \"#utility.yul\":20300:20617   */\n      pop\n      pop\n        /* \"#utility.yul\":20224:20617   */\n      swap4\n      swap3\n      pop\n      pop\n      pop\n      jump\t// out\n        /* \"#utility.yul\":20623:20683   */\n    tag_236:\n        /* \"#utility.yul\":20651:20654   */\n      0x00\n        /* \"#utility.yul\":20672:20677   */\n      dup2\n        /* \"#utility.yul\":20665:20677   */\n      swap1\n      pop\n        /* \"#utility.yul\":20623:20683   */\n      swap2\n      swap1\n      pop\n      jump\t// out\n        /* \"#utility.yul\":20689:20831   */\n    tag_237:\n        /* \"#utility.yul\":20739:20748   */\n      0x00\n        /* \"#utility.yul\":20772:20825   */\n      tag_451\n        /* \"#utility.yul\":20790:20824   */\n      tag_452\n        /* \"#utility.yul\":20799:20823   */\n      tag_453\n        /* \"#utility.yul\":20817:20822   */\n      dup5\n        /* \"#utility.yul\":20799:20823   */\n      tag_195\n      jump\t// in\n    tag_453:\n        /* \"#utility.yul\":20790:20824   */\n      tag_236\n      jump\t// in\n    tag_452:\n        /* \"#utility.yul\":20772:20825   */\n      tag_195\n      jump\t// in\n    tag_451:\n        /* \"#utility.yul\":20759:20825   */\n      swap1\n      pop\n        /* \"#utility.yul\":20689:20831   */\n      swap2\n      swap1\n      pop\n      jump\t// out\n        /* \"#utility.yul\":20837:20912   */\n    tag_238:\n        /* \"#utility.yul\":20880:20883   */\n      0x00\n        /* \"#utility.yul\":20901:20906   */\n      dup2\n        /* \"#utility.yul\":20894:20906   */\n      swap1\n      pop\n        /* \"#utility.yul\":20837:20912   */\n      swap2\n      swap1\n      pop\n      jump\t// out\n        /* \"#utility.yul\":20918:21187   */\n    tag_239:\n        /* \"#utility.yul\":21028:21067   */\n      tag_456\n        /* \"#utility.yul\":21059:21066   */\n      dup4\n        /* \"#utility.yul\":21028:21067   */\n      tag_237\n      jump\t// in\n    tag_456:\n        /* \"#utility.yul\":21089:21180   */\n      tag_457\n        /* \"#utility.yul\":21138:21179   */\n      tag_458\n        /* \"#utility.yul\":21162:21178   */\n      dup3\n        /* \"#utility.yul\":21138:21179   */\n      tag_238\n      jump\t// in\n    tag_458:\n        /* \"#utility.yul\":21130:21136   */\n      dup5\n        /* \"#utility.yul\":21123:21127   */\n      dup5\n        /* \"#utility.yul\":21117:21128   */\n      sload\n        /* \"#utility.yul\":21089:21180   */\n      tag_235\n      jump\t// in\n    tag_457:\n        /* \"#utility.yul\":21083:21087   */\n      dup3\n        /* \"#utility.yul\":21076:21181   */\n      sstore\n        /* \"#utility.yul\":20994:21187   */\n      pop\n        /* \"#utility.yul\":20918:21187   */\n      pop\n      pop\n      pop\n      jump\t// out\n        /* \"#utility.yul\":21193:21266   */\n    tag_240:\n        /* \"#utility.yul\":21238:21241   */\n      0x00\n        /* \"#utility.yul\":21193:21266   */\n      swap1\n      jump\t// out\n        /* \"#utility.yul\":21272:21461   */\n    tag_241:\n        /* \"#utility.yul\":21349:21381   */\n      tag_461\n      tag_240\n      jump\t// in\n    tag_461:\n        /* \"#utility.yul\":21390:21455   */\n      tag_462\n        /* \"#utility.yul\":21448:21454   */\n      dup2\n        /* \"#utility.yul\":21440:21446   */\n      dup5\n        /* \"#utility.yul\":21434:21438   */\n      dup5\n        /* \"#utility.yul\":21390:21455   */\n      tag_239\n      jump\t// in\n    tag_462:\n        /* \"#utility.yul\":21325:21461   */\n      pop\n        /* \"#utility.yul\":21272:21461   */\n      pop\n      pop\n      jump\t// out\n        /* \"#utility.yul\":21467:21653   */\n    tag_242:\n        /* \"#utility.yul\":21527:21647   */\n    tag_464:\n        /* \"#utility.yul\":21544:21547   */\n      dup2\n        /* \"#utility.yul\":21537:21542   */\n      dup2\n        /* \"#utility.yul\":21534:21548   */\n      lt\n        /* \"#utility.yul\":21527:21647   */\n      iszero\n      tag_466\n      jumpi\n        /* \"#utility.yul\":21598:21637   */\n      tag_467\n        /* \"#utility.yul\":21635:21636   */\n      0x00\n        /* \"#utility.yul\":21628:21633   */\n      dup3\n        /* \"#utility.yul\":21598:21637   */\n      tag_241\n      jump\t// in\n    tag_467:\n        /* \"#utility.yul\":21571:21572   */\n      0x01\n        /* \"#utility.yul\":21564:21569   */\n      dup2\n        /* \"#utility.yul\":21560:21573   */\n      add\n        /* \"#utility.yul\":21551:21573   */\n      swap1\n      pop\n        /* \"#utility.yul\":21527:21647   */\n      jump(tag_464)\n    tag_466:\n        /* \"#utility.yul\":21467:21653   */\n      pop\n      pop\n      jump\t// out\n        /* \"#utility.yul\":21659:22202   */\n    tag_243:\n        /* \"#utility.yul\":21760:21762   */\n      0x1f\n        /* \"#utility.yul\":21755:21758   */\n      dup3\n        /* \"#utility.yul\":21752:21763   */\n      gt\n        /* \"#utility.yul\":21749:22195   */\n      iszero\n      tag_469\n      jumpi\n        /* \"#utility.yul\":21794:21832   */\n      tag_470\n        /* \"#utility.yul\":21826:21831   */\n      dup2\n        /* \"#utility.yul\":21794:21832   */\n      tag_232\n      jump\t// in\n    tag_470:\n        /* \"#utility.yul\":21878:21907   */\n      tag_471\n        /* \"#utility.yul\":21896:21906   */\n      dup5\n        /* \"#utility.yul\":21878:21907   */\n      tag_233\n      jump\t// in\n    tag_471:\n        /* \"#utility.yul\":21868:21876   */\n      dup2\n        /* \"#utility.yul\":21864:21908   */\n      add\n        /* \"#utility.yul\":22061:22063   */\n      0x20\n        /* \"#utility.yul\":22049:22059   */\n      dup6\n        /* \"#utility.yul\":22046:22064   */\n      lt\n        /* \"#utility.yul\":22043:22092   */\n      iszero\n      tag_472\n      jumpi\n        /* \"#utility.yul\":22082:22090   */\n      dup2\n        /* \"#utility.yul\":22067:22090   */\n      swap1\n      pop\n        /* \"#utility.yul\":22043:22092   */\n    tag_472:\n        /* \"#utility.yul\":22105:22185   */\n      tag_473\n        /* \"#utility.yul\":22161:22183   */\n      tag_474\n        /* \"#utility.yul\":22179:22182   */\n      dup6\n        /* \"#utility.yul\":22161:22183   */\n      tag_233\n      jump\t// in\n    tag_474:\n        /* \"#utility.yul\":22151:22159   */\n      dup4\n        /* \"#utility.yul\":22147:22184   */\n      add\n        /* \"#utility.yul\":22134:22145   */\n      dup3\n        /* \"#utility.yul\":22105:22185   */\n      tag_242\n      jump\t// in\n    tag_473:\n        /* \"#utility.yul\":21764:22195   */\n      pop\n      pop\n        /* \"#utility.yul\":21749:22195   */\n    tag_469:\n        /* \"#utility.yul\":21659:22202   */\n      pop\n      pop\n      pop\n      jump\t// out\n        /* \"#utility.yul\":22208:22325   */\n    tag_244:\n        /* \"#utility.yul\":22262:22270   */\n      0x00\n        /* \"#utility.yul\":22312:22317   */\n      dup3\n        /* \"#utility.yul\":22306:22310   */\n      dup3\n        /* \"#utility.yul\":22302:22318   */\n      shr\n        /* \"#utility.yul\":22281:22318   */\n      swap1\n      pop\n        /* \"#utility.yul\":22208:22325   */\n      swap3\n      swap2\n      pop\n      pop\n      jump\t// out\n        /* \"#utility.yul\":22331:22500   */\n    tag_245:\n        /* \"#utility.yul\":22375:22381   */\n      0x00\n        /* \"#utility.yul\":22408:22459   */\n      tag_477\n        /* \"#utility.yul\":22456:22457   */\n      0x00\n        /* \"#utility.yul\":22452:22458   */\n      not\n        /* \"#utility.yul\":22444:22449   */\n      dup5\n        /* \"#utility.yul\":22441:22442   */\n      0x08\n        /* \"#utility.yul\":22437:22450   */\n      mul\n        /* \"#utility.yul\":22408:22459   */\n      tag_244\n      jump\t// in\n    tag_477:\n        /* \"#utility.yul\":22404:22460   */\n      not\n        /* \"#utility.yul\":22489:22493   */\n      dup1\n        /* \"#utility.yul\":22483:22487   */\n      dup4\n        /* \"#utility.yul\":22479:22494   */\n      and\n        /* \"#utility.yul\":22469:22494   */\n      swap2\n      pop\n        /* \"#utility.yul\":22382:22500   */\n      pop\n        /* \"#utility.yul\":22331:22500   */\n      swap3\n      swap2\n      pop\n      pop\n      jump\t// out\n        /* \"#utility.yul\":22505:22800   */\n    tag_246:\n        /* \"#utility.yul\":22581:22585   */\n      0x00\n        /* \"#utility.yul\":22727:22756   */\n      tag_479\n        /* \"#utility.yul\":22752:22755   */\n      dup4\n        /* \"#utility.yul\":22746:22750   */\n      dup4\n        /* \"#utility.yul\":22727:22756   */\n      tag_245\n      jump\t// in\n    tag_479:\n        /* \"#utility.yul\":22719:22756   */\n      swap2\n      pop\n        /* \"#utility.yul\":22789:22792   */\n      dup3\n        /* \"#utility.yul\":22786:22787   */\n      0x02\n        /* \"#utility.yul\":22782:22793   */\n      mul\n        /* \"#utility.yul\":22776:22780   */\n      dup3\n        /* \"#utility.yul\":22773:22794   */\n      or\n        /* \"#utility.yul\":22765:22794   */\n      swap1\n      pop\n        /* \"#utility.yul\":22505:22800   */\n      swap3\n      swap2\n      pop\n      pop\n      jump\t// out\n        /* \"#utility.yul\":22805:24200   */\n    tag_177:\n        /* \"#utility.yul\":22922:22959   */\n      tag_481\n        /* \"#utility.yul\":22955:22958   */\n      dup3\n        /* \"#utility.yul\":22922:22959   */\n      tag_199\n      jump\t// in\n    tag_481:\n        /* \"#utility.yul\":23024:23042   */\n      0xffffffffffffffff\n        /* \"#utility.yul\":23016:23022   */\n      dup2\n        /* \"#utility.yul\":23013:23043   */\n      gt\n        /* \"#utility.yul\":23010:23066   */\n      iszero\n      tag_482\n      jumpi\n        /* \"#utility.yul\":23046:23064   */\n      tag_483\n      tag_100\n      jump\t// in\n    tag_483:\n        /* \"#utility.yul\":23010:23066   */\n    tag_482:\n        /* \"#utility.yul\":23090:23128   */\n      tag_484\n        /* \"#utility.yul\":23122:23126   */\n      dup3\n        /* \"#utility.yul\":23116:23127   */\n      sload\n        /* \"#utility.yul\":23090:23128   */\n      tag_86\n      jump\t// in\n    tag_484:\n        /* \"#utility.yul\":23175:23242   */\n      tag_485\n        /* \"#utility.yul\":23235:23241   */\n      dup3\n        /* \"#utility.yul\":23227:23233   */\n      dup3\n        /* \"#utility.yul\":23221:23225   */\n      dup6\n        /* \"#utility.yul\":23175:23242   */\n      tag_243\n      jump\t// in\n    tag_485:\n        /* \"#utility.yul\":23269:23270   */\n      0x00\n        /* \"#utility.yul\":23293:23297   */\n      0x20\n        /* \"#utility.yul\":23280:23297   */\n      swap1\n      pop\n        /* \"#utility.yul\":23325:23327   */\n      0x1f\n        /* \"#utility.yul\":23317:23323   */\n      dup4\n        /* \"#utility.yul\":23314:23328   */\n      gt\n        /* \"#utility.yul\":23342:23343   */\n      0x01\n        /* \"#utility.yul\":23337:23955   */\n      dup2\n      eq\n      tag_487\n      jumpi\n        /* \"#utility.yul\":23999:24000   */\n      0x00\n        /* \"#utility.yul\":24016:24022   */\n      dup5\n        /* \"#utility.yul\":24013:24090   */\n      iszero\n      tag_488\n      jumpi\n        /* \"#utility.yul\":24065:24074   */\n      dup3\n        /* \"#utility.yul\":24060:24063   */\n      dup8\n        /* \"#utility.yul\":24056:24075   */\n      add\n        /* \"#utility.yul\":24050:24076   */\n      mload\n        /* \"#utility.yul\":24041:24076   */\n      swap1\n      pop\n        /* \"#utility.yul\":24013:24090   */\n    tag_488:\n        /* \"#utility.yul\":24116:24183   */\n      tag_489\n        /* \"#utility.yul\":24176:24182   */\n      dup6\n        /* \"#utility.yul\":24169:24174   */\n      dup3\n        /* \"#utility.yul\":24116:24183   */\n      tag_246\n      jump\t// in\n    tag_489:\n        /* \"#utility.yul\":24110:24114   */\n      dup7\n        /* \"#utility.yul\":24103:24184   */\n      sstore\n        /* \"#utility.yul\":23972:24194   */\n      pop\n        /* \"#utility.yul\":23307:24194   */\n      jump(tag_486)\n        /* \"#utility.yul\":23337:23955   */\n    tag_487:\n        /* \"#utility.yul\":23389:23393   */\n      0x1f\n        /* \"#utility.yul\":23385:23394   */\n      not\n        /* \"#utility.yul\":23377:23383   */\n      dup5\n        /* \"#utility.yul\":23373:23395   */\n      and\n        /* \"#utility.yul\":23423:23460   */\n      tag_490\n        /* \"#utility.yul\":23455:23459   */\n      dup7\n        /* \"#utility.yul\":23423:23460   */\n      tag_232\n      jump\t// in\n    tag_490:\n        /* \"#utility.yul\":23482:23483   */\n      0x00\n        /* \"#utility.yul\":23496:23704   */\n    tag_491:\n        /* \"#utility.yul\":23510:23517   */\n      dup3\n        /* \"#utility.yul\":23507:23508   */\n      dup2\n        /* \"#utility.yul\":23504:23518   */\n      lt\n        /* \"#utility.yul\":23496:23704   */\n      iszero\n      tag_493\n      jumpi\n        /* \"#utility.yul\":23589:23598   */\n      dup5\n        /* \"#utility.yul\":23584:23587   */\n      dup10\n        /* \"#utility.yul\":23580:23599   */\n      add\n        /* \"#utility.yul\":23574:23600   */\n      mload\n        /* \"#utility.yul\":23566:23572   */\n      dup3\n        /* \"#utility.yul\":23559:23601   */\n      sstore\n        /* \"#utility.yul\":23640:23641   */\n      0x01\n        /* \"#utility.yul\":23632:23638   */\n      dup3\n        /* \"#utility.yul\":23628:23642   */\n      add\n        /* \"#utility.yul\":23618:23642   */\n      swap2\n      pop\n        /* \"#utility.yul\":23687:23689   */\n      0x20\n        /* \"#utility.yul\":23676:23685   */\n      dup6\n        /* \"#utility.yul\":23672:23690   */\n      add\n        /* \"#utility.yul\":23659:23690   */\n      swap5\n      pop\n        /* \"#utility.yul\":23533:23537   */\n      0x20\n        /* \"#utility.yul\":23530:23531   */\n      dup2\n        /* \"#utility.yul\":23526:23538   */\n      add\n        /* \"#utility.yul\":23521:23538   */\n      swap1\n      pop\n        /* \"#utility.yul\":23496:23704   */\n      jump(tag_491)\n    tag_493:\n        /* \"#utility.yul\":23732:23738   */\n      dup7\n        /* \"#utility.yul\":23723:23730   */\n      dup4\n        /* \"#utility.yul\":23720:23739   */\n      lt\n        /* \"#utility.yul\":23717:23896   */\n      iszero\n      tag_494\n      jumpi\n        /* \"#utility.yul\":23790:23799   */\n      dup5\n        /* \"#utility.yul\":23785:23788   */\n      dup10\n        /* \"#utility.yul\":23781:23800   */\n      add\n        /* \"#utility.yul\":23775:23801   */\n      mload\n        /* \"#utility.yul\":23833:23881   */\n      tag_495\n        /* \"#utility.yul\":23875:23879   */\n      0x1f\n        /* \"#utility.yul\":23867:23873   */\n      dup10\n        /* \"#utility.yul\":23863:23880   */\n      and\n        /* \"#utility.yul\":23852:23861   */\n      dup3\n        /* \"#utility.yul\":23833:23881   */\n      tag_245\n      jump\t// in\n    tag_495:\n        /* \"#utility.yul\":23825:23831   */\n      dup4\n        /* \"#utility.yul\":23818:23882   */\n      sstore\n        /* \"#utility.yul\":23740:23896   */\n      pop\n        /* \"#utility.yul\":23717:23896   */\n    tag_494:\n        /* \"#utility.yul\":23942:23943   */\n      0x01\n        /* \"#utility.yul\":23938:23939   */\n      0x02\n        /* \"#utility.yul\":23930:23936   */\n      dup9\n        /* \"#utility.yul\":23926:23940   */\n      mul\n        /* \"#utility.yul\":23922:23944   */\n      add\n        /* \"#utility.yul\":23916:23920   */\n      dup9\n        /* \"#utility.yul\":23909:23945   */\n      sstore\n        /* \"#utility.yul\":23344:23955   */\n      pop\n      pop\n      pop\n        /* \"#utility.yul\":23307:24194   */\n    tag_486:\n      pop\n        /* \"#utility.yul\":22897:24200   */\n      pop\n      pop\n      pop\n        /* \"#utility.yul\":22805:24200   */\n      pop\n      pop\n      jump\t// out\n\n    auxdata: 0xa2646970667358221220327858d6b2f58ad67c46d7786231aee9dec3eb84ac85a756ee525a4aa2039d8c64736f6c63430008140033\n}\n",
				"bytecode": {
					"linkReferences": {},
					"object": "608060405234801561000f575f80fd5b50611dc98061001d5f395ff3fe608060405234801561000f575f80fd5b50600436106100e8575f3560e01c8063af22bf941161008a578063d21d159611610064578063d21d159614610280578063e8d857b01461029c578063fb46d4c5146102cf578063ff9913e8146102eb576100e8565b8063af22bf9414610218578063b88e318d14610248578063c48d6d5e14610264576100e8565b80634dc0a687116100c65780634dc0a6871461016c5780635284b64a1461019c5780639139cda5146101cc578063a9ed9cb8146101fc576100e8565b80632637588e146100ec5780633befea091461011c5780634dbf27cc14610150575b5f80fd5b610106600480360381019061010191906111a3565b610307565b60405161011391906111fb565b60405180910390f35b61013660048036038101906101319190611247565b610331565b60405161014795949392919061132d565b60405180910390f35b61016a60048036038101906101659190611385565b610441565b005b610186600480360381019061018191906113b0565b6104df565b604051610193919061155c565b60405180910390f35b6101b660048036038101906101b19190611247565b6106ef565b6040516101c3919061155c565b60405180910390f35b6101e660048036038101906101e19190611247565b6109a5565b6040516101f3919061157c565b60405180910390f35b61021660048036038101906102119190611385565b6109ed565b005b610232600480360381019061022d9190611247565b610a7f565b60405161023f9190611595565b60405180910390f35b610262600480360381019061025d91906116da565b610aaa565b005b61027e60048036038101906102799190611746565b610aba565b005b61029a600480360381019061029591906117a0565b610ac9565b005b6102b660048036038101906102b191906113b0565b610ad7565b6040516102c694939291906117fa565b60405180910390f35b6102e960048036038101906102e49190611844565b610ba7565b005b61030560048036038101906103009190611385565b610bb4565b005b6003602052815f5260405f20602052805f5260405f205f915091509054906101000a900460ff1681565b6002602052815f5260405f20818154811061034a575f80fd5b905f5260205f2090600502015f9150915050805f015490806001018054610370906118b8565b80601f016020809104026020016040519081016040528092919081815260200182805461039c906118b8565b80156103e75780601f106103be576101008083540402835291602001916103e7565b820191905f5260205f20905b8154815290600101906020018083116103ca57829003601f168201915b505050505090806002015f9054906101000a900473ffffffffffffffffffffffffffffffffffffffff1690806003015f9054906101000a900473ffffffffffffffffffffffffffffffffffffffff16908060040154905085565b60045f3373ffffffffffffffffffffffffffffffffffffffff1673ffffffffffffffffffffffffffffffffffffffff1681526020019081526020015f2081908060018154018082558091505060019003905f5260205f20015f9091909190916101000a81548173ffffffffffffffffffffffffffffffffffffffff021916908373ffffffffffffffffffffffffffffffffffffffff16021790555050565b60605f821180156104f257506005548211155b610531576040517f08c379a000000000000000000000000000000000000000000000000000000000815260040161052890611932565b60405180910390fd5b5f8267ffffffffffffffff81111561054c5761054b6115b6565b5b60405190808252806020026020018201604052801561058557816020015b6105726110fd565b81526020019060019003908161056a5790505b5090505f8084600554610598919061197d565b90505b6005548110156106e4575f805f8381526020019081526020015f2090506040518060800160405280825f01548152602001826001015f9054906101000a900473ffffffffffffffffffffffffffffffffffffffff1673ffffffffffffffffffffffffffffffffffffffff16815260200182600201805461061a906118b8565b80601f0160208091040260200160405190810160405280929190818152602001828054610646906118b8565b80156106915780601f1061066857610100808354040283529160200191610691565b820191905f5260205f20905b81548152906001019060200180831161067457829003601f168201915b5050505050815260200182600301548152508484815181106106b6576106b56119b0565b5b60200260200101819052506001836106ce91906119dd565b92505080806106dc90611a10565b91505061059b565b508192505050919050565b60605f8267ffffffffffffffff81111561070c5761070b6115b6565b5b60405190808252806020026020018201604052801561074557816020015b6107326110fd565b81526020019060019003908161072a5790505b5090505f60015f8673ffffffffffffffffffffffffffffffffffffffff1673ffffffffffffffffffffffffffffffffffffffff1681526020019081526020015f208054806020026020016040519081016040528092919081815260200182805480156107ce57602002820191905f5260205f20905b8154815260200190600101908083116107ba575b505050505090505f841180156107e5575080518411155b610824576040517f08c379a000000000000000000000000000000000000000000000000000000000815260040161081b90611aa1565b60405180910390fd5b5f80858351610833919061197d565b90505b8251811015610998575f805f858481518110610855576108546119b0565b5b602002602001015181526020019081526020015f2090506040518060800160405280825f01548152602001826001015f9054906101000a900473ffffffffffffffffffffffffffffffffffffffff1673ffffffffffffffffffffffffffffffffffffffff1681526020018260020180546108ce906118b8565b80601f01602080910402602001604051908101604052809291908181526020018280546108fa906118b8565b80156109455780601f1061091c57610100808354040283529160200191610945565b820191905f5260205f20905b81548152906001019060200180831161092857829003601f168201915b50505050508152602001826003015481525085848151811061096a576109696119b0565b5b602002602001018190525060018361098291906119dd565b925050808061099090611a10565b915050610836565b5082935050505092915050565b6004602052815f5260405f2081815481106109be575f80fd5b905f5260205f20015f915091509054906101000a900473ffffffffffffffffffffffffffffffffffffffff1681565b5f60035f3373ffffffffffffffffffffffffffffffffffffffff1673ffffffffffffffffffffffffffffffffffffffff1681526020019081526020015f205f8373ffffffffffffffffffffffffffffffffffffffff1673ffffffffffffffffffffffffffffffffffffffff1681526020019081526020015f205f6101000a81548160ff02191690831515021790555050565b6001602052815f5260405f208181548110610a98575f80fd5b905f5260205f20015f91509150505481565b610ab5838383610c47565b505050565b610ac5338284610c47565b5050565b610ad38282610ecb565b5050565b5f602052805f5260405f205f91509050805f015490806001015f9054906101000a900473ffffffffffffffffffffffffffffffffffffffff1690806002018054610b20906118b8565b80601f0160208091040260200160405190810160405280929190818152602001828054610b4c906118b8565b8015610b975780601f10610b6e57610100808354040283529160200191610b97565b820191905f5260205f20905b815481529060010190602001808311610b7a57829003601f168201915b5050505050908060030154905084565b610bb13382610ecb565b50565b600160035f3373ffffffffffffffffffffffffffffffffffffffff1673ffffffffffffffffffffffffffffffffffffffff1681526020019081526020015f205f8373ffffffffffffffffffffffffffffffffffffffff1673ffffffffffffffffffffffffffffffffffffffff1681526020019081526020015f205f6101000a81548160ff02191690831515021790555050565b3373ffffffffffffffffffffffffffffffffffffffff168373ffffffffffffffffffffffffffffffffffffffff161480610d02575060035f8473ffffffffffffffffffffffffffffffffffffffff1673ffffffffffffffffffffffffffffffffffffffff1681526020019081526020015f205f3373ffffffffffffffffffffffffffffffffffffffff1673ffffffffffffffffffffffffffffffffffffffff1681526020019081526020015f205f9054906101000a900460ff165b610d41576040517f08c379a0000000000000000000000000000000000000000000000000000000008152600401610d3890611b09565b60405180910390fd5b60025f8473ffffffffffffffffffffffffffffffffffffffff1673ffffffffffffffffffffffffffffffffffffffff1681526020019081526020015f206040518060a0016040528060065481526020018381526020018573ffffffffffffffffffffffffffffffffffffffff1681526020018473ffffffffffffffffffffffffffffffffffffffff16815260200142815250908060018154018082558091505060019003905f5260205f2090600502015f909190919091505f820151815f01556020820151816001019081610e169190611cc4565b506040820151816002015f6101000a81548173ffffffffffffffffffffffffffffffffffffffff021916908373ffffffffffffffffffffffffffffffffffffffff1602179055506060820151816003015f6101000a81548173ffffffffffffffffffffffffffffffffffffffff021916908373ffffffffffffffffffffffffffffffffffffffff16021790555060808201518160040155505060065f815480929190610ec190611a10565b9190505550505050565b3373ffffffffffffffffffffffffffffffffffffffff168273ffffffffffffffffffffffffffffffffffffffff161480610f86575060035f8373ffffffffffffffffffffffffffffffffffffffff1673ffffffffffffffffffffffffffffffffffffffff1681526020019081526020015f205f3373ffffffffffffffffffffffffffffffffffffffff1673ffffffffffffffffffffffffffffffffffffffff1681526020019081526020015f205f9054906101000a900460ff165b610fc5576040517f08c379a0000000000000000000000000000000000000000000000000000000008152600401610fbc90611b09565b60405180910390fd5b604051806080016040528060055481526020018373ffffffffffffffffffffffffffffffffffffffff168152602001828152602001428152505f8060055481526020019081526020015f205f820151815f01556020820151816001015f6101000a81548173ffffffffffffffffffffffffffffffffffffffff021916908373ffffffffffffffffffffffffffffffffffffffff16021790555060408201518160020190816110739190611cc4565b506060820151816003015590505060015f8373ffffffffffffffffffffffffffffffffffffffff1673ffffffffffffffffffffffffffffffffffffffff1681526020019081526020015f20600554908060018154018082558091505060019003905f5260205f20015f909190919091505560016005546110f391906119dd565b6005819055505050565b60405180608001604052805f81526020015f73ffffffffffffffffffffffffffffffffffffffff168152602001606081526020015f81525090565b5f604051905090565b5f80fd5b5f80fd5b5f73ffffffffffffffffffffffffffffffffffffffff82169050919050565b5f61117282611149565b9050919050565b61118281611168565b811461118c575f80fd5b50565b5f8135905061119d81611179565b92915050565b5f80604083850312156111b9576111b8611141565b5b5f6111c68582860161118f565b92505060206111d78582860161118f565b9150509250929050565b5f8115159050919050565b6111f5816111e1565b82525050565b5f60208201905061120e5f8301846111ec565b92915050565b5f819050919050565b61122681611214565b8114611230575f80fd5b50565b5f813590506112418161121d565b92915050565b5f806040838503121561125d5761125c611141565b5b5f61126a8582860161118f565b925050602061127b85828601611233565b9150509250929050565b61128e81611214565b82525050565b5f81519050919050565b5f82825260208201905092915050565b5f5b838110156112cb5780820151818401526020810190506112b0565b5f8484015250505050565b5f601f19601f8301169050919050565b5f6112f082611294565b6112fa818561129e565b935061130a8185602086016112ae565b611313816112d6565b840191505092915050565b61132781611168565b82525050565b5f60a0820190506113405f830188611285565b818103602083015261135281876112e6565b9050611361604083018661131e565b61136e606083018561131e565b61137b6080830184611285565b9695505050505050565b5f6020828403121561139a57611399611141565b5b5f6113a78482850161118f565b91505092915050565b5f602082840312156113c5576113c4611141565b5b5f6113d284828501611233565b91505092915050565b5f81519050919050565b5f82825260208201905092915050565b5f819050602082019050919050565b61140d81611214565b82525050565b61141c81611168565b82525050565b5f82825260208201905092915050565b5f61143c82611294565b6114468185611422565b93506114568185602086016112ae565b61145f816112d6565b840191505092915050565b5f608083015f83015161147f5f860182611404565b5060208301516114926020860182611413565b50604083015184820360408601526114aa8282611432565b91505060608301516114bf6060860182611404565b508091505092915050565b5f6114d5838361146a565b905092915050565b5f602082019050919050565b5f6114f3826113db565b6114fd81856113e5565b93508360208202850161150f856113f5565b805f5b8581101561154a578484038952815161152b85826114ca565b9450611536836114dd565b925060208a01995050600181019050611512565b50829750879550505050505092915050565b5f6020820190508181035f83015261157481846114e9565b905092915050565b5f60208201905061158f5f83018461131e565b92915050565b5f6020820190506115a85f830184611285565b92915050565b5f80fd5b5f80fd5b7f4e487b71000000000000000000000000000000000000000000000000000000005f52604160045260245ffd5b6115ec826112d6565b810181811067ffffffffffffffff8211171561160b5761160a6115b6565b5b80604052505050565b5f61161d611138565b905061162982826115e3565b919050565b5f67ffffffffffffffff821115611648576116476115b6565b5b611651826112d6565b9050602081019050919050565b828183375f83830152505050565b5f61167e6116798461162e565b611614565b90508281526020810184848401111561169a576116996115b2565b5b6116a584828561165e565b509392505050565b5f82601f8301126116c1576116c06115ae565b5b81356116d184826020860161166c565b91505092915050565b5f805f606084860312156116f1576116f0611141565b5b5f6116fe8682870161118f565b935050602061170f8682870161118f565b925050604084013567ffffffffffffffff8111156117305761172f611145565b5b61173c868287016116ad565b9150509250925092565b5f806040838503121561175c5761175b611141565b5b5f83013567ffffffffffffffff81111561177957611778611145565b5b611785858286016116ad565b92505060206117968582860161118f565b9150509250929050565b5f80604083850312156117b6576117b5611141565b5b5f6117c38582860161118f565b925050602083013567ffffffffffffffff8111156117e4576117e3611145565b5b6117f0858286016116ad565b9150509250929050565b5f60808201905061180d5f830187611285565b61181a602083018661131e565b818103604083015261182c81856112e6565b905061183b6060830184611285565b95945050505050565b5f6020828403121561185957611858611141565b5b5f82013567ffffffffffffffff81111561187657611875611145565b5b611882848285016116ad565b91505092915050565b7f4e487b71000000000000000000000000000000000000000000000000000000005f52602260045260245ffd5b5f60028204905060018216806118cf57607f821691505b6020821081036118e2576118e161188b565b5b50919050565b7f436f756e74206973206e6f742070726f706572000000000000000000000000005f82015250565b5f61191c60138361129e565b9150611927826118e8565b602082019050919050565b5f6020820190508181035f83015261194981611910565b9050919050565b7f4e487b71000000000000000000000000000000000000000000000000000000005f52601160045260245ffd5b5f61198782611214565b915061199283611214565b92508282039050818111156119aa576119a9611950565b5b92915050565b7f4e487b71000000000000000000000000000000000000000000000000000000005f52603260045260245ffd5b5f6119e782611214565b91506119f283611214565b9250828201905080821115611a0a57611a09611950565b5b92915050565b5f611a1a82611214565b91507fffffffffffffffffffffffffffffffffffffffffffffffffffffffffffffffff8203611a4c57611a4b611950565b5b600182019050919050565b7f436f756e74206973206e6f7420646566696e65640000000000000000000000005f82015250565b5f611a8b60148361129e565b9150611a9682611a57565b602082019050919050565b5f6020820190508181035f830152611ab881611a7f565b9050919050565b7f596f7520646f6e277420686176652061636365737300000000000000000000005f82015250565b5f611af360158361129e565b9150611afe82611abf565b602082019050919050565b5f6020820190508181035f830152611b2081611ae7565b9050919050565b5f819050815f5260205f209050919050565b5f6020601f8301049050919050565b5f82821b905092915050565b5f60088302611b837fffffffffffffffffffffffffffffffffffffffffffffffffffffffffffffffff82611b48565b611b8d8683611b48565b95508019841693508086168417925050509392505050565b5f819050919050565b5f611bc8611bc3611bbe84611214565b611ba5565b611214565b9050919050565b5f819050919050565b611be183611bae565b611bf5611bed82611bcf565b848454611b54565b825550505050565b5f90565b611c09611bfd565b611c14818484611bd8565b505050565b5b81811015611c3757611c2c5f82611c01565b600181019050611c1a565b5050565b601f821115611c7c57611c4d81611b27565b611c5684611b39565b81016020851015611c65578190505b611c79611c7185611b39565b830182611c19565b50505b505050565b5f82821c905092915050565b5f611c9c5f1984600802611c81565b1980831691505092915050565b5f611cb48383611c8d565b9150826002028217905092915050565b611ccd82611294565b67ffffffffffffffff811115611ce657611ce56115b6565b5b611cf082546118b8565b611cfb828285611c3b565b5f60209050601f831160018114611d2c575f8415611d1a578287015190505b611d248582611ca9565b865550611d8b565b601f198416611d3a86611b27565b5f5b82811015611d6157848901518255600182019150602085019450602081019050611d3c565b86831015611d7e5784890151611d7a601f891682611c8d565b8355505b6001600288020188555050505b50505050505056fea2646970667358221220327858d6b2f58ad67c46d7786231aee9dec3eb84ac85a756ee525a4aa2039d8c64736f6c63430008140033",
					"opcodes": "PUSH1 0x80 PUSH1 0x40 MSTORE CALLVALUE DUP1 ISZERO PUSH2 0xF JUMPI PUSH0 DUP1 REVERT JUMPDEST POP PUSH2 0x1DC9 DUP1 PUSH2 0x1D PUSH0 CODECOPY PUSH0 RETURN INVALID PUSH1 0x80 PUSH1 0x40 MSTORE CALLVALUE DUP1 ISZERO PUSH2 0xF JUMPI PUSH0 DUP1 REVERT JUMPDEST POP PUSH1 0x4 CALLDATASIZE LT PUSH2 0xE8 JUMPI PUSH0 CALLDATALOAD PUSH1 0xE0 SHR DUP1 PUSH4 0xAF22BF94 GT PUSH2 0x8A JUMPI DUP1 PUSH4 0xD21D1596 GT PUSH2 0x64 JUMPI DUP1 PUSH4 0xD21D1596 EQ PUSH2 0x280 JUMPI DUP1 PUSH4 0xE8D857B0 EQ PUSH2 0x29C JUMPI DUP1 PUSH4 0xFB46D4C5 EQ PUSH2 0x2CF JUMPI DUP1 PUSH4 0xFF9913E8 EQ PUSH2 0x2EB JUMPI PUSH2 0xE8 JUMP JUMPDEST DUP1 PUSH4 0xAF22BF94 EQ PUSH2 0x218 JUMPI DUP1 PUSH4 0xB88E318D EQ PUSH2 0x248 JUMPI DUP1 PUSH4 0xC48D6D5E EQ PUSH2 0x264 JUMPI PUSH2 0xE8 JUMP JUMPDEST DUP1 PUSH4 0x4DC0A687 GT PUSH2 0xC6 JUMPI DUP1 PUSH4 0x4DC0A687 EQ PUSH2 0x16C JUMPI DUP1 PUSH4 0x5284B64A EQ PUSH2 0x19C JUMPI DUP1 PUSH4 0x9139CDA5 EQ PUSH2 0x1CC JUMPI DUP1 PUSH4 0xA9ED9CB8 EQ PUSH2 0x1FC JUMPI PUSH2 0xE8 JUMP JUMPDEST DUP1 PUSH4 0x2637588E EQ PUSH2 0xEC JUMPI DUP1 PUSH4 0x3BEFEA09 EQ PUSH2 0x11C JUMPI DUP1 PUSH4 0x4DBF27CC EQ PUSH2 0x150 JUMPI JUMPDEST PUSH0 DUP1 REVERT JUMPDEST PUSH2 0x106 PUSH1 0x4 DUP1 CALLDATASIZE SUB DUP2 ADD SWAP1 PUSH2 0x101 SWAP2 SWAP1 PUSH2 0x11A3 JUMP JUMPDEST PUSH2 0x307 JUMP JUMPDEST PUSH1 0x40 MLOAD PUSH2 0x113 SWAP2 SWAP1 PUSH2 0x11FB JUMP JUMPDEST PUSH1 0x40 MLOAD DUP1 SWAP2 SUB SWAP1 RETURN JUMPDEST PUSH2 0x136 PUSH1 0x4 DUP1 CALLDATASIZE SUB DUP2 ADD SWAP1 PUSH2 0x131 SWAP2 SWAP1 PUSH2 0x1247 JUMP JUMPDEST PUSH2 0x331 JUMP JUMPDEST PUSH1 0x40 MLOAD PUSH2 0x147 SWAP6 SWAP5 SWAP4 SWAP3 SWAP2 SWAP1 PUSH2 0x132D JUMP JUMPDEST PUSH1 0x40 MLOAD DUP1 SWAP2 SUB SWAP1 RETURN JUMPDEST PUSH2 0x16A PUSH1 0x4 DUP1 CALLDATASIZE SUB DUP2 ADD SWAP1 PUSH2 0x165 SWAP2 SWAP1 PUSH2 0x1385 JUMP JUMPDEST PUSH2 0x441 JUMP JUMPDEST STOP JUMPDEST PUSH2 0x186 PUSH1 0x4 DUP1 CALLDATASIZE SUB DUP2 ADD SWAP1 PUSH2 0x181 SWAP2 SWAP1 PUSH2 0x13B0 JUMP JUMPDEST PUSH2 0x4DF JUMP JUMPDEST PUSH1 0x40 MLOAD PUSH2 0x193 SWAP2 SWAP1 PUSH2 0x155C JUMP JUMPDEST PUSH1 0x40 MLOAD DUP1 SWAP2 SUB SWAP1 RETURN JUMPDEST PUSH2 0x1B6 PUSH1 0x4 DUP1 CALLDATASIZE SUB DUP2 ADD SWAP1 PUSH2 0x1B1 SWAP2 SWAP1 PUSH2 0x1247 JUMP JUMPDEST PUSH2 0x6EF JUMP JUMPDEST PUSH1 0x40 MLOAD PUSH2 0x1C3 SWAP2 SWAP1 PUSH2 0x155C JUMP JUMPDEST PUSH1 0x40 MLOAD DUP1 SWAP2 SUB SWAP1 RETURN JUMPDEST PUSH2 0x1E6 PUSH1 0x4 DUP1 CALLDATASIZE SUB DUP2 ADD SWAP1 PUSH2 0x1E1 SWAP2 SWAP1 PUSH2 0x1247 JUMP JUMPDEST PUSH2 0x9A5 JUMP JUMPDEST PUSH1 0x40 MLOAD PUSH2 0x1F3 SWAP2 SWAP1 PUSH2 0x157C JUMP JUMPDEST PUSH1 0x40 MLOAD DUP1 SWAP2 SUB SWAP1 RETURN JUMPDEST PUSH2 0x216 PUSH1 0x4 DUP1 CALLDATASIZE SUB DUP2 ADD SWAP1 PUSH2 0x211 SWAP2 SWAP1 PUSH2 0x1385 JUMP JUMPDEST PUSH2 0x9ED JUMP JUMPDEST STOP JUMPDEST PUSH2 0x232 PUSH1 0x4 DUP1 CALLDATASIZE SUB DUP2 ADD SWAP1 PUSH2 0x22D SWAP2 SWAP1 PUSH2 0x1247 JUMP JUMPDEST PUSH2 0xA7F JUMP JUMPDEST PUSH1 0x40 MLOAD PUSH2 0x23F SWAP2 SWAP1 PUSH2 0x1595 JUMP JUMPDEST PUSH1 0x40 MLOAD DUP1 SWAP2 SUB SWAP1 RETURN JUMPDEST PUSH2 0x262 PUSH1 0x4 DUP1 CALLDATASIZE SUB DUP2 ADD SWAP1 PUSH2 0x25D SWAP2 SWAP1 PUSH2 0x16DA JUMP JUMPDEST PUSH2 0xAAA JUMP JUMPDEST STOP JUMPDEST PUSH2 0x27E PUSH1 0x4 DUP1 CALLDATASIZE SUB DUP2 ADD SWAP1 PUSH2 0x279 SWAP2 SWAP1 PUSH2 0x1746 JUMP JUMPDEST PUSH2 0xABA JUMP JUMPDEST STOP JUMPDEST PUSH2 0x29A PUSH1 0x4 DUP1 CALLDATASIZE SUB DUP2 ADD SWAP1 PUSH2 0x295 SWAP2 SWAP1 PUSH2 0x17A0 JUMP JUMPDEST PUSH2 0xAC9 JUMP JUMPDEST STOP JUMPDEST PUSH2 0x2B6 PUSH1 0x4 DUP1 CALLDATASIZE SUB DUP2 ADD SWAP1 PUSH2 0x2B1 SWAP2 SWAP1 PUSH2 0x13B0 JUMP JUMPDEST PUSH2 0xAD7 JUMP JUMPDEST PUSH1 0x40 MLOAD PUSH2 0x2C6 SWAP5 SWAP4 SWAP3 SWAP2 SWAP1 PUSH2 0x17FA JUMP JUMPDEST PUSH1 0x40 MLOAD DUP1 SWAP2 SUB SWAP1 RETURN JUMPDEST PUSH2 0x2E9 PUSH1 0x4 DUP1 CALLDATASIZE SUB DUP2 ADD SWAP1 PUSH2 0x2E4 SWAP2 SWAP1 PUSH2 0x1844 JUMP JUMPDEST PUSH2 0xBA7 JUMP JUMPDEST STOP JUMPDEST PUSH2 0x305 PUSH1 0x4 DUP1 CALLDATASIZE SUB DUP2 ADD SWAP1 PUSH2 0x300 SWAP2 SWAP1 PUSH2 0x1385 JUMP JUMPDEST PUSH2 0xBB4 JUMP JUMPDEST STOP JUMPDEST PUSH1 0x3 PUSH1 0x20 MSTORE DUP2 PUSH0 MSTORE PUSH1 0x40 PUSH0 KECCAK256 PUSH1 0x20 MSTORE DUP1 PUSH0 MSTORE PUSH1 0x40 PUSH0 KECCAK256 PUSH0 SWAP2 POP SWAP2 POP SWAP1 SLOAD SWAP1 PUSH2 0x100 EXP SWAP1 DIV PUSH1 0xFF AND DUP2 JUMP JUMPDEST PUSH1 0x2 PUSH1 0x20 MSTORE DUP2 PUSH0 MSTORE PUSH1 0x40 PUSH0 KECCAK256 DUP2 DUP2 SLOAD DUP2 LT PUSH2 0x34A JUMPI PUSH0 DUP1 REVERT JUMPDEST SWAP1 PUSH0 MSTORE PUSH1 0x20 PUSH0 KECCAK256 SWAP1 PUSH1 0x5 MUL ADD PUSH0 SWAP2 POP SWAP2 POP POP DUP1 PUSH0 ADD SLOAD SWAP1 DUP1 PUSH1 0x1 ADD DUP1 SLOAD PUSH2 0x370 SWAP1 PUSH2 0x18B8 JUMP JUMPDEST DUP1 PUSH1 0x1F ADD PUSH1 0x20 DUP1 SWAP2 DIV MUL PUSH1 0x20 ADD PUSH1 0x40 MLOAD SWAP1 DUP2 ADD PUSH1 0x40 MSTORE DUP1 SWAP3 SWAP2 SWAP1 DUP2 DUP2 MSTORE PUSH1 0x20 ADD DUP3 DUP1 SLOAD PUSH2 0x39C SWAP1 PUSH2 0x18B8 JUMP JUMPDEST DUP1 ISZERO PUSH2 0x3E7 JUMPI DUP1 PUSH1 0x1F LT PUSH2 0x3BE JUMPI PUSH2 0x100 DUP1 DUP4 SLOAD DIV MUL DUP4 MSTORE SWAP2 PUSH1 0x20 ADD SWAP2 PUSH2 0x3E7 JUMP JUMPDEST DUP3 ADD SWAP2 SWAP1 PUSH0 MSTORE PUSH1 0x20 PUSH0 KECCAK256 SWAP1 JUMPDEST DUP2 SLOAD DUP2 MSTORE SWAP1 PUSH1 0x1 ADD SWAP1 PUSH1 0x20 ADD DUP1 DUP4 GT PUSH2 0x3CA JUMPI DUP3 SWAP1 SUB PUSH1 0x1F AND DUP3 ADD SWAP2 JUMPDEST POP POP POP POP POP SWAP1 DUP1 PUSH1 0x2 ADD PUSH0 SWAP1 SLOAD SWAP1 PUSH2 0x100 EXP SWAP1 DIV PUSH20 0xFFFFFFFFFFFFFFFFFFFFFFFFFFFFFFFFFFFFFFFF AND SWAP1 DUP1 PUSH1 0x3 ADD PUSH0 SWAP1 SLOAD SWAP1 PUSH2 0x100 EXP SWAP1 DIV PUSH20 0xFFFFFFFFFFFFFFFFFFFFFFFFFFFFFFFFFFFFFFFF AND SWAP1 DUP1 PUSH1 0x4 ADD SLOAD SWAP1 POP DUP6 JUMP JUMPDEST PUSH1 0x4 PUSH0 CALLER PUSH20 0xFFFFFFFFFFFFFFFFFFFFFFFFFFFFFFFFFFFFFFFF AND PUSH20 0xFFFFFFFFFFFFFFFFFFFFFFFFFFFFFFFFFFFFFFFF AND DUP2 MSTORE PUSH1 0x20 ADD SWAP1 DUP2 MSTORE PUSH1 0x20 ADD PUSH0 KECCAK256 DUP2 SWAP1 DUP1 PUSH1 0x1 DUP2 SLOAD ADD DUP1 DUP3 SSTORE DUP1 SWAP2 POP POP PUSH1 0x1 SWAP1 SUB SWAP1 PUSH0 MSTORE PUSH1 0x20 PUSH0 KECCAK256 ADD PUSH0 SWAP1 SWAP2 SWAP1 SWAP2 SWAP1 SWAP2 PUSH2 0x100 EXP DUP2 SLOAD DUP2 PUSH20 0xFFFFFFFFFFFFFFFFFFFFFFFFFFFFFFFFFFFFFFFF MUL NOT AND SWAP1 DUP4 PUSH20 0xFFFFFFFFFFFFFFFFFFFFFFFFFFFFFFFFFFFFFFFF AND MUL OR SWAP1 SSTORE POP POP JUMP JUMPDEST PUSH1 0x60 PUSH0 DUP3 GT DUP1 ISZERO PUSH2 0x4F2 JUMPI POP PUSH1 0x5 SLOAD DUP3 GT ISZERO JUMPDEST PUSH2 0x531 JUMPI PUSH1 0x40 MLOAD PUSH32 0x8C379A000000000000000000000000000000000000000000000000000000000 DUP2 MSTORE PUSH1 0x4 ADD PUSH2 0x528 SWAP1 PUSH2 0x1932 JUMP JUMPDEST PUSH1 0x40 MLOAD DUP1 SWAP2 SUB SWAP1 REVERT JUMPDEST PUSH0 DUP3 PUSH8 0xFFFFFFFFFFFFFFFF DUP2 GT ISZERO PUSH2 0x54C JUMPI PUSH2 0x54B PUSH2 0x15B6 JUMP JUMPDEST JUMPDEST PUSH1 0x40 MLOAD SWAP1 DUP1 DUP3 MSTORE DUP1 PUSH1 0x20 MUL PUSH1 0x20 ADD DUP3 ADD PUSH1 0x40 MSTORE DUP1 ISZERO PUSH2 0x585 JUMPI DUP2 PUSH1 0x20 ADD JUMPDEST PUSH2 0x572 PUSH2 0x10FD JUMP JUMPDEST DUP2 MSTORE PUSH1 0x20 ADD SWAP1 PUSH1 0x1 SWAP1 SUB SWAP1 DUP2 PUSH2 0x56A JUMPI SWAP1 POP JUMPDEST POP SWAP1 POP PUSH0 DUP1 DUP5 PUSH1 0x5 SLOAD PUSH2 0x598 SWAP2 SWAP1 PUSH2 0x197D JUMP JUMPDEST SWAP1 POP JUMPDEST PUSH1 0x5 SLOAD DUP2 LT ISZERO PUSH2 0x6E4 JUMPI PUSH0 DUP1 PUSH0 DUP4 DUP2 MSTORE PUSH1 0x20 ADD SWAP1 DUP2 MSTORE PUSH1 0x20 ADD PUSH0 KECCAK256 SWAP1 POP PUSH1 0x40 MLOAD DUP1 PUSH1 0x80 ADD PUSH1 0x40 MSTORE DUP1 DUP3 PUSH0 ADD SLOAD DUP2 MSTORE PUSH1 0x20 ADD DUP3 PUSH1 0x1 ADD PUSH0 SWAP1 SLOAD SWAP1 PUSH2 0x100 EXP SWAP1 DIV PUSH20 0xFFFFFFFFFFFFFFFFFFFFFFFFFFFFFFFFFFFFFFFF AND PUSH20 0xFFFFFFFFFFFFFFFFFFFFFFFFFFFFFFFFFFFFFFFF AND DUP2 MSTORE PUSH1 0x20 ADD DUP3 PUSH1 0x2 ADD DUP1 SLOAD PUSH2 0x61A SWAP1 PUSH2 0x18B8 JUMP JUMPDEST DUP1 PUSH1 0x1F ADD PUSH1 0x20 DUP1 SWAP2 DIV MUL PUSH1 0x20 ADD PUSH1 0x40 MLOAD SWAP1 DUP2 ADD PUSH1 0x40 MSTORE DUP1 SWAP3 SWAP2 SWAP1 DUP2 DUP2 MSTORE PUSH1 0x20 ADD DUP3 DUP1 SLOAD PUSH2 0x646 SWAP1 PUSH2 0x18B8 JUMP JUMPDEST DUP1 ISZERO PUSH2 0x691 JUMPI DUP1 PUSH1 0x1F LT PUSH2 0x668 JUMPI PUSH2 0x100 DUP1 DUP4 SLOAD DIV MUL DUP4 MSTORE SWAP2 PUSH1 0x20 ADD SWAP2 PUSH2 0x691 JUMP JUMPDEST DUP3 ADD SWAP2 SWAP1 PUSH0 MSTORE PUSH1 0x20 PUSH0 KECCAK256 SWAP1 JUMPDEST DUP2 SLOAD DUP2 MSTORE SWAP1 PUSH1 0x1 ADD SWAP1 PUSH1 0x20 ADD DUP1 DUP4 GT PUSH2 0x674 JUMPI DUP3 SWAP1 SUB PUSH1 0x1F AND DUP3 ADD SWAP2 JUMPDEST POP POP POP POP POP DUP2 MSTORE PUSH1 0x20 ADD DUP3 PUSH1 0x3 ADD SLOAD DUP2 MSTORE POP DUP5 DUP5 DUP2 MLOAD DUP2 LT PUSH2 0x6B6 JUMPI PUSH2 0x6B5 PUSH2 0x19B0 JUMP JUMPDEST JUMPDEST PUSH1 0x20 MUL PUSH1 0x20 ADD ADD DUP2 SWAP1 MSTORE POP PUSH1 0x1 DUP4 PUSH2 0x6CE SWAP2 SWAP1 PUSH2 0x19DD JUMP JUMPDEST SWAP3 POP POP DUP1 DUP1 PUSH2 0x6DC SWAP1 PUSH2 0x1A10 JUMP JUMPDEST SWAP2 POP POP PUSH2 0x59B JUMP JUMPDEST POP DUP2 SWAP3 POP POP POP SWAP2 SWAP1 POP JUMP JUMPDEST PUSH1 0x60 PUSH0 DUP3 PUSH8 0xFFFFFFFFFFFFFFFF DUP2 GT ISZERO PUSH2 0x70C JUMPI PUSH2 0x70B PUSH2 0x15B6 JUMP JUMPDEST JUMPDEST PUSH1 0x40 MLOAD SWAP1 DUP1 DUP3 MSTORE DUP1 PUSH1 0x20 MUL PUSH1 0x20 ADD DUP3 ADD PUSH1 0x40 MSTORE DUP1 ISZERO PUSH2 0x745 JUMPI DUP2 PUSH1 0x20 ADD JUMPDEST PUSH2 0x732 PUSH2 0x10FD JUMP JUMPDEST DUP2 MSTORE PUSH1 0x20 ADD SWAP1 PUSH1 0x1 SWAP1 SUB SWAP1 DUP2 PUSH2 0x72A JUMPI SWAP1 POP JUMPDEST POP SWAP1 POP PUSH0 PUSH1 0x1 PUSH0 DUP7 PUSH20 0xFFFFFFFFFFFFFFFFFFFFFFFFFFFFFFFFFFFFFFFF AND PUSH20 0xFFFFFFFFFFFFFFFFFFFFFFFFFFFFFFFFFFFFFFFF AND DUP2 MSTORE PUSH1 0x20 ADD SWAP1 DUP2 MSTORE PUSH1 0x20 ADD PUSH0 KECCAK256 DUP1 SLOAD DUP1 PUSH1 0x20 MUL PUSH1 0x20 ADD PUSH1 0x40 MLOAD SWAP1 DUP2 ADD PUSH1 0x40 MSTORE DUP1 SWAP3 SWAP2 SWAP1 DUP2 DUP2 MSTORE PUSH1 0x20 ADD DUP3 DUP1 SLOAD DUP1 ISZERO PUSH2 0x7CE JUMPI PUSH1 0x20 MUL DUP3 ADD SWAP2 SWAP1 PUSH0 MSTORE PUSH1 0x20 PUSH0 KECCAK256 SWAP1 JUMPDEST DUP2 SLOAD DUP2 MSTORE PUSH1 0x20 ADD SWAP1 PUSH1 0x1 ADD SWAP1 DUP1 DUP4 GT PUSH2 0x7BA JUMPI JUMPDEST POP POP POP POP POP SWAP1 POP PUSH0 DUP5 GT DUP1 ISZERO PUSH2 0x7E5 JUMPI POP DUP1 MLOAD DUP5 GT ISZERO JUMPDEST PUSH2 0x824 JUMPI PUSH1 0x40 MLOAD PUSH32 0x8C379A000000000000000000000000000000000000000000000000000000000 DUP2 MSTORE PUSH1 0x4 ADD PUSH2 0x81B SWAP1 PUSH2 0x1AA1 JUMP JUMPDEST PUSH1 0x40 MLOAD DUP1 SWAP2 SUB SWAP1 REVERT JUMPDEST PUSH0 DUP1 DUP6 DUP4 MLOAD PUSH2 0x833 SWAP2 SWAP1 PUSH2 0x197D JUMP JUMPDEST SWAP1 POP JUMPDEST DUP3 MLOAD DUP2 LT ISZERO PUSH2 0x998 JUMPI PUSH0 DUP1 PUSH0 DUP6 DUP5 DUP2 MLOAD DUP2 LT PUSH2 0x855 JUMPI PUSH2 0x854 PUSH2 0x19B0 JUMP JUMPDEST JUMPDEST PUSH1 0x20 MUL PUSH1 0x20 ADD ADD MLOAD DUP2 MSTORE PUSH1 0x20 ADD SWAP1 DUP2 MSTORE PUSH1 0x20 ADD PUSH0 KECCAK256 SWAP1 POP PUSH1 0x40 MLOAD DUP1 PUSH1 0x80 ADD PUSH1 0x40 MSTORE DUP1 DUP3 PUSH0 ADD SLOAD DUP2 MSTORE PUSH1 0x20 ADD DUP3 PUSH1 0x1 ADD PUSH0 SWAP1 SLOAD SWAP1 PUSH2 0x100 EXP SWAP1 DIV PUSH20 0xFFFFFFFFFFFFFFFFFFFFFFFFFFFFFFFFFFFFFFFF AND PUSH20 0xFFFFFFFFFFFFFFFFFFFFFFFFFFFFFFFFFFFFFFFF AND DUP2 MSTORE PUSH1 0x20 ADD DUP3 PUSH1 0x2 ADD DUP1 SLOAD PUSH2 0x8CE SWAP1 PUSH2 0x18B8 JUMP JUMPDEST DUP1 PUSH1 0x1F ADD PUSH1 0x20 DUP1 SWAP2 DIV MUL PUSH1 0x20 ADD PUSH1 0x40 MLOAD SWAP1 DUP2 ADD PUSH1 0x40 MSTORE DUP1 SWAP3 SWAP2 SWAP1 DUP2 DUP2 MSTORE PUSH1 0x20 ADD DUP3 DUP1 SLOAD PUSH2 0x8FA SWAP1 PUSH2 0x18B8 JUMP JUMPDEST DUP1 ISZERO PUSH2 0x945 JUMPI DUP1 PUSH1 0x1F LT PUSH2 0x91C JUMPI PUSH2 0x100 DUP1 DUP4 SLOAD DIV MUL DUP4 MSTORE SWAP2 PUSH1 0x20 ADD SWAP2 PUSH2 0x945 JUMP JUMPDEST DUP3 ADD SWAP2 SWAP1 PUSH0 MSTORE PUSH1 0x20 PUSH0 KECCAK256 SWAP1 JUMPDEST DUP2 SLOAD DUP2 MSTORE SWAP1 PUSH1 0x1 ADD SWAP1 PUSH1 0x20 ADD DUP1 DUP4 GT PUSH2 0x928 JUMPI DUP3 SWAP1 SUB PUSH1 0x1F AND DUP3 ADD SWAP2 JUMPDEST POP POP POP POP POP DUP2 MSTORE PUSH1 0x20 ADD DUP3 PUSH1 0x3 ADD SLOAD DUP2 MSTORE POP DUP6 DUP5 DUP2 MLOAD DUP2 LT PUSH2 0x96A JUMPI PUSH2 0x969 PUSH2 0x19B0 JUMP JUMPDEST JUMPDEST PUSH1 0x20 MUL PUSH1 0x20 ADD ADD DUP2 SWAP1 MSTORE POP PUSH1 0x1 DUP4 PUSH2 0x982 SWAP2 SWAP1 PUSH2 0x19DD JUMP JUMPDEST SWAP3 POP POP DUP1 DUP1 PUSH2 0x990 SWAP1 PUSH2 0x1A10 JUMP JUMPDEST SWAP2 POP POP PUSH2 0x836 JUMP JUMPDEST POP DUP3 SWAP4 POP POP POP POP SWAP3 SWAP2 POP POP JUMP JUMPDEST PUSH1 0x4 PUSH1 0x20 MSTORE DUP2 PUSH0 MSTORE PUSH1 0x40 PUSH0 KECCAK256 DUP2 DUP2 SLOAD DUP2 LT PUSH2 0x9BE JUMPI PUSH0 DUP1 REVERT JUMPDEST SWAP1 PUSH0 MSTORE PUSH1 0x20 PUSH0 KECCAK256 ADD PUSH0 SWAP2 POP SWAP2 POP SWAP1 SLOAD SWAP1 PUSH2 0x100 EXP SWAP1 DIV PUSH20 0xFFFFFFFFFFFFFFFFFFFFFFFFFFFFFFFFFFFFFFFF AND DUP2 JUMP JUMPDEST PUSH0 PUSH1 0x3 PUSH0 CALLER PUSH20 0xFFFFFFFFFFFFFFFFFFFFFFFFFFFFFFFFFFFFFFFF AND PUSH20 0xFFFFFFFFFFFFFFFFFFFFFFFFFFFFFFFFFFFFFFFF AND DUP2 MSTORE PUSH1 0x20 ADD SWAP1 DUP2 MSTORE PUSH1 0x20 ADD PUSH0 KECCAK256 PUSH0 DUP4 PUSH20 0xFFFFFFFFFFFFFFFFFFFFFFFFFFFFFFFFFFFFFFFF AND PUSH20 0xFFFFFFFFFFFFFFFFFFFFFFFFFFFFFFFFFFFFFFFF AND DUP2 MSTORE PUSH1 0x20 ADD SWAP1 DUP2 MSTORE PUSH1 0x20 ADD PUSH0 KECCAK256 PUSH0 PUSH2 0x100 EXP DUP2 SLOAD DUP2 PUSH1 0xFF MUL NOT AND SWAP1 DUP4 ISZERO ISZERO MUL OR SWAP1 SSTORE POP POP JUMP JUMPDEST PUSH1 0x1 PUSH1 0x20 MSTORE DUP2 PUSH0 MSTORE PUSH1 0x40 PUSH0 KECCAK256 DUP2 DUP2 SLOAD DUP2 LT PUSH2 0xA98 JUMPI PUSH0 DUP1 REVERT JUMPDEST SWAP1 PUSH0 MSTORE PUSH1 0x20 PUSH0 KECCAK256 ADD PUSH0 SWAP2 POP SWAP2 POP POP SLOAD DUP2 JUMP JUMPDEST PUSH2 0xAB5 DUP4 DUP4 DUP4 PUSH2 0xC47 JUMP JUMPDEST POP POP POP JUMP JUMPDEST PUSH2 0xAC5 CALLER DUP3 DUP5 PUSH2 0xC47 JUMP JUMPDEST POP POP JUMP JUMPDEST PUSH2 0xAD3 DUP3 DUP3 PUSH2 0xECB JUMP JUMPDEST POP POP JUMP JUMPDEST PUSH0 PUSH1 0x20 MSTORE DUP1 PUSH0 MSTORE PUSH1 0x40 PUSH0 KECCAK256 PUSH0 SWAP2 POP SWAP1 POP DUP1 PUSH0 ADD SLOAD SWAP1 DUP1 PUSH1 0x1 ADD PUSH0 SWAP1 SLOAD SWAP1 PUSH2 0x100 EXP SWAP1 DIV PUSH20 0xFFFFFFFFFFFFFFFFFFFFFFFFFFFFFFFFFFFFFFFF AND SWAP1 DUP1 PUSH1 0x2 ADD DUP1 SLOAD PUSH2 0xB20 SWAP1 PUSH2 0x18B8 JUMP JUMPDEST DUP1 PUSH1 0x1F ADD PUSH1 0x20 DUP1 SWAP2 DIV MUL PUSH1 0x20 ADD PUSH1 0x40 MLOAD SWAP1 DUP2 ADD PUSH1 0x40 MSTORE DUP1 SWAP3 SWAP2 SWAP1 DUP2 DUP2 MSTORE PUSH1 0x20 ADD DUP3 DUP1 SLOAD PUSH2 0xB4C SWAP1 PUSH2 0x18B8 JUMP JUMPDEST DUP1 ISZERO PUSH2 0xB97 JUMPI DUP1 PUSH1 0x1F LT PUSH2 0xB6E JUMPI PUSH2 0x100 DUP1 DUP4 SLOAD DIV MUL DUP4 MSTORE SWAP2 PUSH1 0x20 ADD SWAP2 PUSH2 0xB97 JUMP JUMPDEST DUP3 ADD SWAP2 SWAP1 PUSH0 MSTORE PUSH1 0x20 PUSH0 KECCAK256 SWAP1 JUMPDEST DUP2 SLOAD DUP2 MSTORE SWAP1 PUSH1 0x1 ADD SWAP1 PUSH1 0x20 ADD DUP1 DUP4 GT PUSH2 0xB7A JUMPI DUP3 SWAP1 SUB PUSH1 0x1F AND DUP3 ADD SWAP2 JUMPDEST POP POP POP POP POP SWAP1 DUP1 PUSH1 0x3 ADD SLOAD SWAP1 POP DUP5 JUMP JUMPDEST PUSH2 0xBB1 CALLER DUP3 PUSH2 0xECB JUMP JUMPDEST POP JUMP JUMPDEST PUSH1 0x1 PUSH1 0x3 PUSH0 CALLER PUSH20 0xFFFFFFFFFFFFFFFFFFFFFFFFFFFFFFFFFFFFFFFF AND PUSH20 0xFFFFFFFFFFFFFFFFFFFFFFFFFFFFFFFFFFFFFFFF AND DUP2 MSTORE PUSH1 0x20 ADD SWAP1 DUP2 MSTORE PUSH1 0x20 ADD PUSH0 KECCAK256 PUSH0 DUP4 PUSH20 0xFFFFFFFFFFFFFFFFFFFFFFFFFFFFFFFFFFFFFFFF AND PUSH20 0xFFFFFFFFFFFFFFFFFFFFFFFFFFFFFFFFFFFFFFFF AND DUP2 MSTORE PUSH1 0x20 ADD SWAP1 DUP2 MSTORE PUSH1 0x20 ADD PUSH0 KECCAK256 PUSH0 PUSH2 0x100 EXP DUP2 SLOAD DUP2 PUSH1 0xFF MUL NOT AND SWAP1 DUP4 ISZERO ISZERO MUL OR SWAP1 SSTORE POP POP JUMP JUMPDEST CALLER PUSH20 0xFFFFFFFFFFFFFFFFFFFFFFFFFFFFFFFFFFFFFFFF AND DUP4 PUSH20 0xFFFFFFFFFFFFFFFFFFFFFFFFFFFFFFFFFFFFFFFF AND EQ DUP1 PUSH2 0xD02 JUMPI POP PUSH1 0x3 PUSH0 DUP5 PUSH20 0xFFFFFFFFFFFFFFFFFFFFFFFFFFFFFFFFFFFFFFFF AND PUSH20 0xFFFFFFFFFFFFFFFFFFFFFFFFFFFFFFFFFFFFFFFF AND DUP2 MSTORE PUSH1 0x20 ADD SWAP1 DUP2 MSTORE PUSH1 0x20 ADD PUSH0 KECCAK256 PUSH0 CALLER PUSH20 0xFFFFFFFFFFFFFFFFFFFFFFFFFFFFFFFFFFFFFFFF AND PUSH20 0xFFFFFFFFFFFFFFFFFFFFFFFFFFFFFFFFFFFFFFFF AND DUP2 MSTORE PUSH1 0x20 ADD SWAP1 DUP2 MSTORE PUSH1 0x20 ADD PUSH0 KECCAK256 PUSH0 SWAP1 SLOAD SWAP1 PUSH2 0x100 EXP SWAP1 DIV PUSH1 0xFF AND JUMPDEST PUSH2 0xD41 JUMPI PUSH1 0x40 MLOAD PUSH32 0x8C379A000000000000000000000000000000000000000000000000000000000 DUP2 MSTORE PUSH1 0x4 ADD PUSH2 0xD38 SWAP1 PUSH2 0x1B09 JUMP JUMPDEST PUSH1 0x40 MLOAD DUP1 SWAP2 SUB SWAP1 REVERT JUMPDEST PUSH1 0x2 PUSH0 DUP5 PUSH20 0xFFFFFFFFFFFFFFFFFFFFFFFFFFFFFFFFFFFFFFFF AND PUSH20 0xFFFFFFFFFFFFFFFFFFFFFFFFFFFFFFFFFFFFFFFF AND DUP2 MSTORE PUSH1 0x20 ADD SWAP1 DUP2 MSTORE PUSH1 0x20 ADD PUSH0 KECCAK256 PUSH1 0x40 MLOAD DUP1 PUSH1 0xA0 ADD PUSH1 0x40 MSTORE DUP1 PUSH1 0x6 SLOAD DUP2 MSTORE PUSH1 0x20 ADD DUP4 DUP2 MSTORE PUSH1 0x20 ADD DUP6 PUSH20 0xFFFFFFFFFFFFFFFFFFFFFFFFFFFFFFFFFFFFFFFF AND DUP2 MSTORE PUSH1 0x20 ADD DUP5 PUSH20 0xFFFFFFFFFFFFFFFFFFFFFFFFFFFFFFFFFFFFFFFF AND DUP2 MSTORE PUSH1 0x20 ADD TIMESTAMP DUP2 MSTORE POP SWAP1 DUP1 PUSH1 0x1 DUP2 SLOAD ADD DUP1 DUP3 SSTORE DUP1 SWAP2 POP POP PUSH1 0x1 SWAP1 SUB SWAP1 PUSH0 MSTORE PUSH1 0x20 PUSH0 KECCAK256 SWAP1 PUSH1 0x5 MUL ADD PUSH0 SWAP1 SWAP2 SWAP1 SWAP2 SWAP1 SWAP2 POP PUSH0 DUP3 ADD MLOAD DUP2 PUSH0 ADD SSTORE PUSH1 0x20 DUP3 ADD MLOAD DUP2 PUSH1 0x1 ADD SWAP1 DUP2 PUSH2 0xE16 SWAP2 SWAP1 PUSH2 0x1CC4 JUMP JUMPDEST POP PUSH1 0x40 DUP3 ADD MLOAD DUP2 PUSH1 0x2 ADD PUSH0 PUSH2 0x100 EXP DUP2 SLOAD DUP2 PUSH20 0xFFFFFFFFFFFFFFFFFFFFFFFFFFFFFFFFFFFFFFFF MUL NOT AND SWAP1 DUP4 PUSH20 0xFFFFFFFFFFFFFFFFFFFFFFFFFFFFFFFFFFFFFFFF AND MUL OR SWAP1 SSTORE POP PUSH1 0x60 DUP3 ADD MLOAD DUP2 PUSH1 0x3 ADD PUSH0 PUSH2 0x100 EXP DUP2 SLOAD DUP2 PUSH20 0xFFFFFFFFFFFFFFFFFFFFFFFFFFFFFFFFFFFFFFFF MUL NOT AND SWAP1 DUP4 PUSH20 0xFFFFFFFFFFFFFFFFFFFFFFFFFFFFFFFFFFFFFFFF AND MUL OR SWAP1 SSTORE POP PUSH1 0x80 DUP3 ADD MLOAD DUP2 PUSH1 0x4 ADD SSTORE POP POP PUSH1 0x6 PUSH0 DUP2 SLOAD DUP1 SWAP3 SWAP2 SWAP1 PUSH2 0xEC1 SWAP1 PUSH2 0x1A10 JUMP JUMPDEST SWAP2 SWAP1 POP SSTORE POP POP POP POP JUMP JUMPDEST CALLER PUSH20 0xFFFFFFFFFFFFFFFFFFFFFFFFFFFFFFFFFFFFFFFF AND DUP3 PUSH20 0xFFFFFFFFFFFFFFFFFFFFFFFFFFFFFFFFFFFFFFFF AND EQ DUP1 PUSH2 0xF86 JUMPI POP PUSH1 0x3 PUSH0 DUP4 PUSH20 0xFFFFFFFFFFFFFFFFFFFFFFFFFFFFFFFFFFFFFFFF AND PUSH20 0xFFFFFFFFFFFFFFFFFFFFFFFFFFFFFFFFFFFFFFFF AND DUP2 MSTORE PUSH1 0x20 ADD SWAP1 DUP2 MSTORE PUSH1 0x20 ADD PUSH0 KECCAK256 PUSH0 CALLER PUSH20 0xFFFFFFFFFFFFFFFFFFFFFFFFFFFFFFFFFFFFFFFF AND PUSH20 0xFFFFFFFFFFFFFFFFFFFFFFFFFFFFFFFFFFFFFFFF AND DUP2 MSTORE PUSH1 0x20 ADD SWAP1 DUP2 MSTORE PUSH1 0x20 ADD PUSH0 KECCAK256 PUSH0 SWAP1 SLOAD SWAP1 PUSH2 0x100 EXP SWAP1 DIV PUSH1 0xFF AND JUMPDEST PUSH2 0xFC5 JUMPI PUSH1 0x40 MLOAD PUSH32 0x8C379A000000000000000000000000000000000000000000000000000000000 DUP2 MSTORE PUSH1 0x4 ADD PUSH2 0xFBC SWAP1 PUSH2 0x1B09 JUMP JUMPDEST PUSH1 0x40 MLOAD DUP1 SWAP2 SUB SWAP1 REVERT JUMPDEST PUSH1 0x40 MLOAD DUP1 PUSH1 0x80 ADD PUSH1 0x40 MSTORE DUP1 PUSH1 0x5 SLOAD DUP2 MSTORE PUSH1 0x20 ADD DUP4 PUSH20 0xFFFFFFFFFFFFFFFFFFFFFFFFFFFFFFFFFFFFFFFF AND DUP2 MSTORE PUSH1 0x20 ADD DUP3 DUP2 MSTORE PUSH1 0x20 ADD TIMESTAMP DUP2 MSTORE POP PUSH0 DUP1 PUSH1 0x5 SLOAD DUP2 MSTORE PUSH1 0x20 ADD SWAP1 DUP2 MSTORE PUSH1 0x20 ADD PUSH0 KECCAK256 PUSH0 DUP3 ADD MLOAD DUP2 PUSH0 ADD SSTORE PUSH1 0x20 DUP3 ADD MLOAD DUP2 PUSH1 0x1 ADD PUSH0 PUSH2 0x100 EXP DUP2 SLOAD DUP2 PUSH20 0xFFFFFFFFFFFFFFFFFFFFFFFFFFFFFFFFFFFFFFFF MUL NOT AND SWAP1 DUP4 PUSH20 0xFFFFFFFFFFFFFFFFFFFFFFFFFFFFFFFFFFFFFFFF AND MUL OR SWAP1 SSTORE POP PUSH1 0x40 DUP3 ADD MLOAD DUP2 PUSH1 0x2 ADD SWAP1 DUP2 PUSH2 0x1073 SWAP2 SWAP1 PUSH2 0x1CC4 JUMP JUMPDEST POP PUSH1 0x60 DUP3 ADD MLOAD DUP2 PUSH1 0x3 ADD SSTORE SWAP1 POP POP PUSH1 0x1 PUSH0 DUP4 PUSH20 0xFFFFFFFFFFFFFFFFFFFFFFFFFFFFFFFFFFFFFFFF AND PUSH20 0xFFFFFFFFFFFFFFFFFFFFFFFFFFFFFFFFFFFFFFFF AND DUP2 MSTORE PUSH1 0x20 ADD SWAP1 DUP2 MSTORE PUSH1 0x20 ADD PUSH0 KECCAK256 PUSH1 0x5 SLOAD SWAP1 DUP1 PUSH1 0x1 DUP2 SLOAD ADD DUP1 DUP3 SSTORE DUP1 SWAP2 POP POP PUSH1 0x1 SWAP1 SUB SWAP1 PUSH0 MSTORE PUSH1 0x20 PUSH0 KECCAK256 ADD PUSH0 SWAP1 SWAP2 SWAP1 SWAP2 SWAP1 SWAP2 POP SSTORE PUSH1 0x1 PUSH1 0x5 SLOAD PUSH2 0x10F3 SWAP2 SWAP1 PUSH2 0x19DD JUMP JUMPDEST PUSH1 0x5 DUP2 SWAP1 SSTORE POP POP POP JUMP JUMPDEST PUSH1 0x40 MLOAD DUP1 PUSH1 0x80 ADD PUSH1 0x40 MSTORE DUP1 PUSH0 DUP2 MSTORE PUSH1 0x20 ADD PUSH0 PUSH20 0xFFFFFFFFFFFFFFFFFFFFFFFFFFFFFFFFFFFFFFFF AND DUP2 MSTORE PUSH1 0x20 ADD PUSH1 0x60 DUP2 MSTORE PUSH1 0x20 ADD PUSH0 DUP2 MSTORE POP SWAP1 JUMP JUMPDEST PUSH0 PUSH1 0x40 MLOAD SWAP1 POP SWAP1 JUMP JUMPDEST PUSH0 DUP1 REVERT JUMPDEST PUSH0 DUP1 REVERT JUMPDEST PUSH0 PUSH20 0xFFFFFFFFFFFFFFFFFFFFFFFFFFFFFFFFFFFFFFFF DUP3 AND SWAP1 POP SWAP2 SWAP1 POP JUMP JUMPDEST PUSH0 PUSH2 0x1172 DUP3 PUSH2 0x1149 JUMP JUMPDEST SWAP1 POP SWAP2 SWAP1 POP JUMP JUMPDEST PUSH2 0x1182 DUP2 PUSH2 0x1168 JUMP JUMPDEST DUP2 EQ PUSH2 0x118C JUMPI PUSH0 DUP1 REVERT JUMPDEST POP JUMP JUMPDEST PUSH0 DUP2 CALLDATALOAD SWAP1 POP PUSH2 0x119D DUP2 PUSH2 0x1179 JUMP JUMPDEST SWAP3 SWAP2 POP POP JUMP JUMPDEST PUSH0 DUP1 PUSH1 0x40 DUP4 DUP6 SUB SLT ISZERO PUSH2 0x11B9 JUMPI PUSH2 0x11B8 PUSH2 0x1141 JUMP JUMPDEST JUMPDEST PUSH0 PUSH2 0x11C6 DUP6 DUP3 DUP7 ADD PUSH2 0x118F JUMP JUMPDEST SWAP3 POP POP PUSH1 0x20 PUSH2 0x11D7 DUP6 DUP3 DUP7 ADD PUSH2 0x118F JUMP JUMPDEST SWAP2 POP POP SWAP3 POP SWAP3 SWAP1 POP JUMP JUMPDEST PUSH0 DUP2 ISZERO ISZERO SWAP1 POP SWAP2 SWAP1 POP JUMP JUMPDEST PUSH2 0x11F5 DUP2 PUSH2 0x11E1 JUMP JUMPDEST DUP3 MSTORE POP POP JUMP JUMPDEST PUSH0 PUSH1 0x20 DUP3 ADD SWAP1 POP PUSH2 0x120E PUSH0 DUP4 ADD DUP5 PUSH2 0x11EC JUMP JUMPDEST SWAP3 SWAP2 POP POP JUMP JUMPDEST PUSH0 DUP2 SWAP1 POP SWAP2 SWAP1 POP JUMP JUMPDEST PUSH2 0x1226 DUP2 PUSH2 0x1214 JUMP JUMPDEST DUP2 EQ PUSH2 0x1230 JUMPI PUSH0 DUP1 REVERT JUMPDEST POP JUMP JUMPDEST PUSH0 DUP2 CALLDATALOAD SWAP1 POP PUSH2 0x1241 DUP2 PUSH2 0x121D JUMP JUMPDEST SWAP3 SWAP2 POP POP JUMP JUMPDEST PUSH0 DUP1 PUSH1 0x40 DUP4 DUP6 SUB SLT ISZERO PUSH2 0x125D JUMPI PUSH2 0x125C PUSH2 0x1141 JUMP JUMPDEST JUMPDEST PUSH0 PUSH2 0x126A DUP6 DUP3 DUP7 ADD PUSH2 0x118F JUMP JUMPDEST SWAP3 POP POP PUSH1 0x20 PUSH2 0x127B DUP6 DUP3 DUP7 ADD PUSH2 0x1233 JUMP JUMPDEST SWAP2 POP POP SWAP3 POP SWAP3 SWAP1 POP JUMP JUMPDEST PUSH2 0x128E DUP2 PUSH2 0x1214 JUMP JUMPDEST DUP3 MSTORE POP POP JUMP JUMPDEST PUSH0 DUP2 MLOAD SWAP1 POP SWAP2 SWAP1 POP JUMP JUMPDEST PUSH0 DUP3 DUP3 MSTORE PUSH1 0x20 DUP3 ADD SWAP1 POP SWAP3 SWAP2 POP POP JUMP JUMPDEST PUSH0 JUMPDEST DUP4 DUP2 LT ISZERO PUSH2 0x12CB JUMPI DUP1 DUP3 ADD MLOAD DUP2 DUP5 ADD MSTORE PUSH1 0x20 DUP2 ADD SWAP1 POP PUSH2 0x12B0 JUMP JUMPDEST PUSH0 DUP5 DUP5 ADD MSTORE POP POP POP POP JUMP JUMPDEST PUSH0 PUSH1 0x1F NOT PUSH1 0x1F DUP4 ADD AND SWAP1 POP SWAP2 SWAP1 POP JUMP JUMPDEST PUSH0 PUSH2 0x12F0 DUP3 PUSH2 0x1294 JUMP JUMPDEST PUSH2 0x12FA DUP2 DUP6 PUSH2 0x129E JUMP JUMPDEST SWAP4 POP PUSH2 0x130A DUP2 DUP6 PUSH1 0x20 DUP7 ADD PUSH2 0x12AE JUMP JUMPDEST PUSH2 0x1313 DUP2 PUSH2 0x12D6 JUMP JUMPDEST DUP5 ADD SWAP2 POP POP SWAP3 SWAP2 POP POP JUMP JUMPDEST PUSH2 0x1327 DUP2 PUSH2 0x1168 JUMP JUMPDEST DUP3 MSTORE POP POP JUMP JUMPDEST PUSH0 PUSH1 0xA0 DUP3 ADD SWAP1 POP PUSH2 0x1340 PUSH0 DUP4 ADD DUP9 PUSH2 0x1285 JUMP JUMPDEST DUP2 DUP2 SUB PUSH1 0x20 DUP4 ADD MSTORE PUSH2 0x1352 DUP2 DUP8 PUSH2 0x12E6 JUMP JUMPDEST SWAP1 POP PUSH2 0x1361 PUSH1 0x40 DUP4 ADD DUP7 PUSH2 0x131E JUMP JUMPDEST PUSH2 0x136E PUSH1 0x60 DUP4 ADD DUP6 PUSH2 0x131E JUMP JUMPDEST PUSH2 0x137B PUSH1 0x80 DUP4 ADD DUP5 PUSH2 0x1285 JUMP JUMPDEST SWAP7 SWAP6 POP POP POP POP POP POP JUMP JUMPDEST PUSH0 PUSH1 0x20 DUP3 DUP5 SUB SLT ISZERO PUSH2 0x139A JUMPI PUSH2 0x1399 PUSH2 0x1141 JUMP JUMPDEST JUMPDEST PUSH0 PUSH2 0x13A7 DUP5 DUP3 DUP6 ADD PUSH2 0x118F JUMP JUMPDEST SWAP2 POP POP SWAP3 SWAP2 POP POP JUMP JUMPDEST PUSH0 PUSH1 0x20 DUP3 DUP5 SUB SLT ISZERO PUSH2 0x13C5 JUMPI PUSH2 0x13C4 PUSH2 0x1141 JUMP JUMPDEST JUMPDEST PUSH0 PUSH2 0x13D2 DUP5 DUP3 DUP6 ADD PUSH2 0x1233 JUMP JUMPDEST SWAP2 POP POP SWAP3 SWAP2 POP POP JUMP JUMPDEST PUSH0 DUP2 MLOAD SWAP1 POP SWAP2 SWAP1 POP JUMP JUMPDEST PUSH0 DUP3 DUP3 MSTORE PUSH1 0x20 DUP3 ADD SWAP1 POP SWAP3 SWAP2 POP POP JUMP JUMPDEST PUSH0 DUP2 SWAP1 POP PUSH1 0x20 DUP3 ADD SWAP1 POP SWAP2 SWAP1 POP JUMP JUMPDEST PUSH2 0x140D DUP2 PUSH2 0x1214 JUMP JUMPDEST DUP3 MSTORE POP POP JUMP JUMPDEST PUSH2 0x141C DUP2 PUSH2 0x1168 JUMP JUMPDEST DUP3 MSTORE POP POP JUMP JUMPDEST PUSH0 DUP3 DUP3 MSTORE PUSH1 0x20 DUP3 ADD SWAP1 POP SWAP3 SWAP2 POP POP JUMP JUMPDEST PUSH0 PUSH2 0x143C DUP3 PUSH2 0x1294 JUMP JUMPDEST PUSH2 0x1446 DUP2 DUP6 PUSH2 0x1422 JUMP JUMPDEST SWAP4 POP PUSH2 0x1456 DUP2 DUP6 PUSH1 0x20 DUP7 ADD PUSH2 0x12AE JUMP JUMPDEST PUSH2 0x145F DUP2 PUSH2 0x12D6 JUMP JUMPDEST DUP5 ADD SWAP2 POP POP SWAP3 SWAP2 POP POP JUMP JUMPDEST PUSH0 PUSH1 0x80 DUP4 ADD PUSH0 DUP4 ADD MLOAD PUSH2 0x147F PUSH0 DUP7 ADD DUP3 PUSH2 0x1404 JUMP JUMPDEST POP PUSH1 0x20 DUP4 ADD MLOAD PUSH2 0x1492 PUSH1 0x20 DUP7 ADD DUP3 PUSH2 0x1413 JUMP JUMPDEST POP PUSH1 0x40 DUP4 ADD MLOAD DUP5 DUP3 SUB PUSH1 0x40 DUP7 ADD MSTORE PUSH2 0x14AA DUP3 DUP3 PUSH2 0x1432 JUMP JUMPDEST SWAP2 POP POP PUSH1 0x60 DUP4 ADD MLOAD PUSH2 0x14BF PUSH1 0x60 DUP7 ADD DUP3 PUSH2 0x1404 JUMP JUMPDEST POP DUP1 SWAP2 POP POP SWAP3 SWAP2 POP POP JUMP JUMPDEST PUSH0 PUSH2 0x14D5 DUP4 DUP4 PUSH2 0x146A JUMP JUMPDEST SWAP1 POP SWAP3 SWAP2 POP POP JUMP JUMPDEST PUSH0 PUSH1 0x20 DUP3 ADD SWAP1 POP SWAP2 SWAP1 POP JUMP JUMPDEST PUSH0 PUSH2 0x14F3 DUP3 PUSH2 0x13DB JUMP JUMPDEST PUSH2 0x14FD DUP2 DUP6 PUSH2 0x13E5 JUMP JUMPDEST SWAP4 POP DUP4 PUSH1 0x20 DUP3 MUL DUP6 ADD PUSH2 0x150F DUP6 PUSH2 0x13F5 JUMP JUMPDEST DUP1 PUSH0 JUMPDEST DUP6 DUP2 LT ISZERO PUSH2 0x154A JUMPI DUP5 DUP5 SUB DUP10 MSTORE DUP2 MLOAD PUSH2 0x152B DUP6 DUP3 PUSH2 0x14CA JUMP JUMPDEST SWAP5 POP PUSH2 0x1536 DUP4 PUSH2 0x14DD JUMP JUMPDEST SWAP3 POP PUSH1 0x20 DUP11 ADD SWAP10 POP POP PUSH1 0x1 DUP2 ADD SWAP1 POP PUSH2 0x1512 JUMP JUMPDEST POP DUP3 SWAP8 POP DUP8 SWAP6 POP POP POP POP POP POP SWAP3 SWAP2 POP POP JUMP JUMPDEST PUSH0 PUSH1 0x20 DUP3 ADD SWAP1 POP DUP2 DUP2 SUB PUSH0 DUP4 ADD MSTORE PUSH2 0x1574 DUP2 DUP5 PUSH2 0x14E9 JUMP JUMPDEST SWAP1 POP SWAP3 SWAP2 POP POP JUMP JUMPDEST PUSH0 PUSH1 0x20 DUP3 ADD SWAP1 POP PUSH2 0x158F PUSH0 DUP4 ADD DUP5 PUSH2 0x131E JUMP JUMPDEST SWAP3 SWAP2 POP POP JUMP JUMPDEST PUSH0 PUSH1 0x20 DUP3 ADD SWAP1 POP PUSH2 0x15A8 PUSH0 DUP4 ADD DUP5 PUSH2 0x1285 JUMP JUMPDEST SWAP3 SWAP2 POP POP JUMP JUMPDEST PUSH0 DUP1 REVERT JUMPDEST PUSH0 DUP1 REVERT JUMPDEST PUSH32 0x4E487B7100000000000000000000000000000000000000000000000000000000 PUSH0 MSTORE PUSH1 0x41 PUSH1 0x4 MSTORE PUSH1 0x24 PUSH0 REVERT JUMPDEST PUSH2 0x15EC DUP3 PUSH2 0x12D6 JUMP JUMPDEST DUP2 ADD DUP2 DUP2 LT PUSH8 0xFFFFFFFFFFFFFFFF DUP3 GT OR ISZERO PUSH2 0x160B JUMPI PUSH2 0x160A PUSH2 0x15B6 JUMP JUMPDEST JUMPDEST DUP1 PUSH1 0x40 MSTORE POP POP POP JUMP JUMPDEST PUSH0 PUSH2 0x161D PUSH2 0x1138 JUMP JUMPDEST SWAP1 POP PUSH2 0x1629 DUP3 DUP3 PUSH2 0x15E3 JUMP JUMPDEST SWAP2 SWAP1 POP JUMP JUMPDEST PUSH0 PUSH8 0xFFFFFFFFFFFFFFFF DUP3 GT ISZERO PUSH2 0x1648 JUMPI PUSH2 0x1647 PUSH2 0x15B6 JUMP JUMPDEST JUMPDEST PUSH2 0x1651 DUP3 PUSH2 0x12D6 JUMP JUMPDEST SWAP1 POP PUSH1 0x20 DUP2 ADD SWAP1 POP SWAP2 SWAP1 POP JUMP JUMPDEST DUP3 DUP2 DUP4 CALLDATACOPY PUSH0 DUP4 DUP4 ADD MSTORE POP POP POP JUMP JUMPDEST PUSH0 PUSH2 0x167E PUSH2 0x1679 DUP5 PUSH2 0x162E JUMP JUMPDEST PUSH2 0x1614 JUMP JUMPDEST SWAP1 POP DUP3 DUP2 MSTORE PUSH1 0x20 DUP2 ADD DUP5 DUP5 DUP5 ADD GT ISZERO PUSH2 0x169A JUMPI PUSH2 0x1699 PUSH2 0x15B2 JUMP JUMPDEST JUMPDEST PUSH2 0x16A5 DUP5 DUP3 DUP6 PUSH2 0x165E JUMP JUMPDEST POP SWAP4 SWAP3 POP POP POP JUMP JUMPDEST PUSH0 DUP3 PUSH1 0x1F DUP4 ADD SLT PUSH2 0x16C1 JUMPI PUSH2 0x16C0 PUSH2 0x15AE JUMP JUMPDEST JUMPDEST DUP2 CALLDATALOAD PUSH2 0x16D1 DUP5 DUP3 PUSH1 0x20 DUP7 ADD PUSH2 0x166C JUMP JUMPDEST SWAP2 POP POP SWAP3 SWAP2 POP POP JUMP JUMPDEST PUSH0 DUP1 PUSH0 PUSH1 0x60 DUP5 DUP7 SUB SLT ISZERO PUSH2 0x16F1 JUMPI PUSH2 0x16F0 PUSH2 0x1141 JUMP JUMPDEST JUMPDEST PUSH0 PUSH2 0x16FE DUP7 DUP3 DUP8 ADD PUSH2 0x118F JUMP JUMPDEST SWAP4 POP POP PUSH1 0x20 PUSH2 0x170F DUP7 DUP3 DUP8 ADD PUSH2 0x118F JUMP JUMPDEST SWAP3 POP POP PUSH1 0x40 DUP5 ADD CALLDATALOAD PUSH8 0xFFFFFFFFFFFFFFFF DUP2 GT ISZERO PUSH2 0x1730 JUMPI PUSH2 0x172F PUSH2 0x1145 JUMP JUMPDEST JUMPDEST PUSH2 0x173C DUP7 DUP3 DUP8 ADD PUSH2 0x16AD JUMP JUMPDEST SWAP2 POP POP SWAP3 POP SWAP3 POP SWAP3 JUMP JUMPDEST PUSH0 DUP1 PUSH1 0x40 DUP4 DUP6 SUB SLT ISZERO PUSH2 0x175C JUMPI PUSH2 0x175B PUSH2 0x1141 JUMP JUMPDEST JUMPDEST PUSH0 DUP4 ADD CALLDATALOAD PUSH8 0xFFFFFFFFFFFFFFFF DUP2 GT ISZERO PUSH2 0x1779 JUMPI PUSH2 0x1778 PUSH2 0x1145 JUMP JUMPDEST JUMPDEST PUSH2 0x1785 DUP6 DUP3 DUP7 ADD PUSH2 0x16AD JUMP JUMPDEST SWAP3 POP POP PUSH1 0x20 PUSH2 0x1796 DUP6 DUP3 DUP7 ADD PUSH2 0x118F JUMP JUMPDEST SWAP2 POP POP SWAP3 POP SWAP3 SWAP1 POP JUMP JUMPDEST PUSH0 DUP1 PUSH1 0x40 DUP4 DUP6 SUB SLT ISZERO PUSH2 0x17B6 JUMPI PUSH2 0x17B5 PUSH2 0x1141 JUMP JUMPDEST JUMPDEST PUSH0 PUSH2 0x17C3 DUP6 DUP3 DUP7 ADD PUSH2 0x118F JUMP JUMPDEST SWAP3 POP POP PUSH1 0x20 DUP4 ADD CALLDATALOAD PUSH8 0xFFFFFFFFFFFFFFFF DUP2 GT ISZERO PUSH2 0x17E4 JUMPI PUSH2 0x17E3 PUSH2 0x1145 JUMP JUMPDEST JUMPDEST PUSH2 0x17F0 DUP6 DUP3 DUP7 ADD PUSH2 0x16AD JUMP JUMPDEST SWAP2 POP POP SWAP3 POP SWAP3 SWAP1 POP JUMP JUMPDEST PUSH0 PUSH1 0x80 DUP3 ADD SWAP1 POP PUSH2 0x180D PUSH0 DUP4 ADD DUP8 PUSH2 0x1285 JUMP JUMPDEST PUSH2 0x181A PUSH1 0x20 DUP4 ADD DUP7 PUSH2 0x131E JUMP JUMPDEST DUP2 DUP2 SUB PUSH1 0x40 DUP4 ADD MSTORE PUSH2 0x182C DUP2 DUP6 PUSH2 0x12E6 JUMP JUMPDEST SWAP1 POP PUSH2 0x183B PUSH1 0x60 DUP4 ADD DUP5 PUSH2 0x1285 JUMP JUMPDEST SWAP6 SWAP5 POP POP POP POP POP JUMP JUMPDEST PUSH0 PUSH1 0x20 DUP3 DUP5 SUB SLT ISZERO PUSH2 0x1859 JUMPI PUSH2 0x1858 PUSH2 0x1141 JUMP JUMPDEST JUMPDEST PUSH0 DUP3 ADD CALLDATALOAD PUSH8 0xFFFFFFFFFFFFFFFF DUP2 GT ISZERO PUSH2 0x1876 JUMPI PUSH2 0x1875 PUSH2 0x1145 JUMP JUMPDEST JUMPDEST PUSH2 0x1882 DUP5 DUP3 DUP6 ADD PUSH2 0x16AD JUMP JUMPDEST SWAP2 POP POP SWAP3 SWAP2 POP POP JUMP JUMPDEST PUSH32 0x4E487B7100000000000000000000000000000000000000000000000000000000 PUSH0 MSTORE PUSH1 0x22 PUSH1 0x4 MSTORE PUSH1 0x24 PUSH0 REVERT JUMPDEST PUSH0 PUSH1 0x2 DUP3 DIV SWAP1 POP PUSH1 0x1 DUP3 AND DUP1 PUSH2 0x18CF JUMPI PUSH1 0x7F DUP3 AND SWAP2 POP JUMPDEST PUSH1 0x20 DUP3 LT DUP2 SUB PUSH2 0x18E2 JUMPI PUSH2 0x18E1 PUSH2 0x188B JUMP JUMPDEST JUMPDEST POP SWAP2 SWAP1 POP JUMP JUMPDEST PUSH32 0x436F756E74206973206E6F742070726F70657200000000000000000000000000 PUSH0 DUP3 ADD MSTORE POP JUMP JUMPDEST PUSH0 PUSH2 0x191C PUSH1 0x13 DUP4 PUSH2 0x129E JUMP JUMPDEST SWAP2 POP PUSH2 0x1927 DUP3 PUSH2 0x18E8 JUMP JUMPDEST PUSH1 0x20 DUP3 ADD SWAP1 POP SWAP2 SWAP1 POP JUMP JUMPDEST PUSH0 PUSH1 0x20 DUP3 ADD SWAP1 POP DUP2 DUP2 SUB PUSH0 DUP4 ADD MSTORE PUSH2 0x1949 DUP2 PUSH2 0x1910 JUMP JUMPDEST SWAP1 POP SWAP2 SWAP1 POP JUMP JUMPDEST PUSH32 0x4E487B7100000000000000000000000000000000000000000000000000000000 PUSH0 MSTORE PUSH1 0x11 PUSH1 0x4 MSTORE PUSH1 0x24 PUSH0 REVERT JUMPDEST PUSH0 PUSH2 0x1987 DUP3 PUSH2 0x1214 JUMP JUMPDEST SWAP2 POP PUSH2 0x1992 DUP4 PUSH2 0x1214 JUMP JUMPDEST SWAP3 POP DUP3 DUP3 SUB SWAP1 POP DUP2 DUP2 GT ISZERO PUSH2 0x19AA JUMPI PUSH2 0x19A9 PUSH2 0x1950 JUMP JUMPDEST JUMPDEST SWAP3 SWAP2 POP POP JUMP JUMPDEST PUSH32 0x4E487B7100000000000000000000000000000000000000000000000000000000 PUSH0 MSTORE PUSH1 0x32 PUSH1 0x4 MSTORE PUSH1 0x24 PUSH0 REVERT JUMPDEST PUSH0 PUSH2 0x19E7 DUP3 PUSH2 0x1214 JUMP JUMPDEST SWAP2 POP PUSH2 0x19F2 DUP4 PUSH2 0x1214 JUMP JUMPDEST SWAP3 POP DUP3 DUP3 ADD SWAP1 POP DUP1 DUP3 GT ISZERO PUSH2 0x1A0A JUMPI PUSH2 0x1A09 PUSH2 0x1950 JUMP JUMPDEST JUMPDEST SWAP3 SWAP2 POP POP JUMP JUMPDEST PUSH0 PUSH2 0x1A1A DUP3 PUSH2 0x1214 JUMP JUMPDEST SWAP2 POP PUSH32 0xFFFFFFFFFFFFFFFFFFFFFFFFFFFFFFFFFFFFFFFFFFFFFFFFFFFFFFFFFFFFFFFF DUP3 SUB PUSH2 0x1A4C JUMPI PUSH2 0x1A4B PUSH2 0x1950 JUMP JUMPDEST JUMPDEST PUSH1 0x1 DUP3 ADD SWAP1 POP SWAP2 SWAP1 POP JUMP JUMPDEST PUSH32 0x436F756E74206973206E6F7420646566696E6564000000000000000000000000 PUSH0 DUP3 ADD MSTORE POP JUMP JUMPDEST PUSH0 PUSH2 0x1A8B PUSH1 0x14 DUP4 PUSH2 0x129E JUMP JUMPDEST SWAP2 POP PUSH2 0x1A96 DUP3 PUSH2 0x1A57 JUMP JUMPDEST PUSH1 0x20 DUP3 ADD SWAP1 POP SWAP2 SWAP1 POP JUMP JUMPDEST PUSH0 PUSH1 0x20 DUP3 ADD SWAP1 POP DUP2 DUP2 SUB PUSH0 DUP4 ADD MSTORE PUSH2 0x1AB8 DUP2 PUSH2 0x1A7F JUMP JUMPDEST SWAP1 POP SWAP2 SWAP1 POP JUMP JUMPDEST PUSH32 0x596F7520646F6E27742068617665206163636573730000000000000000000000 PUSH0 DUP3 ADD MSTORE POP JUMP JUMPDEST PUSH0 PUSH2 0x1AF3 PUSH1 0x15 DUP4 PUSH2 0x129E JUMP JUMPDEST SWAP2 POP PUSH2 0x1AFE DUP3 PUSH2 0x1ABF JUMP JUMPDEST PUSH1 0x20 DUP3 ADD SWAP1 POP SWAP2 SWAP1 POP JUMP JUMPDEST PUSH0 PUSH1 0x20 DUP3 ADD SWAP1 POP DUP2 DUP2 SUB PUSH0 DUP4 ADD MSTORE PUSH2 0x1B20 DUP2 PUSH2 0x1AE7 JUMP JUMPDEST SWAP1 POP SWAP2 SWAP1 POP JUMP JUMPDEST PUSH0 DUP2 SWAP1 POP DUP2 PUSH0 MSTORE PUSH1 0x20 PUSH0 KECCAK256 SWAP1 POP SWAP2 SWAP1 POP JUMP JUMPDEST PUSH0 PUSH1 0x20 PUSH1 0x1F DUP4 ADD DIV SWAP1 POP SWAP2 SWAP1 POP JUMP JUMPDEST PUSH0 DUP3 DUP3 SHL SWAP1 POP SWAP3 SWAP2 POP POP JUMP JUMPDEST PUSH0 PUSH1 0x8 DUP4 MUL PUSH2 0x1B83 PUSH32 0xFFFFFFFFFFFFFFFFFFFFFFFFFFFFFFFFFFFFFFFFFFFFFFFFFFFFFFFFFFFFFFFF DUP3 PUSH2 0x1B48 JUMP JUMPDEST PUSH2 0x1B8D DUP7 DUP4 PUSH2 0x1B48 JUMP JUMPDEST SWAP6 POP DUP1 NOT DUP5 AND SWAP4 POP DUP1 DUP7 AND DUP5 OR SWAP3 POP POP POP SWAP4 SWAP3 POP POP POP JUMP JUMPDEST PUSH0 DUP2 SWAP1 POP SWAP2 SWAP1 POP JUMP JUMPDEST PUSH0 PUSH2 0x1BC8 PUSH2 0x1BC3 PUSH2 0x1BBE DUP5 PUSH2 0x1214 JUMP JUMPDEST PUSH2 0x1BA5 JUMP JUMPDEST PUSH2 0x1214 JUMP JUMPDEST SWAP1 POP SWAP2 SWAP1 POP JUMP JUMPDEST PUSH0 DUP2 SWAP1 POP SWAP2 SWAP1 POP JUMP JUMPDEST PUSH2 0x1BE1 DUP4 PUSH2 0x1BAE JUMP JUMPDEST PUSH2 0x1BF5 PUSH2 0x1BED DUP3 PUSH2 0x1BCF JUMP JUMPDEST DUP5 DUP5 SLOAD PUSH2 0x1B54 JUMP JUMPDEST DUP3 SSTORE POP POP POP POP JUMP JUMPDEST PUSH0 SWAP1 JUMP JUMPDEST PUSH2 0x1C09 PUSH2 0x1BFD JUMP JUMPDEST PUSH2 0x1C14 DUP2 DUP5 DUP5 PUSH2 0x1BD8 JUMP JUMPDEST POP POP POP JUMP JUMPDEST JUMPDEST DUP2 DUP2 LT ISZERO PUSH2 0x1C37 JUMPI PUSH2 0x1C2C PUSH0 DUP3 PUSH2 0x1C01 JUMP JUMPDEST PUSH1 0x1 DUP2 ADD SWAP1 POP PUSH2 0x1C1A JUMP JUMPDEST POP POP JUMP JUMPDEST PUSH1 0x1F DUP3 GT ISZERO PUSH2 0x1C7C JUMPI PUSH2 0x1C4D DUP2 PUSH2 0x1B27 JUMP JUMPDEST PUSH2 0x1C56 DUP5 PUSH2 0x1B39 JUMP JUMPDEST DUP2 ADD PUSH1 0x20 DUP6 LT ISZERO PUSH2 0x1C65 JUMPI DUP2 SWAP1 POP JUMPDEST PUSH2 0x1C79 PUSH2 0x1C71 DUP6 PUSH2 0x1B39 JUMP JUMPDEST DUP4 ADD DUP3 PUSH2 0x1C19 JUMP JUMPDEST POP POP JUMPDEST POP POP POP JUMP JUMPDEST PUSH0 DUP3 DUP3 SHR SWAP1 POP SWAP3 SWAP2 POP POP JUMP JUMPDEST PUSH0 PUSH2 0x1C9C PUSH0 NOT DUP5 PUSH1 0x8 MUL PUSH2 0x1C81 JUMP JUMPDEST NOT DUP1 DUP4 AND SWAP2 POP POP SWAP3 SWAP2 POP POP JUMP JUMPDEST PUSH0 PUSH2 0x1CB4 DUP4 DUP4 PUSH2 0x1C8D JUMP JUMPDEST SWAP2 POP DUP3 PUSH1 0x2 MUL DUP3 OR SWAP1 POP SWAP3 SWAP2 POP POP JUMP JUMPDEST PUSH2 0x1CCD DUP3 PUSH2 0x1294 JUMP JUMPDEST PUSH8 0xFFFFFFFFFFFFFFFF DUP2 GT ISZERO PUSH2 0x1CE6 JUMPI PUSH2 0x1CE5 PUSH2 0x15B6 JUMP JUMPDEST JUMPDEST PUSH2 0x1CF0 DUP3 SLOAD PUSH2 0x18B8 JUMP JUMPDEST PUSH2 0x1CFB DUP3 DUP3 DUP6 PUSH2 0x1C3B JUMP JUMPDEST PUSH0 PUSH1 0x20 SWAP1 POP PUSH1 0x1F DUP4 GT PUSH1 0x1 DUP2 EQ PUSH2 0x1D2C JUMPI PUSH0 DUP5 ISZERO PUSH2 0x1D1A JUMPI DUP3 DUP8 ADD MLOAD SWAP1 POP JUMPDEST PUSH2 0x1D24 DUP6 DUP3 PUSH2 0x1CA9 JUMP JUMPDEST DUP7 SSTORE POP PUSH2 0x1D8B JUMP JUMPDEST PUSH1 0x1F NOT DUP5 AND PUSH2 0x1D3A DUP7 PUSH2 0x1B27 JUMP JUMPDEST PUSH0 JUMPDEST DUP3 DUP2 LT ISZERO PUSH2 0x1D61 JUMPI DUP5 DUP10 ADD MLOAD DUP3 SSTORE PUSH1 0x1 DUP3 ADD SWAP2 POP PUSH1 0x20 DUP6 ADD SWAP5 POP PUSH1 0x20 DUP2 ADD SWAP1 POP PUSH2 0x1D3C JUMP JUMPDEST DUP7 DUP4 LT ISZERO PUSH2 0x1D7E JUMPI DUP5 DUP10 ADD MLOAD PUSH2 0x1D7A PUSH1 0x1F DUP10 AND DUP3 PUSH2 0x1C8D JUMP JUMPDEST DUP4 SSTORE POP JUMPDEST PUSH1 0x1 PUSH1 0x2 DUP9 MUL ADD DUP9 SSTORE POP POP POP JUMPDEST POP POP POP POP POP POP JUMP INVALID LOG2 PUSH5 0x6970667358 0x22 SLT KECCAK256 ORIGIN PUSH25 0x58D6B2F58AD67C46D7786231AEE9DEC3EB84AC85A756EE525A 0x4A LOG2 SUB SWAP14 DUP13 PUSH5 0x736F6C6343 STOP ADDMOD EQ STOP CALLER "
				},
				"gasEstimates": {
					"creation": {
						"codeDepositCost": "1525000",
						"executionCost": "1594",
						"totalCost": "1526594"
					},
					"external": {
						"allow(address)": "24978",
						"conversations(address,uint256)": "infinite",
						"disallow(address)": "24978",
						"follow(address)": "49180",
						"following(address,uint256)": "infinite",
						"getLatestTweets(uint256)": "infinite",
						"getLatestofUser(address,uint256)": "infinite",
						"operators(address,address)": "infinite",
						"sendMessage(address,address,string)": "infinite",
						"sendMessage(string,address)": "infinite",
						"tweet(address,string)": "infinite",
						"tweet(string)": "infinite",
						"tweets(uint256)": "infinite",
						"tweetsOf(address,uint256)": "infinite"
					},
					"internal": {
						"_sendMessage(address,address,string memory)": "infinite",
						"_tweet(address,string memory)": "infinite"
					}
				},
				"methodIdentifiers": {
					"allow(address)": "ff9913e8",
					"conversations(address,uint256)": "3befea09",
					"disallow(address)": "a9ed9cb8",
					"follow(address)": "4dbf27cc",
					"following(address,uint256)": "9139cda5",
					"getLatestTweets(uint256)": "4dc0a687",
					"getLatestofUser(address,uint256)": "5284b64a",
					"operators(address,address)": "2637588e",
					"sendMessage(address,address,string)": "b88e318d",
					"sendMessage(string,address)": "c48d6d5e",
					"tweet(address,string)": "d21d1596",
					"tweet(string)": "fb46d4c5",
					"tweets(uint256)": "e8d857b0",
					"tweetsOf(address,uint256)": "af22bf94"
				}
			},
			"storageLayout": {
				"storage": [
					{
						"astId": 26,
						"contract": "contracts/Twitter.sol:TweetContract",
						"label": "tweets",
						"offset": 0,
						"slot": "0",
						"type": "t_mapping(t_uint256,t_struct(Tweet)10_storage)"
					},
					{
						"astId": 31,
						"contract": "contracts/Twitter.sol:TweetContract",
						"label": "tweetsOf",
						"offset": 0,
						"slot": "1",
						"type": "t_mapping(t_address,t_array(t_uint256)dyn_storage)"
					},
					{
						"astId": 37,
						"contract": "contracts/Twitter.sol:TweetContract",
						"label": "conversations",
						"offset": 0,
						"slot": "2",
						"type": "t_mapping(t_address,t_array(t_struct(Message)21_storage)dyn_storage)"
					},
					{
						"astId": 43,
						"contract": "contracts/Twitter.sol:TweetContract",
						"label": "operators",
						"offset": 0,
						"slot": "3",
						"type": "t_mapping(t_address,t_mapping(t_address,t_bool))"
					},
					{
						"astId": 48,
						"contract": "contracts/Twitter.sol:TweetContract",
						"label": "following",
						"offset": 0,
						"slot": "4",
						"type": "t_mapping(t_address,t_array(t_address)dyn_storage)"
					},
					{
						"astId": 50,
						"contract": "contracts/Twitter.sol:TweetContract",
						"label": "nextId",
						"offset": 0,
						"slot": "5",
						"type": "t_uint256"
					},
					{
						"astId": 52,
						"contract": "contracts/Twitter.sol:TweetContract",
						"label": "nextMessageId",
						"offset": 0,
						"slot": "6",
						"type": "t_uint256"
					}
				],
				"types": {
					"t_address": {
						"encoding": "inplace",
						"label": "address",
						"numberOfBytes": "20"
					},
					"t_array(t_address)dyn_storage": {
						"base": "t_address",
						"encoding": "dynamic_array",
						"label": "address[]",
						"numberOfBytes": "32"
					},
					"t_array(t_struct(Message)21_storage)dyn_storage": {
						"base": "t_struct(Message)21_storage",
						"encoding": "dynamic_array",
						"label": "struct TweetContract.Message[]",
						"numberOfBytes": "32"
					},
					"t_array(t_uint256)dyn_storage": {
						"base": "t_uint256",
						"encoding": "dynamic_array",
						"label": "uint256[]",
						"numberOfBytes": "32"
					},
					"t_bool": {
						"encoding": "inplace",
						"label": "bool",
						"numberOfBytes": "1"
					},
					"t_mapping(t_address,t_array(t_address)dyn_storage)": {
						"encoding": "mapping",
						"key": "t_address",
						"label": "mapping(address => address[])",
						"numberOfBytes": "32",
						"value": "t_array(t_address)dyn_storage"
					},
					"t_mapping(t_address,t_array(t_struct(Message)21_storage)dyn_storage)": {
						"encoding": "mapping",
						"key": "t_address",
						"label": "mapping(address => struct TweetContract.Message[])",
						"numberOfBytes": "32",
						"value": "t_array(t_struct(Message)21_storage)dyn_storage"
					},
					"t_mapping(t_address,t_array(t_uint256)dyn_storage)": {
						"encoding": "mapping",
						"key": "t_address",
						"label": "mapping(address => uint256[])",
						"numberOfBytes": "32",
						"value": "t_array(t_uint256)dyn_storage"
					},
					"t_mapping(t_address,t_bool)": {
						"encoding": "mapping",
						"key": "t_address",
						"label": "mapping(address => bool)",
						"numberOfBytes": "32",
						"value": "t_bool"
					},
					"t_mapping(t_address,t_mapping(t_address,t_bool))": {
						"encoding": "mapping",
						"key": "t_address",
						"label": "mapping(address => mapping(address => bool))",
						"numberOfBytes": "32",
						"value": "t_mapping(t_address,t_bool)"
					},
					"t_mapping(t_uint256,t_struct(Tweet)10_storage)": {
						"encoding": "mapping",
						"key": "t_uint256",
						"label": "mapping(uint256 => struct TweetContract.Tweet)",
						"numberOfBytes": "32",
						"value": "t_struct(Tweet)10_storage"
					},
					"t_string_storage": {
						"encoding": "bytes",
						"label": "string",
						"numberOfBytes": "32"
					},
					"t_struct(Message)21_storage": {
						"encoding": "inplace",
						"label": "struct TweetContract.Message",
						"members": [
							{
								"astId": 12,
								"contract": "contracts/Twitter.sol:TweetContract",
								"label": "id",
								"offset": 0,
								"slot": "0",
								"type": "t_uint256"
							},
							{
								"astId": 14,
								"contract": "contracts/Twitter.sol:TweetContract",
								"label": "content",
								"offset": 0,
								"slot": "1",
								"type": "t_string_storage"
							},
							{
								"astId": 16,
								"contract": "contracts/Twitter.sol:TweetContract",
								"label": "from",
								"offset": 0,
								"slot": "2",
								"type": "t_address"
							},
							{
								"astId": 18,
								"contract": "contracts/Twitter.sol:TweetContract",
								"label": "to",
								"offset": 0,
								"slot": "3",
								"type": "t_address"
							},
							{
								"astId": 20,
								"contract": "contracts/Twitter.sol:TweetContract",
								"label": "createdAt",
								"offset": 0,
								"slot": "4",
								"type": "t_uint256"
							}
						],
						"numberOfBytes": "160"
					},
					"t_struct(Tweet)10_storage": {
						"encoding": "inplace",
						"label": "struct TweetContract.Tweet",
						"members": [
							{
								"astId": 3,
								"contract": "contracts/Twitter.sol:TweetContract",
								"label": "id",
								"offset": 0,
								"slot": "0",
								"type": "t_uint256"
							},
							{
								"astId": 5,
								"contract": "contracts/Twitter.sol:TweetContract",
								"label": "author",
								"offset": 0,
								"slot": "1",
								"type": "t_address"
							},
							{
								"astId": 7,
								"contract": "contracts/Twitter.sol:TweetContract",
								"label": "content",
								"offset": 0,
								"slot": "2",
								"type": "t_string_storage"
							},
							{
								"astId": 9,
								"contract": "contracts/Twitter.sol:TweetContract",
								"label": "createdAt",
								"offset": 0,
								"slot": "3",
								"type": "t_uint256"
							}
						],
						"numberOfBytes": "128"
					},
					"t_uint256": {
						"encoding": "inplace",
						"label": "uint256",
						"numberOfBytes": "32"
					}
				}
			},
			"userdoc": {
				"kind": "user",
				"methods": {},
				"version": 1
			}
		}
	}
}