{
	"contracts/Marketplace.sol": {
		"Marketplace": {
			"abi": [
				{
					"inputs": [],
					"stateMutability": "nonpayable",
					"type": "constructor"
				},
				{
					"anonymous": false,
					"inputs": [
						{
							"indexed": false,
							"internalType": "uint256",
							"name": "itemId",
							"type": "uint256"
						},
						{
							"indexed": false,
							"internalType": "string",
							"name": "name",
							"type": "string"
						},
						{
							"indexed": false,
							"internalType": "uint256",
							"name": "price",
							"type": "uint256"
						},
						{
							"indexed": false,
							"internalType": "address",
							"name": "seller",
							"type": "address"
						}
					],
					"name": "ItemListed",
					"type": "event"
				},
				{
					"anonymous": false,
					"inputs": [
						{
							"indexed": false,
							"internalType": "uint256",
							"name": "itemId",
							"type": "uint256"
						},
						{
							"indexed": false,
							"internalType": "address",
							"name": "buyer",
							"type": "address"
						}
					],
					"name": "OrderPlaced",
					"type": "event"
				},
				{
					"anonymous": false,
					"inputs": [
						{
							"indexed": false,
							"internalType": "uint256",
							"name": "itemId",
							"type": "uint256"
						},
						{
							"indexed": false,
							"internalType": "address",
							"name": "buyer",
							"type": "address"
						},
						{
							"indexed": false,
							"internalType": "address",
							"name": "seller",
							"type": "address"
						},
						{
							"indexed": false,
							"internalType": "uint256",
							"name": "price",
							"type": "uint256"
						}
					],
					"name": "TransactionCompleted",
					"type": "event"
				},
				{
					"inputs": [
						{
							"internalType": "uint256",
							"name": "_itemId",
							"type": "uint256"
						}
					],
					"name": "completeTransaction",
					"outputs": [],
					"stateMutability": "nonpayable",
					"type": "function"
				},
				{
					"inputs": [
						{
							"internalType": "uint256",
							"name": "_itemId",
							"type": "uint256"
						}
					],
					"name": "getItem",
					"outputs": [
						{
							"internalType": "string",
							"name": "",
							"type": "string"
						},
						{
							"internalType": "string",
							"name": "",
							"type": "string"
						},
						{
							"internalType": "uint256",
							"name": "",
							"type": "uint256"
						},
						{
							"internalType": "address",
							"name": "",
							"type": "address"
						},
						{
							"internalType": "bool",
							"name": "",
							"type": "bool"
						}
					],
					"stateMutability": "view",
					"type": "function"
				},
				{
					"inputs": [],
					"name": "itemCount",
					"outputs": [
						{
							"internalType": "uint256",
							"name": "",
							"type": "uint256"
						}
					],
					"stateMutability": "view",
					"type": "function"
				},
				{
					"inputs": [
						{
							"internalType": "uint256",
							"name": "",
							"type": "uint256"
						}
					],
					"name": "items",
					"outputs": [
						{
							"internalType": "string",
							"name": "name",
							"type": "string"
						},
						{
							"internalType": "string",
							"name": "description",
							"type": "string"
						},
						{
							"internalType": "uint256",
							"name": "price",
							"type": "uint256"
						},
						{
							"internalType": "address payable",
							"name": "seller",
							"type": "address"
						},
						{
							"internalType": "bool",
							"name": "available",
							"type": "bool"
						}
					],
					"stateMutability": "view",
					"type": "function"
				},
				{
					"inputs": [
						{
							"internalType": "string",
							"name": "_name",
							"type": "string"
						},
						{
							"internalType": "string",
							"name": "_description",
							"type": "string"
						},
						{
							"internalType": "uint256",
							"name": "_price",
							"type": "uint256"
						}
					],
					"name": "listItem",
					"outputs": [],
					"stateMutability": "nonpayable",
					"type": "function"
				},
				{
					"inputs": [
						{
							"internalType": "uint256",
							"name": "_itemId",
							"type": "uint256"
						}
					],
					"name": "placeOrder",
					"outputs": [],
					"stateMutability": "payable",
					"type": "function"
				}
			],
			"devdoc": {
				"kind": "dev",
				"methods": {},
				"version": 1
			},
			"evm": {
				"assembly": "    /* \"contracts/Marketplace.sol\":62:2331  contract Marketplace {... */\n  mstore(0x40, 0x80)\n    /* \"contracts/Marketplace.sol\":581:627  constructor() {... */\n  callvalue\n  dup1\n  iszero\n  tag_1\n  jumpi\n  0x00\n  dup1\n  revert\ntag_1:\n  pop\n    /* \"contracts/Marketplace.sol\":618:619  0 */\n  0x00\n    /* \"contracts/Marketplace.sol\":606:615  itemCount */\n  0x01\n    /* \"contracts/Marketplace.sol\":606:619  itemCount = 0 */\n  dup2\n  swap1\n  sstore\n  pop\n    /* \"contracts/Marketplace.sol\":62:2331  contract Marketplace {... */\n  dataSize(sub_0)\n  dup1\n  dataOffset(sub_0)\n  0x00\n  codecopy\n  0x00\n  return\nstop\n\nsub_0: assembly {\n        /* \"contracts/Marketplace.sol\":62:2331  contract Marketplace {... */\n      mstore(0x40, 0x80)\n      jumpi(tag_1, lt(calldatasize, 0x04))\n      shr(0xe0, calldataload(0x00))\n      dup1\n      0x0562021c\n      eq\n      tag_2\n      jumpi\n      dup1\n      0x3129e773\n      eq\n      tag_3\n      jumpi\n      dup1\n      0x6bfb0d01\n      eq\n      tag_4\n      jumpi\n      dup1\n      0xba2255f4\n      eq\n      tag_5\n      jumpi\n      dup1\n      0xbfb231d2\n      eq\n      tag_6\n      jumpi\n      dup1\n      0xf5e83e17\n      eq\n      tag_7\n      jumpi\n    tag_1:\n      0x00\n      dup1\n      revert\n        /* \"contracts/Marketplace.sol\":639:1074  function listItem(string memory _name, string memory _description, uint256 _price) public {... */\n    tag_2:\n      callvalue\n      dup1\n      iszero\n      tag_8\n      jumpi\n      0x00\n      dup1\n      revert\n    tag_8:\n      pop\n      tag_9\n      0x04\n      dup1\n      calldatasize\n      sub\n      dup2\n      add\n      swap1\n      tag_10\n      swap2\n      swap1\n      tag_11\n      jump\t// in\n    tag_10:\n      tag_12\n      jump\t// in\n    tag_9:\n      stop\n        /* \"contracts/Marketplace.sol\":1994:2328  function getItem(uint256 _itemId) public view returns (string memory, string memory, uint256, address, bool) {... */\n    tag_3:\n      callvalue\n      dup1\n      iszero\n      tag_13\n      jumpi\n      0x00\n      dup1\n      revert\n    tag_13:\n      pop\n      tag_14\n      0x04\n      dup1\n      calldatasize\n      sub\n      dup2\n      add\n      swap1\n      tag_15\n      swap2\n      swap1\n      tag_16\n      jump\t// in\n    tag_15:\n      tag_17\n      jump\t// in\n    tag_14:\n      mload(0x40)\n      tag_18\n      swap6\n      swap5\n      swap4\n      swap3\n      swap2\n      swap1\n      tag_19\n      jump\t// in\n    tag_18:\n      mload(0x40)\n      dup1\n      swap2\n      sub\n      swap1\n      return\n        /* \"contracts/Marketplace.sol\":305:329  uint256 public itemCount */\n    tag_4:\n      callvalue\n      dup1\n      iszero\n      tag_20\n      jumpi\n      0x00\n      dup1\n      revert\n    tag_20:\n      pop\n      tag_21\n      tag_22\n      jump\t// in\n    tag_21:\n      mload(0x40)\n      tag_23\n      swap2\n      swap1\n      tag_24\n      jump\t// in\n    tag_23:\n      mload(0x40)\n      dup1\n      swap2\n      sub\n      swap1\n      return\n        /* \"contracts/Marketplace.sol\":1086:1496  function placeOrder(uint256 _itemId) public payable {... */\n    tag_5:\n      tag_25\n      0x04\n      dup1\n      calldatasize\n      sub\n      dup2\n      add\n      swap1\n      tag_26\n      swap2\n      swap1\n      tag_16\n      jump\t// in\n    tag_26:\n      tag_27\n      jump\t// in\n    tag_25:\n      stop\n        /* \"contracts/Marketplace.sol\":261:298  mapping(uint256 => Item) public items */\n    tag_6:\n      callvalue\n      dup1\n      iszero\n      tag_28\n      jumpi\n      0x00\n      dup1\n      revert\n    tag_28:\n      pop\n      tag_29\n      0x04\n      dup1\n      calldatasize\n      sub\n      dup2\n      add\n      swap1\n      tag_30\n      swap2\n      swap1\n      tag_16\n      jump\t// in\n    tag_30:\n      tag_31\n      jump\t// in\n    tag_29:\n      mload(0x40)\n      tag_32\n      swap6\n      swap5\n      swap4\n      swap3\n      swap2\n      swap1\n      tag_33\n      jump\t// in\n    tag_32:\n      mload(0x40)\n      dup1\n      swap2\n      sub\n      swap1\n      return\n        /* \"contracts/Marketplace.sol\":1508:1982  function completeTransaction(uint256 _itemId) public {... */\n    tag_7:\n      callvalue\n      dup1\n      iszero\n      tag_34\n      jumpi\n      0x00\n      dup1\n      revert\n    tag_34:\n      pop\n      tag_35\n      0x04\n      dup1\n      calldatasize\n      sub\n      dup2\n      add\n      swap1\n      tag_36\n      swap2\n      swap1\n      tag_16\n      jump\t// in\n    tag_36:\n      tag_37\n      jump\t// in\n    tag_35:\n      stop\n        /* \"contracts/Marketplace.sol\":639:1074  function listItem(string memory _name, string memory _description, uint256 _price) public {... */\n    tag_12:\n        /* \"contracts/Marketplace.sol\":740:749  itemCount */\n      0x01\n      0x00\n        /* \"contracts/Marketplace.sol\":740:751  itemCount++ */\n      dup2\n      sload\n      dup1\n      swap3\n      swap2\n      swap1\n      tag_39\n      swap1\n      tag_40\n      jump\t// in\n    tag_39:\n      swap2\n      swap1\n      pop\n      sstore\n      pop\n        /* \"contracts/Marketplace.sol\":762:782  Item storage newItem */\n      0x00\n        /* \"contracts/Marketplace.sol\":785:790  items */\n      dup1\n        /* \"contracts/Marketplace.sol\":785:801  items[itemCount] */\n      0x00\n        /* \"contracts/Marketplace.sol\":791:800  itemCount */\n      sload(0x01)\n        /* \"contracts/Marketplace.sol\":785:801  items[itemCount] */\n      dup2\n      mstore\n      0x20\n      add\n      swap1\n      dup2\n      mstore\n      0x20\n      add\n      0x00\n      keccak256\n        /* \"contracts/Marketplace.sol\":762:801  Item storage newItem = items[itemCount] */\n      swap1\n      pop\n        /* \"contracts/Marketplace.sol\":827:832  _name */\n      dup4\n        /* \"contracts/Marketplace.sol\":812:819  newItem */\n      dup2\n        /* \"contracts/Marketplace.sol\":812:824  newItem.name */\n      0x00\n      add\n        /* \"contracts/Marketplace.sol\":812:832  newItem.name = _name */\n      swap1\n      dup2\n      tag_41\n      swap2\n      swap1\n      tag_42\n      jump\t// in\n    tag_41:\n      pop\n        /* \"contracts/Marketplace.sol\":865:877  _description */\n      dup3\n        /* \"contracts/Marketplace.sol\":843:850  newItem */\n      dup2\n        /* \"contracts/Marketplace.sol\":843:862  newItem.description */\n      0x01\n      add\n        /* \"contracts/Marketplace.sol\":843:877  newItem.description = _description */\n      swap1\n      dup2\n      tag_43\n      swap2\n      swap1\n      tag_42\n      jump\t// in\n    tag_43:\n      pop\n        /* \"contracts/Marketplace.sol\":904:910  _price */\n      dup2\n        /* \"contracts/Marketplace.sol\":888:895  newItem */\n      dup2\n        /* \"contracts/Marketplace.sol\":888:901  newItem.price */\n      0x02\n      add\n        /* \"contracts/Marketplace.sol\":888:910  newItem.price = _price */\n      dup2\n      swap1\n      sstore\n      pop\n        /* \"contracts/Marketplace.sol\":946:956  msg.sender */\n      caller\n        /* \"contracts/Marketplace.sol\":921:928  newItem */\n      dup2\n        /* \"contracts/Marketplace.sol\":921:935  newItem.seller */\n      0x03\n      add\n      0x00\n        /* \"contracts/Marketplace.sol\":921:957  newItem.seller = payable(msg.sender) */\n      0x0100\n      exp\n      dup2\n      sload\n      dup2\n      0xffffffffffffffffffffffffffffffffffffffff\n      mul\n      not\n      and\n      swap1\n      dup4\n      0xffffffffffffffffffffffffffffffffffffffff\n      and\n      mul\n      or\n      swap1\n      sstore\n      pop\n        /* \"contracts/Marketplace.sol\":988:992  true */\n      0x01\n        /* \"contracts/Marketplace.sol\":968:975  newItem */\n      dup2\n        /* \"contracts/Marketplace.sol\":968:985  newItem.available */\n      0x03\n      add\n      0x14\n        /* \"contracts/Marketplace.sol\":968:992  newItem.available = true */\n      0x0100\n      exp\n      dup2\n      sload\n      dup2\n      0xff\n      mul\n      not\n      and\n      swap1\n      dup4\n      iszero\n      iszero\n      mul\n      or\n      swap1\n      sstore\n      pop\n        /* \"contracts/Marketplace.sol\":1018:1066  ItemListed(itemCount, _name, _price, msg.sender) */\n      0x16244e47af8a7d2c923faa2cab44315c0514c7aa830682bbb9cc8f0d37ad7548\n        /* \"contracts/Marketplace.sol\":1029:1038  itemCount */\n      sload(0x01)\n        /* \"contracts/Marketplace.sol\":1040:1045  _name */\n      dup6\n        /* \"contracts/Marketplace.sol\":1047:1053  _price */\n      dup5\n        /* \"contracts/Marketplace.sol\":1055:1065  msg.sender */\n      caller\n        /* \"contracts/Marketplace.sol\":1018:1066  ItemListed(itemCount, _name, _price, msg.sender) */\n      mload(0x40)\n      tag_44\n      swap5\n      swap4\n      swap3\n      swap2\n      swap1\n      tag_45\n      jump\t// in\n    tag_44:\n      mload(0x40)\n      dup1\n      swap2\n      sub\n      swap1\n      log1\n        /* \"contracts/Marketplace.sol\":729:1074  {... */\n      pop\n        /* \"contracts/Marketplace.sol\":639:1074  function listItem(string memory _name, string memory _description, uint256 _price) public {... */\n      pop\n      pop\n      pop\n      jump\t// out\n        /* \"contracts/Marketplace.sol\":1994:2328  function getItem(uint256 _itemId) public view returns (string memory, string memory, uint256, address, bool) {... */\n    tag_17:\n        /* \"contracts/Marketplace.sol\":2049:2062  string memory */\n      0x60\n        /* \"contracts/Marketplace.sol\":2064:2077  string memory */\n      dup1\n        /* \"contracts/Marketplace.sol\":2079:2086  uint256 */\n      0x00\n        /* \"contracts/Marketplace.sol\":2088:2095  address */\n      dup1\n        /* \"contracts/Marketplace.sol\":2097:2101  bool */\n      0x00\n        /* \"contracts/Marketplace.sol\":2132:2133  0 */\n      dup1\n        /* \"contracts/Marketplace.sol\":2122:2129  _itemId */\n      dup7\n        /* \"contracts/Marketplace.sol\":2122:2133  _itemId > 0 */\n      gt\n        /* \"contracts/Marketplace.sol\":2122:2157  _itemId > 0 && _itemId <= itemCount */\n      dup1\n      iszero\n      tag_47\n      jumpi\n      pop\n        /* \"contracts/Marketplace.sol\":2148:2157  itemCount */\n      sload(0x01)\n        /* \"contracts/Marketplace.sol\":2137:2144  _itemId */\n      dup7\n        /* \"contracts/Marketplace.sol\":2137:2157  _itemId <= itemCount */\n      gt\n      iszero\n        /* \"contracts/Marketplace.sol\":2122:2157  _itemId > 0 && _itemId <= itemCount */\n    tag_47:\n        /* \"contracts/Marketplace.sol\":2114:2177  require(_itemId > 0 && _itemId <= itemCount, \"Invalid item ID\") */\n      tag_48\n      jumpi\n      mload(0x40)\n      0x08c379a000000000000000000000000000000000000000000000000000000000\n      dup2\n      mstore\n      0x04\n      add\n      tag_49\n      swap1\n      tag_50\n      jump\t// in\n    tag_49:\n      mload(0x40)\n      dup1\n      swap2\n      sub\n      swap1\n      revert\n    tag_48:\n        /* \"contracts/Marketplace.sol\":2188:2205  Item storage item */\n      0x00\n        /* \"contracts/Marketplace.sol\":2208:2213  items */\n      dup1\n        /* \"contracts/Marketplace.sol\":2208:2222  items[_itemId] */\n      0x00\n        /* \"contracts/Marketplace.sol\":2214:2221  _itemId */\n      dup9\n        /* \"contracts/Marketplace.sol\":2208:2222  items[_itemId] */\n      dup2\n      mstore\n      0x20\n      add\n      swap1\n      dup2\n      mstore\n      0x20\n      add\n      0x00\n      keccak256\n        /* \"contracts/Marketplace.sol\":2188:2222  Item storage item = items[_itemId] */\n      swap1\n      pop\n        /* \"contracts/Marketplace.sol\":2251:2255  item */\n      dup1\n        /* \"contracts/Marketplace.sol\":2251:2260  item.name */\n      0x00\n      add\n        /* \"contracts/Marketplace.sol\":2262:2266  item */\n      dup2\n        /* \"contracts/Marketplace.sol\":2262:2278  item.description */\n      0x01\n      add\n        /* \"contracts/Marketplace.sol\":2280:2284  item */\n      dup3\n        /* \"contracts/Marketplace.sol\":2280:2290  item.price */\n      0x02\n      add\n      sload\n        /* \"contracts/Marketplace.sol\":2292:2296  item */\n      dup4\n        /* \"contracts/Marketplace.sol\":2292:2303  item.seller */\n      0x03\n      add\n      0x00\n      swap1\n      sload\n      swap1\n      0x0100\n      exp\n      swap1\n      div\n      0xffffffffffffffffffffffffffffffffffffffff\n      and\n        /* \"contracts/Marketplace.sol\":2305:2309  item */\n      dup5\n        /* \"contracts/Marketplace.sol\":2305:2319  item.available */\n      0x03\n      add\n      0x14\n      swap1\n      sload\n      swap1\n      0x0100\n      exp\n      swap1\n      div\n      0xff\n      and\n        /* \"contracts/Marketplace.sol\":2243:2320  return (item.name, item.description, item.price, item.seller, item.available) */\n      dup5\n      dup1\n      sload\n      tag_51\n      swap1\n      tag_52\n      jump\t// in\n    tag_51:\n      dup1\n      0x1f\n      add\n      0x20\n      dup1\n      swap2\n      div\n      mul\n      0x20\n      add\n      mload(0x40)\n      swap1\n      dup2\n      add\n      0x40\n      mstore\n      dup1\n      swap3\n      swap2\n      swap1\n      dup2\n      dup2\n      mstore\n      0x20\n      add\n      dup3\n      dup1\n      sload\n      tag_53\n      swap1\n      tag_52\n      jump\t// in\n    tag_53:\n      dup1\n      iszero\n      tag_54\n      jumpi\n      dup1\n      0x1f\n      lt\n      tag_55\n      jumpi\n      0x0100\n      dup1\n      dup4\n      sload\n      div\n      mul\n      dup4\n      mstore\n      swap2\n      0x20\n      add\n      swap2\n      jump(tag_54)\n    tag_55:\n      dup3\n      add\n      swap2\n      swap1\n      0x00\n      mstore\n      keccak256(0x00, 0x20)\n      swap1\n    tag_56:\n      dup2\n      sload\n      dup2\n      mstore\n      swap1\n      0x01\n      add\n      swap1\n      0x20\n      add\n      dup1\n      dup4\n      gt\n      tag_56\n      jumpi\n      dup3\n      swap1\n      sub\n      0x1f\n      and\n      dup3\n      add\n      swap2\n    tag_54:\n      pop\n      pop\n      pop\n      pop\n      pop\n      swap5\n      pop\n      dup4\n      dup1\n      sload\n      tag_57\n      swap1\n      tag_52\n      jump\t// in\n    tag_57:\n      dup1\n      0x1f\n      add\n      0x20\n      dup1\n      swap2\n      div\n      mul\n      0x20\n      add\n      mload(0x40)\n      swap1\n      dup2\n      add\n      0x40\n      mstore\n      dup1\n      swap3\n      swap2\n      swap1\n      dup2\n      dup2\n      mstore\n      0x20\n      add\n      dup3\n      dup1\n      sload\n      tag_58\n      swap1\n      tag_52\n      jump\t// in\n    tag_58:\n      dup1\n      iszero\n      tag_59\n      jumpi\n      dup1\n      0x1f\n      lt\n      tag_60\n      jumpi\n      0x0100\n      dup1\n      dup4\n      sload\n      div\n      mul\n      dup4\n      mstore\n      swap2\n      0x20\n      add\n      swap2\n      jump(tag_59)\n    tag_60:\n      dup3\n      add\n      swap2\n      swap1\n      0x00\n      mstore\n      keccak256(0x00, 0x20)\n      swap1\n    tag_61:\n      dup2\n      sload\n      dup2\n      mstore\n      swap1\n      0x01\n      add\n      swap1\n      0x20\n      add\n      dup1\n      dup4\n      gt\n      tag_61\n      jumpi\n      dup3\n      swap1\n      sub\n      0x1f\n      and\n      dup3\n      add\n      swap2\n    tag_59:\n      pop\n      pop\n      pop\n      pop\n      pop\n      swap4\n      pop\n      swap6\n      pop\n      swap6\n      pop\n      swap6\n      pop\n      swap6\n      pop\n      swap6\n      pop\n      pop\n        /* \"contracts/Marketplace.sol\":1994:2328  function getItem(uint256 _itemId) public view returns (string memory, string memory, uint256, address, bool) {... */\n      swap2\n      swap4\n      swap6\n      swap1\n      swap3\n      swap5\n      pop\n      jump\t// out\n        /* \"contracts/Marketplace.sol\":305:329  uint256 public itemCount */\n    tag_22:\n      sload(0x01)\n      dup2\n      jump\t// out\n        /* \"contracts/Marketplace.sol\":1086:1496  function placeOrder(uint256 _itemId) public payable {... */\n    tag_27:\n        /* \"contracts/Marketplace.sol\":1167:1168  0 */\n      0x00\n        /* \"contracts/Marketplace.sol\":1157:1164  _itemId */\n      dup2\n        /* \"contracts/Marketplace.sol\":1157:1168  _itemId > 0 */\n      gt\n        /* \"contracts/Marketplace.sol\":1157:1192  _itemId > 0 && _itemId <= itemCount */\n      dup1\n      iszero\n      tag_63\n      jumpi\n      pop\n        /* \"contracts/Marketplace.sol\":1183:1192  itemCount */\n      sload(0x01)\n        /* \"contracts/Marketplace.sol\":1172:1179  _itemId */\n      dup2\n        /* \"contracts/Marketplace.sol\":1172:1192  _itemId <= itemCount */\n      gt\n      iszero\n        /* \"contracts/Marketplace.sol\":1157:1192  _itemId > 0 && _itemId <= itemCount */\n    tag_63:\n        /* \"contracts/Marketplace.sol\":1149:1212  require(_itemId > 0 && _itemId <= itemCount, \"Invalid item ID\") */\n      tag_64\n      jumpi\n      mload(0x40)\n      0x08c379a000000000000000000000000000000000000000000000000000000000\n      dup2\n      mstore\n      0x04\n      add\n      tag_65\n      swap1\n      tag_50\n      jump\t// in\n    tag_65:\n      mload(0x40)\n      dup1\n      swap2\n      sub\n      swap1\n      revert\n    tag_64:\n        /* \"contracts/Marketplace.sol\":1223:1240  Item storage item */\n      0x00\n        /* \"contracts/Marketplace.sol\":1243:1248  items */\n      dup1\n        /* \"contracts/Marketplace.sol\":1243:1257  items[_itemId] */\n      0x00\n        /* \"contracts/Marketplace.sol\":1249:1256  _itemId */\n      dup4\n        /* \"contracts/Marketplace.sol\":1243:1257  items[_itemId] */\n      dup2\n      mstore\n      0x20\n      add\n      swap1\n      dup2\n      mstore\n      0x20\n      add\n      0x00\n      keccak256\n        /* \"contracts/Marketplace.sol\":1223:1257  Item storage item = items[_itemId] */\n      swap1\n      pop\n        /* \"contracts/Marketplace.sol\":1276:1280  item */\n      dup1\n        /* \"contracts/Marketplace.sol\":1276:1290  item.available */\n      0x03\n      add\n      0x14\n      swap1\n      sload\n      swap1\n      0x0100\n      exp\n      swap1\n      div\n      0xff\n      and\n        /* \"contracts/Marketplace.sol\":1268:1316  require(item.available, \"Item is not available\") */\n      tag_66\n      jumpi\n      mload(0x40)\n      0x08c379a000000000000000000000000000000000000000000000000000000000\n      dup2\n      mstore\n      0x04\n      add\n      tag_67\n      swap1\n      tag_68\n      jump\t// in\n    tag_67:\n      mload(0x40)\n      dup1\n      swap2\n      sub\n      swap1\n      revert\n    tag_66:\n        /* \"contracts/Marketplace.sol\":1348:1352  item */\n      dup1\n        /* \"contracts/Marketplace.sol\":1348:1358  item.price */\n      0x02\n      add\n      sload\n        /* \"contracts/Marketplace.sol\":1335:1344  msg.value */\n      callvalue\n        /* \"contracts/Marketplace.sol\":1335:1358  msg.value == item.price */\n      eq\n        /* \"contracts/Marketplace.sol\":1327:1387  require(msg.value == item.price, \"Incorrect payment amount\") */\n      tag_69\n      jumpi\n      mload(0x40)\n      0x08c379a000000000000000000000000000000000000000000000000000000000\n      dup2\n      mstore\n      0x04\n      add\n      tag_70\n      swap1\n      tag_71\n      jump\t// in\n    tag_70:\n      mload(0x40)\n      dup1\n      swap2\n      sub\n      swap1\n      revert\n    tag_69:\n        /* \"contracts/Marketplace.sol\":1425:1430  false */\n      0x00\n        /* \"contracts/Marketplace.sol\":1408:1412  item */\n      dup2\n        /* \"contracts/Marketplace.sol\":1408:1422  item.available */\n      0x03\n      add\n      0x14\n        /* \"contracts/Marketplace.sol\":1408:1430  item.available = false */\n      0x0100\n      exp\n      dup2\n      sload\n      dup2\n      0xff\n      mul\n      not\n      and\n      swap1\n      dup4\n      iszero\n      iszero\n      mul\n      or\n      swap1\n      sstore\n      pop\n        /* \"contracts/Marketplace.sol\":1456:1488  OrderPlaced(_itemId, msg.sender) */\n      0x5222ba5f86a58ad15e7771bd95a809f162ae1762ea7cd66e28a58217341334cc\n        /* \"contracts/Marketplace.sol\":1468:1475  _itemId */\n      dup3\n        /* \"contracts/Marketplace.sol\":1477:1487  msg.sender */\n      caller\n        /* \"contracts/Marketplace.sol\":1456:1488  OrderPlaced(_itemId, msg.sender) */\n      mload(0x40)\n      tag_72\n      swap3\n      swap2\n      swap1\n      tag_73\n      jump\t// in\n    tag_72:\n      mload(0x40)\n      dup1\n      swap2\n      sub\n      swap1\n      log1\n        /* \"contracts/Marketplace.sol\":1138:1496  {... */\n      pop\n        /* \"contracts/Marketplace.sol\":1086:1496  function placeOrder(uint256 _itemId) public payable {... */\n      pop\n      jump\t// out\n        /* \"contracts/Marketplace.sol\":261:298  mapping(uint256 => Item) public items */\n    tag_31:\n      mstore(0x20, 0x00)\n      dup1\n      0x00\n      mstore\n      keccak256(0x00, 0x40)\n      0x00\n      swap2\n      pop\n      swap1\n      pop\n      dup1\n      0x00\n      add\n      dup1\n      sload\n      tag_74\n      swap1\n      tag_52\n      jump\t// in\n    tag_74:\n      dup1\n      0x1f\n      add\n      0x20\n      dup1\n      swap2\n      div\n      mul\n      0x20\n      add\n      mload(0x40)\n      swap1\n      dup2\n      add\n      0x40\n      mstore\n      dup1\n      swap3\n      swap2\n      swap1\n      dup2\n      dup2\n      mstore\n      0x20\n      add\n      dup3\n      dup1\n      sload\n      tag_75\n      swap1\n      tag_52\n      jump\t// in\n    tag_75:\n      dup1\n      iszero\n      tag_76\n      jumpi\n      dup1\n      0x1f\n      lt\n      tag_77\n      jumpi\n      0x0100\n      dup1\n      dup4\n      sload\n      div\n      mul\n      dup4\n      mstore\n      swap2\n      0x20\n      add\n      swap2\n      jump(tag_76)\n    tag_77:\n      dup3\n      add\n      swap2\n      swap1\n      0x00\n      mstore\n      keccak256(0x00, 0x20)\n      swap1\n    tag_78:\n      dup2\n      sload\n      dup2\n      mstore\n      swap1\n      0x01\n      add\n      swap1\n      0x20\n      add\n      dup1\n      dup4\n      gt\n      tag_78\n      jumpi\n      dup3\n      swap1\n      sub\n      0x1f\n      and\n      dup3\n      add\n      swap2\n    tag_76:\n      pop\n      pop\n      pop\n      pop\n      pop\n      swap1\n      dup1\n      0x01\n      add\n      dup1\n      sload\n      tag_79\n      swap1\n      tag_52\n      jump\t// in\n    tag_79:\n      dup1\n      0x1f\n      add\n      0x20\n      dup1\n      swap2\n      div\n      mul\n      0x20\n      add\n      mload(0x40)\n      swap1\n      dup2\n      add\n      0x40\n      mstore\n      dup1\n      swap3\n      swap2\n      swap1\n      dup2\n      dup2\n      mstore\n      0x20\n      add\n      dup3\n      dup1\n      sload\n      tag_80\n      swap1\n      tag_52\n      jump\t// in\n    tag_80:\n      dup1\n      iszero\n      tag_81\n      jumpi\n      dup1\n      0x1f\n      lt\n      tag_82\n      jumpi\n      0x0100\n      dup1\n      dup4\n      sload\n      div\n      mul\n      dup4\n      mstore\n      swap2\n      0x20\n      add\n      swap2\n      jump(tag_81)\n    tag_82:\n      dup3\n      add\n      swap2\n      swap1\n      0x00\n      mstore\n      keccak256(0x00, 0x20)\n      swap1\n    tag_83:\n      dup2\n      sload\n      dup2\n      mstore\n      swap1\n      0x01\n      add\n      swap1\n      0x20\n      add\n      dup1\n      dup4\n      gt\n      tag_83\n      jumpi\n      dup3\n      swap1\n      sub\n      0x1f\n      and\n      dup3\n      add\n      swap2\n    tag_81:\n      pop\n      pop\n      pop\n      pop\n      pop\n      swap1\n      dup1\n      0x02\n      add\n      sload\n      swap1\n      dup1\n      0x03\n      add\n      0x00\n      swap1\n      sload\n      swap1\n      0x0100\n      exp\n      swap1\n      div\n      0xffffffffffffffffffffffffffffffffffffffff\n      and\n      swap1\n      dup1\n      0x03\n      add\n      0x14\n      swap1\n      sload\n      swap1\n      0x0100\n      exp\n      swap1\n      div\n      0xff\n      and\n      swap1\n      pop\n      dup6\n      jump\t// out\n        /* \"contracts/Marketplace.sol\":1508:1982  function completeTransaction(uint256 _itemId) public {... */\n    tag_37:\n        /* \"contracts/Marketplace.sol\":1590:1591  0 */\n      0x00\n        /* \"contracts/Marketplace.sol\":1580:1587  _itemId */\n      dup2\n        /* \"contracts/Marketplace.sol\":1580:1591  _itemId > 0 */\n      gt\n        /* \"contracts/Marketplace.sol\":1580:1615  _itemId > 0 && _itemId <= itemCount */\n      dup1\n      iszero\n      tag_85\n      jumpi\n      pop\n        /* \"contracts/Marketplace.sol\":1606:1615  itemCount */\n      sload(0x01)\n        /* \"contracts/Marketplace.sol\":1595:1602  _itemId */\n      dup2\n        /* \"contracts/Marketplace.sol\":1595:1615  _itemId <= itemCount */\n      gt\n      iszero\n        /* \"contracts/Marketplace.sol\":1580:1615  _itemId > 0 && _itemId <= itemCount */\n    tag_85:\n        /* \"contracts/Marketplace.sol\":1572:1635  require(_itemId > 0 && _itemId <= itemCount, \"Invalid item ID\") */\n      tag_86\n      jumpi\n      mload(0x40)\n      0x08c379a000000000000000000000000000000000000000000000000000000000\n      dup2\n      mstore\n      0x04\n      add\n      tag_87\n      swap1\n      tag_50\n      jump\t// in\n    tag_87:\n      mload(0x40)\n      dup1\n      swap2\n      sub\n      swap1\n      revert\n    tag_86:\n        /* \"contracts/Marketplace.sol\":1646:1663  Item storage item */\n      0x00\n        /* \"contracts/Marketplace.sol\":1666:1671  items */\n      dup1\n        /* \"contracts/Marketplace.sol\":1666:1680  items[_itemId] */\n      0x00\n        /* \"contracts/Marketplace.sol\":1672:1679  _itemId */\n      dup4\n        /* \"contracts/Marketplace.sol\":1666:1680  items[_itemId] */\n      dup2\n      mstore\n      0x20\n      add\n      swap1\n      dup2\n      mstore\n      0x20\n      add\n      0x00\n      keccak256\n        /* \"contracts/Marketplace.sol\":1646:1680  Item storage item = items[_itemId] */\n      swap1\n      pop\n        /* \"contracts/Marketplace.sol\":1700:1704  item */\n      dup1\n        /* \"contracts/Marketplace.sol\":1700:1714  item.available */\n      0x03\n      add\n      0x14\n      swap1\n      sload\n      swap1\n      0x0100\n      exp\n      swap1\n      div\n      0xff\n      and\n        /* \"contracts/Marketplace.sol\":1699:1714  !item.available */\n      iszero\n        /* \"contracts/Marketplace.sol\":1691:1742  require(!item.available, \"Item is still available\") */\n      tag_88\n      jumpi\n      mload(0x40)\n      0x08c379a000000000000000000000000000000000000000000000000000000000\n      dup2\n      mstore\n      0x04\n      add\n      tag_89\n      swap1\n      tag_90\n      jump\t// in\n    tag_89:\n      mload(0x40)\n      dup1\n      swap2\n      sub\n      swap1\n      revert\n    tag_88:\n        /* \"contracts/Marketplace.sol\":1775:1779  item */\n      dup1\n        /* \"contracts/Marketplace.sol\":1775:1786  item.seller */\n      0x03\n      add\n      0x00\n      swap1\n      sload\n      swap1\n      0x0100\n      exp\n      swap1\n      div\n      0xffffffffffffffffffffffffffffffffffffffff\n      and\n        /* \"contracts/Marketplace.sol\":1761:1786  msg.sender != item.seller */\n      0xffffffffffffffffffffffffffffffffffffffff\n      and\n        /* \"contracts/Marketplace.sol\":1761:1771  msg.sender */\n      caller\n        /* \"contracts/Marketplace.sol\":1761:1786  msg.sender != item.seller */\n      0xffffffffffffffffffffffffffffffffffffffff\n      and\n      sub\n        /* \"contracts/Marketplace.sol\":1753:1829  require(msg.sender != item.seller, \"Seller cannot complete the transaction\") */\n      tag_91\n      jumpi\n      mload(0x40)\n      0x08c379a000000000000000000000000000000000000000000000000000000000\n      dup2\n      mstore\n      0x04\n      add\n      tag_92\n      swap1\n      tag_93\n      jump\t// in\n    tag_92:\n      mload(0x40)\n      dup1\n      swap2\n      sub\n      swap1\n      revert\n    tag_91:\n        /* \"contracts/Marketplace.sol\":1850:1854  item */\n      dup1\n        /* \"contracts/Marketplace.sol\":1850:1861  item.seller */\n      0x03\n      add\n      0x00\n      swap1\n      sload\n      swap1\n      0x0100\n      exp\n      swap1\n      div\n      0xffffffffffffffffffffffffffffffffffffffff\n      and\n        /* \"contracts/Marketplace.sol\":1850:1870  item.seller.transfer */\n      0xffffffffffffffffffffffffffffffffffffffff\n      and\n        /* \"contracts/Marketplace.sol\":1850:1882  item.seller.transfer(item.price) */\n      0x08fc\n        /* \"contracts/Marketplace.sol\":1871:1875  item */\n      dup3\n        /* \"contracts/Marketplace.sol\":1871:1881  item.price */\n      0x02\n      add\n      sload\n        /* \"contracts/Marketplace.sol\":1850:1882  item.seller.transfer(item.price) */\n      swap1\n      dup2\n      iszero\n      mul\n      swap1\n      mload(0x40)\n      0x00\n      mload(0x40)\n      dup1\n      dup4\n      sub\n      dup2\n      dup6\n      dup9\n      dup9\n      call\n      swap4\n      pop\n      pop\n      pop\n      pop\n      iszero\n      dup1\n      iszero\n      tag_95\n      jumpi\n      returndatasize\n      0x00\n      dup1\n      returndatacopy\n      revert(0x00, returndatasize)\n    tag_95:\n      pop\n        /* \"contracts/Marketplace.sol\":1908:1974  TransactionCompleted(_itemId, msg.sender, item.seller, item.price) */\n      0xdc8b3e3bd87b1ed41b4cff3b9ab24f89261ed2b876257d5d33ed0c3472bacaf6\n        /* \"contracts/Marketplace.sol\":1929:1936  _itemId */\n      dup3\n        /* \"contracts/Marketplace.sol\":1938:1948  msg.sender */\n      caller\n        /* \"contracts/Marketplace.sol\":1950:1954  item */\n      dup4\n        /* \"contracts/Marketplace.sol\":1950:1961  item.seller */\n      0x03\n      add\n      0x00\n      swap1\n      sload\n      swap1\n      0x0100\n      exp\n      swap1\n      div\n      0xffffffffffffffffffffffffffffffffffffffff\n      and\n        /* \"contracts/Marketplace.sol\":1963:1967  item */\n      dup5\n        /* \"contracts/Marketplace.sol\":1963:1973  item.price */\n      0x02\n      add\n      sload\n        /* \"contracts/Marketplace.sol\":1908:1974  TransactionCompleted(_itemId, msg.sender, item.seller, item.price) */\n      mload(0x40)\n      tag_96\n      swap5\n      swap4\n      swap3\n      swap2\n      swap1\n      tag_97\n      jump\t// in\n    tag_96:\n      mload(0x40)\n      dup1\n      swap2\n      sub\n      swap1\n      log1\n        /* \"contracts/Marketplace.sol\":1561:1982  {... */\n      pop\n        /* \"contracts/Marketplace.sol\":1508:1982  function completeTransaction(uint256 _itemId) public {... */\n      pop\n      jump\t// out\n        /* \"#utility.yul\":7:82   */\n    tag_98:\n        /* \"#utility.yul\":40:46   */\n      0x00\n        /* \"#utility.yul\":73:75   */\n      0x40\n        /* \"#utility.yul\":67:76   */\n      mload\n        /* \"#utility.yul\":57:76   */\n      swap1\n      pop\n        /* \"#utility.yul\":7:82   */\n      swap1\n      jump\t// out\n        /* \"#utility.yul\":88:205   */\n    tag_99:\n        /* \"#utility.yul\":197:198   */\n      0x00\n        /* \"#utility.yul\":194:195   */\n      dup1\n        /* \"#utility.yul\":187:199   */\n      revert\n        /* \"#utility.yul\":211:328   */\n    tag_100:\n        /* \"#utility.yul\":320:321   */\n      0x00\n        /* \"#utility.yul\":317:318   */\n      dup1\n        /* \"#utility.yul\":310:322   */\n      revert\n        /* \"#utility.yul\":334:451   */\n    tag_101:\n        /* \"#utility.yul\":443:444   */\n      0x00\n        /* \"#utility.yul\":440:441   */\n      dup1\n        /* \"#utility.yul\":433:445   */\n      revert\n        /* \"#utility.yul\":457:574   */\n    tag_102:\n        /* \"#utility.yul\":566:567   */\n      0x00\n        /* \"#utility.yul\":563:564   */\n      dup1\n        /* \"#utility.yul\":556:568   */\n      revert\n        /* \"#utility.yul\":580:682   */\n    tag_103:\n        /* \"#utility.yul\":621:627   */\n      0x00\n        /* \"#utility.yul\":672:674   */\n      0x1f\n        /* \"#utility.yul\":668:675   */\n      not\n        /* \"#utility.yul\":663:665   */\n      0x1f\n        /* \"#utility.yul\":656:661   */\n      dup4\n        /* \"#utility.yul\":652:666   */\n      add\n        /* \"#utility.yul\":648:676   */\n      and\n        /* \"#utility.yul\":638:676   */\n      swap1\n      pop\n        /* \"#utility.yul\":580:682   */\n      swap2\n      swap1\n      pop\n      jump\t// out\n        /* \"#utility.yul\":688:868   */\n    tag_104:\n        /* \"#utility.yul\":736:813   */\n      0x4e487b7100000000000000000000000000000000000000000000000000000000\n        /* \"#utility.yul\":733:734   */\n      0x00\n        /* \"#utility.yul\":726:814   */\n      mstore\n        /* \"#utility.yul\":833:837   */\n      0x41\n        /* \"#utility.yul\":830:831   */\n      0x04\n        /* \"#utility.yul\":823:838   */\n      mstore\n        /* \"#utility.yul\":857:861   */\n      0x24\n        /* \"#utility.yul\":854:855   */\n      0x00\n        /* \"#utility.yul\":847:862   */\n      revert\n        /* \"#utility.yul\":874:1155   */\n    tag_105:\n        /* \"#utility.yul\":957:984   */\n      tag_166\n        /* \"#utility.yul\":979:983   */\n      dup3\n        /* \"#utility.yul\":957:984   */\n      tag_103\n      jump\t// in\n    tag_166:\n        /* \"#utility.yul\":949:955   */\n      dup2\n        /* \"#utility.yul\":945:985   */\n      add\n        /* \"#utility.yul\":1087:1093   */\n      dup2\n        /* \"#utility.yul\":1075:1085   */\n      dup2\n        /* \"#utility.yul\":1072:1094   */\n      lt\n        /* \"#utility.yul\":1051:1069   */\n      0xffffffffffffffff\n        /* \"#utility.yul\":1039:1049   */\n      dup3\n        /* \"#utility.yul\":1036:1070   */\n      gt\n        /* \"#utility.yul\":1033:1095   */\n      or\n        /* \"#utility.yul\":1030:1118   */\n      iszero\n      tag_167\n      jumpi\n        /* \"#utility.yul\":1098:1116   */\n      tag_168\n      tag_104\n      jump\t// in\n    tag_168:\n        /* \"#utility.yul\":1030:1118   */\n    tag_167:\n        /* \"#utility.yul\":1138:1148   */\n      dup1\n        /* \"#utility.yul\":1134:1136   */\n      0x40\n        /* \"#utility.yul\":1127:1149   */\n      mstore\n        /* \"#utility.yul\":917:1155   */\n      pop\n        /* \"#utility.yul\":874:1155   */\n      pop\n      pop\n      jump\t// out\n        /* \"#utility.yul\":1161:1290   */\n    tag_106:\n        /* \"#utility.yul\":1195:1201   */\n      0x00\n        /* \"#utility.yul\":1222:1242   */\n      tag_170\n      tag_98\n      jump\t// in\n    tag_170:\n        /* \"#utility.yul\":1212:1242   */\n      swap1\n      pop\n        /* \"#utility.yul\":1251:1284   */\n      tag_171\n        /* \"#utility.yul\":1279:1283   */\n      dup3\n        /* \"#utility.yul\":1271:1277   */\n      dup3\n        /* \"#utility.yul\":1251:1284   */\n      tag_105\n      jump\t// in\n    tag_171:\n        /* \"#utility.yul\":1161:1290   */\n      swap2\n      swap1\n      pop\n      jump\t// out\n        /* \"#utility.yul\":1296:1604   */\n    tag_107:\n        /* \"#utility.yul\":1358:1362   */\n      0x00\n        /* \"#utility.yul\":1448:1466   */\n      0xffffffffffffffff\n        /* \"#utility.yul\":1440:1446   */\n      dup3\n        /* \"#utility.yul\":1437:1467   */\n      gt\n        /* \"#utility.yul\":1434:1490   */\n      iszero\n      tag_173\n      jumpi\n        /* \"#utility.yul\":1470:1488   */\n      tag_174\n      tag_104\n      jump\t// in\n    tag_174:\n        /* \"#utility.yul\":1434:1490   */\n    tag_173:\n        /* \"#utility.yul\":1508:1537   */\n      tag_175\n        /* \"#utility.yul\":1530:1536   */\n      dup3\n        /* \"#utility.yul\":1508:1537   */\n      tag_103\n      jump\t// in\n    tag_175:\n        /* \"#utility.yul\":1500:1537   */\n      swap1\n      pop\n        /* \"#utility.yul\":1592:1596   */\n      0x20\n        /* \"#utility.yul\":1586:1590   */\n      dup2\n        /* \"#utility.yul\":1582:1597   */\n      add\n        /* \"#utility.yul\":1574:1597   */\n      swap1\n      pop\n        /* \"#utility.yul\":1296:1604   */\n      swap2\n      swap1\n      pop\n      jump\t// out\n        /* \"#utility.yul\":1610:1756   */\n    tag_108:\n        /* \"#utility.yul\":1707:1713   */\n      dup3\n        /* \"#utility.yul\":1702:1705   */\n      dup2\n        /* \"#utility.yul\":1697:1700   */\n      dup4\n        /* \"#utility.yul\":1684:1714   */\n      calldatacopy\n        /* \"#utility.yul\":1748:1749   */\n      0x00\n        /* \"#utility.yul\":1739:1745   */\n      dup4\n        /* \"#utility.yul\":1734:1737   */\n      dup4\n        /* \"#utility.yul\":1730:1746   */\n      add\n        /* \"#utility.yul\":1723:1750   */\n      mstore\n        /* \"#utility.yul\":1610:1756   */\n      pop\n      pop\n      pop\n      jump\t// out\n        /* \"#utility.yul\":1762:2187   */\n    tag_109:\n        /* \"#utility.yul\":1840:1845   */\n      0x00\n        /* \"#utility.yul\":1865:1931   */\n      tag_178\n        /* \"#utility.yul\":1881:1930   */\n      tag_179\n        /* \"#utility.yul\":1923:1929   */\n      dup5\n        /* \"#utility.yul\":1881:1930   */\n      tag_107\n      jump\t// in\n    tag_179:\n        /* \"#utility.yul\":1865:1931   */\n      tag_106\n      jump\t// in\n    tag_178:\n        /* \"#utility.yul\":1856:1931   */\n      swap1\n      pop\n        /* \"#utility.yul\":1954:1960   */\n      dup3\n        /* \"#utility.yul\":1947:1952   */\n      dup2\n        /* \"#utility.yul\":1940:1961   */\n      mstore\n        /* \"#utility.yul\":1992:1996   */\n      0x20\n        /* \"#utility.yul\":1985:1990   */\n      dup2\n        /* \"#utility.yul\":1981:1997   */\n      add\n        /* \"#utility.yul\":2030:2033   */\n      dup5\n        /* \"#utility.yul\":2021:2027   */\n      dup5\n        /* \"#utility.yul\":2016:2019   */\n      dup5\n        /* \"#utility.yul\":2012:2028   */\n      add\n        /* \"#utility.yul\":2009:2034   */\n      gt\n        /* \"#utility.yul\":2006:2118   */\n      iszero\n      tag_180\n      jumpi\n        /* \"#utility.yul\":2037:2116   */\n      tag_181\n      tag_102\n      jump\t// in\n    tag_181:\n        /* \"#utility.yul\":2006:2118   */\n    tag_180:\n        /* \"#utility.yul\":2127:2181   */\n      tag_182\n        /* \"#utility.yul\":2174:2180   */\n      dup5\n        /* \"#utility.yul\":2169:2172   */\n      dup3\n        /* \"#utility.yul\":2164:2167   */\n      dup6\n        /* \"#utility.yul\":2127:2181   */\n      tag_108\n      jump\t// in\n    tag_182:\n        /* \"#utility.yul\":1846:2187   */\n      pop\n        /* \"#utility.yul\":1762:2187   */\n      swap4\n      swap3\n      pop\n      pop\n      pop\n      jump\t// out\n        /* \"#utility.yul\":2207:2547   */\n    tag_110:\n        /* \"#utility.yul\":2263:2268   */\n      0x00\n        /* \"#utility.yul\":2312:2315   */\n      dup3\n        /* \"#utility.yul\":2305:2309   */\n      0x1f\n        /* \"#utility.yul\":2297:2303   */\n      dup4\n        /* \"#utility.yul\":2293:2310   */\n      add\n        /* \"#utility.yul\":2289:2316   */\n      slt\n        /* \"#utility.yul\":2279:2401   */\n      tag_184\n      jumpi\n        /* \"#utility.yul\":2320:2399   */\n      tag_185\n      tag_101\n      jump\t// in\n    tag_185:\n        /* \"#utility.yul\":2279:2401   */\n    tag_184:\n        /* \"#utility.yul\":2437:2443   */\n      dup2\n        /* \"#utility.yul\":2424:2444   */\n      calldataload\n        /* \"#utility.yul\":2462:2541   */\n      tag_186\n        /* \"#utility.yul\":2537:2540   */\n      dup5\n        /* \"#utility.yul\":2529:2535   */\n      dup3\n        /* \"#utility.yul\":2522:2526   */\n      0x20\n        /* \"#utility.yul\":2514:2520   */\n      dup7\n        /* \"#utility.yul\":2510:2527   */\n      add\n        /* \"#utility.yul\":2462:2541   */\n      tag_109\n      jump\t// in\n    tag_186:\n        /* \"#utility.yul\":2453:2541   */\n      swap2\n      pop\n        /* \"#utility.yul\":2269:2547   */\n      pop\n        /* \"#utility.yul\":2207:2547   */\n      swap3\n      swap2\n      pop\n      pop\n      jump\t// out\n        /* \"#utility.yul\":2553:2630   */\n    tag_111:\n        /* \"#utility.yul\":2590:2597   */\n      0x00\n        /* \"#utility.yul\":2619:2624   */\n      dup2\n        /* \"#utility.yul\":2608:2624   */\n      swap1\n      pop\n        /* \"#utility.yul\":2553:2630   */\n      swap2\n      swap1\n      pop\n      jump\t// out\n        /* \"#utility.yul\":2636:2758   */\n    tag_112:\n        /* \"#utility.yul\":2709:2733   */\n      tag_189\n        /* \"#utility.yul\":2727:2732   */\n      dup2\n        /* \"#utility.yul\":2709:2733   */\n      tag_111\n      jump\t// in\n    tag_189:\n        /* \"#utility.yul\":2702:2707   */\n      dup2\n        /* \"#utility.yul\":2699:2734   */\n      eq\n        /* \"#utility.yul\":2689:2752   */\n      tag_190\n      jumpi\n        /* \"#utility.yul\":2748:2749   */\n      0x00\n        /* \"#utility.yul\":2745:2746   */\n      dup1\n        /* \"#utility.yul\":2738:2750   */\n      revert\n        /* \"#utility.yul\":2689:2752   */\n    tag_190:\n        /* \"#utility.yul\":2636:2758   */\n      pop\n      jump\t// out\n        /* \"#utility.yul\":2764:2903   */\n    tag_113:\n        /* \"#utility.yul\":2810:2815   */\n      0x00\n        /* \"#utility.yul\":2848:2854   */\n      dup2\n        /* \"#utility.yul\":2835:2855   */\n      calldataload\n        /* \"#utility.yul\":2826:2855   */\n      swap1\n      pop\n        /* \"#utility.yul\":2864:2897   */\n      tag_192\n        /* \"#utility.yul\":2891:2896   */\n      dup2\n        /* \"#utility.yul\":2864:2897   */\n      tag_112\n      jump\t// in\n    tag_192:\n        /* \"#utility.yul\":2764:2903   */\n      swap3\n      swap2\n      pop\n      pop\n      jump\t// out\n        /* \"#utility.yul\":2909:3888   */\n    tag_11:\n        /* \"#utility.yul\":3006:3012   */\n      0x00\n        /* \"#utility.yul\":3014:3020   */\n      dup1\n        /* \"#utility.yul\":3022:3028   */\n      0x00\n        /* \"#utility.yul\":3071:3073   */\n      0x60\n        /* \"#utility.yul\":3059:3068   */\n      dup5\n        /* \"#utility.yul\":3050:3057   */\n      dup7\n        /* \"#utility.yul\":3046:3069   */\n      sub\n        /* \"#utility.yul\":3042:3074   */\n      slt\n        /* \"#utility.yul\":3039:3158   */\n      iszero\n      tag_194\n      jumpi\n        /* \"#utility.yul\":3077:3156   */\n      tag_195\n      tag_99\n      jump\t// in\n    tag_195:\n        /* \"#utility.yul\":3039:3158   */\n    tag_194:\n        /* \"#utility.yul\":3225:3226   */\n      0x00\n        /* \"#utility.yul\":3214:3223   */\n      dup5\n        /* \"#utility.yul\":3210:3227   */\n      add\n        /* \"#utility.yul\":3197:3228   */\n      calldataload\n        /* \"#utility.yul\":3255:3273   */\n      0xffffffffffffffff\n        /* \"#utility.yul\":3247:3253   */\n      dup2\n        /* \"#utility.yul\":3244:3274   */\n      gt\n        /* \"#utility.yul\":3241:3358   */\n      iszero\n      tag_196\n      jumpi\n        /* \"#utility.yul\":3277:3356   */\n      tag_197\n      tag_100\n      jump\t// in\n    tag_197:\n        /* \"#utility.yul\":3241:3358   */\n    tag_196:\n        /* \"#utility.yul\":3382:3445   */\n      tag_198\n        /* \"#utility.yul\":3437:3444   */\n      dup7\n        /* \"#utility.yul\":3428:3434   */\n      dup3\n        /* \"#utility.yul\":3417:3426   */\n      dup8\n        /* \"#utility.yul\":3413:3435   */\n      add\n        /* \"#utility.yul\":3382:3445   */\n      tag_110\n      jump\t// in\n    tag_198:\n        /* \"#utility.yul\":3372:3445   */\n      swap4\n      pop\n        /* \"#utility.yul\":3168:3455   */\n      pop\n        /* \"#utility.yul\":3522:3524   */\n      0x20\n        /* \"#utility.yul\":3511:3520   */\n      dup5\n        /* \"#utility.yul\":3507:3525   */\n      add\n        /* \"#utility.yul\":3494:3526   */\n      calldataload\n        /* \"#utility.yul\":3553:3571   */\n      0xffffffffffffffff\n        /* \"#utility.yul\":3545:3551   */\n      dup2\n        /* \"#utility.yul\":3542:3572   */\n      gt\n        /* \"#utility.yul\":3539:3656   */\n      iszero\n      tag_199\n      jumpi\n        /* \"#utility.yul\":3575:3654   */\n      tag_200\n      tag_100\n      jump\t// in\n    tag_200:\n        /* \"#utility.yul\":3539:3656   */\n    tag_199:\n        /* \"#utility.yul\":3680:3743   */\n      tag_201\n        /* \"#utility.yul\":3735:3742   */\n      dup7\n        /* \"#utility.yul\":3726:3732   */\n      dup3\n        /* \"#utility.yul\":3715:3724   */\n      dup8\n        /* \"#utility.yul\":3711:3733   */\n      add\n        /* \"#utility.yul\":3680:3743   */\n      tag_110\n      jump\t// in\n    tag_201:\n        /* \"#utility.yul\":3670:3743   */\n      swap3\n      pop\n        /* \"#utility.yul\":3465:3753   */\n      pop\n        /* \"#utility.yul\":3792:3794   */\n      0x40\n        /* \"#utility.yul\":3818:3871   */\n      tag_202\n        /* \"#utility.yul\":3863:3870   */\n      dup7\n        /* \"#utility.yul\":3854:3860   */\n      dup3\n        /* \"#utility.yul\":3843:3852   */\n      dup8\n        /* \"#utility.yul\":3839:3861   */\n      add\n        /* \"#utility.yul\":3818:3871   */\n      tag_113\n      jump\t// in\n    tag_202:\n        /* \"#utility.yul\":3808:3871   */\n      swap2\n      pop\n        /* \"#utility.yul\":3763:3881   */\n      pop\n        /* \"#utility.yul\":2909:3888   */\n      swap3\n      pop\n      swap3\n      pop\n      swap3\n      jump\t// out\n        /* \"#utility.yul\":3894:4223   */\n    tag_16:\n        /* \"#utility.yul\":3953:3959   */\n      0x00\n        /* \"#utility.yul\":4002:4004   */\n      0x20\n        /* \"#utility.yul\":3990:3999   */\n      dup3\n        /* \"#utility.yul\":3981:3988   */\n      dup5\n        /* \"#utility.yul\":3977:4000   */\n      sub\n        /* \"#utility.yul\":3973:4005   */\n      slt\n        /* \"#utility.yul\":3970:4089   */\n      iszero\n      tag_204\n      jumpi\n        /* \"#utility.yul\":4008:4087   */\n      tag_205\n      tag_99\n      jump\t// in\n    tag_205:\n        /* \"#utility.yul\":3970:4089   */\n    tag_204:\n        /* \"#utility.yul\":4128:4129   */\n      0x00\n        /* \"#utility.yul\":4153:4206   */\n      tag_206\n        /* \"#utility.yul\":4198:4205   */\n      dup5\n        /* \"#utility.yul\":4189:4195   */\n      dup3\n        /* \"#utility.yul\":4178:4187   */\n      dup6\n        /* \"#utility.yul\":4174:4196   */\n      add\n        /* \"#utility.yul\":4153:4206   */\n      tag_113\n      jump\t// in\n    tag_206:\n        /* \"#utility.yul\":4143:4206   */\n      swap2\n      pop\n        /* \"#utility.yul\":4099:4216   */\n      pop\n        /* \"#utility.yul\":3894:4223   */\n      swap3\n      swap2\n      pop\n      pop\n      jump\t// out\n        /* \"#utility.yul\":4229:4328   */\n    tag_114:\n        /* \"#utility.yul\":4281:4287   */\n      0x00\n        /* \"#utility.yul\":4315:4320   */\n      dup2\n        /* \"#utility.yul\":4309:4321   */\n      mload\n        /* \"#utility.yul\":4299:4321   */\n      swap1\n      pop\n        /* \"#utility.yul\":4229:4328   */\n      swap2\n      swap1\n      pop\n      jump\t// out\n        /* \"#utility.yul\":4334:4503   */\n    tag_115:\n        /* \"#utility.yul\":4418:4429   */\n      0x00\n        /* \"#utility.yul\":4452:4458   */\n      dup3\n        /* \"#utility.yul\":4447:4450   */\n      dup3\n        /* \"#utility.yul\":4440:4459   */\n      mstore\n        /* \"#utility.yul\":4492:4496   */\n      0x20\n        /* \"#utility.yul\":4487:4490   */\n      dup3\n        /* \"#utility.yul\":4483:4497   */\n      add\n        /* \"#utility.yul\":4468:4497   */\n      swap1\n      pop\n        /* \"#utility.yul\":4334:4503   */\n      swap3\n      swap2\n      pop\n      pop\n      jump\t// out\n        /* \"#utility.yul\":4509:4755   */\n    tag_116:\n        /* \"#utility.yul\":4590:4591   */\n      0x00\n        /* \"#utility.yul\":4600:4713   */\n    tag_210:\n        /* \"#utility.yul\":4614:4620   */\n      dup4\n        /* \"#utility.yul\":4611:4612   */\n      dup2\n        /* \"#utility.yul\":4608:4621   */\n      lt\n        /* \"#utility.yul\":4600:4713   */\n      iszero\n      tag_212\n      jumpi\n        /* \"#utility.yul\":4699:4700   */\n      dup1\n        /* \"#utility.yul\":4694:4697   */\n      dup3\n        /* \"#utility.yul\":4690:4701   */\n      add\n        /* \"#utility.yul\":4684:4702   */\n      mload\n        /* \"#utility.yul\":4680:4681   */\n      dup2\n        /* \"#utility.yul\":4675:4678   */\n      dup5\n        /* \"#utility.yul\":4671:4682   */\n      add\n        /* \"#utility.yul\":4664:4703   */\n      mstore\n        /* \"#utility.yul\":4636:4638   */\n      0x20\n        /* \"#utility.yul\":4633:4634   */\n      dup2\n        /* \"#utility.yul\":4629:4639   */\n      add\n        /* \"#utility.yul\":4624:4639   */\n      swap1\n      pop\n        /* \"#utility.yul\":4600:4713   */\n      jump(tag_210)\n    tag_212:\n        /* \"#utility.yul\":4747:4748   */\n      0x00\n        /* \"#utility.yul\":4738:4744   */\n      dup5\n        /* \"#utility.yul\":4733:4736   */\n      dup5\n        /* \"#utility.yul\":4729:4745   */\n      add\n        /* \"#utility.yul\":4722:4749   */\n      mstore\n        /* \"#utility.yul\":4571:4755   */\n      pop\n        /* \"#utility.yul\":4509:4755   */\n      pop\n      pop\n      pop\n      jump\t// out\n        /* \"#utility.yul\":4761:5138   */\n    tag_117:\n        /* \"#utility.yul\":4849:4852   */\n      0x00\n        /* \"#utility.yul\":4877:4916   */\n      tag_214\n        /* \"#utility.yul\":4910:4915   */\n      dup3\n        /* \"#utility.yul\":4877:4916   */\n      tag_114\n      jump\t// in\n    tag_214:\n        /* \"#utility.yul\":4932:5003   */\n      tag_215\n        /* \"#utility.yul\":4996:5002   */\n      dup2\n        /* \"#utility.yul\":4991:4994   */\n      dup6\n        /* \"#utility.yul\":4932:5003   */\n      tag_115\n      jump\t// in\n    tag_215:\n        /* \"#utility.yul\":4925:5003   */\n      swap4\n      pop\n        /* \"#utility.yul\":5012:5077   */\n      tag_216\n        /* \"#utility.yul\":5070:5076   */\n      dup2\n        /* \"#utility.yul\":5065:5068   */\n      dup6\n        /* \"#utility.yul\":5058:5062   */\n      0x20\n        /* \"#utility.yul\":5051:5056   */\n      dup7\n        /* \"#utility.yul\":5047:5063   */\n      add\n        /* \"#utility.yul\":5012:5077   */\n      tag_116\n      jump\t// in\n    tag_216:\n        /* \"#utility.yul\":5102:5131   */\n      tag_217\n        /* \"#utility.yul\":5124:5130   */\n      dup2\n        /* \"#utility.yul\":5102:5131   */\n      tag_103\n      jump\t// in\n    tag_217:\n        /* \"#utility.yul\":5097:5100   */\n      dup5\n        /* \"#utility.yul\":5093:5132   */\n      add\n        /* \"#utility.yul\":5086:5132   */\n      swap2\n      pop\n        /* \"#utility.yul\":4853:5138   */\n      pop\n        /* \"#utility.yul\":4761:5138   */\n      swap3\n      swap2\n      pop\n      pop\n      jump\t// out\n        /* \"#utility.yul\":5144:5262   */\n    tag_118:\n        /* \"#utility.yul\":5231:5255   */\n      tag_219\n        /* \"#utility.yul\":5249:5254   */\n      dup2\n        /* \"#utility.yul\":5231:5255   */\n      tag_111\n      jump\t// in\n    tag_219:\n        /* \"#utility.yul\":5226:5229   */\n      dup3\n        /* \"#utility.yul\":5219:5256   */\n      mstore\n        /* \"#utility.yul\":5144:5262   */\n      pop\n      pop\n      jump\t// out\n        /* \"#utility.yul\":5268:5394   */\n    tag_119:\n        /* \"#utility.yul\":5305:5312   */\n      0x00\n        /* \"#utility.yul\":5345:5387   */\n      0xffffffffffffffffffffffffffffffffffffffff\n        /* \"#utility.yul\":5338:5343   */\n      dup3\n        /* \"#utility.yul\":5334:5388   */\n      and\n        /* \"#utility.yul\":5323:5388   */\n      swap1\n      pop\n        /* \"#utility.yul\":5268:5394   */\n      swap2\n      swap1\n      pop\n      jump\t// out\n        /* \"#utility.yul\":5400:5496   */\n    tag_120:\n        /* \"#utility.yul\":5437:5444   */\n      0x00\n        /* \"#utility.yul\":5466:5490   */\n      tag_222\n        /* \"#utility.yul\":5484:5489   */\n      dup3\n        /* \"#utility.yul\":5466:5490   */\n      tag_119\n      jump\t// in\n    tag_222:\n        /* \"#utility.yul\":5455:5490   */\n      swap1\n      pop\n        /* \"#utility.yul\":5400:5496   */\n      swap2\n      swap1\n      pop\n      jump\t// out\n        /* \"#utility.yul\":5502:5620   */\n    tag_121:\n        /* \"#utility.yul\":5589:5613   */\n      tag_224\n        /* \"#utility.yul\":5607:5612   */\n      dup2\n        /* \"#utility.yul\":5589:5613   */\n      tag_120\n      jump\t// in\n    tag_224:\n        /* \"#utility.yul\":5584:5587   */\n      dup3\n        /* \"#utility.yul\":5577:5614   */\n      mstore\n        /* \"#utility.yul\":5502:5620   */\n      pop\n      pop\n      jump\t// out\n        /* \"#utility.yul\":5626:5716   */\n    tag_122:\n        /* \"#utility.yul\":5660:5667   */\n      0x00\n        /* \"#utility.yul\":5703:5708   */\n      dup2\n        /* \"#utility.yul\":5696:5709   */\n      iszero\n        /* \"#utility.yul\":5689:5710   */\n      iszero\n        /* \"#utility.yul\":5678:5710   */\n      swap1\n      pop\n        /* \"#utility.yul\":5626:5716   */\n      swap2\n      swap1\n      pop\n      jump\t// out\n        /* \"#utility.yul\":5722:5831   */\n    tag_123:\n        /* \"#utility.yul\":5803:5824   */\n      tag_227\n        /* \"#utility.yul\":5818:5823   */\n      dup2\n        /* \"#utility.yul\":5803:5824   */\n      tag_122\n      jump\t// in\n    tag_227:\n        /* \"#utility.yul\":5798:5801   */\n      dup3\n        /* \"#utility.yul\":5791:5825   */\n      mstore\n        /* \"#utility.yul\":5722:5831   */\n      pop\n      pop\n      jump\t// out\n        /* \"#utility.yul\":5837:6671   */\n    tag_19:\n        /* \"#utility.yul\":6076:6080   */\n      0x00\n        /* \"#utility.yul\":6114:6117   */\n      0xa0\n        /* \"#utility.yul\":6103:6112   */\n      dup3\n        /* \"#utility.yul\":6099:6118   */\n      add\n        /* \"#utility.yul\":6091:6118   */\n      swap1\n      pop\n        /* \"#utility.yul\":6164:6173   */\n      dup2\n        /* \"#utility.yul\":6158:6162   */\n      dup2\n        /* \"#utility.yul\":6154:6174   */\n      sub\n        /* \"#utility.yul\":6150:6151   */\n      0x00\n        /* \"#utility.yul\":6139:6148   */\n      dup4\n        /* \"#utility.yul\":6135:6152   */\n      add\n        /* \"#utility.yul\":6128:6175   */\n      mstore\n        /* \"#utility.yul\":6192:6270   */\n      tag_229\n        /* \"#utility.yul\":6265:6269   */\n      dup2\n        /* \"#utility.yul\":6256:6262   */\n      dup9\n        /* \"#utility.yul\":6192:6270   */\n      tag_117\n      jump\t// in\n    tag_229:\n        /* \"#utility.yul\":6184:6270   */\n      swap1\n      pop\n        /* \"#utility.yul\":6317:6326   */\n      dup2\n        /* \"#utility.yul\":6311:6315   */\n      dup2\n        /* \"#utility.yul\":6307:6327   */\n      sub\n        /* \"#utility.yul\":6302:6304   */\n      0x20\n        /* \"#utility.yul\":6291:6300   */\n      dup4\n        /* \"#utility.yul\":6287:6305   */\n      add\n        /* \"#utility.yul\":6280:6328   */\n      mstore\n        /* \"#utility.yul\":6345:6423   */\n      tag_230\n        /* \"#utility.yul\":6418:6422   */\n      dup2\n        /* \"#utility.yul\":6409:6415   */\n      dup8\n        /* \"#utility.yul\":6345:6423   */\n      tag_117\n      jump\t// in\n    tag_230:\n        /* \"#utility.yul\":6337:6423   */\n      swap1\n      pop\n        /* \"#utility.yul\":6433:6505   */\n      tag_231\n        /* \"#utility.yul\":6501:6503   */\n      0x40\n        /* \"#utility.yul\":6490:6499   */\n      dup4\n        /* \"#utility.yul\":6486:6504   */\n      add\n        /* \"#utility.yul\":6477:6483   */\n      dup7\n        /* \"#utility.yul\":6433:6505   */\n      tag_118\n      jump\t// in\n    tag_231:\n        /* \"#utility.yul\":6515:6587   */\n      tag_232\n        /* \"#utility.yul\":6583:6585   */\n      0x60\n        /* \"#utility.yul\":6572:6581   */\n      dup4\n        /* \"#utility.yul\":6568:6586   */\n      add\n        /* \"#utility.yul\":6559:6565   */\n      dup6\n        /* \"#utility.yul\":6515:6587   */\n      tag_121\n      jump\t// in\n    tag_232:\n        /* \"#utility.yul\":6597:6664   */\n      tag_233\n        /* \"#utility.yul\":6659:6662   */\n      0x80\n        /* \"#utility.yul\":6648:6657   */\n      dup4\n        /* \"#utility.yul\":6644:6663   */\n      add\n        /* \"#utility.yul\":6635:6641   */\n      dup5\n        /* \"#utility.yul\":6597:6664   */\n      tag_123\n      jump\t// in\n    tag_233:\n        /* \"#utility.yul\":5837:6671   */\n      swap7\n      swap6\n      pop\n      pop\n      pop\n      pop\n      pop\n      pop\n      jump\t// out\n        /* \"#utility.yul\":6677:6899   */\n    tag_24:\n        /* \"#utility.yul\":6770:6774   */\n      0x00\n        /* \"#utility.yul\":6808:6810   */\n      0x20\n        /* \"#utility.yul\":6797:6806   */\n      dup3\n        /* \"#utility.yul\":6793:6811   */\n      add\n        /* \"#utility.yul\":6785:6811   */\n      swap1\n      pop\n        /* \"#utility.yul\":6821:6892   */\n      tag_235\n        /* \"#utility.yul\":6889:6890   */\n      0x00\n        /* \"#utility.yul\":6878:6887   */\n      dup4\n        /* \"#utility.yul\":6874:6891   */\n      add\n        /* \"#utility.yul\":6865:6871   */\n      dup5\n        /* \"#utility.yul\":6821:6892   */\n      tag_118\n      jump\t// in\n    tag_235:\n        /* \"#utility.yul\":6677:6899   */\n      swap3\n      swap2\n      pop\n      pop\n      jump\t// out\n        /* \"#utility.yul\":6905:7009   */\n    tag_124:\n        /* \"#utility.yul\":6950:6957   */\n      0x00\n        /* \"#utility.yul\":6979:7003   */\n      tag_237\n        /* \"#utility.yul\":6997:7002   */\n      dup3\n        /* \"#utility.yul\":6979:7003   */\n      tag_119\n      jump\t// in\n    tag_237:\n        /* \"#utility.yul\":6968:7003   */\n      swap1\n      pop\n        /* \"#utility.yul\":6905:7009   */\n      swap2\n      swap1\n      pop\n      jump\t// out\n        /* \"#utility.yul\":7015:7157   */\n    tag_125:\n        /* \"#utility.yul\":7118:7150   */\n      tag_239\n        /* \"#utility.yul\":7144:7149   */\n      dup2\n        /* \"#utility.yul\":7118:7150   */\n      tag_124\n      jump\t// in\n    tag_239:\n        /* \"#utility.yul\":7113:7116   */\n      dup3\n        /* \"#utility.yul\":7106:7151   */\n      mstore\n        /* \"#utility.yul\":7015:7157   */\n      pop\n      pop\n      jump\t// out\n        /* \"#utility.yul\":7163:8029   */\n    tag_33:\n        /* \"#utility.yul\":7418:7422   */\n      0x00\n        /* \"#utility.yul\":7456:7459   */\n      0xa0\n        /* \"#utility.yul\":7445:7454   */\n      dup3\n        /* \"#utility.yul\":7441:7460   */\n      add\n        /* \"#utility.yul\":7433:7460   */\n      swap1\n      pop\n        /* \"#utility.yul\":7506:7515   */\n      dup2\n        /* \"#utility.yul\":7500:7504   */\n      dup2\n        /* \"#utility.yul\":7496:7516   */\n      sub\n        /* \"#utility.yul\":7492:7493   */\n      0x00\n        /* \"#utility.yul\":7481:7490   */\n      dup4\n        /* \"#utility.yul\":7477:7494   */\n      add\n        /* \"#utility.yul\":7470:7517   */\n      mstore\n        /* \"#utility.yul\":7534:7612   */\n      tag_241\n        /* \"#utility.yul\":7607:7611   */\n      dup2\n        /* \"#utility.yul\":7598:7604   */\n      dup9\n        /* \"#utility.yul\":7534:7612   */\n      tag_117\n      jump\t// in\n    tag_241:\n        /* \"#utility.yul\":7526:7612   */\n      swap1\n      pop\n        /* \"#utility.yul\":7659:7668   */\n      dup2\n        /* \"#utility.yul\":7653:7657   */\n      dup2\n        /* \"#utility.yul\":7649:7669   */\n      sub\n        /* \"#utility.yul\":7644:7646   */\n      0x20\n        /* \"#utility.yul\":7633:7642   */\n      dup4\n        /* \"#utility.yul\":7629:7647   */\n      add\n        /* \"#utility.yul\":7622:7670   */\n      mstore\n        /* \"#utility.yul\":7687:7765   */\n      tag_242\n        /* \"#utility.yul\":7760:7764   */\n      dup2\n        /* \"#utility.yul\":7751:7757   */\n      dup8\n        /* \"#utility.yul\":7687:7765   */\n      tag_117\n      jump\t// in\n    tag_242:\n        /* \"#utility.yul\":7679:7765   */\n      swap1\n      pop\n        /* \"#utility.yul\":7775:7847   */\n      tag_243\n        /* \"#utility.yul\":7843:7845   */\n      0x40\n        /* \"#utility.yul\":7832:7841   */\n      dup4\n        /* \"#utility.yul\":7828:7846   */\n      add\n        /* \"#utility.yul\":7819:7825   */\n      dup7\n        /* \"#utility.yul\":7775:7847   */\n      tag_118\n      jump\t// in\n    tag_243:\n        /* \"#utility.yul\":7857:7945   */\n      tag_244\n        /* \"#utility.yul\":7941:7943   */\n      0x60\n        /* \"#utility.yul\":7930:7939   */\n      dup4\n        /* \"#utility.yul\":7926:7944   */\n      add\n        /* \"#utility.yul\":7917:7923   */\n      dup6\n        /* \"#utility.yul\":7857:7945   */\n      tag_125\n      jump\t// in\n    tag_244:\n        /* \"#utility.yul\":7955:8022   */\n      tag_245\n        /* \"#utility.yul\":8017:8020   */\n      0x80\n        /* \"#utility.yul\":8006:8015   */\n      dup4\n        /* \"#utility.yul\":8002:8021   */\n      add\n        /* \"#utility.yul\":7993:7999   */\n      dup5\n        /* \"#utility.yul\":7955:8022   */\n      tag_123\n      jump\t// in\n    tag_245:\n        /* \"#utility.yul\":7163:8029   */\n      swap7\n      swap6\n      pop\n      pop\n      pop\n      pop\n      pop\n      pop\n      jump\t// out\n        /* \"#utility.yul\":8035:8215   */\n    tag_126:\n        /* \"#utility.yul\":8083:8160   */\n      0x4e487b7100000000000000000000000000000000000000000000000000000000\n        /* \"#utility.yul\":8080:8081   */\n      0x00\n        /* \"#utility.yul\":8073:8161   */\n      mstore\n        /* \"#utility.yul\":8180:8184   */\n      0x11\n        /* \"#utility.yul\":8177:8178   */\n      0x04\n        /* \"#utility.yul\":8170:8185   */\n      mstore\n        /* \"#utility.yul\":8204:8208   */\n      0x24\n        /* \"#utility.yul\":8201:8202   */\n      0x00\n        /* \"#utility.yul\":8194:8209   */\n      revert\n        /* \"#utility.yul\":8221:8454   */\n    tag_40:\n        /* \"#utility.yul\":8260:8263   */\n      0x00\n        /* \"#utility.yul\":8283:8307   */\n      tag_248\n        /* \"#utility.yul\":8301:8306   */\n      dup3\n        /* \"#utility.yul\":8283:8307   */\n      tag_111\n      jump\t// in\n    tag_248:\n        /* \"#utility.yul\":8274:8307   */\n      swap2\n      pop\n        /* \"#utility.yul\":8329:8395   */\n      0xffffffffffffffffffffffffffffffffffffffffffffffffffffffffffffffff\n        /* \"#utility.yul\":8322:8327   */\n      dup3\n        /* \"#utility.yul\":8319:8396   */\n      sub\n        /* \"#utility.yul\":8316:8419   */\n      tag_249\n      jumpi\n        /* \"#utility.yul\":8399:8417   */\n      tag_250\n      tag_126\n      jump\t// in\n    tag_250:\n        /* \"#utility.yul\":8316:8419   */\n    tag_249:\n        /* \"#utility.yul\":8446:8447   */\n      0x01\n        /* \"#utility.yul\":8439:8444   */\n      dup3\n        /* \"#utility.yul\":8435:8448   */\n      add\n        /* \"#utility.yul\":8428:8448   */\n      swap1\n      pop\n        /* \"#utility.yul\":8221:8454   */\n      swap2\n      swap1\n      pop\n      jump\t// out\n        /* \"#utility.yul\":8460:8640   */\n    tag_127:\n        /* \"#utility.yul\":8508:8585   */\n      0x4e487b7100000000000000000000000000000000000000000000000000000000\n        /* \"#utility.yul\":8505:8506   */\n      0x00\n        /* \"#utility.yul\":8498:8586   */\n      mstore\n        /* \"#utility.yul\":8605:8609   */\n      0x22\n        /* \"#utility.yul\":8602:8603   */\n      0x04\n        /* \"#utility.yul\":8595:8610   */\n      mstore\n        /* \"#utility.yul\":8629:8633   */\n      0x24\n        /* \"#utility.yul\":8626:8627   */\n      0x00\n        /* \"#utility.yul\":8619:8634   */\n      revert\n        /* \"#utility.yul\":8646:8966   */\n    tag_52:\n        /* \"#utility.yul\":8690:8696   */\n      0x00\n        /* \"#utility.yul\":8727:8728   */\n      0x02\n        /* \"#utility.yul\":8721:8725   */\n      dup3\n        /* \"#utility.yul\":8717:8729   */\n      div\n        /* \"#utility.yul\":8707:8729   */\n      swap1\n      pop\n        /* \"#utility.yul\":8774:8775   */\n      0x01\n        /* \"#utility.yul\":8768:8772   */\n      dup3\n        /* \"#utility.yul\":8764:8776   */\n      and\n        /* \"#utility.yul\":8795:8813   */\n      dup1\n        /* \"#utility.yul\":8785:8866   */\n      tag_253\n      jumpi\n        /* \"#utility.yul\":8851:8855   */\n      0x7f\n        /* \"#utility.yul\":8843:8849   */\n      dup3\n        /* \"#utility.yul\":8839:8856   */\n      and\n        /* \"#utility.yul\":8829:8856   */\n      swap2\n      pop\n        /* \"#utility.yul\":8785:8866   */\n    tag_253:\n        /* \"#utility.yul\":8913:8915   */\n      0x20\n        /* \"#utility.yul\":8905:8911   */\n      dup3\n        /* \"#utility.yul\":8902:8916   */\n      lt\n        /* \"#utility.yul\":8882:8900   */\n      dup2\n        /* \"#utility.yul\":8879:8917   */\n      sub\n        /* \"#utility.yul\":8876:8960   */\n      tag_254\n      jumpi\n        /* \"#utility.yul\":8932:8950   */\n      tag_255\n      tag_127\n      jump\t// in\n    tag_255:\n        /* \"#utility.yul\":8876:8960   */\n    tag_254:\n        /* \"#utility.yul\":8697:8966   */\n      pop\n        /* \"#utility.yul\":8646:8966   */\n      swap2\n      swap1\n      pop\n      jump\t// out\n        /* \"#utility.yul\":8972:9113   */\n    tag_128:\n        /* \"#utility.yul\":9021:9025   */\n      0x00\n        /* \"#utility.yul\":9044:9047   */\n      dup2\n        /* \"#utility.yul\":9036:9047   */\n      swap1\n      pop\n        /* \"#utility.yul\":9067:9070   */\n      dup2\n        /* \"#utility.yul\":9064:9065   */\n      0x00\n        /* \"#utility.yul\":9057:9071   */\n      mstore\n        /* \"#utility.yul\":9101:9105   */\n      0x20\n        /* \"#utility.yul\":9098:9099   */\n      0x00\n        /* \"#utility.yul\":9088:9106   */\n      keccak256\n        /* \"#utility.yul\":9080:9106   */\n      swap1\n      pop\n        /* \"#utility.yul\":8972:9113   */\n      swap2\n      swap1\n      pop\n      jump\t// out\n        /* \"#utility.yul\":9119:9212   */\n    tag_129:\n        /* \"#utility.yul\":9156:9162   */\n      0x00\n        /* \"#utility.yul\":9203:9205   */\n      0x20\n        /* \"#utility.yul\":9198:9200   */\n      0x1f\n        /* \"#utility.yul\":9191:9196   */\n      dup4\n        /* \"#utility.yul\":9187:9201   */\n      add\n        /* \"#utility.yul\":9183:9206   */\n      div\n        /* \"#utility.yul\":9173:9206   */\n      swap1\n      pop\n        /* \"#utility.yul\":9119:9212   */\n      swap2\n      swap1\n      pop\n      jump\t// out\n        /* \"#utility.yul\":9218:9325   */\n    tag_130:\n        /* \"#utility.yul\":9262:9270   */\n      0x00\n        /* \"#utility.yul\":9312:9317   */\n      dup3\n        /* \"#utility.yul\":9306:9310   */\n      dup3\n        /* \"#utility.yul\":9302:9318   */\n      shl\n        /* \"#utility.yul\":9281:9318   */\n      swap1\n      pop\n        /* \"#utility.yul\":9218:9325   */\n      swap3\n      swap2\n      pop\n      pop\n      jump\t// out\n        /* \"#utility.yul\":9331:9724   */\n    tag_131:\n        /* \"#utility.yul\":9400:9406   */\n      0x00\n        /* \"#utility.yul\":9450:9451   */\n      0x08\n        /* \"#utility.yul\":9438:9448   */\n      dup4\n        /* \"#utility.yul\":9434:9452   */\n      mul\n        /* \"#utility.yul\":9473:9570   */\n      tag_260\n        /* \"#utility.yul\":9503:9569   */\n      0xffffffffffffffffffffffffffffffffffffffffffffffffffffffffffffffff\n        /* \"#utility.yul\":9492:9501   */\n      dup3\n        /* \"#utility.yul\":9473:9570   */\n      tag_130\n      jump\t// in\n    tag_260:\n        /* \"#utility.yul\":9591:9630   */\n      tag_261\n        /* \"#utility.yul\":9621:9629   */\n      dup7\n        /* \"#utility.yul\":9610:9619   */\n      dup4\n        /* \"#utility.yul\":9591:9630   */\n      tag_130\n      jump\t// in\n    tag_261:\n        /* \"#utility.yul\":9579:9630   */\n      swap6\n      pop\n        /* \"#utility.yul\":9663:9667   */\n      dup1\n        /* \"#utility.yul\":9659:9668   */\n      not\n        /* \"#utility.yul\":9652:9657   */\n      dup5\n        /* \"#utility.yul\":9648:9669   */\n      and\n        /* \"#utility.yul\":9639:9669   */\n      swap4\n      pop\n        /* \"#utility.yul\":9712:9716   */\n      dup1\n        /* \"#utility.yul\":9702:9710   */\n      dup7\n        /* \"#utility.yul\":9698:9717   */\n      and\n        /* \"#utility.yul\":9691:9696   */\n      dup5\n        /* \"#utility.yul\":9688:9718   */\n      or\n        /* \"#utility.yul\":9678:9718   */\n      swap3\n      pop\n        /* \"#utility.yul\":9407:9724   */\n      pop\n      pop\n        /* \"#utility.yul\":9331:9724   */\n      swap4\n      swap3\n      pop\n      pop\n      pop\n      jump\t// out\n        /* \"#utility.yul\":9730:9790   */\n    tag_132:\n        /* \"#utility.yul\":9758:9761   */\n      0x00\n        /* \"#utility.yul\":9779:9784   */\n      dup2\n        /* \"#utility.yul\":9772:9784   */\n      swap1\n      pop\n        /* \"#utility.yul\":9730:9790   */\n      swap2\n      swap1\n      pop\n      jump\t// out\n        /* \"#utility.yul\":9796:9938   */\n    tag_133:\n        /* \"#utility.yul\":9846:9855   */\n      0x00\n        /* \"#utility.yul\":9879:9932   */\n      tag_264\n        /* \"#utility.yul\":9897:9931   */\n      tag_265\n        /* \"#utility.yul\":9906:9930   */\n      tag_266\n        /* \"#utility.yul\":9924:9929   */\n      dup5\n        /* \"#utility.yul\":9906:9930   */\n      tag_111\n      jump\t// in\n    tag_266:\n        /* \"#utility.yul\":9897:9931   */\n      tag_132\n      jump\t// in\n    tag_265:\n        /* \"#utility.yul\":9879:9932   */\n      tag_111\n      jump\t// in\n    tag_264:\n        /* \"#utility.yul\":9866:9932   */\n      swap1\n      pop\n        /* \"#utility.yul\":9796:9938   */\n      swap2\n      swap1\n      pop\n      jump\t// out\n        /* \"#utility.yul\":9944:10019   */\n    tag_134:\n        /* \"#utility.yul\":9987:9990   */\n      0x00\n        /* \"#utility.yul\":10008:10013   */\n      dup2\n        /* \"#utility.yul\":10001:10013   */\n      swap1\n      pop\n        /* \"#utility.yul\":9944:10019   */\n      swap2\n      swap1\n      pop\n      jump\t// out\n        /* \"#utility.yul\":10025:10294   */\n    tag_135:\n        /* \"#utility.yul\":10135:10174   */\n      tag_269\n        /* \"#utility.yul\":10166:10173   */\n      dup4\n        /* \"#utility.yul\":10135:10174   */\n      tag_133\n      jump\t// in\n    tag_269:\n        /* \"#utility.yul\":10196:10287   */\n      tag_270\n        /* \"#utility.yul\":10245:10286   */\n      tag_271\n        /* \"#utility.yul\":10269:10285   */\n      dup3\n        /* \"#utility.yul\":10245:10286   */\n      tag_134\n      jump\t// in\n    tag_271:\n        /* \"#utility.yul\":10237:10243   */\n      dup5\n        /* \"#utility.yul\":10230:10234   */\n      dup5\n        /* \"#utility.yul\":10224:10235   */\n      sload\n        /* \"#utility.yul\":10196:10287   */\n      tag_131\n      jump\t// in\n    tag_270:\n        /* \"#utility.yul\":10190:10194   */\n      dup3\n        /* \"#utility.yul\":10183:10288   */\n      sstore\n        /* \"#utility.yul\":10101:10294   */\n      pop\n        /* \"#utility.yul\":10025:10294   */\n      pop\n      pop\n      pop\n      jump\t// out\n        /* \"#utility.yul\":10300:10373   */\n    tag_136:\n        /* \"#utility.yul\":10345:10348   */\n      0x00\n        /* \"#utility.yul\":10300:10373   */\n      swap1\n      jump\t// out\n        /* \"#utility.yul\":10379:10568   */\n    tag_137:\n        /* \"#utility.yul\":10456:10488   */\n      tag_274\n      tag_136\n      jump\t// in\n    tag_274:\n        /* \"#utility.yul\":10497:10562   */\n      tag_275\n        /* \"#utility.yul\":10555:10561   */\n      dup2\n        /* \"#utility.yul\":10547:10553   */\n      dup5\n        /* \"#utility.yul\":10541:10545   */\n      dup5\n        /* \"#utility.yul\":10497:10562   */\n      tag_135\n      jump\t// in\n    tag_275:\n        /* \"#utility.yul\":10432:10568   */\n      pop\n        /* \"#utility.yul\":10379:10568   */\n      pop\n      pop\n      jump\t// out\n        /* \"#utility.yul\":10574:10760   */\n    tag_138:\n        /* \"#utility.yul\":10634:10754   */\n    tag_277:\n        /* \"#utility.yul\":10651:10654   */\n      dup2\n        /* \"#utility.yul\":10644:10649   */\n      dup2\n        /* \"#utility.yul\":10641:10655   */\n      lt\n        /* \"#utility.yul\":10634:10754   */\n      iszero\n      tag_279\n      jumpi\n        /* \"#utility.yul\":10705:10744   */\n      tag_280\n        /* \"#utility.yul\":10742:10743   */\n      0x00\n        /* \"#utility.yul\":10735:10740   */\n      dup3\n        /* \"#utility.yul\":10705:10744   */\n      tag_137\n      jump\t// in\n    tag_280:\n        /* \"#utility.yul\":10678:10679   */\n      0x01\n        /* \"#utility.yul\":10671:10676   */\n      dup2\n        /* \"#utility.yul\":10667:10680   */\n      add\n        /* \"#utility.yul\":10658:10680   */\n      swap1\n      pop\n        /* \"#utility.yul\":10634:10754   */\n      jump(tag_277)\n    tag_279:\n        /* \"#utility.yul\":10574:10760   */\n      pop\n      pop\n      jump\t// out\n        /* \"#utility.yul\":10766:11309   */\n    tag_139:\n        /* \"#utility.yul\":10867:10869   */\n      0x1f\n        /* \"#utility.yul\":10862:10865   */\n      dup3\n        /* \"#utility.yul\":10859:10870   */\n      gt\n        /* \"#utility.yul\":10856:11302   */\n      iszero\n      tag_282\n      jumpi\n        /* \"#utility.yul\":10901:10939   */\n      tag_283\n        /* \"#utility.yul\":10933:10938   */\n      dup2\n        /* \"#utility.yul\":10901:10939   */\n      tag_128\n      jump\t// in\n    tag_283:\n        /* \"#utility.yul\":10985:11014   */\n      tag_284\n        /* \"#utility.yul\":11003:11013   */\n      dup5\n        /* \"#utility.yul\":10985:11014   */\n      tag_129\n      jump\t// in\n    tag_284:\n        /* \"#utility.yul\":10975:10983   */\n      dup2\n        /* \"#utility.yul\":10971:11015   */\n      add\n        /* \"#utility.yul\":11168:11170   */\n      0x20\n        /* \"#utility.yul\":11156:11166   */\n      dup6\n        /* \"#utility.yul\":11153:11171   */\n      lt\n        /* \"#utility.yul\":11150:11199   */\n      iszero\n      tag_285\n      jumpi\n        /* \"#utility.yul\":11189:11197   */\n      dup2\n        /* \"#utility.yul\":11174:11197   */\n      swap1\n      pop\n        /* \"#utility.yul\":11150:11199   */\n    tag_285:\n        /* \"#utility.yul\":11212:11292   */\n      tag_286\n        /* \"#utility.yul\":11268:11290   */\n      tag_287\n        /* \"#utility.yul\":11286:11289   */\n      dup6\n        /* \"#utility.yul\":11268:11290   */\n      tag_129\n      jump\t// in\n    tag_287:\n        /* \"#utility.yul\":11258:11266   */\n      dup4\n        /* \"#utility.yul\":11254:11291   */\n      add\n        /* \"#utility.yul\":11241:11252   */\n      dup3\n        /* \"#utility.yul\":11212:11292   */\n      tag_138\n      jump\t// in\n    tag_286:\n        /* \"#utility.yul\":10871:11302   */\n      pop\n      pop\n        /* \"#utility.yul\":10856:11302   */\n    tag_282:\n        /* \"#utility.yul\":10766:11309   */\n      pop\n      pop\n      pop\n      jump\t// out\n        /* \"#utility.yul\":11315:11432   */\n    tag_140:\n        /* \"#utility.yul\":11369:11377   */\n      0x00\n        /* \"#utility.yul\":11419:11424   */\n      dup3\n        /* \"#utility.yul\":11413:11417   */\n      dup3\n        /* \"#utility.yul\":11409:11425   */\n      shr\n        /* \"#utility.yul\":11388:11425   */\n      swap1\n      pop\n        /* \"#utility.yul\":11315:11432   */\n      swap3\n      swap2\n      pop\n      pop\n      jump\t// out\n        /* \"#utility.yul\":11438:11607   */\n    tag_141:\n        /* \"#utility.yul\":11482:11488   */\n      0x00\n        /* \"#utility.yul\":11515:11566   */\n      tag_290\n        /* \"#utility.yul\":11563:11564   */\n      0x00\n        /* \"#utility.yul\":11559:11565   */\n      not\n        /* \"#utility.yul\":11551:11556   */\n      dup5\n        /* \"#utility.yul\":11548:11549   */\n      0x08\n        /* \"#utility.yul\":11544:11557   */\n      mul\n        /* \"#utility.yul\":11515:11566   */\n      tag_140\n      jump\t// in\n    tag_290:\n        /* \"#utility.yul\":11511:11567   */\n      not\n        /* \"#utility.yul\":11596:11600   */\n      dup1\n        /* \"#utility.yul\":11590:11594   */\n      dup4\n        /* \"#utility.yul\":11586:11601   */\n      and\n        /* \"#utility.yul\":11576:11601   */\n      swap2\n      pop\n        /* \"#utility.yul\":11489:11607   */\n      pop\n        /* \"#utility.yul\":11438:11607   */\n      swap3\n      swap2\n      pop\n      pop\n      jump\t// out\n        /* \"#utility.yul\":11612:11907   */\n    tag_142:\n        /* \"#utility.yul\":11688:11692   */\n      0x00\n        /* \"#utility.yul\":11834:11863   */\n      tag_292\n        /* \"#utility.yul\":11859:11862   */\n      dup4\n        /* \"#utility.yul\":11853:11857   */\n      dup4\n        /* \"#utility.yul\":11834:11863   */\n      tag_141\n      jump\t// in\n    tag_292:\n        /* \"#utility.yul\":11826:11863   */\n      swap2\n      pop\n        /* \"#utility.yul\":11896:11899   */\n      dup3\n        /* \"#utility.yul\":11893:11894   */\n      0x02\n        /* \"#utility.yul\":11889:11900   */\n      mul\n        /* \"#utility.yul\":11883:11887   */\n      dup3\n        /* \"#utility.yul\":11880:11901   */\n      or\n        /* \"#utility.yul\":11872:11901   */\n      swap1\n      pop\n        /* \"#utility.yul\":11612:11907   */\n      swap3\n      swap2\n      pop\n      pop\n      jump\t// out\n        /* \"#utility.yul\":11912:13307   */\n    tag_42:\n        /* \"#utility.yul\":12029:12066   */\n      tag_294\n        /* \"#utility.yul\":12062:12065   */\n      dup3\n        /* \"#utility.yul\":12029:12066   */\n      tag_114\n      jump\t// in\n    tag_294:\n        /* \"#utility.yul\":12131:12149   */\n      0xffffffffffffffff\n        /* \"#utility.yul\":12123:12129   */\n      dup2\n        /* \"#utility.yul\":12120:12150   */\n      gt\n        /* \"#utility.yul\":12117:12173   */\n      iszero\n      tag_295\n      jumpi\n        /* \"#utility.yul\":12153:12171   */\n      tag_296\n      tag_104\n      jump\t// in\n    tag_296:\n        /* \"#utility.yul\":12117:12173   */\n    tag_295:\n        /* \"#utility.yul\":12197:12235   */\n      tag_297\n        /* \"#utility.yul\":12229:12233   */\n      dup3\n        /* \"#utility.yul\":12223:12234   */\n      sload\n        /* \"#utility.yul\":12197:12235   */\n      tag_52\n      jump\t// in\n    tag_297:\n        /* \"#utility.yul\":12282:12349   */\n      tag_298\n        /* \"#utility.yul\":12342:12348   */\n      dup3\n        /* \"#utility.yul\":12334:12340   */\n      dup3\n        /* \"#utility.yul\":12328:12332   */\n      dup6\n        /* \"#utility.yul\":12282:12349   */\n      tag_139\n      jump\t// in\n    tag_298:\n        /* \"#utility.yul\":12376:12377   */\n      0x00\n        /* \"#utility.yul\":12400:12404   */\n      0x20\n        /* \"#utility.yul\":12387:12404   */\n      swap1\n      pop\n        /* \"#utility.yul\":12432:12434   */\n      0x1f\n        /* \"#utility.yul\":12424:12430   */\n      dup4\n        /* \"#utility.yul\":12421:12435   */\n      gt\n        /* \"#utility.yul\":12449:12450   */\n      0x01\n        /* \"#utility.yul\":12444:13062   */\n      dup2\n      eq\n      tag_300\n      jumpi\n        /* \"#utility.yul\":13106:13107   */\n      0x00\n        /* \"#utility.yul\":13123:13129   */\n      dup5\n        /* \"#utility.yul\":13120:13197   */\n      iszero\n      tag_301\n      jumpi\n        /* \"#utility.yul\":13172:13181   */\n      dup3\n        /* \"#utility.yul\":13167:13170   */\n      dup8\n        /* \"#utility.yul\":13163:13182   */\n      add\n        /* \"#utility.yul\":13157:13183   */\n      mload\n        /* \"#utility.yul\":13148:13183   */\n      swap1\n      pop\n        /* \"#utility.yul\":13120:13197   */\n    tag_301:\n        /* \"#utility.yul\":13223:13290   */\n      tag_302\n        /* \"#utility.yul\":13283:13289   */\n      dup6\n        /* \"#utility.yul\":13276:13281   */\n      dup3\n        /* \"#utility.yul\":13223:13290   */\n      tag_142\n      jump\t// in\n    tag_302:\n        /* \"#utility.yul\":13217:13221   */\n      dup7\n        /* \"#utility.yul\":13210:13291   */\n      sstore\n        /* \"#utility.yul\":13079:13301   */\n      pop\n        /* \"#utility.yul\":12414:13301   */\n      jump(tag_299)\n        /* \"#utility.yul\":12444:13062   */\n    tag_300:\n        /* \"#utility.yul\":12496:12500   */\n      0x1f\n        /* \"#utility.yul\":12492:12501   */\n      not\n        /* \"#utility.yul\":12484:12490   */\n      dup5\n        /* \"#utility.yul\":12480:12502   */\n      and\n        /* \"#utility.yul\":12530:12567   */\n      tag_303\n        /* \"#utility.yul\":12562:12566   */\n      dup7\n        /* \"#utility.yul\":12530:12567   */\n      tag_128\n      jump\t// in\n    tag_303:\n        /* \"#utility.yul\":12589:12590   */\n      0x00\n        /* \"#utility.yul\":12603:12811   */\n    tag_304:\n        /* \"#utility.yul\":12617:12624   */\n      dup3\n        /* \"#utility.yul\":12614:12615   */\n      dup2\n        /* \"#utility.yul\":12611:12625   */\n      lt\n        /* \"#utility.yul\":12603:12811   */\n      iszero\n      tag_306\n      jumpi\n        /* \"#utility.yul\":12696:12705   */\n      dup5\n        /* \"#utility.yul\":12691:12694   */\n      dup10\n        /* \"#utility.yul\":12687:12706   */\n      add\n        /* \"#utility.yul\":12681:12707   */\n      mload\n        /* \"#utility.yul\":12673:12679   */\n      dup3\n        /* \"#utility.yul\":12666:12708   */\n      sstore\n        /* \"#utility.yul\":12747:12748   */\n      0x01\n        /* \"#utility.yul\":12739:12745   */\n      dup3\n        /* \"#utility.yul\":12735:12749   */\n      add\n        /* \"#utility.yul\":12725:12749   */\n      swap2\n      pop\n        /* \"#utility.yul\":12794:12796   */\n      0x20\n        /* \"#utility.yul\":12783:12792   */\n      dup6\n        /* \"#utility.yul\":12779:12797   */\n      add\n        /* \"#utility.yul\":12766:12797   */\n      swap5\n      pop\n        /* \"#utility.yul\":12640:12644   */\n      0x20\n        /* \"#utility.yul\":12637:12638   */\n      dup2\n        /* \"#utility.yul\":12633:12645   */\n      add\n        /* \"#utility.yul\":12628:12645   */\n      swap1\n      pop\n        /* \"#utility.yul\":12603:12811   */\n      jump(tag_304)\n    tag_306:\n        /* \"#utility.yul\":12839:12845   */\n      dup7\n        /* \"#utility.yul\":12830:12837   */\n      dup4\n        /* \"#utility.yul\":12827:12846   */\n      lt\n        /* \"#utility.yul\":12824:13003   */\n      iszero\n      tag_307\n      jumpi\n        /* \"#utility.yul\":12897:12906   */\n      dup5\n        /* \"#utility.yul\":12892:12895   */\n      dup10\n        /* \"#utility.yul\":12888:12907   */\n      add\n        /* \"#utility.yul\":12882:12908   */\n      mload\n        /* \"#utility.yul\":12940:12988   */\n      tag_308\n        /* \"#utility.yul\":12982:12986   */\n      0x1f\n        /* \"#utility.yul\":12974:12980   */\n      dup10\n        /* \"#utility.yul\":12970:12987   */\n      and\n        /* \"#utility.yul\":12959:12968   */\n      dup3\n        /* \"#utility.yul\":12940:12988   */\n      tag_141\n      jump\t// in\n    tag_308:\n        /* \"#utility.yul\":12932:12938   */\n      dup4\n        /* \"#utility.yul\":12925:12989   */\n      sstore\n        /* \"#utility.yul\":12847:13003   */\n      pop\n        /* \"#utility.yul\":12824:13003   */\n    tag_307:\n        /* \"#utility.yul\":13049:13050   */\n      0x01\n        /* \"#utility.yul\":13045:13046   */\n      0x02\n        /* \"#utility.yul\":13037:13043   */\n      dup9\n        /* \"#utility.yul\":13033:13047   */\n      mul\n        /* \"#utility.yul\":13029:13051   */\n      add\n        /* \"#utility.yul\":13023:13027   */\n      dup9\n        /* \"#utility.yul\":13016:13052   */\n      sstore\n        /* \"#utility.yul\":12451:13062   */\n      pop\n      pop\n      pop\n        /* \"#utility.yul\":12414:13301   */\n    tag_299:\n      pop\n        /* \"#utility.yul\":12004:13307   */\n      pop\n      pop\n      pop\n        /* \"#utility.yul\":11912:13307   */\n      pop\n      pop\n      jump\t// out\n        /* \"#utility.yul\":13313:13957   */\n    tag_45:\n        /* \"#utility.yul\":13510:13514   */\n      0x00\n        /* \"#utility.yul\":13548:13551   */\n      0x80\n        /* \"#utility.yul\":13537:13546   */\n      dup3\n        /* \"#utility.yul\":13533:13552   */\n      add\n        /* \"#utility.yul\":13525:13552   */\n      swap1\n      pop\n        /* \"#utility.yul\":13562:13633   */\n      tag_310\n        /* \"#utility.yul\":13630:13631   */\n      0x00\n        /* \"#utility.yul\":13619:13628   */\n      dup4\n        /* \"#utility.yul\":13615:13632   */\n      add\n        /* \"#utility.yul\":13606:13612   */\n      dup8\n        /* \"#utility.yul\":13562:13633   */\n      tag_118\n      jump\t// in\n    tag_310:\n        /* \"#utility.yul\":13680:13689   */\n      dup2\n        /* \"#utility.yul\":13674:13678   */\n      dup2\n        /* \"#utility.yul\":13670:13690   */\n      sub\n        /* \"#utility.yul\":13665:13667   */\n      0x20\n        /* \"#utility.yul\":13654:13663   */\n      dup4\n        /* \"#utility.yul\":13650:13668   */\n      add\n        /* \"#utility.yul\":13643:13691   */\n      mstore\n        /* \"#utility.yul\":13708:13786   */\n      tag_311\n        /* \"#utility.yul\":13781:13785   */\n      dup2\n        /* \"#utility.yul\":13772:13778   */\n      dup7\n        /* \"#utility.yul\":13708:13786   */\n      tag_117\n      jump\t// in\n    tag_311:\n        /* \"#utility.yul\":13700:13786   */\n      swap1\n      pop\n        /* \"#utility.yul\":13796:13868   */\n      tag_312\n        /* \"#utility.yul\":13864:13866   */\n      0x40\n        /* \"#utility.yul\":13853:13862   */\n      dup4\n        /* \"#utility.yul\":13849:13867   */\n      add\n        /* \"#utility.yul\":13840:13846   */\n      dup6\n        /* \"#utility.yul\":13796:13868   */\n      tag_118\n      jump\t// in\n    tag_312:\n        /* \"#utility.yul\":13878:13950   */\n      tag_313\n        /* \"#utility.yul\":13946:13948   */\n      0x60\n        /* \"#utility.yul\":13935:13944   */\n      dup4\n        /* \"#utility.yul\":13931:13949   */\n      add\n        /* \"#utility.yul\":13922:13928   */\n      dup5\n        /* \"#utility.yul\":13878:13950   */\n      tag_121\n      jump\t// in\n    tag_313:\n        /* \"#utility.yul\":13313:13957   */\n      swap6\n      swap5\n      pop\n      pop\n      pop\n      pop\n      pop\n      jump\t// out\n        /* \"#utility.yul\":13963:14128   */\n    tag_143:\n        /* \"#utility.yul\":14103:14120   */\n      0x496e76616c6964206974656d2049440000000000000000000000000000000000\n        /* \"#utility.yul\":14099:14100   */\n      0x00\n        /* \"#utility.yul\":14091:14097   */\n      dup3\n        /* \"#utility.yul\":14087:14101   */\n      add\n        /* \"#utility.yul\":14080:14121   */\n      mstore\n        /* \"#utility.yul\":13963:14128   */\n      pop\n      jump\t// out\n        /* \"#utility.yul\":14134:14500   */\n    tag_144:\n        /* \"#utility.yul\":14276:14279   */\n      0x00\n        /* \"#utility.yul\":14297:14364   */\n      tag_316\n        /* \"#utility.yul\":14361:14363   */\n      0x0f\n        /* \"#utility.yul\":14356:14359   */\n      dup4\n        /* \"#utility.yul\":14297:14364   */\n      tag_115\n      jump\t// in\n    tag_316:\n        /* \"#utility.yul\":14290:14364   */\n      swap2\n      pop\n        /* \"#utility.yul\":14373:14466   */\n      tag_317\n        /* \"#utility.yul\":14462:14465   */\n      dup3\n        /* \"#utility.yul\":14373:14466   */\n      tag_143\n      jump\t// in\n    tag_317:\n        /* \"#utility.yul\":14491:14493   */\n      0x20\n        /* \"#utility.yul\":14486:14489   */\n      dup3\n        /* \"#utility.yul\":14482:14494   */\n      add\n        /* \"#utility.yul\":14475:14494   */\n      swap1\n      pop\n        /* \"#utility.yul\":14134:14500   */\n      swap2\n      swap1\n      pop\n      jump\t// out\n        /* \"#utility.yul\":14506:14925   */\n    tag_50:\n        /* \"#utility.yul\":14672:14676   */\n      0x00\n        /* \"#utility.yul\":14710:14712   */\n      0x20\n        /* \"#utility.yul\":14699:14708   */\n      dup3\n        /* \"#utility.yul\":14695:14713   */\n      add\n        /* \"#utility.yul\":14687:14713   */\n      swap1\n      pop\n        /* \"#utility.yul\":14759:14768   */\n      dup2\n        /* \"#utility.yul\":14753:14757   */\n      dup2\n        /* \"#utility.yul\":14749:14769   */\n      sub\n        /* \"#utility.yul\":14745:14746   */\n      0x00\n        /* \"#utility.yul\":14734:14743   */\n      dup4\n        /* \"#utility.yul\":14730:14747   */\n      add\n        /* \"#utility.yul\":14723:14770   */\n      mstore\n        /* \"#utility.yul\":14787:14918   */\n      tag_319\n        /* \"#utility.yul\":14913:14917   */\n      dup2\n        /* \"#utility.yul\":14787:14918   */\n      tag_144\n      jump\t// in\n    tag_319:\n        /* \"#utility.yul\":14779:14918   */\n      swap1\n      pop\n        /* \"#utility.yul\":14506:14925   */\n      swap2\n      swap1\n      pop\n      jump\t// out\n        /* \"#utility.yul\":14931:15102   */\n    tag_145:\n        /* \"#utility.yul\":15071:15094   */\n      0x4974656d206973206e6f7420617661696c61626c650000000000000000000000\n        /* \"#utility.yul\":15067:15068   */\n      0x00\n        /* \"#utility.yul\":15059:15065   */\n      dup3\n        /* \"#utility.yul\":15055:15069   */\n      add\n        /* \"#utility.yul\":15048:15095   */\n      mstore\n        /* \"#utility.yul\":14931:15102   */\n      pop\n      jump\t// out\n        /* \"#utility.yul\":15108:15474   */\n    tag_146:\n        /* \"#utility.yul\":15250:15253   */\n      0x00\n        /* \"#utility.yul\":15271:15338   */\n      tag_322\n        /* \"#utility.yul\":15335:15337   */\n      0x15\n        /* \"#utility.yul\":15330:15333   */\n      dup4\n        /* \"#utility.yul\":15271:15338   */\n      tag_115\n      jump\t// in\n    tag_322:\n        /* \"#utility.yul\":15264:15338   */\n      swap2\n      pop\n        /* \"#utility.yul\":15347:15440   */\n      tag_323\n        /* \"#utility.yul\":15436:15439   */\n      dup3\n        /* \"#utility.yul\":15347:15440   */\n      tag_145\n      jump\t// in\n    tag_323:\n        /* \"#utility.yul\":15465:15467   */\n      0x20\n        /* \"#utility.yul\":15460:15463   */\n      dup3\n        /* \"#utility.yul\":15456:15468   */\n      add\n        /* \"#utility.yul\":15449:15468   */\n      swap1\n      pop\n        /* \"#utility.yul\":15108:15474   */\n      swap2\n      swap1\n      pop\n      jump\t// out\n        /* \"#utility.yul\":15480:15899   */\n    tag_68:\n        /* \"#utility.yul\":15646:15650   */\n      0x00\n        /* \"#utility.yul\":15684:15686   */\n      0x20\n        /* \"#utility.yul\":15673:15682   */\n      dup3\n        /* \"#utility.yul\":15669:15687   */\n      add\n        /* \"#utility.yul\":15661:15687   */\n      swap1\n      pop\n        /* \"#utility.yul\":15733:15742   */\n      dup2\n        /* \"#utility.yul\":15727:15731   */\n      dup2\n        /* \"#utility.yul\":15723:15743   */\n      sub\n        /* \"#utility.yul\":15719:15720   */\n      0x00\n        /* \"#utility.yul\":15708:15717   */\n      dup4\n        /* \"#utility.yul\":15704:15721   */\n      add\n        /* \"#utility.yul\":15697:15744   */\n      mstore\n        /* \"#utility.yul\":15761:15892   */\n      tag_325\n        /* \"#utility.yul\":15887:15891   */\n      dup2\n        /* \"#utility.yul\":15761:15892   */\n      tag_146\n      jump\t// in\n    tag_325:\n        /* \"#utility.yul\":15753:15892   */\n      swap1\n      pop\n        /* \"#utility.yul\":15480:15899   */\n      swap2\n      swap1\n      pop\n      jump\t// out\n        /* \"#utility.yul\":15905:16079   */\n    tag_147:\n        /* \"#utility.yul\":16045:16071   */\n      0x496e636f7272656374207061796d656e7420616d6f756e740000000000000000\n        /* \"#utility.yul\":16041:16042   */\n      0x00\n        /* \"#utility.yul\":16033:16039   */\n      dup3\n        /* \"#utility.yul\":16029:16043   */\n      add\n        /* \"#utility.yul\":16022:16072   */\n      mstore\n        /* \"#utility.yul\":15905:16079   */\n      pop\n      jump\t// out\n        /* \"#utility.yul\":16085:16451   */\n    tag_148:\n        /* \"#utility.yul\":16227:16230   */\n      0x00\n        /* \"#utility.yul\":16248:16315   */\n      tag_328\n        /* \"#utility.yul\":16312:16314   */\n      0x18\n        /* \"#utility.yul\":16307:16310   */\n      dup4\n        /* \"#utility.yul\":16248:16315   */\n      tag_115\n      jump\t// in\n    tag_328:\n        /* \"#utility.yul\":16241:16315   */\n      swap2\n      pop\n        /* \"#utility.yul\":16324:16417   */\n      tag_329\n        /* \"#utility.yul\":16413:16416   */\n      dup3\n        /* \"#utility.yul\":16324:16417   */\n      tag_147\n      jump\t// in\n    tag_329:\n        /* \"#utility.yul\":16442:16444   */\n      0x20\n        /* \"#utility.yul\":16437:16440   */\n      dup3\n        /* \"#utility.yul\":16433:16445   */\n      add\n        /* \"#utility.yul\":16426:16445   */\n      swap1\n      pop\n        /* \"#utility.yul\":16085:16451   */\n      swap2\n      swap1\n      pop\n      jump\t// out\n        /* \"#utility.yul\":16457:16876   */\n    tag_71:\n        /* \"#utility.yul\":16623:16627   */\n      0x00\n        /* \"#utility.yul\":16661:16663   */\n      0x20\n        /* \"#utility.yul\":16650:16659   */\n      dup3\n        /* \"#utility.yul\":16646:16664   */\n      add\n        /* \"#utility.yul\":16638:16664   */\n      swap1\n      pop\n        /* \"#utility.yul\":16710:16719   */\n      dup2\n        /* \"#utility.yul\":16704:16708   */\n      dup2\n        /* \"#utility.yul\":16700:16720   */\n      sub\n        /* \"#utility.yul\":16696:16697   */\n      0x00\n        /* \"#utility.yul\":16685:16694   */\n      dup4\n        /* \"#utility.yul\":16681:16698   */\n      add\n        /* \"#utility.yul\":16674:16721   */\n      mstore\n        /* \"#utility.yul\":16738:16869   */\n      tag_331\n        /* \"#utility.yul\":16864:16868   */\n      dup2\n        /* \"#utility.yul\":16738:16869   */\n      tag_148\n      jump\t// in\n    tag_331:\n        /* \"#utility.yul\":16730:16869   */\n      swap1\n      pop\n        /* \"#utility.yul\":16457:16876   */\n      swap2\n      swap1\n      pop\n      jump\t// out\n        /* \"#utility.yul\":16882:17214   */\n    tag_73:\n        /* \"#utility.yul\":17003:17007   */\n      0x00\n        /* \"#utility.yul\":17041:17043   */\n      0x40\n        /* \"#utility.yul\":17030:17039   */\n      dup3\n        /* \"#utility.yul\":17026:17044   */\n      add\n        /* \"#utility.yul\":17018:17044   */\n      swap1\n      pop\n        /* \"#utility.yul\":17054:17125   */\n      tag_333\n        /* \"#utility.yul\":17122:17123   */\n      0x00\n        /* \"#utility.yul\":17111:17120   */\n      dup4\n        /* \"#utility.yul\":17107:17124   */\n      add\n        /* \"#utility.yul\":17098:17104   */\n      dup6\n        /* \"#utility.yul\":17054:17125   */\n      tag_118\n      jump\t// in\n    tag_333:\n        /* \"#utility.yul\":17135:17207   */\n      tag_334\n        /* \"#utility.yul\":17203:17205   */\n      0x20\n        /* \"#utility.yul\":17192:17201   */\n      dup4\n        /* \"#utility.yul\":17188:17206   */\n      add\n        /* \"#utility.yul\":17179:17185   */\n      dup5\n        /* \"#utility.yul\":17135:17207   */\n      tag_121\n      jump\t// in\n    tag_334:\n        /* \"#utility.yul\":16882:17214   */\n      swap4\n      swap3\n      pop\n      pop\n      pop\n      jump\t// out\n        /* \"#utility.yul\":17220:17393   */\n    tag_149:\n        /* \"#utility.yul\":17360:17385   */\n      0x4974656d206973207374696c6c20617661696c61626c65000000000000000000\n        /* \"#utility.yul\":17356:17357   */\n      0x00\n        /* \"#utility.yul\":17348:17354   */\n      dup3\n        /* \"#utility.yul\":17344:17358   */\n      add\n        /* \"#utility.yul\":17337:17386   */\n      mstore\n        /* \"#utility.yul\":17220:17393   */\n      pop\n      jump\t// out\n        /* \"#utility.yul\":17399:17765   */\n    tag_150:\n        /* \"#utility.yul\":17541:17544   */\n      0x00\n        /* \"#utility.yul\":17562:17629   */\n      tag_337\n        /* \"#utility.yul\":17626:17628   */\n      0x17\n        /* \"#utility.yul\":17621:17624   */\n      dup4\n        /* \"#utility.yul\":17562:17629   */\n      tag_115\n      jump\t// in\n    tag_337:\n        /* \"#utility.yul\":17555:17629   */\n      swap2\n      pop\n        /* \"#utility.yul\":17638:17731   */\n      tag_338\n        /* \"#utility.yul\":17727:17730   */\n      dup3\n        /* \"#utility.yul\":17638:17731   */\n      tag_149\n      jump\t// in\n    tag_338:\n        /* \"#utility.yul\":17756:17758   */\n      0x20\n        /* \"#utility.yul\":17751:17754   */\n      dup3\n        /* \"#utility.yul\":17747:17759   */\n      add\n        /* \"#utility.yul\":17740:17759   */\n      swap1\n      pop\n        /* \"#utility.yul\":17399:17765   */\n      swap2\n      swap1\n      pop\n      jump\t// out\n        /* \"#utility.yul\":17771:18190   */\n    tag_90:\n        /* \"#utility.yul\":17937:17941   */\n      0x00\n        /* \"#utility.yul\":17975:17977   */\n      0x20\n        /* \"#utility.yul\":17964:17973   */\n      dup3\n        /* \"#utility.yul\":17960:17978   */\n      add\n        /* \"#utility.yul\":17952:17978   */\n      swap1\n      pop\n        /* \"#utility.yul\":18024:18033   */\n      dup2\n        /* \"#utility.yul\":18018:18022   */\n      dup2\n        /* \"#utility.yul\":18014:18034   */\n      sub\n        /* \"#utility.yul\":18010:18011   */\n      0x00\n        /* \"#utility.yul\":17999:18008   */\n      dup4\n        /* \"#utility.yul\":17995:18012   */\n      add\n        /* \"#utility.yul\":17988:18035   */\n      mstore\n        /* \"#utility.yul\":18052:18183   */\n      tag_340\n        /* \"#utility.yul\":18178:18182   */\n      dup2\n        /* \"#utility.yul\":18052:18183   */\n      tag_150\n      jump\t// in\n    tag_340:\n        /* \"#utility.yul\":18044:18183   */\n      swap1\n      pop\n        /* \"#utility.yul\":17771:18190   */\n      swap2\n      swap1\n      pop\n      jump\t// out\n        /* \"#utility.yul\":18196:18421   */\n    tag_151:\n        /* \"#utility.yul\":18336:18370   */\n      0x53656c6c65722063616e6e6f7420636f6d706c65746520746865207472616e73\n        /* \"#utility.yul\":18332:18333   */\n      0x00\n        /* \"#utility.yul\":18324:18330   */\n      dup3\n        /* \"#utility.yul\":18320:18334   */\n      add\n        /* \"#utility.yul\":18313:18371   */\n      mstore\n        /* \"#utility.yul\":18405:18413   */\n      0x616374696f6e0000000000000000000000000000000000000000000000000000\n        /* \"#utility.yul\":18400:18402   */\n      0x20\n        /* \"#utility.yul\":18392:18398   */\n      dup3\n        /* \"#utility.yul\":18388:18403   */\n      add\n        /* \"#utility.yul\":18381:18414   */\n      mstore\n        /* \"#utility.yul\":18196:18421   */\n      pop\n      jump\t// out\n        /* \"#utility.yul\":18427:18793   */\n    tag_152:\n        /* \"#utility.yul\":18569:18572   */\n      0x00\n        /* \"#utility.yul\":18590:18657   */\n      tag_343\n        /* \"#utility.yul\":18654:18656   */\n      0x26\n        /* \"#utility.yul\":18649:18652   */\n      dup4\n        /* \"#utility.yul\":18590:18657   */\n      tag_115\n      jump\t// in\n    tag_343:\n        /* \"#utility.yul\":18583:18657   */\n      swap2\n      pop\n        /* \"#utility.yul\":18666:18759   */\n      tag_344\n        /* \"#utility.yul\":18755:18758   */\n      dup3\n        /* \"#utility.yul\":18666:18759   */\n      tag_151\n      jump\t// in\n    tag_344:\n        /* \"#utility.yul\":18784:18786   */\n      0x40\n        /* \"#utility.yul\":18779:18782   */\n      dup3\n        /* \"#utility.yul\":18775:18787   */\n      add\n        /* \"#utility.yul\":18768:18787   */\n      swap1\n      pop\n        /* \"#utility.yul\":18427:18793   */\n      swap2\n      swap1\n      pop\n      jump\t// out\n        /* \"#utility.yul\":18799:19218   */\n    tag_93:\n        /* \"#utility.yul\":18965:18969   */\n      0x00\n        /* \"#utility.yul\":19003:19005   */\n      0x20\n        /* \"#utility.yul\":18992:19001   */\n      dup3\n        /* \"#utility.yul\":18988:19006   */\n      add\n        /* \"#utility.yul\":18980:19006   */\n      swap1\n      pop\n        /* \"#utility.yul\":19052:19061   */\n      dup2\n        /* \"#utility.yul\":19046:19050   */\n      dup2\n        /* \"#utility.yul\":19042:19062   */\n      sub\n        /* \"#utility.yul\":19038:19039   */\n      0x00\n        /* \"#utility.yul\":19027:19036   */\n      dup4\n        /* \"#utility.yul\":19023:19040   */\n      add\n        /* \"#utility.yul\":19016:19063   */\n      mstore\n        /* \"#utility.yul\":19080:19211   */\n      tag_346\n        /* \"#utility.yul\":19206:19210   */\n      dup2\n        /* \"#utility.yul\":19080:19211   */\n      tag_152\n      jump\t// in\n    tag_346:\n        /* \"#utility.yul\":19072:19211   */\n      swap1\n      pop\n        /* \"#utility.yul\":18799:19218   */\n      swap2\n      swap1\n      pop\n      jump\t// out\n        /* \"#utility.yul\":19224:19366   */\n    tag_153:\n        /* \"#utility.yul\":19274:19283   */\n      0x00\n        /* \"#utility.yul\":19307:19360   */\n      tag_348\n        /* \"#utility.yul\":19325:19359   */\n      tag_349\n        /* \"#utility.yul\":19334:19358   */\n      tag_350\n        /* \"#utility.yul\":19352:19357   */\n      dup5\n        /* \"#utility.yul\":19334:19358   */\n      tag_119\n      jump\t// in\n    tag_350:\n        /* \"#utility.yul\":19325:19359   */\n      tag_132\n      jump\t// in\n    tag_349:\n        /* \"#utility.yul\":19307:19360   */\n      tag_119\n      jump\t// in\n    tag_348:\n        /* \"#utility.yul\":19294:19360   */\n      swap1\n      pop\n        /* \"#utility.yul\":19224:19366   */\n      swap2\n      swap1\n      pop\n      jump\t// out\n        /* \"#utility.yul\":19372:19498   */\n    tag_154:\n        /* \"#utility.yul\":19422:19431   */\n      0x00\n        /* \"#utility.yul\":19455:19492   */\n      tag_352\n        /* \"#utility.yul\":19486:19491   */\n      dup3\n        /* \"#utility.yul\":19455:19492   */\n      tag_153\n      jump\t// in\n    tag_352:\n        /* \"#utility.yul\":19442:19492   */\n      swap1\n      pop\n        /* \"#utility.yul\":19372:19498   */\n      swap2\n      swap1\n      pop\n      jump\t// out\n        /* \"#utility.yul\":19504:19638   */\n    tag_155:\n        /* \"#utility.yul\":19562:19571   */\n      0x00\n        /* \"#utility.yul\":19595:19632   */\n      tag_354\n        /* \"#utility.yul\":19626:19631   */\n      dup3\n        /* \"#utility.yul\":19595:19632   */\n      tag_154\n      jump\t// in\n    tag_354:\n        /* \"#utility.yul\":19582:19632   */\n      swap1\n      pop\n        /* \"#utility.yul\":19504:19638   */\n      swap2\n      swap1\n      pop\n      jump\t// out\n        /* \"#utility.yul\":19644:19791   */\n    tag_156:\n        /* \"#utility.yul\":19739:19784   */\n      tag_356\n        /* \"#utility.yul\":19778:19783   */\n      dup2\n        /* \"#utility.yul\":19739:19784   */\n      tag_155\n      jump\t// in\n    tag_356:\n        /* \"#utility.yul\":19734:19737   */\n      dup3\n        /* \"#utility.yul\":19727:19785   */\n      mstore\n        /* \"#utility.yul\":19644:19791   */\n      pop\n      pop\n      jump\t// out\n        /* \"#utility.yul\":19797:20366   */\n    tag_97:\n        /* \"#utility.yul\":19982:19986   */\n      0x00\n        /* \"#utility.yul\":20020:20023   */\n      0x80\n        /* \"#utility.yul\":20009:20018   */\n      dup3\n        /* \"#utility.yul\":20005:20024   */\n      add\n        /* \"#utility.yul\":19997:20024   */\n      swap1\n      pop\n        /* \"#utility.yul\":20034:20105   */\n      tag_358\n        /* \"#utility.yul\":20102:20103   */\n      0x00\n        /* \"#utility.yul\":20091:20100   */\n      dup4\n        /* \"#utility.yul\":20087:20104   */\n      add\n        /* \"#utility.yul\":20078:20084   */\n      dup8\n        /* \"#utility.yul\":20034:20105   */\n      tag_118\n      jump\t// in\n    tag_358:\n        /* \"#utility.yul\":20115:20187   */\n      tag_359\n        /* \"#utility.yul\":20183:20185   */\n      0x20\n        /* \"#utility.yul\":20172:20181   */\n      dup4\n        /* \"#utility.yul\":20168:20186   */\n      add\n        /* \"#utility.yul\":20159:20165   */\n      dup7\n        /* \"#utility.yul\":20115:20187   */\n      tag_121\n      jump\t// in\n    tag_359:\n        /* \"#utility.yul\":20197:20277   */\n      tag_360\n        /* \"#utility.yul\":20273:20275   */\n      0x40\n        /* \"#utility.yul\":20262:20271   */\n      dup4\n        /* \"#utility.yul\":20258:20276   */\n      add\n        /* \"#utility.yul\":20249:20255   */\n      dup6\n        /* \"#utility.yul\":20197:20277   */\n      tag_156\n      jump\t// in\n    tag_360:\n        /* \"#utility.yul\":20287:20359   */\n      tag_361\n        /* \"#utility.yul\":20355:20357   */\n      0x60\n        /* \"#utility.yul\":20344:20353   */\n      dup4\n        /* \"#utility.yul\":20340:20358   */\n      add\n        /* \"#utility.yul\":20331:20337   */\n      dup5\n        /* \"#utility.yul\":20287:20359   */\n      tag_118\n      jump\t// in\n    tag_361:\n        /* \"#utility.yul\":19797:20366   */\n      swap6\n      swap5\n      pop\n      pop\n      pop\n      pop\n      pop\n      jump\t// out\n\n    auxdata: 0xa264697066735822122027a2f1adab45b71af53eed55115ecb07a12ab57a949396e8b276fadd59bdebf564736f6c63430008140033\n}\n",
				"bytecode": {
					"linkReferences": {},
					"object": "608060405234801561000f575f80fd5b505f6001819055506113cb806100245f395ff3fe608060405260043610610054575f3560e01c80630562021c146100585780633129e773146100805780636bfb0d01146100c0578063ba2255f4146100ea578063bfb231d214610106578063f5e83e1714610146575b5f80fd5b348015610063575f80fd5b5061007e60048036038101906100799190610a98565b61016e565b005b34801561008b575f80fd5b506100a660048036038101906100a19190610b20565b61026a565b6040516100b7959493929190610c2d565b60405180910390f35b3480156100cb575f80fd5b506100d461043d565b6040516100e19190610c8c565b60405180910390f35b61010460048036038101906100ff9190610b20565b610443565b005b348015610111575f80fd5b5061012c60048036038101906101279190610b20565b610596565b60405161013d959493929190610cc5565b60405180910390f35b348015610151575f80fd5b5061016c60048036038101906101679190610b20565b6106ff565b005b60015f81548092919061018090610d51565b91905055505f805f60015481526020019081526020015f20905083815f0190816101aa9190610f92565b50828160010190816101bc9190610f92565b5081816002018190555033816003015f6101000a81548173ffffffffffffffffffffffffffffffffffffffff021916908373ffffffffffffffffffffffffffffffffffffffff16021790555060018160030160146101000a81548160ff0219169083151502179055507f16244e47af8a7d2c923faa2cab44315c0514c7aa830682bbb9cc8f0d37ad754860015485843360405161025c9493929190611061565b60405180910390a150505050565b6060805f805f808611801561028157506001548611155b6102c0576040517f08c379a00000000000000000000000000000000000000000000000000000000081526004016102b7906110f5565b60405180910390fd5b5f805f8881526020019081526020015f209050805f01816001018260020154836003015f9054906101000a900473ffffffffffffffffffffffffffffffffffffffff168460030160149054906101000a900460ff1684805461032190610dc5565b80601f016020809104026020016040519081016040528092919081815260200182805461034d90610dc5565b80156103985780601f1061036f57610100808354040283529160200191610398565b820191905f5260205f20905b81548152906001019060200180831161037b57829003601f168201915b505050505094508380546103ab90610dc5565b80601f01602080910402602001604051908101604052809291908181526020018280546103d790610dc5565b80156104225780601f106103f957610100808354040283529160200191610422565b820191905f5260205f20905b81548152906001019060200180831161040557829003601f168201915b50505050509350955095509550955095505091939590929450565b60015481565b5f8111801561045457506001548111155b610493576040517f08c379a000000000000000000000000000000000000000000000000000000000815260040161048a906110f5565b60405180910390fd5b5f805f8381526020019081526020015f2090508060030160149054906101000a900460ff166104f7576040517f08c379a00000000000000000000000000000000000000000000000000000000081526004016104ee9061115d565b60405180910390fd5b8060020154341461053d576040517f08c379a0000000000000000000000000000000000000000000000000000000008152600401610534906111c5565b60405180910390fd5b5f8160030160146101000a81548160ff0219169083151502179055507f5222ba5f86a58ad15e7771bd95a809f162ae1762ea7cd66e28a58217341334cc823360405161058a9291906111e3565b60405180910390a15050565b5f602052805f5260405f205f91509050805f0180546105b490610dc5565b80601f01602080910402602001604051908101604052809291908181526020018280546105e090610dc5565b801561062b5780601f106106025761010080835404028352916020019161062b565b820191905f5260205f20905b81548152906001019060200180831161060e57829003601f168201915b50505050509080600101805461064090610dc5565b80601f016020809104026020016040519081016040528092919081815260200182805461066c90610dc5565b80156106b75780601f1061068e576101008083540402835291602001916106b7565b820191905f5260205f20905b81548152906001019060200180831161069a57829003601f168201915b505050505090806002015490806003015f9054906101000a900473ffffffffffffffffffffffffffffffffffffffff16908060030160149054906101000a900460ff16905085565b5f8111801561071057506001548111155b61074f576040517f08c379a0000000000000000000000000000000000000000000000000000000008152600401610746906110f5565b60405180910390fd5b5f805f8381526020019081526020015f2090508060030160149054906101000a900460ff16156107b4576040517f08c379a00000000000000000000000000000000000000000000000000000000081526004016107ab90611254565b60405180910390fd5b806003015f9054906101000a900473ffffffffffffffffffffffffffffffffffffffff1673ffffffffffffffffffffffffffffffffffffffff163373ffffffffffffffffffffffffffffffffffffffff1603610845576040517f08c379a000000000000000000000000000000000000000000000000000000000815260040161083c906112e2565b60405180910390fd5b806003015f9054906101000a900473ffffffffffffffffffffffffffffffffffffffff1673ffffffffffffffffffffffffffffffffffffffff166108fc826002015490811502906040515f60405180830381858888f193505050501580156108af573d5f803e3d5ffd5b507fdc8b3e3bd87b1ed41b4cff3b9ab24f89261ed2b876257d5d33ed0c3472bacaf68233836003015f9054906101000a900473ffffffffffffffffffffffffffffffffffffffff16846002015460405161090c9493929190611352565b60405180910390a15050565b5f604051905090565b5f80fd5b5f80fd5b5f80fd5b5f80fd5b5f601f19601f8301169050919050565b7f4e487b71000000000000000000000000000000000000000000000000000000005f52604160045260245ffd5b61097782610931565b810181811067ffffffffffffffff8211171561099657610995610941565b5b80604052505050565b5f6109a8610918565b90506109b4828261096e565b919050565b5f67ffffffffffffffff8211156109d3576109d2610941565b5b6109dc82610931565b9050602081019050919050565b828183375f83830152505050565b5f610a09610a04846109b9565b61099f565b905082815260208101848484011115610a2557610a2461092d565b5b610a308482856109e9565b509392505050565b5f82601f830112610a4c57610a4b610929565b5b8135610a5c8482602086016109f7565b91505092915050565b5f819050919050565b610a7781610a65565b8114610a81575f80fd5b50565b5f81359050610a9281610a6e565b92915050565b5f805f60608486031215610aaf57610aae610921565b5b5f84013567ffffffffffffffff811115610acc57610acb610925565b5b610ad886828701610a38565b935050602084013567ffffffffffffffff811115610af957610af8610925565b5b610b0586828701610a38565b9250506040610b1686828701610a84565b9150509250925092565b5f60208284031215610b3557610b34610921565b5b5f610b4284828501610a84565b91505092915050565b5f81519050919050565b5f82825260208201905092915050565b5f5b83811015610b82578082015181840152602081019050610b67565b5f8484015250505050565b5f610b9782610b4b565b610ba18185610b55565b9350610bb1818560208601610b65565b610bba81610931565b840191505092915050565b610bce81610a65565b82525050565b5f73ffffffffffffffffffffffffffffffffffffffff82169050919050565b5f610bfd82610bd4565b9050919050565b610c0d81610bf3565b82525050565b5f8115159050919050565b610c2781610c13565b82525050565b5f60a0820190508181035f830152610c458188610b8d565b90508181036020830152610c598187610b8d565b9050610c686040830186610bc5565b610c756060830185610c04565b610c826080830184610c1e565b9695505050505050565b5f602082019050610c9f5f830184610bc5565b92915050565b5f610caf82610bd4565b9050919050565b610cbf81610ca5565b82525050565b5f60a0820190508181035f830152610cdd8188610b8d565b90508181036020830152610cf18187610b8d565b9050610d006040830186610bc5565b610d0d6060830185610cb6565b610d1a6080830184610c1e565b9695505050505050565b7f4e487b71000000000000000000000000000000000000000000000000000000005f52601160045260245ffd5b5f610d5b82610a65565b91507fffffffffffffffffffffffffffffffffffffffffffffffffffffffffffffffff8203610d8d57610d8c610d24565b5b600182019050919050565b7f4e487b71000000000000000000000000000000000000000000000000000000005f52602260045260245ffd5b5f6002820490506001821680610ddc57607f821691505b602082108103610def57610dee610d98565b5b50919050565b5f819050815f5260205f209050919050565b5f6020601f8301049050919050565b5f82821b905092915050565b5f60088302610e517fffffffffffffffffffffffffffffffffffffffffffffffffffffffffffffffff82610e16565b610e5b8683610e16565b95508019841693508086168417925050509392505050565b5f819050919050565b5f610e96610e91610e8c84610a65565b610e73565b610a65565b9050919050565b5f819050919050565b610eaf83610e7c565b610ec3610ebb82610e9d565b848454610e22565b825550505050565b5f90565b610ed7610ecb565b610ee2818484610ea6565b505050565b5b81811015610f0557610efa5f82610ecf565b600181019050610ee8565b5050565b601f821115610f4a57610f1b81610df5565b610f2484610e07565b81016020851015610f33578190505b610f47610f3f85610e07565b830182610ee7565b50505b505050565b5f82821c905092915050565b5f610f6a5f1984600802610f4f565b1980831691505092915050565b5f610f828383610f5b565b9150826002028217905092915050565b610f9b82610b4b565b67ffffffffffffffff811115610fb457610fb3610941565b5b610fbe8254610dc5565b610fc9828285610f09565b5f60209050601f831160018114610ffa575f8415610fe8578287015190505b610ff28582610f77565b865550611059565b601f19841661100886610df5565b5f5b8281101561102f5784890151825560018201915060208501945060208101905061100a565b8683101561104c5784890151611048601f891682610f5b565b8355505b6001600288020188555050505b505050505050565b5f6080820190506110745f830187610bc5565b81810360208301526110868186610b8d565b90506110956040830185610bc5565b6110a26060830184610c04565b95945050505050565b7f496e76616c6964206974656d20494400000000000000000000000000000000005f82015250565b5f6110df600f83610b55565b91506110ea826110ab565b602082019050919050565b5f6020820190508181035f83015261110c816110d3565b9050919050565b7f4974656d206973206e6f7420617661696c61626c6500000000000000000000005f82015250565b5f611147601583610b55565b915061115282611113565b602082019050919050565b5f6020820190508181035f8301526111748161113b565b9050919050565b7f496e636f7272656374207061796d656e7420616d6f756e7400000000000000005f82015250565b5f6111af601883610b55565b91506111ba8261117b565b602082019050919050565b5f6020820190508181035f8301526111dc816111a3565b9050919050565b5f6040820190506111f65f830185610bc5565b6112036020830184610c04565b9392505050565b7f4974656d206973207374696c6c20617661696c61626c650000000000000000005f82015250565b5f61123e601783610b55565b91506112498261120a565b602082019050919050565b5f6020820190508181035f83015261126b81611232565b9050919050565b7f53656c6c65722063616e6e6f7420636f6d706c65746520746865207472616e735f8201527f616374696f6e0000000000000000000000000000000000000000000000000000602082015250565b5f6112cc602683610b55565b91506112d782611272565b604082019050919050565b5f6020820190508181035f8301526112f9816112c0565b9050919050565b5f61131a61131561131084610bd4565b610e73565b610bd4565b9050919050565b5f61132b82611300565b9050919050565b5f61133c82611321565b9050919050565b61134c81611332565b82525050565b5f6080820190506113655f830187610bc5565b6113726020830186610c04565b61137f6040830185611343565b61138c6060830184610bc5565b9594505050505056fea264697066735822122027a2f1adab45b71af53eed55115ecb07a12ab57a949396e8b276fadd59bdebf564736f6c63430008140033",
					"opcodes": "PUSH1 0x80 PUSH1 0x40 MSTORE CALLVALUE DUP1 ISZERO PUSH2 0xF JUMPI PUSH0 DUP1 REVERT JUMPDEST POP PUSH0 PUSH1 0x1 DUP2 SWAP1 SSTORE POP PUSH2 0x13CB DUP1 PUSH2 0x24 PUSH0 CODECOPY PUSH0 RETURN INVALID PUSH1 0x80 PUSH1 0x40 MSTORE PUSH1 0x4 CALLDATASIZE LT PUSH2 0x54 JUMPI PUSH0 CALLDATALOAD PUSH1 0xE0 SHR DUP1 PUSH4 0x562021C EQ PUSH2 0x58 JUMPI DUP1 PUSH4 0x3129E773 EQ PUSH2 0x80 JUMPI DUP1 PUSH4 0x6BFB0D01 EQ PUSH2 0xC0 JUMPI DUP1 PUSH4 0xBA2255F4 EQ PUSH2 0xEA JUMPI DUP1 PUSH4 0xBFB231D2 EQ PUSH2 0x106 JUMPI DUP1 PUSH4 0xF5E83E17 EQ PUSH2 0x146 JUMPI JUMPDEST PUSH0 DUP1 REVERT JUMPDEST CALLVALUE DUP1 ISZERO PUSH2 0x63 JUMPI PUSH0 DUP1 REVERT JUMPDEST POP PUSH2 0x7E PUSH1 0x4 DUP1 CALLDATASIZE SUB DUP2 ADD SWAP1 PUSH2 0x79 SWAP2 SWAP1 PUSH2 0xA98 JUMP JUMPDEST PUSH2 0x16E JUMP JUMPDEST STOP JUMPDEST CALLVALUE DUP1 ISZERO PUSH2 0x8B JUMPI PUSH0 DUP1 REVERT JUMPDEST POP PUSH2 0xA6 PUSH1 0x4 DUP1 CALLDATASIZE SUB DUP2 ADD SWAP1 PUSH2 0xA1 SWAP2 SWAP1 PUSH2 0xB20 JUMP JUMPDEST PUSH2 0x26A JUMP JUMPDEST PUSH1 0x40 MLOAD PUSH2 0xB7 SWAP6 SWAP5 SWAP4 SWAP3 SWAP2 SWAP1 PUSH2 0xC2D JUMP JUMPDEST PUSH1 0x40 MLOAD DUP1 SWAP2 SUB SWAP1 RETURN JUMPDEST CALLVALUE DUP1 ISZERO PUSH2 0xCB JUMPI PUSH0 DUP1 REVERT JUMPDEST POP PUSH2 0xD4 PUSH2 0x43D JUMP JUMPDEST PUSH1 0x40 MLOAD PUSH2 0xE1 SWAP2 SWAP1 PUSH2 0xC8C JUMP JUMPDEST PUSH1 0x40 MLOAD DUP1 SWAP2 SUB SWAP1 RETURN JUMPDEST PUSH2 0x104 PUSH1 0x4 DUP1 CALLDATASIZE SUB DUP2 ADD SWAP1 PUSH2 0xFF SWAP2 SWAP1 PUSH2 0xB20 JUMP JUMPDEST PUSH2 0x443 JUMP JUMPDEST STOP JUMPDEST CALLVALUE DUP1 ISZERO PUSH2 0x111 JUMPI PUSH0 DUP1 REVERT JUMPDEST POP PUSH2 0x12C PUSH1 0x4 DUP1 CALLDATASIZE SUB DUP2 ADD SWAP1 PUSH2 0x127 SWAP2 SWAP1 PUSH2 0xB20 JUMP JUMPDEST PUSH2 0x596 JUMP JUMPDEST PUSH1 0x40 MLOAD PUSH2 0x13D SWAP6 SWAP5 SWAP4 SWAP3 SWAP2 SWAP1 PUSH2 0xCC5 JUMP JUMPDEST PUSH1 0x40 MLOAD DUP1 SWAP2 SUB SWAP1 RETURN JUMPDEST CALLVALUE DUP1 ISZERO PUSH2 0x151 JUMPI PUSH0 DUP1 REVERT JUMPDEST POP PUSH2 0x16C PUSH1 0x4 DUP1 CALLDATASIZE SUB DUP2 ADD SWAP1 PUSH2 0x167 SWAP2 SWAP1 PUSH2 0xB20 JUMP JUMPDEST PUSH2 0x6FF JUMP JUMPDEST STOP JUMPDEST PUSH1 0x1 PUSH0 DUP2 SLOAD DUP1 SWAP3 SWAP2 SWAP1 PUSH2 0x180 SWAP1 PUSH2 0xD51 JUMP JUMPDEST SWAP2 SWAP1 POP SSTORE POP PUSH0 DUP1 PUSH0 PUSH1 0x1 SLOAD DUP2 MSTORE PUSH1 0x20 ADD SWAP1 DUP2 MSTORE PUSH1 0x20 ADD PUSH0 KECCAK256 SWAP1 POP DUP4 DUP2 PUSH0 ADD SWAP1 DUP2 PUSH2 0x1AA SWAP2 SWAP1 PUSH2 0xF92 JUMP JUMPDEST POP DUP3 DUP2 PUSH1 0x1 ADD SWAP1 DUP2 PUSH2 0x1BC SWAP2 SWAP1 PUSH2 0xF92 JUMP JUMPDEST POP DUP2 DUP2 PUSH1 0x2 ADD DUP2 SWAP1 SSTORE POP CALLER DUP2 PUSH1 0x3 ADD PUSH0 PUSH2 0x100 EXP DUP2 SLOAD DUP2 PUSH20 0xFFFFFFFFFFFFFFFFFFFFFFFFFFFFFFFFFFFFFFFF MUL NOT AND SWAP1 DUP4 PUSH20 0xFFFFFFFFFFFFFFFFFFFFFFFFFFFFFFFFFFFFFFFF AND MUL OR SWAP1 SSTORE POP PUSH1 0x1 DUP2 PUSH1 0x3 ADD PUSH1 0x14 PUSH2 0x100 EXP DUP2 SLOAD DUP2 PUSH1 0xFF MUL NOT AND SWAP1 DUP4 ISZERO ISZERO MUL OR SWAP1 SSTORE POP PUSH32 0x16244E47AF8A7D2C923FAA2CAB44315C0514C7AA830682BBB9CC8F0D37AD7548 PUSH1 0x1 SLOAD DUP6 DUP5 CALLER PUSH1 0x40 MLOAD PUSH2 0x25C SWAP5 SWAP4 SWAP3 SWAP2 SWAP1 PUSH2 0x1061 JUMP JUMPDEST PUSH1 0x40 MLOAD DUP1 SWAP2 SUB SWAP1 LOG1 POP POP POP POP JUMP JUMPDEST PUSH1 0x60 DUP1 PUSH0 DUP1 PUSH0 DUP1 DUP7 GT DUP1 ISZERO PUSH2 0x281 JUMPI POP PUSH1 0x1 SLOAD DUP7 GT ISZERO JUMPDEST PUSH2 0x2C0 JUMPI PUSH1 0x40 MLOAD PUSH32 0x8C379A000000000000000000000000000000000000000000000000000000000 DUP2 MSTORE PUSH1 0x4 ADD PUSH2 0x2B7 SWAP1 PUSH2 0x10F5 JUMP JUMPDEST PUSH1 0x40 MLOAD DUP1 SWAP2 SUB SWAP1 REVERT JUMPDEST PUSH0 DUP1 PUSH0 DUP9 DUP2 MSTORE PUSH1 0x20 ADD SWAP1 DUP2 MSTORE PUSH1 0x20 ADD PUSH0 KECCAK256 SWAP1 POP DUP1 PUSH0 ADD DUP2 PUSH1 0x1 ADD DUP3 PUSH1 0x2 ADD SLOAD DUP4 PUSH1 0x3 ADD PUSH0 SWAP1 SLOAD SWAP1 PUSH2 0x100 EXP SWAP1 DIV PUSH20 0xFFFFFFFFFFFFFFFFFFFFFFFFFFFFFFFFFFFFFFFF AND DUP5 PUSH1 0x3 ADD PUSH1 0x14 SWAP1 SLOAD SWAP1 PUSH2 0x100 EXP SWAP1 DIV PUSH1 0xFF AND DUP5 DUP1 SLOAD PUSH2 0x321 SWAP1 PUSH2 0xDC5 JUMP JUMPDEST DUP1 PUSH1 0x1F ADD PUSH1 0x20 DUP1 SWAP2 DIV MUL PUSH1 0x20 ADD PUSH1 0x40 MLOAD SWAP1 DUP2 ADD PUSH1 0x40 MSTORE DUP1 SWAP3 SWAP2 SWAP1 DUP2 DUP2 MSTORE PUSH1 0x20 ADD DUP3 DUP1 SLOAD PUSH2 0x34D SWAP1 PUSH2 0xDC5 JUMP JUMPDEST DUP1 ISZERO PUSH2 0x398 JUMPI DUP1 PUSH1 0x1F LT PUSH2 0x36F JUMPI PUSH2 0x100 DUP1 DUP4 SLOAD DIV MUL DUP4 MSTORE SWAP2 PUSH1 0x20 ADD SWAP2 PUSH2 0x398 JUMP JUMPDEST DUP3 ADD SWAP2 SWAP1 PUSH0 MSTORE PUSH1 0x20 PUSH0 KECCAK256 SWAP1 JUMPDEST DUP2 SLOAD DUP2 MSTORE SWAP1 PUSH1 0x1 ADD SWAP1 PUSH1 0x20 ADD DUP1 DUP4 GT PUSH2 0x37B JUMPI DUP3 SWAP1 SUB PUSH1 0x1F AND DUP3 ADD SWAP2 JUMPDEST POP POP POP POP POP SWAP5 POP DUP4 DUP1 SLOAD PUSH2 0x3AB SWAP1 PUSH2 0xDC5 JUMP JUMPDEST DUP1 PUSH1 0x1F ADD PUSH1 0x20 DUP1 SWAP2 DIV MUL PUSH1 0x20 ADD PUSH1 0x40 MLOAD SWAP1 DUP2 ADD PUSH1 0x40 MSTORE DUP1 SWAP3 SWAP2 SWAP1 DUP2 DUP2 MSTORE PUSH1 0x20 ADD DUP3 DUP1 SLOAD PUSH2 0x3D7 SWAP1 PUSH2 0xDC5 JUMP JUMPDEST DUP1 ISZERO PUSH2 0x422 JUMPI DUP1 PUSH1 0x1F LT PUSH2 0x3F9 JUMPI PUSH2 0x100 DUP1 DUP4 SLOAD DIV MUL DUP4 MSTORE SWAP2 PUSH1 0x20 ADD SWAP2 PUSH2 0x422 JUMP JUMPDEST DUP3 ADD SWAP2 SWAP1 PUSH0 MSTORE PUSH1 0x20 PUSH0 KECCAK256 SWAP1 JUMPDEST DUP2 SLOAD DUP2 MSTORE SWAP1 PUSH1 0x1 ADD SWAP1 PUSH1 0x20 ADD DUP1 DUP4 GT PUSH2 0x405 JUMPI DUP3 SWAP1 SUB PUSH1 0x1F AND DUP3 ADD SWAP2 JUMPDEST POP POP POP POP POP SWAP4 POP SWAP6 POP SWAP6 POP SWAP6 POP SWAP6 POP SWAP6 POP POP SWAP2 SWAP4 SWAP6 SWAP1 SWAP3 SWAP5 POP JUMP JUMPDEST PUSH1 0x1 SLOAD DUP2 JUMP JUMPDEST PUSH0 DUP2 GT DUP1 ISZERO PUSH2 0x454 JUMPI POP PUSH1 0x1 SLOAD DUP2 GT ISZERO JUMPDEST PUSH2 0x493 JUMPI PUSH1 0x40 MLOAD PUSH32 0x8C379A000000000000000000000000000000000000000000000000000000000 DUP2 MSTORE PUSH1 0x4 ADD PUSH2 0x48A SWAP1 PUSH2 0x10F5 JUMP JUMPDEST PUSH1 0x40 MLOAD DUP1 SWAP2 SUB SWAP1 REVERT JUMPDEST PUSH0 DUP1 PUSH0 DUP4 DUP2 MSTORE PUSH1 0x20 ADD SWAP1 DUP2 MSTORE PUSH1 0x20 ADD PUSH0 KECCAK256 SWAP1 POP DUP1 PUSH1 0x3 ADD PUSH1 0x14 SWAP1 SLOAD SWAP1 PUSH2 0x100 EXP SWAP1 DIV PUSH1 0xFF AND PUSH2 0x4F7 JUMPI PUSH1 0x40 MLOAD PUSH32 0x8C379A000000000000000000000000000000000000000000000000000000000 DUP2 MSTORE PUSH1 0x4 ADD PUSH2 0x4EE SWAP1 PUSH2 0x115D JUMP JUMPDEST PUSH1 0x40 MLOAD DUP1 SWAP2 SUB SWAP1 REVERT JUMPDEST DUP1 PUSH1 0x2 ADD SLOAD CALLVALUE EQ PUSH2 0x53D JUMPI PUSH1 0x40 MLOAD PUSH32 0x8C379A000000000000000000000000000000000000000000000000000000000 DUP2 MSTORE PUSH1 0x4 ADD PUSH2 0x534 SWAP1 PUSH2 0x11C5 JUMP JUMPDEST PUSH1 0x40 MLOAD DUP1 SWAP2 SUB SWAP1 REVERT JUMPDEST PUSH0 DUP2 PUSH1 0x3 ADD PUSH1 0x14 PUSH2 0x100 EXP DUP2 SLOAD DUP2 PUSH1 0xFF MUL NOT AND SWAP1 DUP4 ISZERO ISZERO MUL OR SWAP1 SSTORE POP PUSH32 0x5222BA5F86A58AD15E7771BD95A809F162AE1762EA7CD66E28A58217341334CC DUP3 CALLER PUSH1 0x40 MLOAD PUSH2 0x58A SWAP3 SWAP2 SWAP1 PUSH2 0x11E3 JUMP JUMPDEST PUSH1 0x40 MLOAD DUP1 SWAP2 SUB SWAP1 LOG1 POP POP JUMP JUMPDEST PUSH0 PUSH1 0x20 MSTORE DUP1 PUSH0 MSTORE PUSH1 0x40 PUSH0 KECCAK256 PUSH0 SWAP2 POP SWAP1 POP DUP1 PUSH0 ADD DUP1 SLOAD PUSH2 0x5B4 SWAP1 PUSH2 0xDC5 JUMP JUMPDEST DUP1 PUSH1 0x1F ADD PUSH1 0x20 DUP1 SWAP2 DIV MUL PUSH1 0x20 ADD PUSH1 0x40 MLOAD SWAP1 DUP2 ADD PUSH1 0x40 MSTORE DUP1 SWAP3 SWAP2 SWAP1 DUP2 DUP2 MSTORE PUSH1 0x20 ADD DUP3 DUP1 SLOAD PUSH2 0x5E0 SWAP1 PUSH2 0xDC5 JUMP JUMPDEST DUP1 ISZERO PUSH2 0x62B JUMPI DUP1 PUSH1 0x1F LT PUSH2 0x602 JUMPI PUSH2 0x100 DUP1 DUP4 SLOAD DIV MUL DUP4 MSTORE SWAP2 PUSH1 0x20 ADD SWAP2 PUSH2 0x62B JUMP JUMPDEST DUP3 ADD SWAP2 SWAP1 PUSH0 MSTORE PUSH1 0x20 PUSH0 KECCAK256 SWAP1 JUMPDEST DUP2 SLOAD DUP2 MSTORE SWAP1 PUSH1 0x1 ADD SWAP1 PUSH1 0x20 ADD DUP1 DUP4 GT PUSH2 0x60E JUMPI DUP3 SWAP1 SUB PUSH1 0x1F AND DUP3 ADD SWAP2 JUMPDEST POP POP POP POP POP SWAP1 DUP1 PUSH1 0x1 ADD DUP1 SLOAD PUSH2 0x640 SWAP1 PUSH2 0xDC5 JUMP JUMPDEST DUP1 PUSH1 0x1F ADD PUSH1 0x20 DUP1 SWAP2 DIV MUL PUSH1 0x20 ADD PUSH1 0x40 MLOAD SWAP1 DUP2 ADD PUSH1 0x40 MSTORE DUP1 SWAP3 SWAP2 SWAP1 DUP2 DUP2 MSTORE PUSH1 0x20 ADD DUP3 DUP1 SLOAD PUSH2 0x66C SWAP1 PUSH2 0xDC5 JUMP JUMPDEST DUP1 ISZERO PUSH2 0x6B7 JUMPI DUP1 PUSH1 0x1F LT PUSH2 0x68E JUMPI PUSH2 0x100 DUP1 DUP4 SLOAD DIV MUL DUP4 MSTORE SWAP2 PUSH1 0x20 ADD SWAP2 PUSH2 0x6B7 JUMP JUMPDEST DUP3 ADD SWAP2 SWAP1 PUSH0 MSTORE PUSH1 0x20 PUSH0 KECCAK256 SWAP1 JUMPDEST DUP2 SLOAD DUP2 MSTORE SWAP1 PUSH1 0x1 ADD SWAP1 PUSH1 0x20 ADD DUP1 DUP4 GT PUSH2 0x69A JUMPI DUP3 SWAP1 SUB PUSH1 0x1F AND DUP3 ADD SWAP2 JUMPDEST POP POP POP POP POP SWAP1 DUP1 PUSH1 0x2 ADD SLOAD SWAP1 DUP1 PUSH1 0x3 ADD PUSH0 SWAP1 SLOAD SWAP1 PUSH2 0x100 EXP SWAP1 DIV PUSH20 0xFFFFFFFFFFFFFFFFFFFFFFFFFFFFFFFFFFFFFFFF AND SWAP1 DUP1 PUSH1 0x3 ADD PUSH1 0x14 SWAP1 SLOAD SWAP1 PUSH2 0x100 EXP SWAP1 DIV PUSH1 0xFF AND SWAP1 POP DUP6 JUMP JUMPDEST PUSH0 DUP2 GT DUP1 ISZERO PUSH2 0x710 JUMPI POP PUSH1 0x1 SLOAD DUP2 GT ISZERO JUMPDEST PUSH2 0x74F JUMPI PUSH1 0x40 MLOAD PUSH32 0x8C379A000000000000000000000000000000000000000000000000000000000 DUP2 MSTORE PUSH1 0x4 ADD PUSH2 0x746 SWAP1 PUSH2 0x10F5 JUMP JUMPDEST PUSH1 0x40 MLOAD DUP1 SWAP2 SUB SWAP1 REVERT JUMPDEST PUSH0 DUP1 PUSH0 DUP4 DUP2 MSTORE PUSH1 0x20 ADD SWAP1 DUP2 MSTORE PUSH1 0x20 ADD PUSH0 KECCAK256 SWAP1 POP DUP1 PUSH1 0x3 ADD PUSH1 0x14 SWAP1 SLOAD SWAP1 PUSH2 0x100 EXP SWAP1 DIV PUSH1 0xFF AND ISZERO PUSH2 0x7B4 JUMPI PUSH1 0x40 MLOAD PUSH32 0x8C379A000000000000000000000000000000000000000000000000000000000 DUP2 MSTORE PUSH1 0x4 ADD PUSH2 0x7AB SWAP1 PUSH2 0x1254 JUMP JUMPDEST PUSH1 0x40 MLOAD DUP1 SWAP2 SUB SWAP1 REVERT JUMPDEST DUP1 PUSH1 0x3 ADD PUSH0 SWAP1 SLOAD SWAP1 PUSH2 0x100 EXP SWAP1 DIV PUSH20 0xFFFFFFFFFFFFFFFFFFFFFFFFFFFFFFFFFFFFFFFF AND PUSH20 0xFFFFFFFFFFFFFFFFFFFFFFFFFFFFFFFFFFFFFFFF AND CALLER PUSH20 0xFFFFFFFFFFFFFFFFFFFFFFFFFFFFFFFFFFFFFFFF AND SUB PUSH2 0x845 JUMPI PUSH1 0x40 MLOAD PUSH32 0x8C379A000000000000000000000000000000000000000000000000000000000 DUP2 MSTORE PUSH1 0x4 ADD PUSH2 0x83C SWAP1 PUSH2 0x12E2 JUMP JUMPDEST PUSH1 0x40 MLOAD DUP1 SWAP2 SUB SWAP1 REVERT JUMPDEST DUP1 PUSH1 0x3 ADD PUSH0 SWAP1 SLOAD SWAP1 PUSH2 0x100 EXP SWAP1 DIV PUSH20 0xFFFFFFFFFFFFFFFFFFFFFFFFFFFFFFFFFFFFFFFF AND PUSH20 0xFFFFFFFFFFFFFFFFFFFFFFFFFFFFFFFFFFFFFFFF AND PUSH2 0x8FC DUP3 PUSH1 0x2 ADD SLOAD SWAP1 DUP2 ISZERO MUL SWAP1 PUSH1 0x40 MLOAD PUSH0 PUSH1 0x40 MLOAD DUP1 DUP4 SUB DUP2 DUP6 DUP9 DUP9 CALL SWAP4 POP POP POP POP ISZERO DUP1 ISZERO PUSH2 0x8AF JUMPI RETURNDATASIZE PUSH0 DUP1 RETURNDATACOPY RETURNDATASIZE PUSH0 REVERT JUMPDEST POP PUSH32 0xDC8B3E3BD87B1ED41B4CFF3B9AB24F89261ED2B876257D5D33ED0C3472BACAF6 DUP3 CALLER DUP4 PUSH1 0x3 ADD PUSH0 SWAP1 SLOAD SWAP1 PUSH2 0x100 EXP SWAP1 DIV PUSH20 0xFFFFFFFFFFFFFFFFFFFFFFFFFFFFFFFFFFFFFFFF AND DUP5 PUSH1 0x2 ADD SLOAD PUSH1 0x40 MLOAD PUSH2 0x90C SWAP5 SWAP4 SWAP3 SWAP2 SWAP1 PUSH2 0x1352 JUMP JUMPDEST PUSH1 0x40 MLOAD DUP1 SWAP2 SUB SWAP1 LOG1 POP POP JUMP JUMPDEST PUSH0 PUSH1 0x40 MLOAD SWAP1 POP SWAP1 JUMP JUMPDEST PUSH0 DUP1 REVERT JUMPDEST PUSH0 DUP1 REVERT JUMPDEST PUSH0 DUP1 REVERT JUMPDEST PUSH0 DUP1 REVERT JUMPDEST PUSH0 PUSH1 0x1F NOT PUSH1 0x1F DUP4 ADD AND SWAP1 POP SWAP2 SWAP1 POP JUMP JUMPDEST PUSH32 0x4E487B7100000000000000000000000000000000000000000000000000000000 PUSH0 MSTORE PUSH1 0x41 PUSH1 0x4 MSTORE PUSH1 0x24 PUSH0 REVERT JUMPDEST PUSH2 0x977 DUP3 PUSH2 0x931 JUMP JUMPDEST DUP2 ADD DUP2 DUP2 LT PUSH8 0xFFFFFFFFFFFFFFFF DUP3 GT OR ISZERO PUSH2 0x996 JUMPI PUSH2 0x995 PUSH2 0x941 JUMP JUMPDEST JUMPDEST DUP1 PUSH1 0x40 MSTORE POP POP POP JUMP JUMPDEST PUSH0 PUSH2 0x9A8 PUSH2 0x918 JUMP JUMPDEST SWAP1 POP PUSH2 0x9B4 DUP3 DUP3 PUSH2 0x96E JUMP JUMPDEST SWAP2 SWAP1 POP JUMP JUMPDEST PUSH0 PUSH8 0xFFFFFFFFFFFFFFFF DUP3 GT ISZERO PUSH2 0x9D3 JUMPI PUSH2 0x9D2 PUSH2 0x941 JUMP JUMPDEST JUMPDEST PUSH2 0x9DC DUP3 PUSH2 0x931 JUMP JUMPDEST SWAP1 POP PUSH1 0x20 DUP2 ADD SWAP1 POP SWAP2 SWAP1 POP JUMP JUMPDEST DUP3 DUP2 DUP4 CALLDATACOPY PUSH0 DUP4 DUP4 ADD MSTORE POP POP POP JUMP JUMPDEST PUSH0 PUSH2 0xA09 PUSH2 0xA04 DUP5 PUSH2 0x9B9 JUMP JUMPDEST PUSH2 0x99F JUMP JUMPDEST SWAP1 POP DUP3 DUP2 MSTORE PUSH1 0x20 DUP2 ADD DUP5 DUP5 DUP5 ADD GT ISZERO PUSH2 0xA25 JUMPI PUSH2 0xA24 PUSH2 0x92D JUMP JUMPDEST JUMPDEST PUSH2 0xA30 DUP5 DUP3 DUP6 PUSH2 0x9E9 JUMP JUMPDEST POP SWAP4 SWAP3 POP POP POP JUMP JUMPDEST PUSH0 DUP3 PUSH1 0x1F DUP4 ADD SLT PUSH2 0xA4C JUMPI PUSH2 0xA4B PUSH2 0x929 JUMP JUMPDEST JUMPDEST DUP2 CALLDATALOAD PUSH2 0xA5C DUP5 DUP3 PUSH1 0x20 DUP7 ADD PUSH2 0x9F7 JUMP JUMPDEST SWAP2 POP POP SWAP3 SWAP2 POP POP JUMP JUMPDEST PUSH0 DUP2 SWAP1 POP SWAP2 SWAP1 POP JUMP JUMPDEST PUSH2 0xA77 DUP2 PUSH2 0xA65 JUMP JUMPDEST DUP2 EQ PUSH2 0xA81 JUMPI PUSH0 DUP1 REVERT JUMPDEST POP JUMP JUMPDEST PUSH0 DUP2 CALLDATALOAD SWAP1 POP PUSH2 0xA92 DUP2 PUSH2 0xA6E JUMP JUMPDEST SWAP3 SWAP2 POP POP JUMP JUMPDEST PUSH0 DUP1 PUSH0 PUSH1 0x60 DUP5 DUP7 SUB SLT ISZERO PUSH2 0xAAF JUMPI PUSH2 0xAAE PUSH2 0x921 JUMP JUMPDEST JUMPDEST PUSH0 DUP5 ADD CALLDATALOAD PUSH8 0xFFFFFFFFFFFFFFFF DUP2 GT ISZERO PUSH2 0xACC JUMPI PUSH2 0xACB PUSH2 0x925 JUMP JUMPDEST JUMPDEST PUSH2 0xAD8 DUP7 DUP3 DUP8 ADD PUSH2 0xA38 JUMP JUMPDEST SWAP4 POP POP PUSH1 0x20 DUP5 ADD CALLDATALOAD PUSH8 0xFFFFFFFFFFFFFFFF DUP2 GT ISZERO PUSH2 0xAF9 JUMPI PUSH2 0xAF8 PUSH2 0x925 JUMP JUMPDEST JUMPDEST PUSH2 0xB05 DUP7 DUP3 DUP8 ADD PUSH2 0xA38 JUMP JUMPDEST SWAP3 POP POP PUSH1 0x40 PUSH2 0xB16 DUP7 DUP3 DUP8 ADD PUSH2 0xA84 JUMP JUMPDEST SWAP2 POP POP SWAP3 POP SWAP3 POP SWAP3 JUMP JUMPDEST PUSH0 PUSH1 0x20 DUP3 DUP5 SUB SLT ISZERO PUSH2 0xB35 JUMPI PUSH2 0xB34 PUSH2 0x921 JUMP JUMPDEST JUMPDEST PUSH0 PUSH2 0xB42 DUP5 DUP3 DUP6 ADD PUSH2 0xA84 JUMP JUMPDEST SWAP2 POP POP SWAP3 SWAP2 POP POP JUMP JUMPDEST PUSH0 DUP2 MLOAD SWAP1 POP SWAP2 SWAP1 POP JUMP JUMPDEST PUSH0 DUP3 DUP3 MSTORE PUSH1 0x20 DUP3 ADD SWAP1 POP SWAP3 SWAP2 POP POP JUMP JUMPDEST PUSH0 JUMPDEST DUP4 DUP2 LT ISZERO PUSH2 0xB82 JUMPI DUP1 DUP3 ADD MLOAD DUP2 DUP5 ADD MSTORE PUSH1 0x20 DUP2 ADD SWAP1 POP PUSH2 0xB67 JUMP JUMPDEST PUSH0 DUP5 DUP5 ADD MSTORE POP POP POP POP JUMP JUMPDEST PUSH0 PUSH2 0xB97 DUP3 PUSH2 0xB4B JUMP JUMPDEST PUSH2 0xBA1 DUP2 DUP6 PUSH2 0xB55 JUMP JUMPDEST SWAP4 POP PUSH2 0xBB1 DUP2 DUP6 PUSH1 0x20 DUP7 ADD PUSH2 0xB65 JUMP JUMPDEST PUSH2 0xBBA DUP2 PUSH2 0x931 JUMP JUMPDEST DUP5 ADD SWAP2 POP POP SWAP3 SWAP2 POP POP JUMP JUMPDEST PUSH2 0xBCE DUP2 PUSH2 0xA65 JUMP JUMPDEST DUP3 MSTORE POP POP JUMP JUMPDEST PUSH0 PUSH20 0xFFFFFFFFFFFFFFFFFFFFFFFFFFFFFFFFFFFFFFFF DUP3 AND SWAP1 POP SWAP2 SWAP1 POP JUMP JUMPDEST PUSH0 PUSH2 0xBFD DUP3 PUSH2 0xBD4 JUMP JUMPDEST SWAP1 POP SWAP2 SWAP1 POP JUMP JUMPDEST PUSH2 0xC0D DUP2 PUSH2 0xBF3 JUMP JUMPDEST DUP3 MSTORE POP POP JUMP JUMPDEST PUSH0 DUP2 ISZERO ISZERO SWAP1 POP SWAP2 SWAP1 POP JUMP JUMPDEST PUSH2 0xC27 DUP2 PUSH2 0xC13 JUMP JUMPDEST DUP3 MSTORE POP POP JUMP JUMPDEST PUSH0 PUSH1 0xA0 DUP3 ADD SWAP1 POP DUP2 DUP2 SUB PUSH0 DUP4 ADD MSTORE PUSH2 0xC45 DUP2 DUP9 PUSH2 0xB8D JUMP JUMPDEST SWAP1 POP DUP2 DUP2 SUB PUSH1 0x20 DUP4 ADD MSTORE PUSH2 0xC59 DUP2 DUP8 PUSH2 0xB8D JUMP JUMPDEST SWAP1 POP PUSH2 0xC68 PUSH1 0x40 DUP4 ADD DUP7 PUSH2 0xBC5 JUMP JUMPDEST PUSH2 0xC75 PUSH1 0x60 DUP4 ADD DUP6 PUSH2 0xC04 JUMP JUMPDEST PUSH2 0xC82 PUSH1 0x80 DUP4 ADD DUP5 PUSH2 0xC1E JUMP JUMPDEST SWAP7 SWAP6 POP POP POP POP POP POP JUMP JUMPDEST PUSH0 PUSH1 0x20 DUP3 ADD SWAP1 POP PUSH2 0xC9F PUSH0 DUP4 ADD DUP5 PUSH2 0xBC5 JUMP JUMPDEST SWAP3 SWAP2 POP POP JUMP JUMPDEST PUSH0 PUSH2 0xCAF DUP3 PUSH2 0xBD4 JUMP JUMPDEST SWAP1 POP SWAP2 SWAP1 POP JUMP JUMPDEST PUSH2 0xCBF DUP2 PUSH2 0xCA5 JUMP JUMPDEST DUP3 MSTORE POP POP JUMP JUMPDEST PUSH0 PUSH1 0xA0 DUP3 ADD SWAP1 POP DUP2 DUP2 SUB PUSH0 DUP4 ADD MSTORE PUSH2 0xCDD DUP2 DUP9 PUSH2 0xB8D JUMP JUMPDEST SWAP1 POP DUP2 DUP2 SUB PUSH1 0x20 DUP4 ADD MSTORE PUSH2 0xCF1 DUP2 DUP8 PUSH2 0xB8D JUMP JUMPDEST SWAP1 POP PUSH2 0xD00 PUSH1 0x40 DUP4 ADD DUP7 PUSH2 0xBC5 JUMP JUMPDEST PUSH2 0xD0D PUSH1 0x60 DUP4 ADD DUP6 PUSH2 0xCB6 JUMP JUMPDEST PUSH2 0xD1A PUSH1 0x80 DUP4 ADD DUP5 PUSH2 0xC1E JUMP JUMPDEST SWAP7 SWAP6 POP POP POP POP POP POP JUMP JUMPDEST PUSH32 0x4E487B7100000000000000000000000000000000000000000000000000000000 PUSH0 MSTORE PUSH1 0x11 PUSH1 0x4 MSTORE PUSH1 0x24 PUSH0 REVERT JUMPDEST PUSH0 PUSH2 0xD5B DUP3 PUSH2 0xA65 JUMP JUMPDEST SWAP2 POP PUSH32 0xFFFFFFFFFFFFFFFFFFFFFFFFFFFFFFFFFFFFFFFFFFFFFFFFFFFFFFFFFFFFFFFF DUP3 SUB PUSH2 0xD8D JUMPI PUSH2 0xD8C PUSH2 0xD24 JUMP JUMPDEST JUMPDEST PUSH1 0x1 DUP3 ADD SWAP1 POP SWAP2 SWAP1 POP JUMP JUMPDEST PUSH32 0x4E487B7100000000000000000000000000000000000000000000000000000000 PUSH0 MSTORE PUSH1 0x22 PUSH1 0x4 MSTORE PUSH1 0x24 PUSH0 REVERT JUMPDEST PUSH0 PUSH1 0x2 DUP3 DIV SWAP1 POP PUSH1 0x1 DUP3 AND DUP1 PUSH2 0xDDC JUMPI PUSH1 0x7F DUP3 AND SWAP2 POP JUMPDEST PUSH1 0x20 DUP3 LT DUP2 SUB PUSH2 0xDEF JUMPI PUSH2 0xDEE PUSH2 0xD98 JUMP JUMPDEST JUMPDEST POP SWAP2 SWAP1 POP JUMP JUMPDEST PUSH0 DUP2 SWAP1 POP DUP2 PUSH0 MSTORE PUSH1 0x20 PUSH0 KECCAK256 SWAP1 POP SWAP2 SWAP1 POP JUMP JUMPDEST PUSH0 PUSH1 0x20 PUSH1 0x1F DUP4 ADD DIV SWAP1 POP SWAP2 SWAP1 POP JUMP JUMPDEST PUSH0 DUP3 DUP3 SHL SWAP1 POP SWAP3 SWAP2 POP POP JUMP JUMPDEST PUSH0 PUSH1 0x8 DUP4 MUL PUSH2 0xE51 PUSH32 0xFFFFFFFFFFFFFFFFFFFFFFFFFFFFFFFFFFFFFFFFFFFFFFFFFFFFFFFFFFFFFFFF DUP3 PUSH2 0xE16 JUMP JUMPDEST PUSH2 0xE5B DUP7 DUP4 PUSH2 0xE16 JUMP JUMPDEST SWAP6 POP DUP1 NOT DUP5 AND SWAP4 POP DUP1 DUP7 AND DUP5 OR SWAP3 POP POP POP SWAP4 SWAP3 POP POP POP JUMP JUMPDEST PUSH0 DUP2 SWAP1 POP SWAP2 SWAP1 POP JUMP JUMPDEST PUSH0 PUSH2 0xE96 PUSH2 0xE91 PUSH2 0xE8C DUP5 PUSH2 0xA65 JUMP JUMPDEST PUSH2 0xE73 JUMP JUMPDEST PUSH2 0xA65 JUMP JUMPDEST SWAP1 POP SWAP2 SWAP1 POP JUMP JUMPDEST PUSH0 DUP2 SWAP1 POP SWAP2 SWAP1 POP JUMP JUMPDEST PUSH2 0xEAF DUP4 PUSH2 0xE7C JUMP JUMPDEST PUSH2 0xEC3 PUSH2 0xEBB DUP3 PUSH2 0xE9D JUMP JUMPDEST DUP5 DUP5 SLOAD PUSH2 0xE22 JUMP JUMPDEST DUP3 SSTORE POP POP POP POP JUMP JUMPDEST PUSH0 SWAP1 JUMP JUMPDEST PUSH2 0xED7 PUSH2 0xECB JUMP JUMPDEST PUSH2 0xEE2 DUP2 DUP5 DUP5 PUSH2 0xEA6 JUMP JUMPDEST POP POP POP JUMP JUMPDEST JUMPDEST DUP2 DUP2 LT ISZERO PUSH2 0xF05 JUMPI PUSH2 0xEFA PUSH0 DUP3 PUSH2 0xECF JUMP JUMPDEST PUSH1 0x1 DUP2 ADD SWAP1 POP PUSH2 0xEE8 JUMP JUMPDEST POP POP JUMP JUMPDEST PUSH1 0x1F DUP3 GT ISZERO PUSH2 0xF4A JUMPI PUSH2 0xF1B DUP2 PUSH2 0xDF5 JUMP JUMPDEST PUSH2 0xF24 DUP5 PUSH2 0xE07 JUMP JUMPDEST DUP2 ADD PUSH1 0x20 DUP6 LT ISZERO PUSH2 0xF33 JUMPI DUP2 SWAP1 POP JUMPDEST PUSH2 0xF47 PUSH2 0xF3F DUP6 PUSH2 0xE07 JUMP JUMPDEST DUP4 ADD DUP3 PUSH2 0xEE7 JUMP JUMPDEST POP POP JUMPDEST POP POP POP JUMP JUMPDEST PUSH0 DUP3 DUP3 SHR SWAP1 POP SWAP3 SWAP2 POP POP JUMP JUMPDEST PUSH0 PUSH2 0xF6A PUSH0 NOT DUP5 PUSH1 0x8 MUL PUSH2 0xF4F JUMP JUMPDEST NOT DUP1 DUP4 AND SWAP2 POP POP SWAP3 SWAP2 POP POP JUMP JUMPDEST PUSH0 PUSH2 0xF82 DUP4 DUP4 PUSH2 0xF5B JUMP JUMPDEST SWAP2 POP DUP3 PUSH1 0x2 MUL DUP3 OR SWAP1 POP SWAP3 SWAP2 POP POP JUMP JUMPDEST PUSH2 0xF9B DUP3 PUSH2 0xB4B JUMP JUMPDEST PUSH8 0xFFFFFFFFFFFFFFFF DUP2 GT ISZERO PUSH2 0xFB4 JUMPI PUSH2 0xFB3 PUSH2 0x941 JUMP JUMPDEST JUMPDEST PUSH2 0xFBE DUP3 SLOAD PUSH2 0xDC5 JUMP JUMPDEST PUSH2 0xFC9 DUP3 DUP3 DUP6 PUSH2 0xF09 JUMP JUMPDEST PUSH0 PUSH1 0x20 SWAP1 POP PUSH1 0x1F DUP4 GT PUSH1 0x1 DUP2 EQ PUSH2 0xFFA JUMPI PUSH0 DUP5 ISZERO PUSH2 0xFE8 JUMPI DUP3 DUP8 ADD MLOAD SWAP1 POP JUMPDEST PUSH2 0xFF2 DUP6 DUP3 PUSH2 0xF77 JUMP JUMPDEST DUP7 SSTORE POP PUSH2 0x1059 JUMP JUMPDEST PUSH1 0x1F NOT DUP5 AND PUSH2 0x1008 DUP7 PUSH2 0xDF5 JUMP JUMPDEST PUSH0 JUMPDEST DUP3 DUP2 LT ISZERO PUSH2 0x102F JUMPI DUP5 DUP10 ADD MLOAD DUP3 SSTORE PUSH1 0x1 DUP3 ADD SWAP2 POP PUSH1 0x20 DUP6 ADD SWAP5 POP PUSH1 0x20 DUP2 ADD SWAP1 POP PUSH2 0x100A JUMP JUMPDEST DUP7 DUP4 LT ISZERO PUSH2 0x104C JUMPI DUP5 DUP10 ADD MLOAD PUSH2 0x1048 PUSH1 0x1F DUP10 AND DUP3 PUSH2 0xF5B JUMP JUMPDEST DUP4 SSTORE POP JUMPDEST PUSH1 0x1 PUSH1 0x2 DUP9 MUL ADD DUP9 SSTORE POP POP POP JUMPDEST POP POP POP POP POP POP JUMP JUMPDEST PUSH0 PUSH1 0x80 DUP3 ADD SWAP1 POP PUSH2 0x1074 PUSH0 DUP4 ADD DUP8 PUSH2 0xBC5 JUMP JUMPDEST DUP2 DUP2 SUB PUSH1 0x20 DUP4 ADD MSTORE PUSH2 0x1086 DUP2 DUP7 PUSH2 0xB8D JUMP JUMPDEST SWAP1 POP PUSH2 0x1095 PUSH1 0x40 DUP4 ADD DUP6 PUSH2 0xBC5 JUMP JUMPDEST PUSH2 0x10A2 PUSH1 0x60 DUP4 ADD DUP5 PUSH2 0xC04 JUMP JUMPDEST SWAP6 SWAP5 POP POP POP POP POP JUMP JUMPDEST PUSH32 0x496E76616C6964206974656D2049440000000000000000000000000000000000 PUSH0 DUP3 ADD MSTORE POP JUMP JUMPDEST PUSH0 PUSH2 0x10DF PUSH1 0xF DUP4 PUSH2 0xB55 JUMP JUMPDEST SWAP2 POP PUSH2 0x10EA DUP3 PUSH2 0x10AB JUMP JUMPDEST PUSH1 0x20 DUP3 ADD SWAP1 POP SWAP2 SWAP1 POP JUMP JUMPDEST PUSH0 PUSH1 0x20 DUP3 ADD SWAP1 POP DUP2 DUP2 SUB PUSH0 DUP4 ADD MSTORE PUSH2 0x110C DUP2 PUSH2 0x10D3 JUMP JUMPDEST SWAP1 POP SWAP2 SWAP1 POP JUMP JUMPDEST PUSH32 0x4974656D206973206E6F7420617661696C61626C650000000000000000000000 PUSH0 DUP3 ADD MSTORE POP JUMP JUMPDEST PUSH0 PUSH2 0x1147 PUSH1 0x15 DUP4 PUSH2 0xB55 JUMP JUMPDEST SWAP2 POP PUSH2 0x1152 DUP3 PUSH2 0x1113 JUMP JUMPDEST PUSH1 0x20 DUP3 ADD SWAP1 POP SWAP2 SWAP1 POP JUMP JUMPDEST PUSH0 PUSH1 0x20 DUP3 ADD SWAP1 POP DUP2 DUP2 SUB PUSH0 DUP4 ADD MSTORE PUSH2 0x1174 DUP2 PUSH2 0x113B JUMP JUMPDEST SWAP1 POP SWAP2 SWAP1 POP JUMP JUMPDEST PUSH32 0x496E636F7272656374207061796D656E7420616D6F756E740000000000000000 PUSH0 DUP3 ADD MSTORE POP JUMP JUMPDEST PUSH0 PUSH2 0x11AF PUSH1 0x18 DUP4 PUSH2 0xB55 JUMP JUMPDEST SWAP2 POP PUSH2 0x11BA DUP3 PUSH2 0x117B JUMP JUMPDEST PUSH1 0x20 DUP3 ADD SWAP1 POP SWAP2 SWAP1 POP JUMP JUMPDEST PUSH0 PUSH1 0x20 DUP3 ADD SWAP1 POP DUP2 DUP2 SUB PUSH0 DUP4 ADD MSTORE PUSH2 0x11DC DUP2 PUSH2 0x11A3 JUMP JUMPDEST SWAP1 POP SWAP2 SWAP1 POP JUMP JUMPDEST PUSH0 PUSH1 0x40 DUP3 ADD SWAP1 POP PUSH2 0x11F6 PUSH0 DUP4 ADD DUP6 PUSH2 0xBC5 JUMP JUMPDEST PUSH2 0x1203 PUSH1 0x20 DUP4 ADD DUP5 PUSH2 0xC04 JUMP JUMPDEST SWAP4 SWAP3 POP POP POP JUMP JUMPDEST PUSH32 0x4974656D206973207374696C6C20617661696C61626C65000000000000000000 PUSH0 DUP3 ADD MSTORE POP JUMP JUMPDEST PUSH0 PUSH2 0x123E PUSH1 0x17 DUP4 PUSH2 0xB55 JUMP JUMPDEST SWAP2 POP PUSH2 0x1249 DUP3 PUSH2 0x120A JUMP JUMPDEST PUSH1 0x20 DUP3 ADD SWAP1 POP SWAP2 SWAP1 POP JUMP JUMPDEST PUSH0 PUSH1 0x20 DUP3 ADD SWAP1 POP DUP2 DUP2 SUB PUSH0 DUP4 ADD MSTORE PUSH2 0x126B DUP2 PUSH2 0x1232 JUMP JUMPDEST SWAP1 POP SWAP2 SWAP1 POP JUMP JUMPDEST PUSH32 0x53656C6C65722063616E6E6F7420636F6D706C65746520746865207472616E73 PUSH0 DUP3 ADD MSTORE PUSH32 0x616374696F6E0000000000000000000000000000000000000000000000000000 PUSH1 0x20 DUP3 ADD MSTORE POP JUMP JUMPDEST PUSH0 PUSH2 0x12CC PUSH1 0x26 DUP4 PUSH2 0xB55 JUMP JUMPDEST SWAP2 POP PUSH2 0x12D7 DUP3 PUSH2 0x1272 JUMP JUMPDEST PUSH1 0x40 DUP3 ADD SWAP1 POP SWAP2 SWAP1 POP JUMP JUMPDEST PUSH0 PUSH1 0x20 DUP3 ADD SWAP1 POP DUP2 DUP2 SUB PUSH0 DUP4 ADD MSTORE PUSH2 0x12F9 DUP2 PUSH2 0x12C0 JUMP JUMPDEST SWAP1 POP SWAP2 SWAP1 POP JUMP JUMPDEST PUSH0 PUSH2 0x131A PUSH2 0x1315 PUSH2 0x1310 DUP5 PUSH2 0xBD4 JUMP JUMPDEST PUSH2 0xE73 JUMP JUMPDEST PUSH2 0xBD4 JUMP JUMPDEST SWAP1 POP SWAP2 SWAP1 POP JUMP JUMPDEST PUSH0 PUSH2 0x132B DUP3 PUSH2 0x1300 JUMP JUMPDEST SWAP1 POP SWAP2 SWAP1 POP JUMP JUMPDEST PUSH0 PUSH2 0x133C DUP3 PUSH2 0x1321 JUMP JUMPDEST SWAP1 POP SWAP2 SWAP1 POP JUMP JUMPDEST PUSH2 0x134C DUP2 PUSH2 0x1332 JUMP JUMPDEST DUP3 MSTORE POP POP JUMP JUMPDEST PUSH0 PUSH1 0x80 DUP3 ADD SWAP1 POP PUSH2 0x1365 PUSH0 DUP4 ADD DUP8 PUSH2 0xBC5 JUMP JUMPDEST PUSH2 0x1372 PUSH1 0x20 DUP4 ADD DUP7 PUSH2 0xC04 JUMP JUMPDEST PUSH2 0x137F PUSH1 0x40 DUP4 ADD DUP6 PUSH2 0x1343 JUMP JUMPDEST PUSH2 0x138C PUSH1 0x60 DUP4 ADD DUP5 PUSH2 0xBC5 JUMP JUMPDEST SWAP6 SWAP5 POP POP POP POP POP JUMP INVALID LOG2 PUSH5 0x6970667358 0x22 SLT KECCAK256 0x27 LOG2 CALL 0xAD 0xAB GASLIMIT 0xB7 BYTE CREATE2 RETURNDATACOPY 0xED SSTORE GT 0x5E 0xCB SMOD LOG1 0x2A 0xB5 PUSH27 0x949396E8B276FADD59BDEBF564736F6C6343000814003300000000 "
				},
				"gasEstimates": {
					"creation": {
						"codeDepositCost": "1013400",
						"executionCost": "6065",
						"totalCost": "1019465"
					},
					"external": {
						"completeTransaction(uint256)": "infinite",
						"getItem(uint256)": "infinite",
						"itemCount()": "2447",
						"items(uint256)": "infinite",
						"listItem(string,string,uint256)": "infinite",
						"placeOrder(uint256)": "infinite"
					}
				},
				"methodIdentifiers": {
					"completeTransaction(uint256)": "f5e83e17",
					"getItem(uint256)": "3129e773",
					"itemCount()": "6bfb0d01",
					"items(uint256)": "bfb231d2",
					"listItem(string,string,uint256)": "0562021c",
					"placeOrder(uint256)": "ba2255f4"
				}
			},
			"storageLayout": {
				"storage": [
					{
						"astId": 17,
						"contract": "contracts/Marketplace.sol:Marketplace",
						"label": "items",
						"offset": 0,
						"slot": "0",
						"type": "t_mapping(t_uint256,t_struct(Item)12_storage)"
					},
					{
						"astId": 19,
						"contract": "contracts/Marketplace.sol:Marketplace",
						"label": "itemCount",
						"offset": 0,
						"slot": "1",
						"type": "t_uint256"
					}
				],
				"types": {
					"t_address_payable": {
						"encoding": "inplace",
						"label": "address payable",
						"numberOfBytes": "20"
					},
					"t_bool": {
						"encoding": "inplace",
						"label": "bool",
						"numberOfBytes": "1"
					},
					"t_mapping(t_uint256,t_struct(Item)12_storage)": {
						"encoding": "mapping",
						"key": "t_uint256",
						"label": "mapping(uint256 => struct Marketplace.Item)",
						"numberOfBytes": "32",
						"value": "t_struct(Item)12_storage"
					},
					"t_string_storage": {
						"encoding": "bytes",
						"label": "string",
						"numberOfBytes": "32"
					},
					"t_struct(Item)12_storage": {
						"encoding": "inplace",
						"label": "struct Marketplace.Item",
						"members": [
							{
								"astId": 3,
								"contract": "contracts/Marketplace.sol:Marketplace",
								"label": "name",
								"offset": 0,
								"slot": "0",
								"type": "t_string_storage"
							},
							{
								"astId": 5,
								"contract": "contracts/Marketplace.sol:Marketplace",
								"label": "description",
								"offset": 0,
								"slot": "1",
								"type": "t_string_storage"
							},
							{
								"astId": 7,
								"contract": "contracts/Marketplace.sol:Marketplace",
								"label": "price",
								"offset": 0,
								"slot": "2",
								"type": "t_uint256"
							},
							{
								"astId": 9,
								"contract": "contracts/Marketplace.sol:Marketplace",
								"label": "seller",
								"offset": 0,
								"slot": "3",
								"type": "t_address_payable"
							},
							{
								"astId": 11,
								"contract": "contracts/Marketplace.sol:Marketplace",
								"label": "available",
								"offset": 20,
								"slot": "3",
								"type": "t_bool"
							}
						],
						"numberOfBytes": "128"
					},
					"t_uint256": {
						"encoding": "inplace",
						"label": "uint256",
						"numberOfBytes": "32"
					}
				}
			},
			"userdoc": {
				"kind": "user",
				"methods": {},
				"version": 1
			}
		}
	}
}